{
	"test/可升级合约/Logic2.sol": {
		"Logic2": {
			"abi": [
				{
					"inputs": [],
					"name": "decrementValue",
					"outputs": [],
					"stateMutability": "nonpayable",
					"type": "function"
				},
				{
					"inputs": [],
					"name": "getValue",
					"outputs": [
						{
							"internalType": "uint256",
							"name": "",
							"type": "uint256"
						}
					],
					"stateMutability": "view",
					"type": "function"
				},
				{
					"inputs": [],
					"name": "incrementValue",
					"outputs": [],
					"stateMutability": "nonpayable",
					"type": "function"
				},
				{
					"inputs": [
						{
							"internalType": "uint256",
							"name": "_value",
							"type": "uint256"
						}
					],
					"name": "setValue",
					"outputs": [],
					"stateMutability": "nonpayable",
					"type": "function"
				}
			],
			"devdoc": {
				"kind": "dev",
				"methods": {},
				"version": 1
			},
			"evm": {
				"assembly": "    /* \"test/\\xe5\\x8f\\xaf\\xe5\\x8d\\x87\\xe7\\xba\\xa7\\xe5\\x90\\x88\\xe7\\xba\\xa6/Logic2.sol\":61:401  contract Logic2{... */\n  mstore(0x40, 0x80)\n  callvalue\n  dup1\n  iszero\n  tag_1\n  jumpi\n  0x00\n  dup1\n  revert\ntag_1:\n  pop\n  dataSize(sub_0)\n  dup1\n  dataOffset(sub_0)\n  0x00\n  codecopy\n  0x00\n  return\nstop\n\nsub_0: assembly {\n        /* \"test/\\xe5\\x8f\\xaf\\xe5\\x8d\\x87\\xe7\\xba\\xa7\\xe5\\x90\\x88\\xe7\\xba\\xa6/Logic2.sol\":61:401  contract Logic2{... */\n      mstore(0x40, 0x80)\n      callvalue\n      dup1\n      iszero\n      tag_1\n      jumpi\n      0x00\n      dup1\n      revert\n    tag_1:\n      pop\n      jumpi(tag_2, lt(calldatasize, 0x04))\n      shr(0xe0, calldataload(0x00))\n      dup1\n      0x16b78191\n      eq\n      tag_3\n      jumpi\n      dup1\n      0x20965255\n      eq\n      tag_4\n      jumpi\n      dup1\n      0x3bfd7fd3\n      eq\n      tag_5\n      jumpi\n      dup1\n      0x55241077\n      eq\n      tag_6\n      jumpi\n    tag_2:\n      0x00\n      dup1\n      revert\n        /* \"test/\\xe5\\x8f\\xaf\\xe5\\x8d\\x87\\xe7\\xba\\xa7\\xe5\\x90\\x88\\xe7\\xba\\xa6/Logic2.sol\":337:396  function decrementValue() public {... */\n    tag_3:\n      tag_7\n      tag_8\n      jump\t// in\n    tag_7:\n      stop\n        /* \"test/\\xe5\\x8f\\xaf\\xe5\\x8d\\x87\\xe7\\xba\\xa7\\xe5\\x90\\x88\\xe7\\xba\\xa6/Logic2.sol\":112:189  function getValue() view public returns (uint){... */\n    tag_4:\n      tag_9\n      tag_10\n      jump\t// in\n    tag_9:\n      mload(0x40)\n      tag_11\n      swap2\n      swap1\n      tag_12\n      jump\t// in\n    tag_11:\n      mload(0x40)\n      dup1\n      swap2\n      sub\n      swap1\n      return\n        /* \"test/\\xe5\\x8f\\xaf\\xe5\\x8d\\x87\\xe7\\xba\\xa7\\xe5\\x90\\x88\\xe7\\xba\\xa6/Logic2.sol\":272:331  function incrementValue() public {... */\n    tag_5:\n      tag_13\n      tag_14\n      jump\t// in\n    tag_13:\n      stop\n        /* \"test/\\xe5\\x8f\\xaf\\xe5\\x8d\\x87\\xe7\\xba\\xa7\\xe5\\x90\\x88\\xe7\\xba\\xa6/Logic2.sol\":197:266  function setValue(uint _value) public {... */\n    tag_6:\n      tag_15\n      0x04\n      dup1\n      calldatasize\n      sub\n      dup2\n      add\n      swap1\n      tag_16\n      swap2\n      swap1\n      tag_17\n      jump\t// in\n    tag_16:\n      tag_18\n      jump\t// in\n    tag_15:\n      stop\n        /* \"test/\\xe5\\x8f\\xaf\\xe5\\x8d\\x87\\xe7\\xba\\xa7\\xe5\\x90\\x88\\xe7\\xba\\xa6/Logic2.sol\":337:396  function decrementValue() public {... */\n    tag_8:\n        /* \"test/\\xe5\\x8f\\xaf\\xe5\\x8d\\x87\\xe7\\xba\\xa7\\xe5\\x90\\x88\\xe7\\xba\\xa6/Logic2.sol\":381:386  value */\n      0x00\n      dup1\n        /* \"test/\\xe5\\x8f\\xaf\\xe5\\x8d\\x87\\xe7\\xba\\xa7\\xe5\\x90\\x88\\xe7\\xba\\xa6/Logic2.sol\":381:388  value-- */\n      dup2\n      sload\n      dup1\n      swap3\n      swap2\n      swap1\n      tag_20\n      swap1\n      tag_21\n      jump\t// in\n    tag_20:\n      swap2\n      swap1\n      pop\n      sstore\n      pop\n        /* \"test/\\xe5\\x8f\\xaf\\xe5\\x8d\\x87\\xe7\\xba\\xa7\\xe5\\x90\\x88\\xe7\\xba\\xa6/Logic2.sol\":337:396  function decrementValue() public {... */\n      jump\t// out\n        /* \"test/\\xe5\\x8f\\xaf\\xe5\\x8d\\x87\\xe7\\xba\\xa7\\xe5\\x90\\x88\\xe7\\xba\\xa6/Logic2.sol\":112:189  function getValue() view public returns (uint){... */\n    tag_10:\n        /* \"test/\\xe5\\x8f\\xaf\\xe5\\x8d\\x87\\xe7\\xba\\xa7\\xe5\\x90\\x88\\xe7\\xba\\xa6/Logic2.sol\":153:157  uint */\n      0x00\n        /* \"test/\\xe5\\x8f\\xaf\\xe5\\x8d\\x87\\xe7\\xba\\xa7\\xe5\\x90\\x88\\xe7\\xba\\xa6/Logic2.sol\":176:181  value */\n      dup1\n      sload\n        /* \"test/\\xe5\\x8f\\xaf\\xe5\\x8d\\x87\\xe7\\xba\\xa7\\xe5\\x90\\x88\\xe7\\xba\\xa6/Logic2.sol\":169:181  return value */\n      swap1\n      pop\n        /* \"test/\\xe5\\x8f\\xaf\\xe5\\x8d\\x87\\xe7\\xba\\xa7\\xe5\\x90\\x88\\xe7\\xba\\xa6/Logic2.sol\":112:189  function getValue() view public returns (uint){... */\n      swap1\n      jump\t// out\n        /* \"test/\\xe5\\x8f\\xaf\\xe5\\x8d\\x87\\xe7\\xba\\xa7\\xe5\\x90\\x88\\xe7\\xba\\xa6/Logic2.sol\":272:331  function incrementValue() public {... */\n    tag_14:\n        /* \"test/\\xe5\\x8f\\xaf\\xe5\\x8d\\x87\\xe7\\xba\\xa7\\xe5\\x90\\x88\\xe7\\xba\\xa6/Logic2.sol\":316:321  value */\n      0x00\n      dup1\n        /* \"test/\\xe5\\x8f\\xaf\\xe5\\x8d\\x87\\xe7\\xba\\xa7\\xe5\\x90\\x88\\xe7\\xba\\xa6/Logic2.sol\":316:323  value++ */\n      dup2\n      sload\n      dup1\n      swap3\n      swap2\n      swap1\n      tag_24\n      swap1\n      tag_25\n      jump\t// in\n    tag_24:\n      swap2\n      swap1\n      pop\n      sstore\n      pop\n        /* \"test/\\xe5\\x8f\\xaf\\xe5\\x8d\\x87\\xe7\\xba\\xa7\\xe5\\x90\\x88\\xe7\\xba\\xa6/Logic2.sol\":272:331  function incrementValue() public {... */\n      jump\t// out\n        /* \"test/\\xe5\\x8f\\xaf\\xe5\\x8d\\x87\\xe7\\xba\\xa7\\xe5\\x90\\x88\\xe7\\xba\\xa6/Logic2.sol\":197:266  function setValue(uint _value) public {... */\n    tag_18:\n        /* \"test/\\xe5\\x8f\\xaf\\xe5\\x8d\\x87\\xe7\\xba\\xa7\\xe5\\x90\\x88\\xe7\\xba\\xa6/Logic2.sol\":252:258  _value */\n      dup1\n        /* \"test/\\xe5\\x8f\\xaf\\xe5\\x8d\\x87\\xe7\\xba\\xa7\\xe5\\x90\\x88\\xe7\\xba\\xa6/Logic2.sol\":246:251  value */\n      0x00\n        /* \"test/\\xe5\\x8f\\xaf\\xe5\\x8d\\x87\\xe7\\xba\\xa7\\xe5\\x90\\x88\\xe7\\xba\\xa6/Logic2.sol\":246:258  value=_value */\n      dup2\n      swap1\n      sstore\n      pop\n        /* \"test/\\xe5\\x8f\\xaf\\xe5\\x8d\\x87\\xe7\\xba\\xa7\\xe5\\x90\\x88\\xe7\\xba\\xa6/Logic2.sol\":197:266  function setValue(uint _value) public {... */\n      pop\n      jump\t// out\n        /* \"#utility.yul\":7:84   */\n    tag_27:\n        /* \"#utility.yul\":44:51   */\n      0x00\n        /* \"#utility.yul\":73:78   */\n      dup2\n        /* \"#utility.yul\":62:78   */\n      swap1\n      pop\n        /* \"#utility.yul\":7:84   */\n      swap2\n      swap1\n      pop\n      jump\t// out\n        /* \"#utility.yul\":90:208   */\n    tag_28:\n        /* \"#utility.yul\":177:201   */\n      tag_38\n        /* \"#utility.yul\":195:200   */\n      dup2\n        /* \"#utility.yul\":177:201   */\n      tag_27\n      jump\t// in\n    tag_38:\n        /* \"#utility.yul\":172:175   */\n      dup3\n        /* \"#utility.yul\":165:202   */\n      mstore\n        /* \"#utility.yul\":90:208   */\n      pop\n      pop\n      jump\t// out\n        /* \"#utility.yul\":214:436   */\n    tag_12:\n        /* \"#utility.yul\":307:311   */\n      0x00\n        /* \"#utility.yul\":345:347   */\n      0x20\n        /* \"#utility.yul\":334:343   */\n      dup3\n        /* \"#utility.yul\":330:348   */\n      add\n        /* \"#utility.yul\":322:348   */\n      swap1\n      pop\n        /* \"#utility.yul\":358:429   */\n      tag_40\n        /* \"#utility.yul\":426:427   */\n      0x00\n        /* \"#utility.yul\":415:424   */\n      dup4\n        /* \"#utility.yul\":411:428   */\n      add\n        /* \"#utility.yul\":402:408   */\n      dup5\n        /* \"#utility.yul\":358:429   */\n      tag_28\n      jump\t// in\n    tag_40:\n        /* \"#utility.yul\":214:436   */\n      swap3\n      swap2\n      pop\n      pop\n      jump\t// out\n        /* \"#utility.yul\":523:640   */\n    tag_30:\n        /* \"#utility.yul\":632:633   */\n      0x00\n        /* \"#utility.yul\":629:630   */\n      dup1\n        /* \"#utility.yul\":622:634   */\n      revert\n        /* \"#utility.yul\":769:891   */\n    tag_32:\n        /* \"#utility.yul\":842:866   */\n      tag_45\n        /* \"#utility.yul\":860:865   */\n      dup2\n        /* \"#utility.yul\":842:866   */\n      tag_27\n      jump\t// in\n    tag_45:\n        /* \"#utility.yul\":835:840   */\n      dup2\n        /* \"#utility.yul\":832:867   */\n      eq\n        /* \"#utility.yul\":822:885   */\n      tag_46\n      jumpi\n        /* \"#utility.yul\":881:882   */\n      0x00\n        /* \"#utility.yul\":878:879   */\n      dup1\n        /* \"#utility.yul\":871:883   */\n      revert\n        /* \"#utility.yul\":822:885   */\n    tag_46:\n        /* \"#utility.yul\":769:891   */\n      pop\n      jump\t// out\n        /* \"#utility.yul\":897:1036   */\n    tag_33:\n        /* \"#utility.yul\":943:948   */\n      0x00\n        /* \"#utility.yul\":981:987   */\n      dup2\n        /* \"#utility.yul\":968:988   */\n      calldataload\n        /* \"#utility.yul\":959:988   */\n      swap1\n      pop\n        /* \"#utility.yul\":997:1030   */\n      tag_48\n        /* \"#utility.yul\":1024:1029   */\n      dup2\n        /* \"#utility.yul\":997:1030   */\n      tag_32\n      jump\t// in\n    tag_48:\n        /* \"#utility.yul\":897:1036   */\n      swap3\n      swap2\n      pop\n      pop\n      jump\t// out\n        /* \"#utility.yul\":1042:1371   */\n    tag_17:\n        /* \"#utility.yul\":1101:1107   */\n      0x00\n        /* \"#utility.yul\":1150:1152   */\n      0x20\n        /* \"#utility.yul\":1138:1147   */\n      dup3\n        /* \"#utility.yul\":1129:1136   */\n      dup5\n        /* \"#utility.yul\":1125:1148   */\n      sub\n        /* \"#utility.yul\":1121:1153   */\n      slt\n        /* \"#utility.yul\":1118:1237   */\n      iszero\n      tag_50\n      jumpi\n        /* \"#utility.yul\":1156:1235   */\n      tag_51\n      tag_30\n      jump\t// in\n    tag_51:\n        /* \"#utility.yul\":1118:1237   */\n    tag_50:\n        /* \"#utility.yul\":1276:1277   */\n      0x00\n        /* \"#utility.yul\":1301:1354   */\n      tag_52\n        /* \"#utility.yul\":1346:1353   */\n      dup5\n        /* \"#utility.yul\":1337:1343   */\n      dup3\n        /* \"#utility.yul\":1326:1335   */\n      dup6\n        /* \"#utility.yul\":1322:1344   */\n      add\n        /* \"#utility.yul\":1301:1354   */\n      tag_33\n      jump\t// in\n    tag_52:\n        /* \"#utility.yul\":1291:1354   */\n      swap2\n      pop\n        /* \"#utility.yul\":1247:1364   */\n      pop\n        /* \"#utility.yul\":1042:1371   */\n      swap3\n      swap2\n      pop\n      pop\n      jump\t// out\n        /* \"#utility.yul\":1377:1557   */\n    tag_34:\n        /* \"#utility.yul\":1425:1502   */\n      0x4e487b7100000000000000000000000000000000000000000000000000000000\n        /* \"#utility.yul\":1422:1423   */\n      0x00\n        /* \"#utility.yul\":1415:1503   */\n      mstore\n        /* \"#utility.yul\":1522:1526   */\n      0x11\n        /* \"#utility.yul\":1519:1520   */\n      0x04\n        /* \"#utility.yul\":1512:1527   */\n      mstore\n        /* \"#utility.yul\":1546:1550   */\n      0x24\n        /* \"#utility.yul\":1543:1544   */\n      0x00\n        /* \"#utility.yul\":1536:1551   */\n      revert\n        /* \"#utility.yul\":1563:1734   */\n    tag_21:\n        /* \"#utility.yul\":1602:1605   */\n      0x00\n        /* \"#utility.yul\":1625:1649   */\n      tag_55\n        /* \"#utility.yul\":1643:1648   */\n      dup3\n        /* \"#utility.yul\":1625:1649   */\n      tag_27\n      jump\t// in\n    tag_55:\n        /* \"#utility.yul\":1616:1649   */\n      swap2\n      pop\n        /* \"#utility.yul\":1671:1675   */\n      0x00\n        /* \"#utility.yul\":1664:1669   */\n      dup3\n        /* \"#utility.yul\":1661:1676   */\n      sub\n        /* \"#utility.yul\":1658:1699   */\n      tag_56\n      jumpi\n        /* \"#utility.yul\":1679:1697   */\n      tag_57\n      tag_34\n      jump\t// in\n    tag_57:\n        /* \"#utility.yul\":1658:1699   */\n    tag_56:\n        /* \"#utility.yul\":1726:1727   */\n      0x01\n        /* \"#utility.yul\":1719:1724   */\n      dup3\n        /* \"#utility.yul\":1715:1728   */\n      sub\n        /* \"#utility.yul\":1708:1728   */\n      swap1\n      pop\n        /* \"#utility.yul\":1563:1734   */\n      swap2\n      swap1\n      pop\n      jump\t// out\n        /* \"#utility.yul\":1740:1973   */\n    tag_25:\n        /* \"#utility.yul\":1779:1782   */\n      0x00\n        /* \"#utility.yul\":1802:1826   */\n      tag_59\n        /* \"#utility.yul\":1820:1825   */\n      dup3\n        /* \"#utility.yul\":1802:1826   */\n      tag_27\n      jump\t// in\n    tag_59:\n        /* \"#utility.yul\":1793:1826   */\n      swap2\n      pop\n        /* \"#utility.yul\":1848:1914   */\n      0xffffffffffffffffffffffffffffffffffffffffffffffffffffffffffffffff\n        /* \"#utility.yul\":1841:1846   */\n      dup3\n        /* \"#utility.yul\":1838:1915   */\n      sub\n        /* \"#utility.yul\":1835:1938   */\n      tag_60\n      jumpi\n        /* \"#utility.yul\":1918:1936   */\n      tag_61\n      tag_34\n      jump\t// in\n    tag_61:\n        /* \"#utility.yul\":1835:1938   */\n    tag_60:\n        /* \"#utility.yul\":1965:1966   */\n      0x01\n        /* \"#utility.yul\":1958:1963   */\n      dup3\n        /* \"#utility.yul\":1954:1967   */\n      add\n        /* \"#utility.yul\":1947:1967   */\n      swap1\n      pop\n        /* \"#utility.yul\":1740:1973   */\n      swap2\n      swap1\n      pop\n      jump\t// out\n\n    auxdata: 0xa26469706673582212203f33bd6691307e65ffd7ed5f472ebebd048b817f5d7cad8f8692dbe7cc7539f764736f6c634300081a0033\n}\n",
				"bytecode": {
					"linkReferences": {},
					"object": "6080604052348015600e575f80fd5b506102388061001c5f395ff3fe608060405234801561000f575f80fd5b506004361061004a575f3560e01c806316b781911461004e57806320965255146100585780633bfd7fd3146100765780635524107714610080575b5f80fd5b61005661009c565b005b6100606100b4565b60405161006d91906100f5565b60405180910390f35b61007e6100bc565b005b61009a6004803603810190610095919061013c565b6100d4565b005b5f808154809291906100ad90610194565b9190505550565b5f8054905090565b5f808154809291906100cd906101bb565b9190505550565b805f8190555050565b5f819050919050565b6100ef816100dd565b82525050565b5f6020820190506101085f8301846100e6565b92915050565b5f80fd5b61011b816100dd565b8114610125575f80fd5b50565b5f8135905061013681610112565b92915050565b5f602082840312156101515761015061010e565b5b5f61015e84828501610128565b91505092915050565b7f4e487b71000000000000000000000000000000000000000000000000000000005f52601160045260245ffd5b5f61019e826100dd565b91505f82036101b0576101af610167565b5b600182039050919050565b5f6101c5826100dd565b91507fffffffffffffffffffffffffffffffffffffffffffffffffffffffffffffffff82036101f7576101f6610167565b5b60018201905091905056fea26469706673582212203f33bd6691307e65ffd7ed5f472ebebd048b817f5d7cad8f8692dbe7cc7539f764736f6c634300081a0033",
					"opcodes": "PUSH1 0x80 PUSH1 0x40 MSTORE CALLVALUE DUP1 ISZERO PUSH1 0xE JUMPI PUSH0 DUP1 REVERT JUMPDEST POP PUSH2 0x238 DUP1 PUSH2 0x1C PUSH0 CODECOPY PUSH0 RETURN INVALID PUSH1 0x80 PUSH1 0x40 MSTORE CALLVALUE DUP1 ISZERO PUSH2 0xF JUMPI PUSH0 DUP1 REVERT JUMPDEST POP PUSH1 0x4 CALLDATASIZE LT PUSH2 0x4A JUMPI PUSH0 CALLDATALOAD PUSH1 0xE0 SHR DUP1 PUSH4 0x16B78191 EQ PUSH2 0x4E JUMPI DUP1 PUSH4 0x20965255 EQ PUSH2 0x58 JUMPI DUP1 PUSH4 0x3BFD7FD3 EQ PUSH2 0x76 JUMPI DUP1 PUSH4 0x55241077 EQ PUSH2 0x80 JUMPI JUMPDEST PUSH0 DUP1 REVERT JUMPDEST PUSH2 0x56 PUSH2 0x9C JUMP JUMPDEST STOP JUMPDEST PUSH2 0x60 PUSH2 0xB4 JUMP JUMPDEST PUSH1 0x40 MLOAD PUSH2 0x6D SWAP2 SWAP1 PUSH2 0xF5 JUMP JUMPDEST PUSH1 0x40 MLOAD DUP1 SWAP2 SUB SWAP1 RETURN JUMPDEST PUSH2 0x7E PUSH2 0xBC JUMP JUMPDEST STOP JUMPDEST PUSH2 0x9A PUSH1 0x4 DUP1 CALLDATASIZE SUB DUP2 ADD SWAP1 PUSH2 0x95 SWAP2 SWAP1 PUSH2 0x13C JUMP JUMPDEST PUSH2 0xD4 JUMP JUMPDEST STOP JUMPDEST PUSH0 DUP1 DUP2 SLOAD DUP1 SWAP3 SWAP2 SWAP1 PUSH2 0xAD SWAP1 PUSH2 0x194 JUMP JUMPDEST SWAP2 SWAP1 POP SSTORE POP JUMP JUMPDEST PUSH0 DUP1 SLOAD SWAP1 POP SWAP1 JUMP JUMPDEST PUSH0 DUP1 DUP2 SLOAD DUP1 SWAP3 SWAP2 SWAP1 PUSH2 0xCD SWAP1 PUSH2 0x1BB JUMP JUMPDEST SWAP2 SWAP1 POP SSTORE POP JUMP JUMPDEST DUP1 PUSH0 DUP2 SWAP1 SSTORE POP POP JUMP JUMPDEST PUSH0 DUP2 SWAP1 POP SWAP2 SWAP1 POP JUMP JUMPDEST PUSH2 0xEF DUP2 PUSH2 0xDD JUMP JUMPDEST DUP3 MSTORE POP POP JUMP JUMPDEST PUSH0 PUSH1 0x20 DUP3 ADD SWAP1 POP PUSH2 0x108 PUSH0 DUP4 ADD DUP5 PUSH2 0xE6 JUMP JUMPDEST SWAP3 SWAP2 POP POP JUMP JUMPDEST PUSH0 DUP1 REVERT JUMPDEST PUSH2 0x11B DUP2 PUSH2 0xDD JUMP JUMPDEST DUP2 EQ PUSH2 0x125 JUMPI PUSH0 DUP1 REVERT JUMPDEST POP JUMP JUMPDEST PUSH0 DUP2 CALLDATALOAD SWAP1 POP PUSH2 0x136 DUP2 PUSH2 0x112 JUMP JUMPDEST SWAP3 SWAP2 POP POP JUMP JUMPDEST PUSH0 PUSH1 0x20 DUP3 DUP5 SUB SLT ISZERO PUSH2 0x151 JUMPI PUSH2 0x150 PUSH2 0x10E JUMP JUMPDEST JUMPDEST PUSH0 PUSH2 0x15E DUP5 DUP3 DUP6 ADD PUSH2 0x128 JUMP JUMPDEST SWAP2 POP POP SWAP3 SWAP2 POP POP JUMP JUMPDEST PUSH32 0x4E487B7100000000000000000000000000000000000000000000000000000000 PUSH0 MSTORE PUSH1 0x11 PUSH1 0x4 MSTORE PUSH1 0x24 PUSH0 REVERT JUMPDEST PUSH0 PUSH2 0x19E DUP3 PUSH2 0xDD JUMP JUMPDEST SWAP2 POP PUSH0 DUP3 SUB PUSH2 0x1B0 JUMPI PUSH2 0x1AF PUSH2 0x167 JUMP JUMPDEST JUMPDEST PUSH1 0x1 DUP3 SUB SWAP1 POP SWAP2 SWAP1 POP JUMP JUMPDEST PUSH0 PUSH2 0x1C5 DUP3 PUSH2 0xDD JUMP JUMPDEST SWAP2 POP PUSH32 0xFFFFFFFFFFFFFFFFFFFFFFFFFFFFFFFFFFFFFFFFFFFFFFFFFFFFFFFFFFFFFFFF DUP3 SUB PUSH2 0x1F7 JUMPI PUSH2 0x1F6 PUSH2 0x167 JUMP JUMPDEST JUMPDEST PUSH1 0x1 DUP3 ADD SWAP1 POP SWAP2 SWAP1 POP JUMP INVALID LOG2 PUSH5 0x6970667358 0x22 SLT KECCAK256 EXTCODEHASH CALLER 0xBD PUSH7 0x91307E65FFD7ED PUSH0 SELFBALANCE 0x2E 0xBE 0xBD DIV DUP12 DUP2 PUSH32 0x5D7CAD8F8692DBE7CC7539F764736F6C634300081A0033000000000000000000 "
				},
				"gasEstimates": {
					"creation": {
						"codeDepositCost": "113600",
						"executionCost": "157",
						"totalCost": "113757"
					},
					"external": {
						"decrementValue()": "24474",
						"getValue()": "2432",
						"incrementValue()": "24519",
						"setValue(uint256)": "22558"
					}
				},
				"methodIdentifiers": {
					"decrementValue()": "16b78191",
					"getValue()": "20965255",
					"incrementValue()": "3bfd7fd3",
					"setValue(uint256)": "55241077"
				}
			},
			"storageLayout": {
				"storage": [
					{
						"astId": 3,
						"contract": "test/可升级合约/Logic2.sol:Logic2",
						"label": "value",
						"offset": 0,
						"slot": "0",
						"type": "t_uint256"
					}
				],
				"types": {
					"t_uint256": {
						"encoding": "inplace",
						"label": "uint256",
						"numberOfBytes": "32"
					}
				}
			},
			"userdoc": {
				"kind": "user",
				"methods": {},
				"version": 1
			}
		}
	}
}