{
	"test/可升级合约/Logic.sol": {
		"Logic": {
			"abi": [
				{
					"inputs": [],
					"name": "getValue",
					"outputs": [
						{
							"internalType": "uint256",
							"name": "",
							"type": "uint256"
						}
					],
					"stateMutability": "view",
					"type": "function"
				},
				{
					"inputs": [],
					"name": "incrementValue",
					"outputs": [],
					"stateMutability": "nonpayable",
					"type": "function"
				},
				{
					"inputs": [
						{
							"internalType": "uint256",
							"name": "_value",
							"type": "uint256"
						}
					],
					"name": "setValue",
					"outputs": [],
					"stateMutability": "nonpayable",
					"type": "function"
				}
			],
			"devdoc": {
				"kind": "dev",
				"methods": {},
				"version": 1
			},
			"evm": {
				"assembly": "    /* \"test/\\xe5\\x8f\\xaf\\xe5\\x8d\\x87\\xe7\\xba\\xa7\\xe5\\x90\\x88\\xe7\\xba\\xa6/Logic.sol\":63:341  contract Logic {... */\n  mstore(0x40, 0x80)\n  callvalue\n  dup1\n  iszero\n  tag_1\n  jumpi\n  0x00\n  dup1\n  revert\ntag_1:\n  pop\n  dataSize(sub_0)\n  dup1\n  dataOffset(sub_0)\n  0x00\n  codecopy\n  0x00\n  return\nstop\n\nsub_0: assembly {\n        /* \"test/\\xe5\\x8f\\xaf\\xe5\\x8d\\x87\\xe7\\xba\\xa7\\xe5\\x90\\x88\\xe7\\xba\\xa6/Logic.sol\":63:341  contract Logic {... */\n      mstore(0x40, 0x80)\n      callvalue\n      dup1\n      iszero\n      tag_1\n      jumpi\n      0x00\n      dup1\n      revert\n    tag_1:\n      pop\n      jumpi(tag_2, lt(calldatasize, 0x04))\n      shr(0xe0, calldataload(0x00))\n      dup1\n      0x20965255\n      eq\n      tag_3\n      jumpi\n      dup1\n      0x3bfd7fd3\n      eq\n      tag_4\n      jumpi\n      dup1\n      0x55241077\n      eq\n      tag_5\n      jumpi\n    tag_2:\n      0x00\n      dup1\n      revert\n        /* \"test/\\xe5\\x8f\\xaf\\xe5\\x8d\\x87\\xe7\\xba\\xa7\\xe5\\x90\\x88\\xe7\\xba\\xa6/Logic.sol\":112:189  function getValue() public view returns (uint){... */\n    tag_3:\n      tag_6\n      tag_7\n      jump\t// in\n    tag_6:\n      mload(0x40)\n      tag_8\n      swap2\n      swap1\n      tag_9\n      jump\t// in\n    tag_8:\n      mload(0x40)\n      dup1\n      swap2\n      sub\n      swap1\n      return\n        /* \"test/\\xe5\\x8f\\xaf\\xe5\\x8d\\x87\\xe7\\xba\\xa7\\xe5\\x90\\x88\\xe7\\xba\\xa6/Logic.sol\":272:334  function incrementValue() public {... */\n    tag_4:\n      tag_10\n      tag_11\n      jump\t// in\n    tag_10:\n      stop\n        /* \"test/\\xe5\\x8f\\xaf\\xe5\\x8d\\x87\\xe7\\xba\\xa7\\xe5\\x90\\x88\\xe7\\xba\\xa6/Logic.sol\":195:266  function setValue(uint _value) public {... */\n    tag_5:\n      tag_12\n      0x04\n      dup1\n      calldatasize\n      sub\n      dup2\n      add\n      swap1\n      tag_13\n      swap2\n      swap1\n      tag_14\n      jump\t// in\n    tag_13:\n      tag_15\n      jump\t// in\n    tag_12:\n      stop\n        /* \"test/\\xe5\\x8f\\xaf\\xe5\\x8d\\x87\\xe7\\xba\\xa7\\xe5\\x90\\x88\\xe7\\xba\\xa6/Logic.sol\":112:189  function getValue() public view returns (uint){... */\n    tag_7:\n        /* \"test/\\xe5\\x8f\\xaf\\xe5\\x8d\\x87\\xe7\\xba\\xa7\\xe5\\x90\\x88\\xe7\\xba\\xa6/Logic.sol\":153:157  uint */\n      0x00\n        /* \"test/\\xe5\\x8f\\xaf\\xe5\\x8d\\x87\\xe7\\xba\\xa7\\xe5\\x90\\x88\\xe7\\xba\\xa6/Logic.sol\":176:181  value */\n      dup1\n      sload\n        /* \"test/\\xe5\\x8f\\xaf\\xe5\\x8d\\x87\\xe7\\xba\\xa7\\xe5\\x90\\x88\\xe7\\xba\\xa6/Logic.sol\":169:181  return value */\n      swap1\n      pop\n        /* \"test/\\xe5\\x8f\\xaf\\xe5\\x8d\\x87\\xe7\\xba\\xa7\\xe5\\x90\\x88\\xe7\\xba\\xa6/Logic.sol\":112:189  function getValue() public view returns (uint){... */\n      swap1\n      jump\t// out\n        /* \"test/\\xe5\\x8f\\xaf\\xe5\\x8d\\x87\\xe7\\xba\\xa7\\xe5\\x90\\x88\\xe7\\xba\\xa6/Logic.sol\":272:334  function incrementValue() public {... */\n    tag_11:\n        /* \"test/\\xe5\\x8f\\xaf\\xe5\\x8d\\x87\\xe7\\xba\\xa7\\xe5\\x90\\x88\\xe7\\xba\\xa6/Logic.sol\":325:326  1 */\n      0x01\n        /* \"test/\\xe5\\x8f\\xaf\\xe5\\x8d\\x87\\xe7\\xba\\xa7\\xe5\\x90\\x88\\xe7\\xba\\xa6/Logic.sol\":316:321  value */\n      0x00\n      dup1\n        /* \"test/\\xe5\\x8f\\xaf\\xe5\\x8d\\x87\\xe7\\xba\\xa7\\xe5\\x90\\x88\\xe7\\xba\\xa6/Logic.sol\":316:326  value += 1 */\n      dup3\n      dup3\n      sload\n      tag_18\n      swap2\n      swap1\n      tag_19\n      jump\t// in\n    tag_18:\n      swap3\n      pop\n      pop\n      dup2\n      swap1\n      sstore\n      pop\n        /* \"test/\\xe5\\x8f\\xaf\\xe5\\x8d\\x87\\xe7\\xba\\xa7\\xe5\\x90\\x88\\xe7\\xba\\xa6/Logic.sol\":272:334  function incrementValue() public {... */\n      jump\t// out\n        /* \"test/\\xe5\\x8f\\xaf\\xe5\\x8d\\x87\\xe7\\xba\\xa7\\xe5\\x90\\x88\\xe7\\xba\\xa6/Logic.sol\":195:266  function setValue(uint _value) public {... */\n    tag_15:\n        /* \"test/\\xe5\\x8f\\xaf\\xe5\\x8d\\x87\\xe7\\xba\\xa7\\xe5\\x90\\x88\\xe7\\xba\\xa6/Logic.sol\":252:258  _value */\n      dup1\n        /* \"test/\\xe5\\x8f\\xaf\\xe5\\x8d\\x87\\xe7\\xba\\xa7\\xe5\\x90\\x88\\xe7\\xba\\xa6/Logic.sol\":244:249  value */\n      0x00\n        /* \"test/\\xe5\\x8f\\xaf\\xe5\\x8d\\x87\\xe7\\xba\\xa7\\xe5\\x90\\x88\\xe7\\xba\\xa6/Logic.sol\":244:258  value = _value */\n      dup2\n      swap1\n      sstore\n      pop\n        /* \"test/\\xe5\\x8f\\xaf\\xe5\\x8d\\x87\\xe7\\xba\\xa7\\xe5\\x90\\x88\\xe7\\xba\\xa6/Logic.sol\":195:266  function setValue(uint _value) public {... */\n      pop\n      jump\t// out\n        /* \"#utility.yul\":7:84   */\n    tag_21:\n        /* \"#utility.yul\":44:51   */\n      0x00\n        /* \"#utility.yul\":73:78   */\n      dup2\n        /* \"#utility.yul\":62:78   */\n      swap1\n      pop\n        /* \"#utility.yul\":7:84   */\n      swap2\n      swap1\n      pop\n      jump\t// out\n        /* \"#utility.yul\":90:208   */\n    tag_22:\n        /* \"#utility.yul\":177:201   */\n      tag_32\n        /* \"#utility.yul\":195:200   */\n      dup2\n        /* \"#utility.yul\":177:201   */\n      tag_21\n      jump\t// in\n    tag_32:\n        /* \"#utility.yul\":172:175   */\n      dup3\n        /* \"#utility.yul\":165:202   */\n      mstore\n        /* \"#utility.yul\":90:208   */\n      pop\n      pop\n      jump\t// out\n        /* \"#utility.yul\":214:436   */\n    tag_9:\n        /* \"#utility.yul\":307:311   */\n      0x00\n        /* \"#utility.yul\":345:347   */\n      0x20\n        /* \"#utility.yul\":334:343   */\n      dup3\n        /* \"#utility.yul\":330:348   */\n      add\n        /* \"#utility.yul\":322:348   */\n      swap1\n      pop\n        /* \"#utility.yul\":358:429   */\n      tag_34\n        /* \"#utility.yul\":426:427   */\n      0x00\n        /* \"#utility.yul\":415:424   */\n      dup4\n        /* \"#utility.yul\":411:428   */\n      add\n        /* \"#utility.yul\":402:408   */\n      dup5\n        /* \"#utility.yul\":358:429   */\n      tag_22\n      jump\t// in\n    tag_34:\n        /* \"#utility.yul\":214:436   */\n      swap3\n      swap2\n      pop\n      pop\n      jump\t// out\n        /* \"#utility.yul\":523:640   */\n    tag_24:\n        /* \"#utility.yul\":632:633   */\n      0x00\n        /* \"#utility.yul\":629:630   */\n      dup1\n        /* \"#utility.yul\":622:634   */\n      revert\n        /* \"#utility.yul\":769:891   */\n    tag_26:\n        /* \"#utility.yul\":842:866   */\n      tag_39\n        /* \"#utility.yul\":860:865   */\n      dup2\n        /* \"#utility.yul\":842:866   */\n      tag_21\n      jump\t// in\n    tag_39:\n        /* \"#utility.yul\":835:840   */\n      dup2\n        /* \"#utility.yul\":832:867   */\n      eq\n        /* \"#utility.yul\":822:885   */\n      tag_40\n      jumpi\n        /* \"#utility.yul\":881:882   */\n      0x00\n        /* \"#utility.yul\":878:879   */\n      dup1\n        /* \"#utility.yul\":871:883   */\n      revert\n        /* \"#utility.yul\":822:885   */\n    tag_40:\n        /* \"#utility.yul\":769:891   */\n      pop\n      jump\t// out\n        /* \"#utility.yul\":897:1036   */\n    tag_27:\n        /* \"#utility.yul\":943:948   */\n      0x00\n        /* \"#utility.yul\":981:987   */\n      dup2\n        /* \"#utility.yul\":968:988   */\n      calldataload\n        /* \"#utility.yul\":959:988   */\n      swap1\n      pop\n        /* \"#utility.yul\":997:1030   */\n      tag_42\n        /* \"#utility.yul\":1024:1029   */\n      dup2\n        /* \"#utility.yul\":997:1030   */\n      tag_26\n      jump\t// in\n    tag_42:\n        /* \"#utility.yul\":897:1036   */\n      swap3\n      swap2\n      pop\n      pop\n      jump\t// out\n        /* \"#utility.yul\":1042:1371   */\n    tag_14:\n        /* \"#utility.yul\":1101:1107   */\n      0x00\n        /* \"#utility.yul\":1150:1152   */\n      0x20\n        /* \"#utility.yul\":1138:1147   */\n      dup3\n        /* \"#utility.yul\":1129:1136   */\n      dup5\n        /* \"#utility.yul\":1125:1148   */\n      sub\n        /* \"#utility.yul\":1121:1153   */\n      slt\n        /* \"#utility.yul\":1118:1237   */\n      iszero\n      tag_44\n      jumpi\n        /* \"#utility.yul\":1156:1235   */\n      tag_45\n      tag_24\n      jump\t// in\n    tag_45:\n        /* \"#utility.yul\":1118:1237   */\n    tag_44:\n        /* \"#utility.yul\":1276:1277   */\n      0x00\n        /* \"#utility.yul\":1301:1354   */\n      tag_46\n        /* \"#utility.yul\":1346:1353   */\n      dup5\n        /* \"#utility.yul\":1337:1343   */\n      dup3\n        /* \"#utility.yul\":1326:1335   */\n      dup6\n        /* \"#utility.yul\":1322:1344   */\n      add\n        /* \"#utility.yul\":1301:1354   */\n      tag_27\n      jump\t// in\n    tag_46:\n        /* \"#utility.yul\":1291:1354   */\n      swap2\n      pop\n        /* \"#utility.yul\":1247:1364   */\n      pop\n        /* \"#utility.yul\":1042:1371   */\n      swap3\n      swap2\n      pop\n      pop\n      jump\t// out\n        /* \"#utility.yul\":1377:1557   */\n    tag_28:\n        /* \"#utility.yul\":1425:1502   */\n      0x4e487b7100000000000000000000000000000000000000000000000000000000\n        /* \"#utility.yul\":1422:1423   */\n      0x00\n        /* \"#utility.yul\":1415:1503   */\n      mstore\n        /* \"#utility.yul\":1522:1526   */\n      0x11\n        /* \"#utility.yul\":1519:1520   */\n      0x04\n        /* \"#utility.yul\":1512:1527   */\n      mstore\n        /* \"#utility.yul\":1546:1550   */\n      0x24\n        /* \"#utility.yul\":1543:1544   */\n      0x00\n        /* \"#utility.yul\":1536:1551   */\n      revert\n        /* \"#utility.yul\":1563:1754   */\n    tag_19:\n        /* \"#utility.yul\":1603:1606   */\n      0x00\n        /* \"#utility.yul\":1622:1642   */\n      tag_49\n        /* \"#utility.yul\":1640:1641   */\n      dup3\n        /* \"#utility.yul\":1622:1642   */\n      tag_21\n      jump\t// in\n    tag_49:\n        /* \"#utility.yul\":1617:1642   */\n      swap2\n      pop\n        /* \"#utility.yul\":1656:1676   */\n      tag_50\n        /* \"#utility.yul\":1674:1675   */\n      dup4\n        /* \"#utility.yul\":1656:1676   */\n      tag_21\n      jump\t// in\n    tag_50:\n        /* \"#utility.yul\":1651:1676   */\n      swap3\n      pop\n        /* \"#utility.yul\":1699:1700   */\n      dup3\n        /* \"#utility.yul\":1696:1697   */\n      dup3\n        /* \"#utility.yul\":1692:1701   */\n      add\n        /* \"#utility.yul\":1685:1701   */\n      swap1\n      pop\n        /* \"#utility.yul\":1720:1723   */\n      dup1\n        /* \"#utility.yul\":1717:1718   */\n      dup3\n        /* \"#utility.yul\":1714:1724   */\n      gt\n        /* \"#utility.yul\":1711:1747   */\n      iszero\n      tag_51\n      jumpi\n        /* \"#utility.yul\":1727:1745   */\n      tag_52\n      tag_28\n      jump\t// in\n    tag_52:\n        /* \"#utility.yul\":1711:1747   */\n    tag_51:\n        /* \"#utility.yul\":1563:1754   */\n      swap3\n      swap2\n      pop\n      pop\n      jump\t// out\n\n    auxdata: 0xa26469706673582212201dc3a6a1fe245da5df20b3751a402053278af8349f09aeec26c1ffbfd968be2c64736f6c634300081a0033\n}\n",
				"bytecode": {
					"linkReferences": {},
					"object": "6080604052348015600e575f80fd5b506101d28061001c5f395ff3fe608060405234801561000f575f80fd5b506004361061003f575f3560e01c806320965255146100435780633bfd7fd314610061578063552410771461006b575b5f80fd5b61004b610087565b60405161005891906100ca565b60405180910390f35b61006961008f565b005b61008560048036038101906100809190610111565b6100a9565b005b5f8054905090565b60015f808282546100a09190610169565b92505081905550565b805f8190555050565b5f819050919050565b6100c4816100b2565b82525050565b5f6020820190506100dd5f8301846100bb565b92915050565b5f80fd5b6100f0816100b2565b81146100fa575f80fd5b50565b5f8135905061010b816100e7565b92915050565b5f60208284031215610126576101256100e3565b5b5f610133848285016100fd565b91505092915050565b7f4e487b71000000000000000000000000000000000000000000000000000000005f52601160045260245ffd5b5f610173826100b2565b915061017e836100b2565b92508282019050808211156101965761019561013c565b5b9291505056fea26469706673582212201dc3a6a1fe245da5df20b3751a402053278af8349f09aeec26c1ffbfd968be2c64736f6c634300081a0033",
					"opcodes": "PUSH1 0x80 PUSH1 0x40 MSTORE CALLVALUE DUP1 ISZERO PUSH1 0xE JUMPI PUSH0 DUP1 REVERT JUMPDEST POP PUSH2 0x1D2 DUP1 PUSH2 0x1C PUSH0 CODECOPY PUSH0 RETURN INVALID PUSH1 0x80 PUSH1 0x40 MSTORE CALLVALUE DUP1 ISZERO PUSH2 0xF JUMPI PUSH0 DUP1 REVERT JUMPDEST POP PUSH1 0x4 CALLDATASIZE LT PUSH2 0x3F JUMPI PUSH0 CALLDATALOAD PUSH1 0xE0 SHR DUP1 PUSH4 0x20965255 EQ PUSH2 0x43 JUMPI DUP1 PUSH4 0x3BFD7FD3 EQ PUSH2 0x61 JUMPI DUP1 PUSH4 0x55241077 EQ PUSH2 0x6B JUMPI JUMPDEST PUSH0 DUP1 REVERT JUMPDEST PUSH2 0x4B PUSH2 0x87 JUMP JUMPDEST PUSH1 0x40 MLOAD PUSH2 0x58 SWAP2 SWAP1 PUSH2 0xCA JUMP JUMPDEST PUSH1 0x40 MLOAD DUP1 SWAP2 SUB SWAP1 RETURN JUMPDEST PUSH2 0x69 PUSH2 0x8F JUMP JUMPDEST STOP JUMPDEST PUSH2 0x85 PUSH1 0x4 DUP1 CALLDATASIZE SUB DUP2 ADD SWAP1 PUSH2 0x80 SWAP2 SWAP1 PUSH2 0x111 JUMP JUMPDEST PUSH2 0xA9 JUMP JUMPDEST STOP JUMPDEST PUSH0 DUP1 SLOAD SWAP1 POP SWAP1 JUMP JUMPDEST PUSH1 0x1 PUSH0 DUP1 DUP3 DUP3 SLOAD PUSH2 0xA0 SWAP2 SWAP1 PUSH2 0x169 JUMP JUMPDEST SWAP3 POP POP DUP2 SWAP1 SSTORE POP JUMP JUMPDEST DUP1 PUSH0 DUP2 SWAP1 SSTORE POP POP JUMP JUMPDEST PUSH0 DUP2 SWAP1 POP SWAP2 SWAP1 POP JUMP JUMPDEST PUSH2 0xC4 DUP2 PUSH2 0xB2 JUMP JUMPDEST DUP3 MSTORE POP POP JUMP JUMPDEST PUSH0 PUSH1 0x20 DUP3 ADD SWAP1 POP PUSH2 0xDD PUSH0 DUP4 ADD DUP5 PUSH2 0xBB JUMP JUMPDEST SWAP3 SWAP2 POP POP JUMP JUMPDEST PUSH0 DUP1 REVERT JUMPDEST PUSH2 0xF0 DUP2 PUSH2 0xB2 JUMP JUMPDEST DUP2 EQ PUSH2 0xFA JUMPI PUSH0 DUP1 REVERT JUMPDEST POP JUMP JUMPDEST PUSH0 DUP2 CALLDATALOAD SWAP1 POP PUSH2 0x10B DUP2 PUSH2 0xE7 JUMP JUMPDEST SWAP3 SWAP2 POP POP JUMP JUMPDEST PUSH0 PUSH1 0x20 DUP3 DUP5 SUB SLT ISZERO PUSH2 0x126 JUMPI PUSH2 0x125 PUSH2 0xE3 JUMP JUMPDEST JUMPDEST PUSH0 PUSH2 0x133 DUP5 DUP3 DUP6 ADD PUSH2 0xFD JUMP JUMPDEST SWAP2 POP POP SWAP3 SWAP2 POP POP JUMP JUMPDEST PUSH32 0x4E487B7100000000000000000000000000000000000000000000000000000000 PUSH0 MSTORE PUSH1 0x11 PUSH1 0x4 MSTORE PUSH1 0x24 PUSH0 REVERT JUMPDEST PUSH0 PUSH2 0x173 DUP3 PUSH2 0xB2 JUMP JUMPDEST SWAP2 POP PUSH2 0x17E DUP4 PUSH2 0xB2 JUMP JUMPDEST SWAP3 POP DUP3 DUP3 ADD SWAP1 POP DUP1 DUP3 GT ISZERO PUSH2 0x196 JUMPI PUSH2 0x195 PUSH2 0x13C JUMP JUMPDEST JUMPDEST SWAP3 SWAP2 POP POP JUMP INVALID LOG2 PUSH5 0x6970667358 0x22 SLT KECCAK256 SAR 0xC3 0xA6 LOG1 INVALID 0x24 TSTORE 0xA5 0xDF KECCAK256 0xB3 PUSH22 0x1A402053278AF8349F09AEEC26C1FFBFD968BE2C6473 PUSH16 0x6C634300081A00330000000000000000 "
				},
				"gasEstimates": {
					"creation": {
						"codeDepositCost": "93200",
						"executionCost": "139",
						"totalCost": "93339"
					},
					"external": {
						"getValue()": "2410",
						"incrementValue()": "infinite",
						"setValue(uint256)": "22536"
					}
				},
				"methodIdentifiers": {
					"getValue()": "20965255",
					"incrementValue()": "3bfd7fd3",
					"setValue(uint256)": "55241077"
				}
			},
			"storageLayout": {
				"storage": [
					{
						"astId": 3,
						"contract": "test/可升级合约/Logic.sol:Logic",
						"label": "value",
						"offset": 0,
						"slot": "0",
						"type": "t_uint256"
					}
				],
				"types": {
					"t_uint256": {
						"encoding": "inplace",
						"label": "uint256",
						"numberOfBytes": "32"
					}
				}
			},
			"userdoc": {
				"kind": "user",
				"methods": {},
				"version": 1
			}
		}
	}
}