{
	"test/可升级合约/Proxy.sol": {
		"Proxy": {
			"abi": [
				{
					"inputs": [
						{
							"internalType": "address",
							"name": "_logic",
							"type": "address"
						}
					],
					"stateMutability": "nonpayable",
					"type": "constructor"
				},
				{
					"anonymous": false,
					"inputs": [
						{
							"indexed": true,
							"internalType": "address",
							"name": "newImplementation",
							"type": "address"
						}
					],
					"name": "Upgraded",
					"type": "event"
				},
				{
					"stateMutability": "payable",
					"type": "fallback"
				},
				{
					"inputs": [
						{
							"internalType": "address",
							"name": "newImplementation",
							"type": "address"
						}
					],
					"name": "upgradeTo",
					"outputs": [],
					"stateMutability": "nonpayable",
					"type": "function"
				},
				{
					"stateMutability": "payable",
					"type": "receive"
				}
			],
			"devdoc": {
				"kind": "dev",
				"methods": {},
				"version": 1
			},
			"evm": {
				"assembly": "    /* \"test/\\xe5\\x8f\\xaf\\xe5\\x8d\\x87\\xe7\\xba\\xa7\\xe5\\x90\\x88\\xe7\\xba\\xa6/Proxy.sol\":61:5019  contract Proxy {... */\n  mstore(0x40, 0x80)\n    /* \"test/\\xe5\\x8f\\xaf\\xe5\\x8d\\x87\\xe7\\xba\\xa7\\xe5\\x90\\x88\\xe7\\xba\\xa6/Proxy.sol\":418:491  constructor(address _logic) {... */\n  callvalue\n  dup1\n  iszero\n  tag_1\n  jumpi\n  0x00\n  dup1\n  revert\ntag_1:\n  pop\n  mload(0x40)\n  sub(codesize, bytecodeSize)\n  dup1\n  bytecodeSize\n  dup4\n  codecopy\n  dup2\n  dup2\n  add\n  0x40\n  mstore\n  dup2\n  add\n  swap1\n  tag_2\n  swap2\n  swap1\n  tag_3\n  jump\t// in\ntag_2:\n    /* \"test/\\xe5\\x8f\\xaf\\xe5\\x8d\\x87\\xe7\\xba\\xa7\\xe5\\x90\\x88\\xe7\\xba\\xa6/Proxy.sol\":457:483  _setImplementation(_logic) */\n  tag_6\n    /* \"test/\\xe5\\x8f\\xaf\\xe5\\x8d\\x87\\xe7\\xba\\xa7\\xe5\\x90\\x88\\xe7\\xba\\xa6/Proxy.sol\":476:482  _logic */\n  dup2\n    /* \"test/\\xe5\\x8f\\xaf\\xe5\\x8d\\x87\\xe7\\xba\\xa7\\xe5\\x90\\x88\\xe7\\xba\\xa6/Proxy.sol\":457:475  _setImplementation */\n  shl(0x20, tag_7)\n    /* \"test/\\xe5\\x8f\\xaf\\xe5\\x8d\\x87\\xe7\\xba\\xa7\\xe5\\x90\\x88\\xe7\\xba\\xa6/Proxy.sol\":457:483  _setImplementation(_logic) */\n  0x20\n  shr\n  jump\t// in\ntag_6:\n    /* \"test/\\xe5\\x8f\\xaf\\xe5\\x8d\\x87\\xe7\\xba\\xa7\\xe5\\x90\\x88\\xe7\\xba\\xa6/Proxy.sol\":418:491  constructor(address _logic) {... */\n  pop\n    /* \"test/\\xe5\\x8f\\xaf\\xe5\\x8d\\x87\\xe7\\xba\\xa7\\xe5\\x90\\x88\\xe7\\xba\\xa6/Proxy.sol\":61:5019  contract Proxy {... */\n  jump(tag_8)\n    /* \"test/\\xe5\\x8f\\xaf\\xe5\\x8d\\x87\\xe7\\xba\\xa7\\xe5\\x90\\x88\\xe7\\xba\\xa6/Proxy.sol\":727:956  function _setImplementation(address newImplementation) internal {... */\ntag_7:\n    /* \"test/\\xe5\\x8f\\xaf\\xe5\\x8d\\x87\\xe7\\xba\\xa7\\xe5\\x90\\x88\\xe7\\xba\\xa6/Proxy.sol\":920:937  newImplementation */\n  dup1\n    /* \"test/\\xe5\\x8f\\xaf\\xe5\\x8d\\x87\\xe7\\xba\\xa7\\xe5\\x90\\x88\\xe7\\xba\\xa6/Proxy.sol\":898:918  _IMPLEMENTATION_SLOT */\n  0x3f0b3fbbce1e4c5f7c91d1b1a4c871bfa7a43fbd13abbbb1744b59f235b7fabe\n    /* \"test/\\xe5\\x8f\\xaf\\xe5\\x8d\\x87\\xe7\\xba\\xa7\\xe5\\x90\\x88\\xe7\\xba\\xa6/Proxy.sol\":891:938  sstore(_IMPLEMENTATION_SLOT, newImplementation) */\n  sstore\n    /* \"test/\\xe5\\x8f\\xaf\\xe5\\x8d\\x87\\xe7\\xba\\xa7\\xe5\\x90\\x88\\xe7\\xba\\xa6/Proxy.sol\":727:956  function _setImplementation(address newImplementation) internal {... */\n  pop\n  jump\t// out\n    /* \"#utility.yul\":88:205   */\ntag_11:\n    /* \"#utility.yul\":197:198   */\n  0x00\n    /* \"#utility.yul\":194:195   */\n  dup1\n    /* \"#utility.yul\":187:199   */\n  revert\n    /* \"#utility.yul\":334:460   */\ntag_13:\n    /* \"#utility.yul\":371:378   */\n  0x00\n    /* \"#utility.yul\":411:453   */\n  0xffffffffffffffffffffffffffffffffffffffff\n    /* \"#utility.yul\":404:409   */\n  dup3\n    /* \"#utility.yul\":400:454   */\n  and\n    /* \"#utility.yul\":389:454   */\n  swap1\n  pop\n    /* \"#utility.yul\":334:460   */\n  swap2\n  swap1\n  pop\n  jump\t// out\n    /* \"#utility.yul\":466:562   */\ntag_14:\n    /* \"#utility.yul\":503:510   */\n  0x00\n    /* \"#utility.yul\":532:556   */\n  tag_23\n    /* \"#utility.yul\":550:555   */\n  dup3\n    /* \"#utility.yul\":532:556   */\n  tag_13\n  jump\t// in\ntag_23:\n    /* \"#utility.yul\":521:556   */\n  swap1\n  pop\n    /* \"#utility.yul\":466:562   */\n  swap2\n  swap1\n  pop\n  jump\t// out\n    /* \"#utility.yul\":568:690   */\ntag_15:\n    /* \"#utility.yul\":641:665   */\n  tag_25\n    /* \"#utility.yul\":659:664   */\n  dup2\n    /* \"#utility.yul\":641:665   */\n  tag_14\n  jump\t// in\ntag_25:\n    /* \"#utility.yul\":634:639   */\n  dup2\n    /* \"#utility.yul\":631:666   */\n  eq\n    /* \"#utility.yul\":621:684   */\n  tag_26\n  jumpi\n    /* \"#utility.yul\":680:681   */\n  0x00\n    /* \"#utility.yul\":677:678   */\n  dup1\n    /* \"#utility.yul\":670:682   */\n  revert\n    /* \"#utility.yul\":621:684   */\ntag_26:\n    /* \"#utility.yul\":568:690   */\n  pop\n  jump\t// out\n    /* \"#utility.yul\":696:839   */\ntag_16:\n    /* \"#utility.yul\":753:758   */\n  0x00\n    /* \"#utility.yul\":784:790   */\n  dup2\n    /* \"#utility.yul\":778:791   */\n  mload\n    /* \"#utility.yul\":769:791   */\n  swap1\n  pop\n    /* \"#utility.yul\":800:833   */\n  tag_28\n    /* \"#utility.yul\":827:832   */\n  dup2\n    /* \"#utility.yul\":800:833   */\n  tag_15\n  jump\t// in\ntag_28:\n    /* \"#utility.yul\":696:839   */\n  swap3\n  swap2\n  pop\n  pop\n  jump\t// out\n    /* \"#utility.yul\":845:1196   */\ntag_3:\n    /* \"#utility.yul\":915:921   */\n  0x00\n    /* \"#utility.yul\":964:966   */\n  0x20\n    /* \"#utility.yul\":952:961   */\n  dup3\n    /* \"#utility.yul\":943:950   */\n  dup5\n    /* \"#utility.yul\":939:962   */\n  sub\n    /* \"#utility.yul\":935:967   */\n  slt\n    /* \"#utility.yul\":932:1051   */\n  iszero\n  tag_30\n  jumpi\n    /* \"#utility.yul\":970:1049   */\n  tag_31\n  tag_11\n  jump\t// in\ntag_31:\n    /* \"#utility.yul\":932:1051   */\ntag_30:\n    /* \"#utility.yul\":1090:1091   */\n  0x00\n    /* \"#utility.yul\":1115:1179   */\n  tag_32\n    /* \"#utility.yul\":1171:1178   */\n  dup5\n    /* \"#utility.yul\":1162:1168   */\n  dup3\n    /* \"#utility.yul\":1151:1160   */\n  dup6\n    /* \"#utility.yul\":1147:1169   */\n  add\n    /* \"#utility.yul\":1115:1179   */\n  tag_16\n  jump\t// in\ntag_32:\n    /* \"#utility.yul\":1105:1179   */\n  swap2\n  pop\n    /* \"#utility.yul\":1061:1189   */\n  pop\n    /* \"#utility.yul\":845:1196   */\n  swap3\n  swap2\n  pop\n  pop\n  jump\t// out\n    /* \"test/\\xe5\\x8f\\xaf\\xe5\\x8d\\x87\\xe7\\xba\\xa7\\xe5\\x90\\x88\\xe7\\xba\\xa6/Proxy.sol\":61:5019  contract Proxy {... */\ntag_8:\n  dataSize(sub_0)\n  dup1\n  dataOffset(sub_0)\n  0x00\n  codecopy\n  0x00\n  return\nstop\n\nsub_0: assembly {\n        /* \"test/\\xe5\\x8f\\xaf\\xe5\\x8d\\x87\\xe7\\xba\\xa7\\xe5\\x90\\x88\\xe7\\xba\\xa6/Proxy.sol\":61:5019  contract Proxy {... */\n      mstore(0x40, 0x80)\n      jumpi(tag_1, lt(calldatasize, 0x04))\n      shr(0xe0, calldataload(0x00))\n      dup1\n      0x3659cfe6\n      eq\n      tag_3\n      jumpi\n      jump(tag_2)\n    tag_1:\n      jumpi(tag_2, calldatasize)\n      stop\n    tag_2:\n        /* \"test/\\xe5\\x8f\\xaf\\xe5\\x8d\\x87\\xe7\\xba\\xa7\\xe5\\x90\\x88\\xe7\\xba\\xa6/Proxy.sol\":1202:1214  address impl */\n      0x00\n        /* \"test/\\xe5\\x8f\\xaf\\xe5\\x8d\\x87\\xe7\\xba\\xa7\\xe5\\x90\\x88\\xe7\\xba\\xa6/Proxy.sol\":1217:1237  _getImplementation() */\n      tag_8\n        /* \"test/\\xe5\\x8f\\xaf\\xe5\\x8d\\x87\\xe7\\xba\\xa7\\xe5\\x90\\x88\\xe7\\xba\\xa6/Proxy.sol\":1217:1235  _getImplementation */\n      tag_9\n        /* \"test/\\xe5\\x8f\\xaf\\xe5\\x8d\\x87\\xe7\\xba\\xa7\\xe5\\x90\\x88\\xe7\\xba\\xa6/Proxy.sol\":1217:1237  _getImplementation() */\n      jump\t// in\n    tag_8:\n        /* \"test/\\xe5\\x8f\\xaf\\xe5\\x8d\\x87\\xe7\\xba\\xa7\\xe5\\x90\\x88\\xe7\\xba\\xa6/Proxy.sol\":1202:1237  address impl = _getImplementation() */\n      swap1\n      pop\n        /* \"test/\\xe5\\x8f\\xaf\\xe5\\x8d\\x87\\xe7\\xba\\xa7\\xe5\\x90\\x88\\xe7\\xba\\xa6/Proxy.sol\":1272:1273  0 */\n      0x00\n        /* \"test/\\xe5\\x8f\\xaf\\xe5\\x8d\\x87\\xe7\\xba\\xa7\\xe5\\x90\\x88\\xe7\\xba\\xa6/Proxy.sol\":1256:1274  impl != address(0) */\n      0xffffffffffffffffffffffffffffffffffffffff\n      and\n        /* \"test/\\xe5\\x8f\\xaf\\xe5\\x8d\\x87\\xe7\\xba\\xa7\\xe5\\x90\\x88\\xe7\\xba\\xa6/Proxy.sol\":1256:1260  impl */\n      dup2\n        /* \"test/\\xe5\\x8f\\xaf\\xe5\\x8d\\x87\\xe7\\xba\\xa7\\xe5\\x90\\x88\\xe7\\xba\\xa6/Proxy.sol\":1256:1274  impl != address(0) */\n      0xffffffffffffffffffffffffffffffffffffffff\n      and\n      sub\n        /* \"test/\\xe5\\x8f\\xaf\\xe5\\x8d\\x87\\xe7\\xba\\xa7\\xe5\\x90\\x88\\xe7\\xba\\xa6/Proxy.sol\":1248:1301  require(impl != address(0), \"Implementation not set\") */\n      tag_10\n      jumpi\n      mload(0x40)\n      0x08c379a000000000000000000000000000000000000000000000000000000000\n      dup2\n      mstore\n      0x04\n      add\n      tag_11\n      swap1\n      tag_12\n      jump\t// in\n    tag_11:\n      mload(0x40)\n      dup1\n      swap2\n      sub\n      swap1\n      revert\n    tag_10:\n        /* \"test/\\xe5\\x8f\\xaf\\xe5\\x8d\\x87\\xe7\\xba\\xa7\\xe5\\x90\\x88\\xe7\\xba\\xa6/Proxy.sol\":4619:4623  0x40 */\n      0x40\n        /* \"test/\\xe5\\x8f\\xaf\\xe5\\x8d\\x87\\xe7\\xba\\xa7\\xe5\\x90\\x88\\xe7\\xba\\xa6/Proxy.sol\":4613:4624  mload(0x40) */\n      mload\n        /* \"test/\\xe5\\x8f\\xaf\\xe5\\x8d\\x87\\xe7\\xba\\xa7\\xe5\\x90\\x88\\xe7\\xba\\xa6/Proxy.sol\":4659:4673  calldatasize() */\n      calldatasize\n        /* \"test/\\xe5\\x8f\\xaf\\xe5\\x8d\\x87\\xe7\\xba\\xa7\\xe5\\x90\\x88\\xe7\\xba\\xa6/Proxy.sol\":4656:4657  0 */\n      0x00\n        /* \"test/\\xe5\\x8f\\xaf\\xe5\\x8d\\x87\\xe7\\xba\\xa7\\xe5\\x90\\x88\\xe7\\xba\\xa6/Proxy.sol\":4651:4654  ptr */\n      dup3\n        /* \"test/\\xe5\\x8f\\xaf\\xe5\\x8d\\x87\\xe7\\xba\\xa7\\xe5\\x90\\x88\\xe7\\xba\\xa6/Proxy.sol\":4638:4674  calldatacopy(ptr, 0, calldatasize()) */\n      calldatacopy\n        /* \"test/\\xe5\\x8f\\xaf\\xe5\\x8d\\x87\\xe7\\xba\\xa7\\xe5\\x90\\x88\\xe7\\xba\\xa6/Proxy.sol\":4754:4755  0 */\n      0x00\n        /* \"test/\\xe5\\x8f\\xaf\\xe5\\x8d\\x87\\xe7\\xba\\xa7\\xe5\\x90\\x88\\xe7\\xba\\xa6/Proxy.sol\":4751:4752  0 */\n      dup1\n        /* \"test/\\xe5\\x8f\\xaf\\xe5\\x8d\\x87\\xe7\\xba\\xa7\\xe5\\x90\\x88\\xe7\\xba\\xa6/Proxy.sol\":4735:4749  calldatasize() */\n      calldatasize\n        /* \"test/\\xe5\\x8f\\xaf\\xe5\\x8d\\x87\\xe7\\xba\\xa7\\xe5\\x90\\x88\\xe7\\xba\\xa6/Proxy.sol\":4730:4733  ptr */\n      dup4\n        /* \"test/\\xe5\\x8f\\xaf\\xe5\\x8d\\x87\\xe7\\xba\\xa7\\xe5\\x90\\x88\\xe7\\xba\\xa6/Proxy.sol\":4724:4728  impl */\n      dup6\n        /* \"test/\\xe5\\x8f\\xaf\\xe5\\x8d\\x87\\xe7\\xba\\xa7\\xe5\\x90\\x88\\xe7\\xba\\xa6/Proxy.sol\":4717:4722  gas() */\n      gas\n        /* \"test/\\xe5\\x8f\\xaf\\xe5\\x8d\\x87\\xe7\\xba\\xa7\\xe5\\x90\\x88\\xe7\\xba\\xa6/Proxy.sol\":4704:4756  delegatecall(gas(), impl, ptr, calldatasize(), 0, 0) */\n      delegatecall\n        /* \"test/\\xe5\\x8f\\xaf\\xe5\\x8d\\x87\\xe7\\xba\\xa7\\xe5\\x90\\x88\\xe7\\xba\\xa6/Proxy.sol\":4782:4798  returndatasize() */\n      returndatasize\n        /* \"test/\\xe5\\x8f\\xaf\\xe5\\x8d\\x87\\xe7\\xba\\xa7\\xe5\\x90\\x88\\xe7\\xba\\xa6/Proxy.sol\":4837:4841  size */\n      dup1\n        /* \"test/\\xe5\\x8f\\xaf\\xe5\\x8d\\x87\\xe7\\xba\\xa7\\xe5\\x90\\x88\\xe7\\xba\\xa6/Proxy.sol\":4834:4835  0 */\n      0x00\n        /* \"test/\\xe5\\x8f\\xaf\\xe5\\x8d\\x87\\xe7\\xba\\xa7\\xe5\\x90\\x88\\xe7\\xba\\xa6/Proxy.sol\":4829:4832  ptr */\n      dup5\n        /* \"test/\\xe5\\x8f\\xaf\\xe5\\x8d\\x87\\xe7\\xba\\xa7\\xe5\\x90\\x88\\xe7\\xba\\xa6/Proxy.sol\":4814:4842  returndatacopy(ptr, 0, size) */\n      returndatacopy\n        /* \"test/\\xe5\\x8f\\xaf\\xe5\\x8d\\x87\\xe7\\xba\\xa7\\xe5\\x90\\x88\\xe7\\xba\\xa6/Proxy.sol\":4878:4882  size */\n      dup1\n        /* \"test/\\xe5\\x8f\\xaf\\xe5\\x8d\\x87\\xe7\\xba\\xa7\\xe5\\x90\\x88\\xe7\\xba\\xa6/Proxy.sol\":4873:4876  ptr */\n      dup4\n        /* \"test/\\xe5\\x8f\\xaf\\xe5\\x8d\\x87\\xe7\\xba\\xa7\\xe5\\x90\\x88\\xe7\\xba\\xa6/Proxy.sol\":4869:4883  add(ptr, size) */\n      add\n        /* \"test/\\xe5\\x8f\\xaf\\xe5\\x8d\\x87\\xe7\\xba\\xa7\\xe5\\x90\\x88\\xe7\\xba\\xa6/Proxy.sol\":4863:4867  0x40 */\n      0x40\n        /* \"test/\\xe5\\x8f\\xaf\\xe5\\x8d\\x87\\xe7\\xba\\xa7\\xe5\\x90\\x88\\xe7\\xba\\xa6/Proxy.sol\":4856:4884  mstore(0x40, add(ptr, size)) */\n      mstore\n        /* \"test/\\xe5\\x8f\\xaf\\xe5\\x8d\\x87\\xe7\\xba\\xa7\\xe5\\x90\\x88\\xe7\\xba\\xa6/Proxy.sol\":4907:4913  result */\n      dup2\n        /* \"test/\\xe5\\x8f\\xaf\\xe5\\x8d\\x87\\xe7\\xba\\xa7\\xe5\\x90\\x88\\xe7\\xba\\xa6/Proxy.sol\":4932:4933  0 */\n      0x00\n        /* \"test/\\xe5\\x8f\\xaf\\xe5\\x8d\\x87\\xe7\\xba\\xa7\\xe5\\x90\\x88\\xe7\\xba\\xa6/Proxy.sol\":4927:4955  case 0 { revert(ptr, size) } */\n      dup2\n      eq\n      tag_14\n      jumpi\n        /* \"test/\\xe5\\x8f\\xaf\\xe5\\x8d\\x87\\xe7\\xba\\xa7\\xe5\\x90\\x88\\xe7\\xba\\xa6/Proxy.sol\":4991:4995  size */\n      dup2\n        /* \"test/\\xe5\\x8f\\xaf\\xe5\\x8d\\x87\\xe7\\xba\\xa7\\xe5\\x90\\x88\\xe7\\xba\\xa6/Proxy.sol\":4986:4989  ptr */\n      dup5\n        /* \"test/\\xe5\\x8f\\xaf\\xe5\\x8d\\x87\\xe7\\xba\\xa7\\xe5\\x90\\x88\\xe7\\xba\\xa6/Proxy.sol\":4979:4996  return(ptr, size) */\n      return\n        /* \"test/\\xe5\\x8f\\xaf\\xe5\\x8d\\x87\\xe7\\xba\\xa7\\xe5\\x90\\x88\\xe7\\xba\\xa6/Proxy.sol\":4927:4955  case 0 { revert(ptr, size) } */\n    tag_14:\n        /* \"test/\\xe5\\x8f\\xaf\\xe5\\x8d\\x87\\xe7\\xba\\xa7\\xe5\\x90\\x88\\xe7\\xba\\xa6/Proxy.sol\":4948:4952  size */\n      dup2\n        /* \"test/\\xe5\\x8f\\xaf\\xe5\\x8d\\x87\\xe7\\xba\\xa7\\xe5\\x90\\x88\\xe7\\xba\\xa6/Proxy.sol\":4943:4946  ptr */\n      dup5\n        /* \"test/\\xe5\\x8f\\xaf\\xe5\\x8d\\x87\\xe7\\xba\\xa7\\xe5\\x90\\x88\\xe7\\xba\\xa6/Proxy.sol\":4936:4953  revert(ptr, size) */\n      revert\n        /* \"test/\\xe5\\x8f\\xaf\\xe5\\x8d\\x87\\xe7\\xba\\xa7\\xe5\\x90\\x88\\xe7\\xba\\xa6/Proxy.sol\":964:1118  function upgradeTo(address newImplementation) external {... */\n    tag_3:\n      callvalue\n      dup1\n      iszero\n      tag_15\n      jumpi\n      0x00\n      dup1\n      revert\n    tag_15:\n      pop\n      tag_16\n      0x04\n      dup1\n      calldatasize\n      sub\n      dup2\n      add\n      swap1\n      tag_17\n      swap2\n      swap1\n      tag_18\n      jump\t// in\n    tag_17:\n      tag_19\n      jump\t// in\n    tag_16:\n      stop\n        /* \"test/\\xe5\\x8f\\xaf\\xe5\\x8d\\x87\\xe7\\xba\\xa7\\xe5\\x90\\x88\\xe7\\xba\\xa6/Proxy.sol\":499:719  function _getImplementation() internal view returns (address impl) {... */\n    tag_9:\n        /* \"test/\\xe5\\x8f\\xaf\\xe5\\x8d\\x87\\xe7\\xba\\xa7\\xe5\\x90\\x88\\xe7\\xba\\xa6/Proxy.sol\":552:564  address impl */\n      0x00\n        /* \"test/\\xe5\\x8f\\xaf\\xe5\\x8d\\x87\\xe7\\xba\\xa7\\xe5\\x90\\x88\\xe7\\xba\\xa6/Proxy.sol\":680:700  _IMPLEMENTATION_SLOT */\n      0x3f0b3fbbce1e4c5f7c91d1b1a4c871bfa7a43fbd13abbbb1744b59f235b7fabe\n        /* \"test/\\xe5\\x8f\\xaf\\xe5\\x8d\\x87\\xe7\\xba\\xa7\\xe5\\x90\\x88\\xe7\\xba\\xa6/Proxy.sol\":674:701  sload(_IMPLEMENTATION_SLOT) */\n      sload\n        /* \"test/\\xe5\\x8f\\xaf\\xe5\\x8d\\x87\\xe7\\xba\\xa7\\xe5\\x90\\x88\\xe7\\xba\\xa6/Proxy.sol\":666:701  impl := sload(_IMPLEMENTATION_SLOT) */\n      swap1\n      pop\n        /* \"test/\\xe5\\x8f\\xaf\\xe5\\x8d\\x87\\xe7\\xba\\xa7\\xe5\\x90\\x88\\xe7\\xba\\xa6/Proxy.sol\":499:719  function _getImplementation() internal view returns (address impl) {... */\n      swap1\n      jump\t// out\n        /* \"test/\\xe5\\x8f\\xaf\\xe5\\x8d\\x87\\xe7\\xba\\xa7\\xe5\\x90\\x88\\xe7\\xba\\xa6/Proxy.sol\":964:1118  function upgradeTo(address newImplementation) external {... */\n    tag_19:\n        /* \"test/\\xe5\\x8f\\xaf\\xe5\\x8d\\x87\\xe7\\xba\\xa7\\xe5\\x90\\x88\\xe7\\xba\\xa6/Proxy.sol\":1030:1067  _setImplementation(newImplementation) */\n      tag_22\n        /* \"test/\\xe5\\x8f\\xaf\\xe5\\x8d\\x87\\xe7\\xba\\xa7\\xe5\\x90\\x88\\xe7\\xba\\xa6/Proxy.sol\":1049:1066  newImplementation */\n      dup2\n        /* \"test/\\xe5\\x8f\\xaf\\xe5\\x8d\\x87\\xe7\\xba\\xa7\\xe5\\x90\\x88\\xe7\\xba\\xa6/Proxy.sol\":1030:1048  _setImplementation */\n      tag_23\n        /* \"test/\\xe5\\x8f\\xaf\\xe5\\x8d\\x87\\xe7\\xba\\xa7\\xe5\\x90\\x88\\xe7\\xba\\xa6/Proxy.sol\":1030:1067  _setImplementation(newImplementation) */\n      jump\t// in\n    tag_22:\n        /* \"test/\\xe5\\x8f\\xaf\\xe5\\x8d\\x87\\xe7\\xba\\xa7\\xe5\\x90\\x88\\xe7\\xba\\xa6/Proxy.sol\":1092:1109  newImplementation */\n      dup1\n        /* \"test/\\xe5\\x8f\\xaf\\xe5\\x8d\\x87\\xe7\\xba\\xa7\\xe5\\x90\\x88\\xe7\\xba\\xa6/Proxy.sol\":1083:1110  Upgraded(newImplementation) */\n      0xffffffffffffffffffffffffffffffffffffffff\n      and\n      0xbc7cd75a20ee27fd9adebab32041f755214dbc6bffa90cc0225b39da2e5c2d3b\n      mload(0x40)\n      mload(0x40)\n      dup1\n      swap2\n      sub\n      swap1\n      log2\n        /* \"test/\\xe5\\x8f\\xaf\\xe5\\x8d\\x87\\xe7\\xba\\xa7\\xe5\\x90\\x88\\xe7\\xba\\xa6/Proxy.sol\":964:1118  function upgradeTo(address newImplementation) external {... */\n      pop\n      jump\t// out\n        /* \"test/\\xe5\\x8f\\xaf\\xe5\\x8d\\x87\\xe7\\xba\\xa7\\xe5\\x90\\x88\\xe7\\xba\\xa6/Proxy.sol\":727:956  function _setImplementation(address newImplementation) internal {... */\n    tag_23:\n        /* \"test/\\xe5\\x8f\\xaf\\xe5\\x8d\\x87\\xe7\\xba\\xa7\\xe5\\x90\\x88\\xe7\\xba\\xa6/Proxy.sol\":920:937  newImplementation */\n      dup1\n        /* \"test/\\xe5\\x8f\\xaf\\xe5\\x8d\\x87\\xe7\\xba\\xa7\\xe5\\x90\\x88\\xe7\\xba\\xa6/Proxy.sol\":898:918  _IMPLEMENTATION_SLOT */\n      0x3f0b3fbbce1e4c5f7c91d1b1a4c871bfa7a43fbd13abbbb1744b59f235b7fabe\n        /* \"test/\\xe5\\x8f\\xaf\\xe5\\x8d\\x87\\xe7\\xba\\xa7\\xe5\\x90\\x88\\xe7\\xba\\xa6/Proxy.sol\":891:938  sstore(_IMPLEMENTATION_SLOT, newImplementation) */\n      sstore\n        /* \"test/\\xe5\\x8f\\xaf\\xe5\\x8d\\x87\\xe7\\xba\\xa7\\xe5\\x90\\x88\\xe7\\xba\\xa6/Proxy.sol\":727:956  function _setImplementation(address newImplementation) internal {... */\n      pop\n      jump\t// out\n        /* \"#utility.yul\":7:176   */\n    tag_25:\n        /* \"#utility.yul\":91:102   */\n      0x00\n        /* \"#utility.yul\":125:131   */\n      dup3\n        /* \"#utility.yul\":120:123   */\n      dup3\n        /* \"#utility.yul\":113:132   */\n      mstore\n        /* \"#utility.yul\":165:169   */\n      0x20\n        /* \"#utility.yul\":160:163   */\n      dup3\n        /* \"#utility.yul\":156:170   */\n      add\n        /* \"#utility.yul\":141:170   */\n      swap1\n      pop\n        /* \"#utility.yul\":7:176   */\n      swap3\n      swap2\n      pop\n      pop\n      jump\t// out\n        /* \"#utility.yul\":182:354   */\n    tag_26:\n        /* \"#utility.yul\":322:346   */\n      0x496d706c656d656e746174696f6e206e6f742073657400000000000000000000\n        /* \"#utility.yul\":318:319   */\n      0x00\n        /* \"#utility.yul\":310:316   */\n      dup3\n        /* \"#utility.yul\":306:320   */\n      add\n        /* \"#utility.yul\":299:347   */\n      mstore\n        /* \"#utility.yul\":182:354   */\n      pop\n      jump\t// out\n        /* \"#utility.yul\":360:726   */\n    tag_27:\n        /* \"#utility.yul\":502:505   */\n      0x00\n        /* \"#utility.yul\":523:590   */\n      tag_39\n        /* \"#utility.yul\":587:589   */\n      0x16\n        /* \"#utility.yul\":582:585   */\n      dup4\n        /* \"#utility.yul\":523:590   */\n      tag_25\n      jump\t// in\n    tag_39:\n        /* \"#utility.yul\":516:590   */\n      swap2\n      pop\n        /* \"#utility.yul\":599:692   */\n      tag_40\n        /* \"#utility.yul\":688:691   */\n      dup3\n        /* \"#utility.yul\":599:692   */\n      tag_26\n      jump\t// in\n    tag_40:\n        /* \"#utility.yul\":717:719   */\n      0x20\n        /* \"#utility.yul\":712:715   */\n      dup3\n        /* \"#utility.yul\":708:720   */\n      add\n        /* \"#utility.yul\":701:720   */\n      swap1\n      pop\n        /* \"#utility.yul\":360:726   */\n      swap2\n      swap1\n      pop\n      jump\t// out\n        /* \"#utility.yul\":732:1151   */\n    tag_12:\n        /* \"#utility.yul\":898:902   */\n      0x00\n        /* \"#utility.yul\":936:938   */\n      0x20\n        /* \"#utility.yul\":925:934   */\n      dup3\n        /* \"#utility.yul\":921:939   */\n      add\n        /* \"#utility.yul\":913:939   */\n      swap1\n      pop\n        /* \"#utility.yul\":985:994   */\n      dup2\n        /* \"#utility.yul\":979:983   */\n      dup2\n        /* \"#utility.yul\":975:995   */\n      sub\n        /* \"#utility.yul\":971:972   */\n      0x00\n        /* \"#utility.yul\":960:969   */\n      dup4\n        /* \"#utility.yul\":956:973   */\n      add\n        /* \"#utility.yul\":949:996   */\n      mstore\n        /* \"#utility.yul\":1013:1144   */\n      tag_42\n        /* \"#utility.yul\":1139:1143   */\n      dup2\n        /* \"#utility.yul\":1013:1144   */\n      tag_27\n      jump\t// in\n    tag_42:\n        /* \"#utility.yul\":1005:1144   */\n      swap1\n      pop\n        /* \"#utility.yul\":732:1151   */\n      swap2\n      swap1\n      pop\n      jump\t// out\n        /* \"#utility.yul\":1238:1355   */\n    tag_29:\n        /* \"#utility.yul\":1347:1348   */\n      0x00\n        /* \"#utility.yul\":1344:1345   */\n      dup1\n        /* \"#utility.yul\":1337:1349   */\n      revert\n        /* \"#utility.yul\":1484:1610   */\n    tag_31:\n        /* \"#utility.yul\":1521:1528   */\n      0x00\n        /* \"#utility.yul\":1561:1603   */\n      0xffffffffffffffffffffffffffffffffffffffff\n        /* \"#utility.yul\":1554:1559   */\n      dup3\n        /* \"#utility.yul\":1550:1604   */\n      and\n        /* \"#utility.yul\":1539:1604   */\n      swap1\n      pop\n        /* \"#utility.yul\":1484:1610   */\n      swap2\n      swap1\n      pop\n      jump\t// out\n        /* \"#utility.yul\":1616:1712   */\n    tag_32:\n        /* \"#utility.yul\":1653:1660   */\n      0x00\n        /* \"#utility.yul\":1682:1706   */\n      tag_48\n        /* \"#utility.yul\":1700:1705   */\n      dup3\n        /* \"#utility.yul\":1682:1706   */\n      tag_31\n      jump\t// in\n    tag_48:\n        /* \"#utility.yul\":1671:1706   */\n      swap1\n      pop\n        /* \"#utility.yul\":1616:1712   */\n      swap2\n      swap1\n      pop\n      jump\t// out\n        /* \"#utility.yul\":1718:1840   */\n    tag_33:\n        /* \"#utility.yul\":1791:1815   */\n      tag_50\n        /* \"#utility.yul\":1809:1814   */\n      dup2\n        /* \"#utility.yul\":1791:1815   */\n      tag_32\n      jump\t// in\n    tag_50:\n        /* \"#utility.yul\":1784:1789   */\n      dup2\n        /* \"#utility.yul\":1781:1816   */\n      eq\n        /* \"#utility.yul\":1771:1834   */\n      tag_51\n      jumpi\n        /* \"#utility.yul\":1830:1831   */\n      0x00\n        /* \"#utility.yul\":1827:1828   */\n      dup1\n        /* \"#utility.yul\":1820:1832   */\n      revert\n        /* \"#utility.yul\":1771:1834   */\n    tag_51:\n        /* \"#utility.yul\":1718:1840   */\n      pop\n      jump\t// out\n        /* \"#utility.yul\":1846:1985   */\n    tag_34:\n        /* \"#utility.yul\":1892:1897   */\n      0x00\n        /* \"#utility.yul\":1930:1936   */\n      dup2\n        /* \"#utility.yul\":1917:1937   */\n      calldataload\n        /* \"#utility.yul\":1908:1937   */\n      swap1\n      pop\n        /* \"#utility.yul\":1946:1979   */\n      tag_53\n        /* \"#utility.yul\":1973:1978   */\n      dup2\n        /* \"#utility.yul\":1946:1979   */\n      tag_33\n      jump\t// in\n    tag_53:\n        /* \"#utility.yul\":1846:1985   */\n      swap3\n      swap2\n      pop\n      pop\n      jump\t// out\n        /* \"#utility.yul\":1991:2320   */\n    tag_18:\n        /* \"#utility.yul\":2050:2056   */\n      0x00\n        /* \"#utility.yul\":2099:2101   */\n      0x20\n        /* \"#utility.yul\":2087:2096   */\n      dup3\n        /* \"#utility.yul\":2078:2085   */\n      dup5\n        /* \"#utility.yul\":2074:2097   */\n      sub\n        /* \"#utility.yul\":2070:2102   */\n      slt\n        /* \"#utility.yul\":2067:2186   */\n      iszero\n      tag_55\n      jumpi\n        /* \"#utility.yul\":2105:2184   */\n      tag_56\n      tag_29\n      jump\t// in\n    tag_56:\n        /* \"#utility.yul\":2067:2186   */\n    tag_55:\n        /* \"#utility.yul\":2225:2226   */\n      0x00\n        /* \"#utility.yul\":2250:2303   */\n      tag_57\n        /* \"#utility.yul\":2295:2302   */\n      dup5\n        /* \"#utility.yul\":2286:2292   */\n      dup3\n        /* \"#utility.yul\":2275:2284   */\n      dup6\n        /* \"#utility.yul\":2271:2293   */\n      add\n        /* \"#utility.yul\":2250:2303   */\n      tag_34\n      jump\t// in\n    tag_57:\n        /* \"#utility.yul\":2240:2303   */\n      swap2\n      pop\n        /* \"#utility.yul\":2196:2313   */\n      pop\n        /* \"#utility.yul\":1991:2320   */\n      swap3\n      swap2\n      pop\n      pop\n      jump\t// out\n\n    auxdata: 0xa26469706673582212202f7b1486da7a3a7d2837c10a9d18e1174c13099696aa51896e6760d6bb3a7d0264736f6c634300081a0033\n}\n",
				"bytecode": {
					"linkReferences": {},
					"object": "608060405234801561000f575f80fd5b506040516103c83803806103c8833981810160405281019061003191906100ca565b6100408161004660201b60201c565b506100f5565b807f3f0b3fbbce1e4c5f7c91d1b1a4c871bfa7a43fbd13abbbb1744b59f235b7fabe5550565b5f80fd5b5f73ffffffffffffffffffffffffffffffffffffffff82169050919050565b5f61009982610070565b9050919050565b6100a98161008f565b81146100b3575f80fd5b50565b5f815190506100c4816100a0565b92915050565b5f602082840312156100df576100de61006c565b5b5f6100ec848285016100b6565b91505092915050565b6102c6806101025f395ff3fe608060405260043610610021575f3560e01c80633659cfe6146100ca57610028565b3661002857005b5f6100316100f2565b90505f73ffffffffffffffffffffffffffffffffffffffff168173ffffffffffffffffffffffffffffffffffffffff16036100a1576040517f08c379a0000000000000000000000000000000000000000000000000000000008152600401610098906101e9565b60405180910390fd5b604051365f82375f803683855af43d805f843e808301604052815f81146100c6578184f35b8184fd5b3480156100d5575f80fd5b506100f060048036038101906100eb9190610265565b61011a565b005b5f7f3f0b3fbbce1e4c5f7c91d1b1a4c871bfa7a43fbd13abbbb1744b59f235b7fabe54905090565b61012381610169565b8073ffffffffffffffffffffffffffffffffffffffff167fbc7cd75a20ee27fd9adebab32041f755214dbc6bffa90cc0225b39da2e5c2d3b60405160405180910390a250565b807f3f0b3fbbce1e4c5f7c91d1b1a4c871bfa7a43fbd13abbbb1744b59f235b7fabe5550565b5f82825260208201905092915050565b7f496d706c656d656e746174696f6e206e6f7420736574000000000000000000005f82015250565b5f6101d360168361018f565b91506101de8261019f565b602082019050919050565b5f6020820190508181035f830152610200816101c7565b9050919050565b5f80fd5b5f73ffffffffffffffffffffffffffffffffffffffff82169050919050565b5f6102348261020b565b9050919050565b6102448161022a565b811461024e575f80fd5b50565b5f8135905061025f8161023b565b92915050565b5f6020828403121561027a57610279610207565b5b5f61028784828501610251565b9150509291505056fea26469706673582212202f7b1486da7a3a7d2837c10a9d18e1174c13099696aa51896e6760d6bb3a7d0264736f6c634300081a0033",
					"opcodes": "PUSH1 0x80 PUSH1 0x40 MSTORE CALLVALUE DUP1 ISZERO PUSH2 0xF JUMPI PUSH0 DUP1 REVERT JUMPDEST POP PUSH1 0x40 MLOAD PUSH2 0x3C8 CODESIZE SUB DUP1 PUSH2 0x3C8 DUP4 CODECOPY DUP2 DUP2 ADD PUSH1 0x40 MSTORE DUP2 ADD SWAP1 PUSH2 0x31 SWAP2 SWAP1 PUSH2 0xCA JUMP JUMPDEST PUSH2 0x40 DUP2 PUSH2 0x46 PUSH1 0x20 SHL PUSH1 0x20 SHR JUMP JUMPDEST POP PUSH2 0xF5 JUMP JUMPDEST DUP1 PUSH32 0x3F0B3FBBCE1E4C5F7C91D1B1A4C871BFA7A43FBD13ABBBB1744B59F235B7FABE SSTORE POP JUMP JUMPDEST PUSH0 DUP1 REVERT JUMPDEST PUSH0 PUSH20 0xFFFFFFFFFFFFFFFFFFFFFFFFFFFFFFFFFFFFFFFF DUP3 AND SWAP1 POP SWAP2 SWAP1 POP JUMP JUMPDEST PUSH0 PUSH2 0x99 DUP3 PUSH2 0x70 JUMP JUMPDEST SWAP1 POP SWAP2 SWAP1 POP JUMP JUMPDEST PUSH2 0xA9 DUP2 PUSH2 0x8F JUMP JUMPDEST DUP2 EQ PUSH2 0xB3 JUMPI PUSH0 DUP1 REVERT JUMPDEST POP JUMP JUMPDEST PUSH0 DUP2 MLOAD SWAP1 POP PUSH2 0xC4 DUP2 PUSH2 0xA0 JUMP JUMPDEST SWAP3 SWAP2 POP POP JUMP JUMPDEST PUSH0 PUSH1 0x20 DUP3 DUP5 SUB SLT ISZERO PUSH2 0xDF JUMPI PUSH2 0xDE PUSH2 0x6C JUMP JUMPDEST JUMPDEST PUSH0 PUSH2 0xEC DUP5 DUP3 DUP6 ADD PUSH2 0xB6 JUMP JUMPDEST SWAP2 POP POP SWAP3 SWAP2 POP POP JUMP JUMPDEST PUSH2 0x2C6 DUP1 PUSH2 0x102 PUSH0 CODECOPY PUSH0 RETURN INVALID PUSH1 0x80 PUSH1 0x40 MSTORE PUSH1 0x4 CALLDATASIZE LT PUSH2 0x21 JUMPI PUSH0 CALLDATALOAD PUSH1 0xE0 SHR DUP1 PUSH4 0x3659CFE6 EQ PUSH2 0xCA JUMPI PUSH2 0x28 JUMP JUMPDEST CALLDATASIZE PUSH2 0x28 JUMPI STOP JUMPDEST PUSH0 PUSH2 0x31 PUSH2 0xF2 JUMP JUMPDEST SWAP1 POP PUSH0 PUSH20 0xFFFFFFFFFFFFFFFFFFFFFFFFFFFFFFFFFFFFFFFF AND DUP2 PUSH20 0xFFFFFFFFFFFFFFFFFFFFFFFFFFFFFFFFFFFFFFFF AND SUB PUSH2 0xA1 JUMPI PUSH1 0x40 MLOAD PUSH32 0x8C379A000000000000000000000000000000000000000000000000000000000 DUP2 MSTORE PUSH1 0x4 ADD PUSH2 0x98 SWAP1 PUSH2 0x1E9 JUMP JUMPDEST PUSH1 0x40 MLOAD DUP1 SWAP2 SUB SWAP1 REVERT JUMPDEST PUSH1 0x40 MLOAD CALLDATASIZE PUSH0 DUP3 CALLDATACOPY PUSH0 DUP1 CALLDATASIZE DUP4 DUP6 GAS DELEGATECALL RETURNDATASIZE DUP1 PUSH0 DUP5 RETURNDATACOPY DUP1 DUP4 ADD PUSH1 0x40 MSTORE DUP2 PUSH0 DUP2 EQ PUSH2 0xC6 JUMPI DUP2 DUP5 RETURN JUMPDEST DUP2 DUP5 REVERT JUMPDEST CALLVALUE DUP1 ISZERO PUSH2 0xD5 JUMPI PUSH0 DUP1 REVERT JUMPDEST POP PUSH2 0xF0 PUSH1 0x4 DUP1 CALLDATASIZE SUB DUP2 ADD SWAP1 PUSH2 0xEB SWAP2 SWAP1 PUSH2 0x265 JUMP JUMPDEST PUSH2 0x11A JUMP JUMPDEST STOP JUMPDEST PUSH0 PUSH32 0x3F0B3FBBCE1E4C5F7C91D1B1A4C871BFA7A43FBD13ABBBB1744B59F235B7FABE SLOAD SWAP1 POP SWAP1 JUMP JUMPDEST PUSH2 0x123 DUP2 PUSH2 0x169 JUMP JUMPDEST DUP1 PUSH20 0xFFFFFFFFFFFFFFFFFFFFFFFFFFFFFFFFFFFFFFFF AND PUSH32 0xBC7CD75A20EE27FD9ADEBAB32041F755214DBC6BFFA90CC0225B39DA2E5C2D3B PUSH1 0x40 MLOAD PUSH1 0x40 MLOAD DUP1 SWAP2 SUB SWAP1 LOG2 POP JUMP JUMPDEST DUP1 PUSH32 0x3F0B3FBBCE1E4C5F7C91D1B1A4C871BFA7A43FBD13ABBBB1744B59F235B7FABE SSTORE POP JUMP JUMPDEST PUSH0 DUP3 DUP3 MSTORE PUSH1 0x20 DUP3 ADD SWAP1 POP SWAP3 SWAP2 POP POP JUMP JUMPDEST PUSH32 0x496D706C656D656E746174696F6E206E6F742073657400000000000000000000 PUSH0 DUP3 ADD MSTORE POP JUMP JUMPDEST PUSH0 PUSH2 0x1D3 PUSH1 0x16 DUP4 PUSH2 0x18F JUMP JUMPDEST SWAP2 POP PUSH2 0x1DE DUP3 PUSH2 0x19F JUMP JUMPDEST PUSH1 0x20 DUP3 ADD SWAP1 POP SWAP2 SWAP1 POP JUMP JUMPDEST PUSH0 PUSH1 0x20 DUP3 ADD SWAP1 POP DUP2 DUP2 SUB PUSH0 DUP4 ADD MSTORE PUSH2 0x200 DUP2 PUSH2 0x1C7 JUMP JUMPDEST SWAP1 POP SWAP2 SWAP1 POP JUMP JUMPDEST PUSH0 DUP1 REVERT JUMPDEST PUSH0 PUSH20 0xFFFFFFFFFFFFFFFFFFFFFFFFFFFFFFFFFFFFFFFF DUP3 AND SWAP1 POP SWAP2 SWAP1 POP JUMP JUMPDEST PUSH0 PUSH2 0x234 DUP3 PUSH2 0x20B JUMP JUMPDEST SWAP1 POP SWAP2 SWAP1 POP JUMP JUMPDEST PUSH2 0x244 DUP2 PUSH2 0x22A JUMP JUMPDEST DUP2 EQ PUSH2 0x24E JUMPI PUSH0 DUP1 REVERT JUMPDEST POP JUMP JUMPDEST PUSH0 DUP2 CALLDATALOAD SWAP1 POP PUSH2 0x25F DUP2 PUSH2 0x23B JUMP JUMPDEST SWAP3 SWAP2 POP POP JUMP JUMPDEST PUSH0 PUSH1 0x20 DUP3 DUP5 SUB SLT ISZERO PUSH2 0x27A JUMPI PUSH2 0x279 PUSH2 0x207 JUMP JUMPDEST JUMPDEST PUSH0 PUSH2 0x287 DUP5 DUP3 DUP6 ADD PUSH2 0x251 JUMP JUMPDEST SWAP2 POP POP SWAP3 SWAP2 POP POP JUMP INVALID LOG2 PUSH5 0x6970667358 0x22 SLT KECCAK256 0x2F PUSH28 0x1486DA7A3A7D2837C10A9D18E1174C13099696AA51896E6760D6BB3A PUSH30 0x264736F6C634300081A0033000000000000000000000000000000000000 "
				},
				"gasEstimates": {
					"creation": {
						"codeDepositCost": "142000",
						"executionCost": "infinite",
						"totalCost": "infinite"
					},
					"external": {
						"": "infinite",
						"upgradeTo(address)": "23723"
					},
					"internal": {
						"_getImplementation()": "2122",
						"_setImplementation(address)": "22117"
					}
				},
				"methodIdentifiers": {
					"upgradeTo(address)": "3659cfe6"
				}
			},
			"storageLayout": {
				"storage": [],
				"types": null
			},
			"userdoc": {
				"kind": "user",
				"methods": {},
				"version": 1
			}
		}
	}
}