{
	"data": {
		"bytecode": {
			"linkReferences": {},
			"object": "6080604052348015600e575f80fd5b506103868061001c5f395ff3fe608060405234801561000f575f80fd5b5060043610610034575f3560e01c80631a627f48146100385780637bc5bbbf14610068575b5f80fd5b610052600480360381019061004d9190610166565b610084565b60405161005f91906101a0565b60405180910390f35b610082600480360381019061007d9190610309565b6100a3565b005b5f8181548110610092575f80fd5b905f5260205f20015f915090505481565b805f90805190602001906100b89291906100bc565b5050565b828054828255905f5260205f209081019282156100f6579160200282015b828111156100f55782518255916020019190600101906100da565b5b5090506101039190610107565b5090565b5b8082111561011e575f815f905550600101610108565b5090565b5f604051905090565b5f80fd5b5f80fd5b5f819050919050565b61014581610133565b811461014f575f80fd5b50565b5f813590506101608161013c565b92915050565b5f6020828403121561017b5761017a61012b565b5b5f61018884828501610152565b91505092915050565b61019a81610133565b82525050565b5f6020820190506101b35f830184610191565b92915050565b5f80fd5b5f601f19601f8301169050919050565b7f4e487b71000000000000000000000000000000000000000000000000000000005f52604160045260245ffd5b610203826101bd565b810181811067ffffffffffffffff82111715610222576102216101cd565b5b80604052505050565b5f610234610122565b905061024082826101fa565b919050565b5f67ffffffffffffffff82111561025f5761025e6101cd565b5b602082029050602081019050919050565b5f80fd5b5f61028661028184610245565b61022b565b905080838252602082019050602084028301858111156102a9576102a8610270565b5b835b818110156102d257806102be8882610152565b8452602084019350506020810190506102ab565b5050509392505050565b5f82601f8301126102f0576102ef6101b9565b5b8135610300848260208601610274565b91505092915050565b5f6020828403121561031e5761031d61012b565b5b5f82013567ffffffffffffffff81111561033b5761033a61012f565b5b610347848285016102dc565b9150509291505056fea26469706673582212209dd808144e11d6804309cc3637863b56b4557d41e4fe66b7d226ad3888180d0b64736f6c634300081a0033",
			"opcodes": "PUSH1 0x80 PUSH1 0x40 MSTORE CALLVALUE DUP1 ISZERO PUSH1 0xE JUMPI PUSH0 DUP1 REVERT JUMPDEST POP PUSH2 0x386 DUP1 PUSH2 0x1C PUSH0 CODECOPY PUSH0 RETURN INVALID PUSH1 0x80 PUSH1 0x40 MSTORE CALLVALUE DUP1 ISZERO PUSH2 0xF JUMPI PUSH0 DUP1 REVERT JUMPDEST POP PUSH1 0x4 CALLDATASIZE LT PUSH2 0x34 JUMPI PUSH0 CALLDATALOAD PUSH1 0xE0 SHR DUP1 PUSH4 0x1A627F48 EQ PUSH2 0x38 JUMPI DUP1 PUSH4 0x7BC5BBBF EQ PUSH2 0x68 JUMPI JUMPDEST PUSH0 DUP1 REVERT JUMPDEST PUSH2 0x52 PUSH1 0x4 DUP1 CALLDATASIZE SUB DUP2 ADD SWAP1 PUSH2 0x4D SWAP2 SWAP1 PUSH2 0x166 JUMP JUMPDEST PUSH2 0x84 JUMP JUMPDEST PUSH1 0x40 MLOAD PUSH2 0x5F SWAP2 SWAP1 PUSH2 0x1A0 JUMP JUMPDEST PUSH1 0x40 MLOAD DUP1 SWAP2 SUB SWAP1 RETURN JUMPDEST PUSH2 0x82 PUSH1 0x4 DUP1 CALLDATASIZE SUB DUP2 ADD SWAP1 PUSH2 0x7D SWAP2 SWAP1 PUSH2 0x309 JUMP JUMPDEST PUSH2 0xA3 JUMP JUMPDEST STOP JUMPDEST PUSH0 DUP2 DUP2 SLOAD DUP2 LT PUSH2 0x92 JUMPI PUSH0 DUP1 REVERT JUMPDEST SWAP1 PUSH0 MSTORE PUSH1 0x20 PUSH0 KECCAK256 ADD PUSH0 SWAP2 POP SWAP1 POP SLOAD DUP2 JUMP JUMPDEST DUP1 PUSH0 SWAP1 DUP1 MLOAD SWAP1 PUSH1 0x20 ADD SWAP1 PUSH2 0xB8 SWAP3 SWAP2 SWAP1 PUSH2 0xBC JUMP JUMPDEST POP POP JUMP JUMPDEST DUP3 DUP1 SLOAD DUP3 DUP3 SSTORE SWAP1 PUSH0 MSTORE PUSH1 0x20 PUSH0 KECCAK256 SWAP1 DUP2 ADD SWAP3 DUP3 ISZERO PUSH2 0xF6 JUMPI SWAP2 PUSH1 0x20 MUL DUP3 ADD JUMPDEST DUP3 DUP2 GT ISZERO PUSH2 0xF5 JUMPI DUP3 MLOAD DUP3 SSTORE SWAP2 PUSH1 0x20 ADD SWAP2 SWAP1 PUSH1 0x1 ADD SWAP1 PUSH2 0xDA JUMP JUMPDEST JUMPDEST POP SWAP1 POP PUSH2 0x103 SWAP2 SWAP1 PUSH2 0x107 JUMP JUMPDEST POP SWAP1 JUMP JUMPDEST JUMPDEST DUP1 DUP3 GT ISZERO PUSH2 0x11E JUMPI PUSH0 DUP2 PUSH0 SWAP1 SSTORE POP PUSH1 0x1 ADD PUSH2 0x108 JUMP JUMPDEST POP SWAP1 JUMP JUMPDEST PUSH0 PUSH1 0x40 MLOAD SWAP1 POP SWAP1 JUMP JUMPDEST PUSH0 DUP1 REVERT JUMPDEST PUSH0 DUP1 REVERT JUMPDEST PUSH0 DUP2 SWAP1 POP SWAP2 SWAP1 POP JUMP JUMPDEST PUSH2 0x145 DUP2 PUSH2 0x133 JUMP JUMPDEST DUP2 EQ PUSH2 0x14F JUMPI PUSH0 DUP1 REVERT JUMPDEST POP JUMP JUMPDEST PUSH0 DUP2 CALLDATALOAD SWAP1 POP PUSH2 0x160 DUP2 PUSH2 0x13C JUMP JUMPDEST SWAP3 SWAP2 POP POP JUMP JUMPDEST PUSH0 PUSH1 0x20 DUP3 DUP5 SUB SLT ISZERO PUSH2 0x17B JUMPI PUSH2 0x17A PUSH2 0x12B JUMP JUMPDEST JUMPDEST PUSH0 PUSH2 0x188 DUP5 DUP3 DUP6 ADD PUSH2 0x152 JUMP JUMPDEST SWAP2 POP POP SWAP3 SWAP2 POP POP JUMP JUMPDEST PUSH2 0x19A DUP2 PUSH2 0x133 JUMP JUMPDEST DUP3 MSTORE POP POP JUMP JUMPDEST PUSH0 PUSH1 0x20 DUP3 ADD SWAP1 POP PUSH2 0x1B3 PUSH0 DUP4 ADD DUP5 PUSH2 0x191 JUMP JUMPDEST SWAP3 SWAP2 POP POP JUMP JUMPDEST PUSH0 DUP1 REVERT JUMPDEST PUSH0 PUSH1 0x1F NOT PUSH1 0x1F DUP4 ADD AND SWAP1 POP SWAP2 SWAP1 POP JUMP JUMPDEST PUSH32 0x4E487B7100000000000000000000000000000000000000000000000000000000 PUSH0 MSTORE PUSH1 0x41 PUSH1 0x4 MSTORE PUSH1 0x24 PUSH0 REVERT JUMPDEST PUSH2 0x203 DUP3 PUSH2 0x1BD JUMP JUMPDEST DUP2 ADD DUP2 DUP2 LT PUSH8 0xFFFFFFFFFFFFFFFF DUP3 GT OR ISZERO PUSH2 0x222 JUMPI PUSH2 0x221 PUSH2 0x1CD JUMP JUMPDEST JUMPDEST DUP1 PUSH1 0x40 MSTORE POP POP POP JUMP JUMPDEST PUSH0 PUSH2 0x234 PUSH2 0x122 JUMP JUMPDEST SWAP1 POP PUSH2 0x240 DUP3 DUP3 PUSH2 0x1FA JUMP JUMPDEST SWAP2 SWAP1 POP JUMP JUMPDEST PUSH0 PUSH8 0xFFFFFFFFFFFFFFFF DUP3 GT ISZERO PUSH2 0x25F JUMPI PUSH2 0x25E PUSH2 0x1CD JUMP JUMPDEST JUMPDEST PUSH1 0x20 DUP3 MUL SWAP1 POP PUSH1 0x20 DUP2 ADD SWAP1 POP SWAP2 SWAP1 POP JUMP JUMPDEST PUSH0 DUP1 REVERT JUMPDEST PUSH0 PUSH2 0x286 PUSH2 0x281 DUP5 PUSH2 0x245 JUMP JUMPDEST PUSH2 0x22B JUMP JUMPDEST SWAP1 POP DUP1 DUP4 DUP3 MSTORE PUSH1 0x20 DUP3 ADD SWAP1 POP PUSH1 0x20 DUP5 MUL DUP4 ADD DUP6 DUP2 GT ISZERO PUSH2 0x2A9 JUMPI PUSH2 0x2A8 PUSH2 0x270 JUMP JUMPDEST JUMPDEST DUP4 JUMPDEST DUP2 DUP2 LT ISZERO PUSH2 0x2D2 JUMPI DUP1 PUSH2 0x2BE DUP9 DUP3 PUSH2 0x152 JUMP JUMPDEST DUP5 MSTORE PUSH1 0x20 DUP5 ADD SWAP4 POP POP PUSH1 0x20 DUP2 ADD SWAP1 POP PUSH2 0x2AB JUMP JUMPDEST POP POP POP SWAP4 SWAP3 POP POP POP JUMP JUMPDEST PUSH0 DUP3 PUSH1 0x1F DUP4 ADD SLT PUSH2 0x2F0 JUMPI PUSH2 0x2EF PUSH2 0x1B9 JUMP JUMPDEST JUMPDEST DUP2 CALLDATALOAD PUSH2 0x300 DUP5 DUP3 PUSH1 0x20 DUP7 ADD PUSH2 0x274 JUMP JUMPDEST SWAP2 POP POP SWAP3 SWAP2 POP POP JUMP JUMPDEST PUSH0 PUSH1 0x20 DUP3 DUP5 SUB SLT ISZERO PUSH2 0x31E JUMPI PUSH2 0x31D PUSH2 0x12B JUMP JUMPDEST JUMPDEST PUSH0 DUP3 ADD CALLDATALOAD PUSH8 0xFFFFFFFFFFFFFFFF DUP2 GT ISZERO PUSH2 0x33B JUMPI PUSH2 0x33A PUSH2 0x12F JUMP JUMPDEST JUMPDEST PUSH2 0x347 DUP5 DUP3 DUP6 ADD PUSH2 0x2DC JUMP JUMPDEST SWAP2 POP POP SWAP3 SWAP2 POP POP JUMP INVALID LOG2 PUSH5 0x6970667358 0x22 SLT KECCAK256 SWAP14 0xD8 ADDMOD EQ 0x4E GT 0xD6 DUP1 NUMBER MULMOD 0xCC CALLDATASIZE CALLDATACOPY DUP7 EXTCODESIZE JUMP 0xB4 SSTORE PUSH30 0x41E4FE66B7D226AD3888180D0B64736F6C634300081A0033000000000000 "
		},
		"gasEstimates": {
			"creation": {
				"codeDepositCost": "180400",
				"executionCost": "224",
				"totalCost": "180624"
			},
			"external": {
				"f(uint256[])": "infinite",
				"xx(uint256)": "infinite"
			}
		},
		"methodIdentifiers": {
			"f(uint256[])": "7bc5bbbf",
			"xx(uint256)": "1a627f48"
		}
	},
	"abi": [
		{
			"inputs": [
				{
					"internalType": "uint256[]",
					"name": "memoryArray",
					"type": "uint256[]"
				}
			],
			"name": "f",
			"outputs": [],
			"stateMutability": "nonpayable",
			"type": "function"
		},
		{
			"inputs": [
				{
					"internalType": "uint256",
					"name": "",
					"type": "uint256"
				}
			],
			"name": "xx",
			"outputs": [
				{
					"internalType": "uint256",
					"name": "",
					"type": "uint256"
				}
			],
			"stateMutability": "view",
			"type": "function"
		}
	]
}