{
	"test/合约类型.sol": {
		"HelloCreatetor": {
			"abi": [
				{
					"inputs": [],
					"name": "calHi",
					"outputs": [
						{
							"internalType": "uint256",
							"name": "",
							"type": "uint256"
						}
					],
					"stateMutability": "nonpayable",
					"type": "function"
				},
				{
					"inputs": [],
					"name": "createHello",
					"outputs": [
						{
							"internalType": "address",
							"name": "",
							"type": "address"
						}
					],
					"stateMutability": "nonpayable",
					"type": "function"
				},
				{
					"inputs": [],
					"name": "h",
					"outputs": [
						{
							"internalType": "contract Hello",
							"name": "",
							"type": "address"
						}
					],
					"stateMutability": "view",
					"type": "function"
				},
				{
					"inputs": [
						{
							"internalType": "address",
							"name": "addr",
							"type": "address"
						}
					],
					"name": "isContract",
					"outputs": [
						{
							"internalType": "bool",
							"name": "",
							"type": "bool"
						}
					],
					"stateMutability": "view",
					"type": "function"
				},
				{
					"inputs": [],
					"name": "x",
					"outputs": [
						{
							"internalType": "uint256",
							"name": "",
							"type": "uint256"
						}
					],
					"stateMutability": "view",
					"type": "function"
				}
			],
			"devdoc": {
				"kind": "dev",
				"methods": {},
				"version": 1
			},
			"evm": {
				"assembly": "    /* \"test/\\xe5\\x90\\x88\\xe7\\xba\\xa6\\xe7\\xb1\\xbb\\xe5\\x9e\\x8b.sol\":162:1109  contract HelloCreatetor{... */\n  mstore(0x40, 0x80)\n  callvalue\n  dup1\n  iszero\n  tag_1\n  jumpi\n  0x00\n  dup1\n  revert\ntag_1:\n  pop\n  dataSize(sub_0)\n  dup1\n  dataOffset(sub_0)\n  0x00\n  codecopy\n  0x00\n  return\nstop\n\nsub_0: assembly {\n        /* \"test/\\xe5\\x90\\x88\\xe7\\xba\\xa6\\xe7\\xb1\\xbb\\xe5\\x9e\\x8b.sol\":162:1109  contract HelloCreatetor{... */\n      mstore(0x40, 0x80)\n      callvalue\n      dup1\n      iszero\n      tag_1\n      jumpi\n      0x00\n      dup1\n      revert\n    tag_1:\n      pop\n      jumpi(tag_2, lt(calldatasize, 0x04))\n      shr(0xe0, calldataload(0x00))\n      dup1\n      0x0c55699c\n      eq\n      tag_3\n      jumpi\n      dup1\n      0x16279055\n      eq\n      tag_4\n      jumpi\n      dup1\n      0x54569d0f\n      eq\n      tag_5\n      jumpi\n      dup1\n      0xb8c9d365\n      eq\n      tag_6\n      jumpi\n      dup1\n      0xbb8eff62\n      eq\n      tag_7\n      jumpi\n    tag_2:\n      0x00\n      dup1\n      revert\n        /* \"test/\\xe5\\x90\\x88\\xe7\\xba\\xa6\\xe7\\xb1\\xbb\\xe5\\x9e\\x8b.sol\":196:209  uint public x */\n    tag_3:\n      tag_8\n      tag_9\n      jump\t// in\n    tag_8:\n      mload(0x40)\n      tag_10\n      swap2\n      swap1\n      tag_11\n      jump\t// in\n    tag_10:\n      mload(0x40)\n      dup1\n      swap2\n      sub\n      swap1\n      return\n        /* \"test/\\xe5\\x90\\x88\\xe7\\xba\\xa6\\xe7\\xb1\\xbb\\xe5\\x9e\\x8b.sol\":925:1103  function isContract(address addr) public view returns (bool) {... */\n    tag_4:\n      tag_12\n      0x04\n      dup1\n      calldatasize\n      sub\n      dup2\n      add\n      swap1\n      tag_13\n      swap2\n      swap1\n      tag_14\n      jump\t// in\n    tag_13:\n      tag_15\n      jump\t// in\n    tag_12:\n      mload(0x40)\n      tag_16\n      swap2\n      swap1\n      tag_17\n      jump\t// in\n    tag_16:\n      mload(0x40)\n      dup1\n      swap2\n      sub\n      swap1\n      return\n        /* \"test/\\xe5\\x90\\x88\\xe7\\xba\\xa6\\xe7\\xb1\\xbb\\xe5\\x9e\\x8b.sol\":245:363  function createHello() public returns(address){... */\n    tag_5:\n      tag_18\n      tag_19\n      jump\t// in\n    tag_18:\n      mload(0x40)\n      tag_20\n      swap2\n      swap1\n      tag_21\n      jump\t// in\n    tag_20:\n      mload(0x40)\n      dup1\n      swap2\n      sub\n      swap1\n      return\n        /* \"test/\\xe5\\x90\\x88\\xe7\\xba\\xa6\\xe7\\xb1\\xbb\\xe5\\x9e\\x8b.sol\":220:234  Hello public h */\n    tag_6:\n      tag_22\n      tag_23\n      jump\t// in\n    tag_22:\n      mload(0x40)\n      tag_24\n      swap2\n      swap1\n      tag_25\n      jump\t// in\n    tag_24:\n      mload(0x40)\n      dup1\n      swap2\n      sub\n      swap1\n      return\n        /* \"test/\\xe5\\x90\\x88\\xe7\\xba\\xa6\\xe7\\xb1\\xbb\\xe5\\x9e\\x8b.sol\":371:460  function calHi() public returns(uint){... */\n    tag_7:\n      tag_26\n      tag_27\n      jump\t// in\n    tag_26:\n      mload(0x40)\n      tag_28\n      swap2\n      swap1\n      tag_11\n      jump\t// in\n    tag_28:\n      mload(0x40)\n      dup1\n      swap2\n      sub\n      swap1\n      return\n        /* \"test/\\xe5\\x90\\x88\\xe7\\xba\\xa6\\xe7\\xb1\\xbb\\xe5\\x9e\\x8b.sol\":196:209  uint public x */\n    tag_9:\n      sload(0x00)\n      dup2\n      jump\t// out\n        /* \"test/\\xe5\\x90\\x88\\xe7\\xba\\xa6\\xe7\\xb1\\xbb\\xe5\\x9e\\x8b.sol\":925:1103  function isContract(address addr) public view returns (bool) {... */\n    tag_15:\n        /* \"test/\\xe5\\x90\\x88\\xe7\\xba\\xa6\\xe7\\xb1\\xbb\\xe5\\x9e\\x8b.sol\":980:984  bool */\n      0x00\n        /* \"test/\\xe5\\x90\\x88\\xe7\\xba\\xa6\\xe7\\xb1\\xbb\\xe5\\x9e\\x8b.sol\":1001:1010  uint size */\n      dup1\n        /* \"test/\\xe5\\x90\\x88\\xe7\\xba\\xa6\\xe7\\xb1\\xbb\\xe5\\x9e\\x8b.sol\":1057:1061  addr */\n      dup3\n        /* \"test/\\xe5\\x90\\x88\\xe7\\xba\\xa6\\xe7\\xb1\\xbb\\xe5\\x9e\\x8b.sol\":1045:1062  extcodesize(addr) */\n      extcodesize\n        /* \"test/\\xe5\\x90\\x88\\xe7\\xba\\xa6\\xe7\\xb1\\xbb\\xe5\\x9e\\x8b.sol\":1037:1062  size := extcodesize(addr) */\n      swap1\n      pop\n        /* \"test/\\xe5\\x90\\x88\\xe7\\xba\\xa6\\xe7\\xb1\\xbb\\xe5\\x9e\\x8b.sol\":1092:1093  0 */\n      0x00\n        /* \"test/\\xe5\\x90\\x88\\xe7\\xba\\xa6\\xe7\\xb1\\xbb\\xe5\\x9e\\x8b.sol\":1085:1089  size */\n      dup2\n        /* \"test/\\xe5\\x90\\x88\\xe7\\xba\\xa6\\xe7\\xb1\\xbb\\xe5\\x9e\\x8b.sol\":1085:1093  size > 0 */\n      gt\n        /* \"test/\\xe5\\x90\\x88\\xe7\\xba\\xa6\\xe7\\xb1\\xbb\\xe5\\x9e\\x8b.sol\":1078:1093  return size > 0 */\n      swap2\n      pop\n      pop\n        /* \"test/\\xe5\\x90\\x88\\xe7\\xba\\xa6\\xe7\\xb1\\xbb\\xe5\\x9e\\x8b.sol\":925:1103  function isContract(address addr) public view returns (bool) {... */\n      swap2\n      swap1\n      pop\n      jump\t// out\n        /* \"test/\\xe5\\x90\\x88\\xe7\\xba\\xa6\\xe7\\xb1\\xbb\\xe5\\x9e\\x8b.sol\":245:363  function createHello() public returns(address){... */\n    tag_19:\n        /* \"test/\\xe5\\x90\\x88\\xe7\\xba\\xa6\\xe7\\xb1\\xbb\\xe5\\x9e\\x8b.sol\":283:290  address */\n      0x00\n        /* \"test/\\xe5\\x90\\x88\\xe7\\xba\\xa6\\xe7\\xb1\\xbb\\xe5\\x9e\\x8b.sol\":308:319  new Hello() */\n      mload(0x40)\n      tag_31\n      swap1\n      tag_32\n      jump\t// in\n    tag_31:\n      mload(0x40)\n      dup1\n      swap2\n      sub\n      swap1\n      0x00\n      create\n      dup1\n      iszero\n      dup1\n      iszero\n      tag_33\n      jumpi\n      returndatasize\n      0x00\n      dup1\n      returndatacopy\n      revert(0x00, returndatasize)\n    tag_33:\n      pop\n        /* \"test/\\xe5\\x90\\x88\\xe7\\xba\\xa6\\xe7\\xb1\\xbb\\xe5\\x9e\\x8b.sol\":306:307  h */\n      0x01\n      0x00\n        /* \"test/\\xe5\\x90\\x88\\xe7\\xba\\xa6\\xe7\\xb1\\xbb\\xe5\\x9e\\x8b.sol\":306:319  h=new Hello() */\n      0x0100\n      exp\n      dup2\n      sload\n      dup2\n      0xffffffffffffffffffffffffffffffffffffffff\n      mul\n      not\n      and\n      swap1\n      dup4\n      0xffffffffffffffffffffffffffffffffffffffff\n      and\n      mul\n      or\n      swap1\n      sstore\n      pop\n        /* \"test/\\xe5\\x90\\x88\\xe7\\xba\\xa6\\xe7\\xb1\\xbb\\xe5\\x9e\\x8b.sol\":349:350  h */\n      0x01\n      0x00\n      swap1\n      sload\n      swap1\n      0x0100\n      exp\n      swap1\n      div\n      0xffffffffffffffffffffffffffffffffffffffff\n      and\n        /* \"test/\\xe5\\x90\\x88\\xe7\\xba\\xa6\\xe7\\xb1\\xbb\\xe5\\x9e\\x8b.sol\":334:351  return address(h) */\n      swap1\n      pop\n        /* \"test/\\xe5\\x90\\x88\\xe7\\xba\\xa6\\xe7\\xb1\\xbb\\xe5\\x9e\\x8b.sol\":245:363  function createHello() public returns(address){... */\n      swap1\n      jump\t// out\n        /* \"test/\\xe5\\x90\\x88\\xe7\\xba\\xa6\\xe7\\xb1\\xbb\\xe5\\x9e\\x8b.sol\":220:234  Hello public h */\n    tag_23:\n      0x01\n      0x00\n      swap1\n      sload\n      swap1\n      0x0100\n      exp\n      swap1\n      div\n      0xffffffffffffffffffffffffffffffffffffffff\n      and\n      dup2\n      jump\t// out\n        /* \"test/\\xe5\\x90\\x88\\xe7\\xba\\xa6\\xe7\\xb1\\xbb\\xe5\\x9e\\x8b.sol\":371:460  function calHi() public returns(uint){... */\n    tag_27:\n        /* \"test/\\xe5\\x90\\x88\\xe7\\xba\\xa6\\xe7\\xb1\\xbb\\xe5\\x9e\\x8b.sol\":403:407  uint */\n      0x00\n        /* \"test/\\xe5\\x90\\x88\\xe7\\xba\\xa6\\xe7\\xb1\\xbb\\xe5\\x9e\\x8b.sol\":421:422  h */\n      0x01\n      0x00\n      swap1\n      sload\n      swap1\n      0x0100\n      exp\n      swap1\n      div\n      0xffffffffffffffffffffffffffffffffffffffff\n      and\n        /* \"test/\\xe5\\x90\\x88\\xe7\\xba\\xa6\\xe7\\xb1\\xbb\\xe5\\x9e\\x8b.sol\":421:431  h.sayhello */\n      0xffffffffffffffffffffffffffffffffffffffff\n      and\n      0x27a03cd7\n        /* \"test/\\xe5\\x90\\x88\\xe7\\xba\\xa6\\xe7\\xb1\\xbb\\xe5\\x9e\\x8b.sol\":421:433  h.sayhello() */\n      mload(0x40)\n      dup2\n      0xffffffff\n      and\n      0xe0\n      shl\n      dup2\n      mstore\n      0x04\n      add\n      0x20\n      mload(0x40)\n      dup1\n      dup4\n      sub\n      dup2\n      dup7\n      gas\n      staticcall\n      iszero\n      dup1\n      iszero\n      tag_36\n      jumpi\n      returndatasize\n      0x00\n      dup1\n      returndatacopy\n      revert(0x00, returndatasize)\n    tag_36:\n      pop\n      pop\n      pop\n      pop\n      mload(0x40)\n      returndatasize\n      not(0x1f)\n      0x1f\n      dup3\n      add\n      and\n      dup3\n      add\n      dup1\n      0x40\n      mstore\n      pop\n      dup2\n      add\n      swap1\n      tag_37\n      swap2\n      swap1\n      tag_38\n      jump\t// in\n    tag_37:\n        /* \"test/\\xe5\\x90\\x88\\xe7\\xba\\xa6\\xe7\\xb1\\xbb\\xe5\\x9e\\x8b.sol\":419:420  x */\n      0x00\n        /* \"test/\\xe5\\x90\\x88\\xe7\\xba\\xa6\\xe7\\xb1\\xbb\\xe5\\x9e\\x8b.sol\":419:433  x=h.sayhello() */\n      dup2\n      swap1\n      sstore\n      pop\n        /* \"test/\\xe5\\x90\\x88\\xe7\\xba\\xa6\\xe7\\xb1\\xbb\\xe5\\x9e\\x8b.sol\":451:452  x */\n      sload(0x00)\n        /* \"test/\\xe5\\x90\\x88\\xe7\\xba\\xa6\\xe7\\xb1\\xbb\\xe5\\x9e\\x8b.sol\":444:452  return x */\n      swap1\n      pop\n        /* \"test/\\xe5\\x90\\x88\\xe7\\xba\\xa6\\xe7\\xb1\\xbb\\xe5\\x9e\\x8b.sol\":371:460  function calHi() public returns(uint){... */\n      swap1\n      jump\t// out\n    tag_32:\n      dataSize(sub_0)\n      dup1\n      dataOffset(sub_0)\n      dup4\n      codecopy\n      add\n      swap1\n      jump\t// out\n        /* \"#utility.yul\":7:84   */\n    tag_39:\n        /* \"#utility.yul\":44:51   */\n      0x00\n        /* \"#utility.yul\":73:78   */\n      dup2\n        /* \"#utility.yul\":62:78   */\n      swap1\n      pop\n        /* \"#utility.yul\":7:84   */\n      swap2\n      swap1\n      pop\n      jump\t// out\n        /* \"#utility.yul\":90:208   */\n    tag_40:\n        /* \"#utility.yul\":177:201   */\n      tag_61\n        /* \"#utility.yul\":195:200   */\n      dup2\n        /* \"#utility.yul\":177:201   */\n      tag_39\n      jump\t// in\n    tag_61:\n        /* \"#utility.yul\":172:175   */\n      dup3\n        /* \"#utility.yul\":165:202   */\n      mstore\n        /* \"#utility.yul\":90:208   */\n      pop\n      pop\n      jump\t// out\n        /* \"#utility.yul\":214:436   */\n    tag_11:\n        /* \"#utility.yul\":307:311   */\n      0x00\n        /* \"#utility.yul\":345:347   */\n      0x20\n        /* \"#utility.yul\":334:343   */\n      dup3\n        /* \"#utility.yul\":330:348   */\n      add\n        /* \"#utility.yul\":322:348   */\n      swap1\n      pop\n        /* \"#utility.yul\":358:429   */\n      tag_63\n        /* \"#utility.yul\":426:427   */\n      0x00\n        /* \"#utility.yul\":415:424   */\n      dup4\n        /* \"#utility.yul\":411:428   */\n      add\n        /* \"#utility.yul\":402:408   */\n      dup5\n        /* \"#utility.yul\":358:429   */\n      tag_40\n      jump\t// in\n    tag_63:\n        /* \"#utility.yul\":214:436   */\n      swap3\n      swap2\n      pop\n      pop\n      jump\t// out\n        /* \"#utility.yul\":523:640   */\n    tag_42:\n        /* \"#utility.yul\":632:633   */\n      0x00\n        /* \"#utility.yul\":629:630   */\n      dup1\n        /* \"#utility.yul\":622:634   */\n      revert\n        /* \"#utility.yul\":769:895   */\n    tag_44:\n        /* \"#utility.yul\":806:813   */\n      0x00\n        /* \"#utility.yul\":846:888   */\n      0xffffffffffffffffffffffffffffffffffffffff\n        /* \"#utility.yul\":839:844   */\n      dup3\n        /* \"#utility.yul\":835:889   */\n      and\n        /* \"#utility.yul\":824:889   */\n      swap1\n      pop\n        /* \"#utility.yul\":769:895   */\n      swap2\n      swap1\n      pop\n      jump\t// out\n        /* \"#utility.yul\":901:997   */\n    tag_45:\n        /* \"#utility.yul\":938:945   */\n      0x00\n        /* \"#utility.yul\":967:991   */\n      tag_69\n        /* \"#utility.yul\":985:990   */\n      dup3\n        /* \"#utility.yul\":967:991   */\n      tag_44\n      jump\t// in\n    tag_69:\n        /* \"#utility.yul\":956:991   */\n      swap1\n      pop\n        /* \"#utility.yul\":901:997   */\n      swap2\n      swap1\n      pop\n      jump\t// out\n        /* \"#utility.yul\":1003:1125   */\n    tag_46:\n        /* \"#utility.yul\":1076:1100   */\n      tag_71\n        /* \"#utility.yul\":1094:1099   */\n      dup2\n        /* \"#utility.yul\":1076:1100   */\n      tag_45\n      jump\t// in\n    tag_71:\n        /* \"#utility.yul\":1069:1074   */\n      dup2\n        /* \"#utility.yul\":1066:1101   */\n      eq\n        /* \"#utility.yul\":1056:1119   */\n      tag_72\n      jumpi\n        /* \"#utility.yul\":1115:1116   */\n      0x00\n        /* \"#utility.yul\":1112:1113   */\n      dup1\n        /* \"#utility.yul\":1105:1117   */\n      revert\n        /* \"#utility.yul\":1056:1119   */\n    tag_72:\n        /* \"#utility.yul\":1003:1125   */\n      pop\n      jump\t// out\n        /* \"#utility.yul\":1131:1270   */\n    tag_47:\n        /* \"#utility.yul\":1177:1182   */\n      0x00\n        /* \"#utility.yul\":1215:1221   */\n      dup2\n        /* \"#utility.yul\":1202:1222   */\n      calldataload\n        /* \"#utility.yul\":1193:1222   */\n      swap1\n      pop\n        /* \"#utility.yul\":1231:1264   */\n      tag_74\n        /* \"#utility.yul\":1258:1263   */\n      dup2\n        /* \"#utility.yul\":1231:1264   */\n      tag_46\n      jump\t// in\n    tag_74:\n        /* \"#utility.yul\":1131:1270   */\n      swap3\n      swap2\n      pop\n      pop\n      jump\t// out\n        /* \"#utility.yul\":1276:1605   */\n    tag_14:\n        /* \"#utility.yul\":1335:1341   */\n      0x00\n        /* \"#utility.yul\":1384:1386   */\n      0x20\n        /* \"#utility.yul\":1372:1381   */\n      dup3\n        /* \"#utility.yul\":1363:1370   */\n      dup5\n        /* \"#utility.yul\":1359:1382   */\n      sub\n        /* \"#utility.yul\":1355:1387   */\n      slt\n        /* \"#utility.yul\":1352:1471   */\n      iszero\n      tag_76\n      jumpi\n        /* \"#utility.yul\":1390:1469   */\n      tag_77\n      tag_42\n      jump\t// in\n    tag_77:\n        /* \"#utility.yul\":1352:1471   */\n    tag_76:\n        /* \"#utility.yul\":1510:1511   */\n      0x00\n        /* \"#utility.yul\":1535:1588   */\n      tag_78\n        /* \"#utility.yul\":1580:1587   */\n      dup5\n        /* \"#utility.yul\":1571:1577   */\n      dup3\n        /* \"#utility.yul\":1560:1569   */\n      dup6\n        /* \"#utility.yul\":1556:1578   */\n      add\n        /* \"#utility.yul\":1535:1588   */\n      tag_47\n      jump\t// in\n    tag_78:\n        /* \"#utility.yul\":1525:1588   */\n      swap2\n      pop\n        /* \"#utility.yul\":1481:1598   */\n      pop\n        /* \"#utility.yul\":1276:1605   */\n      swap3\n      swap2\n      pop\n      pop\n      jump\t// out\n        /* \"#utility.yul\":1611:1701   */\n    tag_48:\n        /* \"#utility.yul\":1645:1652   */\n      0x00\n        /* \"#utility.yul\":1688:1693   */\n      dup2\n        /* \"#utility.yul\":1681:1694   */\n      iszero\n        /* \"#utility.yul\":1674:1695   */\n      iszero\n        /* \"#utility.yul\":1663:1695   */\n      swap1\n      pop\n        /* \"#utility.yul\":1611:1701   */\n      swap2\n      swap1\n      pop\n      jump\t// out\n        /* \"#utility.yul\":1707:1816   */\n    tag_49:\n        /* \"#utility.yul\":1788:1809   */\n      tag_81\n        /* \"#utility.yul\":1803:1808   */\n      dup2\n        /* \"#utility.yul\":1788:1809   */\n      tag_48\n      jump\t// in\n    tag_81:\n        /* \"#utility.yul\":1783:1786   */\n      dup3\n        /* \"#utility.yul\":1776:1810   */\n      mstore\n        /* \"#utility.yul\":1707:1816   */\n      pop\n      pop\n      jump\t// out\n        /* \"#utility.yul\":1822:2032   */\n    tag_17:\n        /* \"#utility.yul\":1909:1913   */\n      0x00\n        /* \"#utility.yul\":1947:1949   */\n      0x20\n        /* \"#utility.yul\":1936:1945   */\n      dup3\n        /* \"#utility.yul\":1932:1950   */\n      add\n        /* \"#utility.yul\":1924:1950   */\n      swap1\n      pop\n        /* \"#utility.yul\":1960:2025   */\n      tag_83\n        /* \"#utility.yul\":2022:2023   */\n      0x00\n        /* \"#utility.yul\":2011:2020   */\n      dup4\n        /* \"#utility.yul\":2007:2024   */\n      add\n        /* \"#utility.yul\":1998:2004   */\n      dup5\n        /* \"#utility.yul\":1960:2025   */\n      tag_49\n      jump\t// in\n    tag_83:\n        /* \"#utility.yul\":1822:2032   */\n      swap3\n      swap2\n      pop\n      pop\n      jump\t// out\n        /* \"#utility.yul\":2038:2156   */\n    tag_50:\n        /* \"#utility.yul\":2125:2149   */\n      tag_85\n        /* \"#utility.yul\":2143:2148   */\n      dup2\n        /* \"#utility.yul\":2125:2149   */\n      tag_45\n      jump\t// in\n    tag_85:\n        /* \"#utility.yul\":2120:2123   */\n      dup3\n        /* \"#utility.yul\":2113:2150   */\n      mstore\n        /* \"#utility.yul\":2038:2156   */\n      pop\n      pop\n      jump\t// out\n        /* \"#utility.yul\":2162:2384   */\n    tag_21:\n        /* \"#utility.yul\":2255:2259   */\n      0x00\n        /* \"#utility.yul\":2293:2295   */\n      0x20\n        /* \"#utility.yul\":2282:2291   */\n      dup3\n        /* \"#utility.yul\":2278:2296   */\n      add\n        /* \"#utility.yul\":2270:2296   */\n      swap1\n      pop\n        /* \"#utility.yul\":2306:2377   */\n      tag_87\n        /* \"#utility.yul\":2374:2375   */\n      0x00\n        /* \"#utility.yul\":2363:2372   */\n      dup4\n        /* \"#utility.yul\":2359:2376   */\n      add\n        /* \"#utility.yul\":2350:2356   */\n      dup5\n        /* \"#utility.yul\":2306:2377   */\n      tag_50\n      jump\t// in\n    tag_87:\n        /* \"#utility.yul\":2162:2384   */\n      swap3\n      swap2\n      pop\n      pop\n      jump\t// out\n        /* \"#utility.yul\":2390:2450   */\n    tag_51:\n        /* \"#utility.yul\":2418:2421   */\n      0x00\n        /* \"#utility.yul\":2439:2444   */\n      dup2\n        /* \"#utility.yul\":2432:2444   */\n      swap1\n      pop\n        /* \"#utility.yul\":2390:2450   */\n      swap2\n      swap1\n      pop\n      jump\t// out\n        /* \"#utility.yul\":2456:2598   */\n    tag_52:\n        /* \"#utility.yul\":2506:2515   */\n      0x00\n        /* \"#utility.yul\":2539:2592   */\n      tag_90\n        /* \"#utility.yul\":2557:2591   */\n      tag_91\n        /* \"#utility.yul\":2566:2590   */\n      tag_92\n        /* \"#utility.yul\":2584:2589   */\n      dup5\n        /* \"#utility.yul\":2566:2590   */\n      tag_44\n      jump\t// in\n    tag_92:\n        /* \"#utility.yul\":2557:2591   */\n      tag_51\n      jump\t// in\n    tag_91:\n        /* \"#utility.yul\":2539:2592   */\n      tag_44\n      jump\t// in\n    tag_90:\n        /* \"#utility.yul\":2526:2592   */\n      swap1\n      pop\n        /* \"#utility.yul\":2456:2598   */\n      swap2\n      swap1\n      pop\n      jump\t// out\n        /* \"#utility.yul\":2604:2730   */\n    tag_53:\n        /* \"#utility.yul\":2654:2663   */\n      0x00\n        /* \"#utility.yul\":2687:2724   */\n      tag_94\n        /* \"#utility.yul\":2718:2723   */\n      dup3\n        /* \"#utility.yul\":2687:2724   */\n      tag_52\n      jump\t// in\n    tag_94:\n        /* \"#utility.yul\":2674:2724   */\n      swap1\n      pop\n        /* \"#utility.yul\":2604:2730   */\n      swap2\n      swap1\n      pop\n      jump\t// out\n        /* \"#utility.yul\":2736:2874   */\n    tag_54:\n        /* \"#utility.yul\":2798:2807   */\n      0x00\n        /* \"#utility.yul\":2831:2868   */\n      tag_96\n        /* \"#utility.yul\":2862:2867   */\n      dup3\n        /* \"#utility.yul\":2831:2868   */\n      tag_53\n      jump\t// in\n    tag_96:\n        /* \"#utility.yul\":2818:2868   */\n      swap1\n      pop\n        /* \"#utility.yul\":2736:2874   */\n      swap2\n      swap1\n      pop\n      jump\t// out\n        /* \"#utility.yul\":2880:3035   */\n    tag_55:\n        /* \"#utility.yul\":2979:3028   */\n      tag_98\n        /* \"#utility.yul\":3022:3027   */\n      dup2\n        /* \"#utility.yul\":2979:3028   */\n      tag_54\n      jump\t// in\n    tag_98:\n        /* \"#utility.yul\":2974:2977   */\n      dup3\n        /* \"#utility.yul\":2967:3029   */\n      mstore\n        /* \"#utility.yul\":2880:3035   */\n      pop\n      pop\n      jump\t// out\n        /* \"#utility.yul\":3041:3287   */\n    tag_25:\n        /* \"#utility.yul\":3146:3150   */\n      0x00\n        /* \"#utility.yul\":3184:3186   */\n      0x20\n        /* \"#utility.yul\":3173:3182   */\n      dup3\n        /* \"#utility.yul\":3169:3187   */\n      add\n        /* \"#utility.yul\":3161:3187   */\n      swap1\n      pop\n        /* \"#utility.yul\":3197:3280   */\n      tag_100\n        /* \"#utility.yul\":3277:3278   */\n      0x00\n        /* \"#utility.yul\":3266:3275   */\n      dup4\n        /* \"#utility.yul\":3262:3279   */\n      add\n        /* \"#utility.yul\":3253:3259   */\n      dup5\n        /* \"#utility.yul\":3197:3280   */\n      tag_55\n      jump\t// in\n    tag_100:\n        /* \"#utility.yul\":3041:3287   */\n      swap3\n      swap2\n      pop\n      pop\n      jump\t// out\n        /* \"#utility.yul\":3293:3415   */\n    tag_56:\n        /* \"#utility.yul\":3366:3390   */\n      tag_102\n        /* \"#utility.yul\":3384:3389   */\n      dup2\n        /* \"#utility.yul\":3366:3390   */\n      tag_39\n      jump\t// in\n    tag_102:\n        /* \"#utility.yul\":3359:3364   */\n      dup2\n        /* \"#utility.yul\":3356:3391   */\n      eq\n        /* \"#utility.yul\":3346:3409   */\n      tag_103\n      jumpi\n        /* \"#utility.yul\":3405:3406   */\n      0x00\n        /* \"#utility.yul\":3402:3403   */\n      dup1\n        /* \"#utility.yul\":3395:3407   */\n      revert\n        /* \"#utility.yul\":3346:3409   */\n    tag_103:\n        /* \"#utility.yul\":3293:3415   */\n      pop\n      jump\t// out\n        /* \"#utility.yul\":3421:3564   */\n    tag_57:\n        /* \"#utility.yul\":3478:3483   */\n      0x00\n        /* \"#utility.yul\":3509:3515   */\n      dup2\n        /* \"#utility.yul\":3503:3516   */\n      mload\n        /* \"#utility.yul\":3494:3516   */\n      swap1\n      pop\n        /* \"#utility.yul\":3525:3558   */\n      tag_105\n        /* \"#utility.yul\":3552:3557   */\n      dup2\n        /* \"#utility.yul\":3525:3558   */\n      tag_56\n      jump\t// in\n    tag_105:\n        /* \"#utility.yul\":3421:3564   */\n      swap3\n      swap2\n      pop\n      pop\n      jump\t// out\n        /* \"#utility.yul\":3570:3921   */\n    tag_38:\n        /* \"#utility.yul\":3640:3646   */\n      0x00\n        /* \"#utility.yul\":3689:3691   */\n      0x20\n        /* \"#utility.yul\":3677:3686   */\n      dup3\n        /* \"#utility.yul\":3668:3675   */\n      dup5\n        /* \"#utility.yul\":3664:3687   */\n      sub\n        /* \"#utility.yul\":3660:3692   */\n      slt\n        /* \"#utility.yul\":3657:3776   */\n      iszero\n      tag_107\n      jumpi\n        /* \"#utility.yul\":3695:3774   */\n      tag_108\n      tag_42\n      jump\t// in\n    tag_108:\n        /* \"#utility.yul\":3657:3776   */\n    tag_107:\n        /* \"#utility.yul\":3815:3816   */\n      0x00\n        /* \"#utility.yul\":3840:3904   */\n      tag_109\n        /* \"#utility.yul\":3896:3903   */\n      dup5\n        /* \"#utility.yul\":3887:3893   */\n      dup3\n        /* \"#utility.yul\":3876:3885   */\n      dup6\n        /* \"#utility.yul\":3872:3894   */\n      add\n        /* \"#utility.yul\":3840:3904   */\n      tag_57\n      jump\t// in\n    tag_109:\n        /* \"#utility.yul\":3830:3904   */\n      swap2\n      pop\n        /* \"#utility.yul\":3786:3914   */\n      pop\n        /* \"#utility.yul\":3570:3921   */\n      swap3\n      swap2\n      pop\n      pop\n      jump\t// out\n    stop\n\n    sub_0: assembly {\n            /* \"test/\\xe5\\x90\\x88\\xe7\\xba\\xa6\\xe7\\xb1\\xbb\\xe5\\x9e\\x8b.sol\":61:155  contract Hello{... */\n          mstore(0x40, 0x80)\n          callvalue\n          dup1\n          iszero\n          tag_1\n          jumpi\n          0x00\n          dup1\n          revert\n        tag_1:\n          pop\n          dataSize(sub_0)\n          dup1\n          dataOffset(sub_0)\n          0x00\n          codecopy\n          0x00\n          return\n        stop\n\n        sub_0: assembly {\n                /* \"test/\\xe5\\x90\\x88\\xe7\\xba\\xa6\\xe7\\xb1\\xbb\\xe5\\x9e\\x8b.sol\":61:155  contract Hello{... */\n              mstore(0x40, 0x80)\n              callvalue\n              dup1\n              iszero\n              tag_1\n              jumpi\n              0x00\n              dup1\n              revert\n            tag_1:\n              pop\n              jumpi(tag_2, lt(calldatasize, 0x04))\n              shr(0xe0, calldataload(0x00))\n              dup1\n              0x27a03cd7\n              eq\n              tag_3\n              jumpi\n            tag_2:\n              0x00\n              dup1\n              revert\n                /* \"test/\\xe5\\x90\\x88\\xe7\\xba\\xa6\\xe7\\xb1\\xbb\\xe5\\x9e\\x8b.sol\":81:148  function sayhello() public pure  returns(uint){... */\n            tag_3:\n              tag_4\n              tag_5\n              jump\t// in\n            tag_4:\n              mload(0x40)\n              tag_6\n              swap2\n              swap1\n              tag_7\n              jump\t// in\n            tag_6:\n              mload(0x40)\n              dup1\n              swap2\n              sub\n              swap1\n              return\n            tag_5:\n                /* \"test/\\xe5\\x90\\x88\\xe7\\xba\\xa6\\xe7\\xb1\\xbb\\xe5\\x9e\\x8b.sol\":122:126  uint */\n              0x00\n                /* \"test/\\xe5\\x90\\x88\\xe7\\xba\\xa6\\xe7\\xb1\\xbb\\xe5\\x9e\\x8b.sol\":141:143  10 */\n              0x0a\n                /* \"test/\\xe5\\x90\\x88\\xe7\\xba\\xa6\\xe7\\xb1\\xbb\\xe5\\x9e\\x8b.sol\":134:143  return 10 */\n              swap1\n              pop\n                /* \"test/\\xe5\\x90\\x88\\xe7\\xba\\xa6\\xe7\\xb1\\xbb\\xe5\\x9e\\x8b.sol\":81:148  function sayhello() public pure  returns(uint){... */\n              swap1\n              jump\t// out\n                /* \"#utility.yul\":7:84   */\n            tag_9:\n                /* \"#utility.yul\":44:51   */\n              0x00\n                /* \"#utility.yul\":73:78   */\n              dup2\n                /* \"#utility.yul\":62:78   */\n              swap1\n              pop\n                /* \"#utility.yul\":7:84   */\n              swap2\n              swap1\n              pop\n              jump\t// out\n                /* \"#utility.yul\":90:208   */\n            tag_10:\n                /* \"#utility.yul\":177:201   */\n              tag_14\n                /* \"#utility.yul\":195:200   */\n              dup2\n                /* \"#utility.yul\":177:201   */\n              tag_9\n              jump\t// in\n            tag_14:\n                /* \"#utility.yul\":172:175   */\n              dup3\n                /* \"#utility.yul\":165:202   */\n              mstore\n                /* \"#utility.yul\":90:208   */\n              pop\n              pop\n              jump\t// out\n                /* \"#utility.yul\":214:436   */\n            tag_7:\n                /* \"#utility.yul\":307:311   */\n              0x00\n                /* \"#utility.yul\":345:347   */\n              0x20\n                /* \"#utility.yul\":334:343   */\n              dup3\n                /* \"#utility.yul\":330:348   */\n              add\n                /* \"#utility.yul\":322:348   */\n              swap1\n              pop\n                /* \"#utility.yul\":358:429   */\n              tag_16\n                /* \"#utility.yul\":426:427   */\n              0x00\n                /* \"#utility.yul\":415:424   */\n              dup4\n                /* \"#utility.yul\":411:428   */\n              add\n                /* \"#utility.yul\":402:408   */\n              dup5\n                /* \"#utility.yul\":358:429   */\n              tag_10\n              jump\t// in\n            tag_16:\n                /* \"#utility.yul\":214:436   */\n              swap3\n              swap2\n              pop\n              pop\n              jump\t// out\n\n            auxdata: 0xa2646970667358221220ee04c24146d9e1db1d68dc05e390edef7a7cafaf9f6ac4b66e776c9bc7bbcf8964736f6c634300081a0033\n        }\n    }\n\n    auxdata: 0xa2646970667358221220f2c7070efa9a270fb02f89379ec1c8dd16d1917a3f06d3ff5b48fe95ebcecb5f64736f6c634300081a0033\n}\n",
				"bytecode": {
					"linkReferences": {},
					"object": "6080604052348015600e575f80fd5b5061054d8061001c5f395ff3fe608060405234801561000f575f80fd5b5060043610610055575f3560e01c80630c55699c14610059578063162790551461007757806354569d0f146100a7578063b8c9d365146100c5578063bb8eff62146100e3575b5f80fd5b610061610101565b60405161006e9190610288565b60405180910390f35b610091600480360381019061008c91906102ff565b610106565b60405161009e9190610344565b60405180910390f35b6100af610117565b6040516100bc919061036c565b60405180910390f35b6100cd6101a4565b6040516100da91906103e0565b60405180910390f35b6100eb6101c9565b6040516100f89190610288565b60405180910390f35b5f5481565b5f80823b90505f8111915050919050565b5f60405161012490610264565b604051809103905ff08015801561013d573d5f803e3d5ffd5b5060015f6101000a81548173ffffffffffffffffffffffffffffffffffffffff021916908373ffffffffffffffffffffffffffffffffffffffff16021790555060015f9054906101000a900473ffffffffffffffffffffffffffffffffffffffff16905090565b60015f9054906101000a900473ffffffffffffffffffffffffffffffffffffffff1681565b5f60015f9054906101000a900473ffffffffffffffffffffffffffffffffffffffff1673ffffffffffffffffffffffffffffffffffffffff166327a03cd76040518163ffffffff1660e01b8152600401602060405180830381865afa158015610234573d5f803e3d5ffd5b505050506040513d601f19601f820116820180604052508101906102589190610423565b5f819055505f54905090565b60c98061044f83390190565b5f819050919050565b61028281610270565b82525050565b5f60208201905061029b5f830184610279565b92915050565b5f80fd5b5f73ffffffffffffffffffffffffffffffffffffffff82169050919050565b5f6102ce826102a5565b9050919050565b6102de816102c4565b81146102e8575f80fd5b50565b5f813590506102f9816102d5565b92915050565b5f60208284031215610314576103136102a1565b5b5f610321848285016102eb565b91505092915050565b5f8115159050919050565b61033e8161032a565b82525050565b5f6020820190506103575f830184610335565b92915050565b610366816102c4565b82525050565b5f60208201905061037f5f83018461035d565b92915050565b5f819050919050565b5f6103a86103a361039e846102a5565b610385565b6102a5565b9050919050565b5f6103b98261038e565b9050919050565b5f6103ca826103af565b9050919050565b6103da816103c0565b82525050565b5f6020820190506103f35f8301846103d1565b92915050565b61040281610270565b811461040c575f80fd5b50565b5f8151905061041d816103f9565b92915050565b5f60208284031215610438576104376102a1565b5b5f6104458482850161040f565b9150509291505056fe6080604052348015600e575f80fd5b5060af80601a5f395ff3fe6080604052348015600e575f80fd5b50600436106026575f3560e01c806327a03cd714602a575b5f80fd5b60306044565b604051603b91906062565b60405180910390f35b5f600a905090565b5f819050919050565b605c81604c565b82525050565b5f60208201905060735f8301846055565b9291505056fea2646970667358221220ee04c24146d9e1db1d68dc05e390edef7a7cafaf9f6ac4b66e776c9bc7bbcf8964736f6c634300081a0033a2646970667358221220f2c7070efa9a270fb02f89379ec1c8dd16d1917a3f06d3ff5b48fe95ebcecb5f64736f6c634300081a0033",
					"opcodes": "PUSH1 0x80 PUSH1 0x40 MSTORE CALLVALUE DUP1 ISZERO PUSH1 0xE JUMPI PUSH0 DUP1 REVERT JUMPDEST POP PUSH2 0x54D DUP1 PUSH2 0x1C PUSH0 CODECOPY PUSH0 RETURN INVALID PUSH1 0x80 PUSH1 0x40 MSTORE CALLVALUE DUP1 ISZERO PUSH2 0xF JUMPI PUSH0 DUP1 REVERT JUMPDEST POP PUSH1 0x4 CALLDATASIZE LT PUSH2 0x55 JUMPI PUSH0 CALLDATALOAD PUSH1 0xE0 SHR DUP1 PUSH4 0xC55699C EQ PUSH2 0x59 JUMPI DUP1 PUSH4 0x16279055 EQ PUSH2 0x77 JUMPI DUP1 PUSH4 0x54569D0F EQ PUSH2 0xA7 JUMPI DUP1 PUSH4 0xB8C9D365 EQ PUSH2 0xC5 JUMPI DUP1 PUSH4 0xBB8EFF62 EQ PUSH2 0xE3 JUMPI JUMPDEST PUSH0 DUP1 REVERT JUMPDEST PUSH2 0x61 PUSH2 0x101 JUMP JUMPDEST PUSH1 0x40 MLOAD PUSH2 0x6E SWAP2 SWAP1 PUSH2 0x288 JUMP JUMPDEST PUSH1 0x40 MLOAD DUP1 SWAP2 SUB SWAP1 RETURN JUMPDEST PUSH2 0x91 PUSH1 0x4 DUP1 CALLDATASIZE SUB DUP2 ADD SWAP1 PUSH2 0x8C SWAP2 SWAP1 PUSH2 0x2FF JUMP JUMPDEST PUSH2 0x106 JUMP JUMPDEST PUSH1 0x40 MLOAD PUSH2 0x9E SWAP2 SWAP1 PUSH2 0x344 JUMP JUMPDEST PUSH1 0x40 MLOAD DUP1 SWAP2 SUB SWAP1 RETURN JUMPDEST PUSH2 0xAF PUSH2 0x117 JUMP JUMPDEST PUSH1 0x40 MLOAD PUSH2 0xBC SWAP2 SWAP1 PUSH2 0x36C JUMP JUMPDEST PUSH1 0x40 MLOAD DUP1 SWAP2 SUB SWAP1 RETURN JUMPDEST PUSH2 0xCD PUSH2 0x1A4 JUMP JUMPDEST PUSH1 0x40 MLOAD PUSH2 0xDA SWAP2 SWAP1 PUSH2 0x3E0 JUMP JUMPDEST PUSH1 0x40 MLOAD DUP1 SWAP2 SUB SWAP1 RETURN JUMPDEST PUSH2 0xEB PUSH2 0x1C9 JUMP JUMPDEST PUSH1 0x40 MLOAD PUSH2 0xF8 SWAP2 SWAP1 PUSH2 0x288 JUMP JUMPDEST PUSH1 0x40 MLOAD DUP1 SWAP2 SUB SWAP1 RETURN JUMPDEST PUSH0 SLOAD DUP2 JUMP JUMPDEST PUSH0 DUP1 DUP3 EXTCODESIZE SWAP1 POP PUSH0 DUP2 GT SWAP2 POP POP SWAP2 SWAP1 POP JUMP JUMPDEST PUSH0 PUSH1 0x40 MLOAD PUSH2 0x124 SWAP1 PUSH2 0x264 JUMP JUMPDEST PUSH1 0x40 MLOAD DUP1 SWAP2 SUB SWAP1 PUSH0 CREATE DUP1 ISZERO DUP1 ISZERO PUSH2 0x13D JUMPI RETURNDATASIZE PUSH0 DUP1 RETURNDATACOPY RETURNDATASIZE PUSH0 REVERT JUMPDEST POP PUSH1 0x1 PUSH0 PUSH2 0x100 EXP DUP2 SLOAD DUP2 PUSH20 0xFFFFFFFFFFFFFFFFFFFFFFFFFFFFFFFFFFFFFFFF MUL NOT AND SWAP1 DUP4 PUSH20 0xFFFFFFFFFFFFFFFFFFFFFFFFFFFFFFFFFFFFFFFF AND MUL OR SWAP1 SSTORE POP PUSH1 0x1 PUSH0 SWAP1 SLOAD SWAP1 PUSH2 0x100 EXP SWAP1 DIV PUSH20 0xFFFFFFFFFFFFFFFFFFFFFFFFFFFFFFFFFFFFFFFF AND SWAP1 POP SWAP1 JUMP JUMPDEST PUSH1 0x1 PUSH0 SWAP1 SLOAD SWAP1 PUSH2 0x100 EXP SWAP1 DIV PUSH20 0xFFFFFFFFFFFFFFFFFFFFFFFFFFFFFFFFFFFFFFFF AND DUP2 JUMP JUMPDEST PUSH0 PUSH1 0x1 PUSH0 SWAP1 SLOAD SWAP1 PUSH2 0x100 EXP SWAP1 DIV PUSH20 0xFFFFFFFFFFFFFFFFFFFFFFFFFFFFFFFFFFFFFFFF AND PUSH20 0xFFFFFFFFFFFFFFFFFFFFFFFFFFFFFFFFFFFFFFFF AND PUSH4 0x27A03CD7 PUSH1 0x40 MLOAD DUP2 PUSH4 0xFFFFFFFF AND PUSH1 0xE0 SHL DUP2 MSTORE PUSH1 0x4 ADD PUSH1 0x20 PUSH1 0x40 MLOAD DUP1 DUP4 SUB DUP2 DUP7 GAS STATICCALL ISZERO DUP1 ISZERO PUSH2 0x234 JUMPI RETURNDATASIZE PUSH0 DUP1 RETURNDATACOPY RETURNDATASIZE PUSH0 REVERT JUMPDEST POP POP POP POP PUSH1 0x40 MLOAD RETURNDATASIZE PUSH1 0x1F NOT PUSH1 0x1F DUP3 ADD AND DUP3 ADD DUP1 PUSH1 0x40 MSTORE POP DUP2 ADD SWAP1 PUSH2 0x258 SWAP2 SWAP1 PUSH2 0x423 JUMP JUMPDEST PUSH0 DUP2 SWAP1 SSTORE POP PUSH0 SLOAD SWAP1 POP SWAP1 JUMP JUMPDEST PUSH1 0xC9 DUP1 PUSH2 0x44F DUP4 CODECOPY ADD SWAP1 JUMP JUMPDEST PUSH0 DUP2 SWAP1 POP SWAP2 SWAP1 POP JUMP JUMPDEST PUSH2 0x282 DUP2 PUSH2 0x270 JUMP JUMPDEST DUP3 MSTORE POP POP JUMP JUMPDEST PUSH0 PUSH1 0x20 DUP3 ADD SWAP1 POP PUSH2 0x29B PUSH0 DUP4 ADD DUP5 PUSH2 0x279 JUMP JUMPDEST SWAP3 SWAP2 POP POP JUMP JUMPDEST PUSH0 DUP1 REVERT JUMPDEST PUSH0 PUSH20 0xFFFFFFFFFFFFFFFFFFFFFFFFFFFFFFFFFFFFFFFF DUP3 AND SWAP1 POP SWAP2 SWAP1 POP JUMP JUMPDEST PUSH0 PUSH2 0x2CE DUP3 PUSH2 0x2A5 JUMP JUMPDEST SWAP1 POP SWAP2 SWAP1 POP JUMP JUMPDEST PUSH2 0x2DE DUP2 PUSH2 0x2C4 JUMP JUMPDEST DUP2 EQ PUSH2 0x2E8 JUMPI PUSH0 DUP1 REVERT JUMPDEST POP JUMP JUMPDEST PUSH0 DUP2 CALLDATALOAD SWAP1 POP PUSH2 0x2F9 DUP2 PUSH2 0x2D5 JUMP JUMPDEST SWAP3 SWAP2 POP POP JUMP JUMPDEST PUSH0 PUSH1 0x20 DUP3 DUP5 SUB SLT ISZERO PUSH2 0x314 JUMPI PUSH2 0x313 PUSH2 0x2A1 JUMP JUMPDEST JUMPDEST PUSH0 PUSH2 0x321 DUP5 DUP3 DUP6 ADD PUSH2 0x2EB JUMP JUMPDEST SWAP2 POP POP SWAP3 SWAP2 POP POP JUMP JUMPDEST PUSH0 DUP2 ISZERO ISZERO SWAP1 POP SWAP2 SWAP1 POP JUMP JUMPDEST PUSH2 0x33E DUP2 PUSH2 0x32A JUMP JUMPDEST DUP3 MSTORE POP POP JUMP JUMPDEST PUSH0 PUSH1 0x20 DUP3 ADD SWAP1 POP PUSH2 0x357 PUSH0 DUP4 ADD DUP5 PUSH2 0x335 JUMP JUMPDEST SWAP3 SWAP2 POP POP JUMP JUMPDEST PUSH2 0x366 DUP2 PUSH2 0x2C4 JUMP JUMPDEST DUP3 MSTORE POP POP JUMP JUMPDEST PUSH0 PUSH1 0x20 DUP3 ADD SWAP1 POP PUSH2 0x37F PUSH0 DUP4 ADD DUP5 PUSH2 0x35D JUMP JUMPDEST SWAP3 SWAP2 POP POP JUMP JUMPDEST PUSH0 DUP2 SWAP1 POP SWAP2 SWAP1 POP JUMP JUMPDEST PUSH0 PUSH2 0x3A8 PUSH2 0x3A3 PUSH2 0x39E DUP5 PUSH2 0x2A5 JUMP JUMPDEST PUSH2 0x385 JUMP JUMPDEST PUSH2 0x2A5 JUMP JUMPDEST SWAP1 POP SWAP2 SWAP1 POP JUMP JUMPDEST PUSH0 PUSH2 0x3B9 DUP3 PUSH2 0x38E JUMP JUMPDEST SWAP1 POP SWAP2 SWAP1 POP JUMP JUMPDEST PUSH0 PUSH2 0x3CA DUP3 PUSH2 0x3AF JUMP JUMPDEST SWAP1 POP SWAP2 SWAP1 POP JUMP JUMPDEST PUSH2 0x3DA DUP2 PUSH2 0x3C0 JUMP JUMPDEST DUP3 MSTORE POP POP JUMP JUMPDEST PUSH0 PUSH1 0x20 DUP3 ADD SWAP1 POP PUSH2 0x3F3 PUSH0 DUP4 ADD DUP5 PUSH2 0x3D1 JUMP JUMPDEST SWAP3 SWAP2 POP POP JUMP JUMPDEST PUSH2 0x402 DUP2 PUSH2 0x270 JUMP JUMPDEST DUP2 EQ PUSH2 0x40C JUMPI PUSH0 DUP1 REVERT JUMPDEST POP JUMP JUMPDEST PUSH0 DUP2 MLOAD SWAP1 POP PUSH2 0x41D DUP2 PUSH2 0x3F9 JUMP JUMPDEST SWAP3 SWAP2 POP POP JUMP JUMPDEST PUSH0 PUSH1 0x20 DUP3 DUP5 SUB SLT ISZERO PUSH2 0x438 JUMPI PUSH2 0x437 PUSH2 0x2A1 JUMP JUMPDEST JUMPDEST PUSH0 PUSH2 0x445 DUP5 DUP3 DUP6 ADD PUSH2 0x40F JUMP JUMPDEST SWAP2 POP POP SWAP3 SWAP2 POP POP JUMP INVALID PUSH1 0x80 PUSH1 0x40 MSTORE CALLVALUE DUP1 ISZERO PUSH1 0xE JUMPI PUSH0 DUP1 REVERT JUMPDEST POP PUSH1 0xAF DUP1 PUSH1 0x1A PUSH0 CODECOPY PUSH0 RETURN INVALID PUSH1 0x80 PUSH1 0x40 MSTORE CALLVALUE DUP1 ISZERO PUSH1 0xE JUMPI PUSH0 DUP1 REVERT JUMPDEST POP PUSH1 0x4 CALLDATASIZE LT PUSH1 0x26 JUMPI PUSH0 CALLDATALOAD PUSH1 0xE0 SHR DUP1 PUSH4 0x27A03CD7 EQ PUSH1 0x2A JUMPI JUMPDEST PUSH0 DUP1 REVERT JUMPDEST PUSH1 0x30 PUSH1 0x44 JUMP JUMPDEST PUSH1 0x40 MLOAD PUSH1 0x3B SWAP2 SWAP1 PUSH1 0x62 JUMP JUMPDEST PUSH1 0x40 MLOAD DUP1 SWAP2 SUB SWAP1 RETURN JUMPDEST PUSH0 PUSH1 0xA SWAP1 POP SWAP1 JUMP JUMPDEST PUSH0 DUP2 SWAP1 POP SWAP2 SWAP1 POP JUMP JUMPDEST PUSH1 0x5C DUP2 PUSH1 0x4C JUMP JUMPDEST DUP3 MSTORE POP POP JUMP JUMPDEST PUSH0 PUSH1 0x20 DUP3 ADD SWAP1 POP PUSH1 0x73 PUSH0 DUP4 ADD DUP5 PUSH1 0x55 JUMP JUMPDEST SWAP3 SWAP2 POP POP JUMP INVALID LOG2 PUSH5 0x6970667358 0x22 SLT KECCAK256 0xEE DIV 0xC2 COINBASE CHAINID 0xD9 0xE1 0xDB SAR PUSH9 0xDC05E390EDEF7A7CAF 0xAF SWAP16 PUSH11 0xC4B66E776C9BC7BBCF8964 PUSH20 0x6F6C634300081A0033A2646970667358221220F2 0xC7 SMOD 0xE STATICCALL SWAP11 0x27 0xF 0xB0 0x2F DUP10 CALLDATACOPY SWAP15 0xC1 0xC8 0xDD AND 0xD1 SWAP2 PUSH27 0x3F06D3FF5B48FE95EBCECB5F64736F6C634300081A003300000000 "
				},
				"gasEstimates": {
					"creation": {
						"codeDepositCost": "271400",
						"executionCost": "310",
						"totalCost": "271710"
					},
					"external": {
						"calHi()": "infinite",
						"createHello()": "infinite",
						"h()": "infinite",
						"isContract(address)": "3265",
						"x()": "2402"
					}
				},
				"methodIdentifiers": {
					"calHi()": "bb8eff62",
					"createHello()": "54569d0f",
					"h()": "b8c9d365",
					"isContract(address)": "16279055",
					"x()": "0c55699c"
				}
			},
			"storageLayout": {
				"storage": [
					{
						"astId": 12,
						"contract": "test/合约类型.sol:HelloCreatetor",
						"label": "x",
						"offset": 0,
						"slot": "0",
						"type": "t_uint256"
					},
					{
						"astId": 15,
						"contract": "test/合约类型.sol:HelloCreatetor",
						"label": "h",
						"offset": 0,
						"slot": "1",
						"type": "t_contract(Hello)10"
					}
				],
				"types": {
					"t_contract(Hello)10": {
						"encoding": "inplace",
						"label": "contract Hello",
						"numberOfBytes": "20"
					},
					"t_uint256": {
						"encoding": "inplace",
						"label": "uint256",
						"numberOfBytes": "32"
					}
				}
			},
			"userdoc": {
				"kind": "user",
				"methods": {
					"isContract(address)": {
						"notice": "额外知识点：如何区分合约及外部地址 经常需要区分一个地址是合约地址还是外部账号地址，区分的关键是看这个地址有没有与之相关联的代码。EVM提供了一个操作码EXTCODESIZE，用来获取地址相关联的代码大小（长度），如果是外部账号地址，则没有代码返回。因此我们可以使用以下方法判断合约地址及外部账号地址。*"
					}
				},
				"version": 1
			}
		}
	}
}