{
	"test/继承.sol": {
		"sub3": {
			"abi": [
				{
					"inputs": [
						{
							"internalType": "uint256",
							"name": "d",
							"type": "uint256"
						}
					],
					"stateMutability": "nonpayable",
					"type": "constructor"
				},
				{
					"inputs": [],
					"name": "a",
					"outputs": [
						{
							"internalType": "uint256",
							"name": "",
							"type": "uint256"
						}
					],
					"stateMutability": "view",
					"type": "function"
				},
				{
					"inputs": [],
					"name": "b",
					"outputs": [
						{
							"internalType": "uint256",
							"name": "",
							"type": "uint256"
						}
					],
					"stateMutability": "view",
					"type": "function"
				},
				{
					"inputs": [],
					"name": "fool",
					"outputs": [],
					"stateMutability": "nonpayable",
					"type": "function"
				}
			],
			"devdoc": {
				"kind": "dev",
				"methods": {},
				"version": 1
			},
			"evm": {
				"assembly": "    /* \"test/\\xe7\\xbb\\xa7\\xe6\\x89\\xbf.sol\":1657:1798  contract sub3 is Base, Base2{... */\n  mstore(0x40, 0x80)\n    /* \"test/\\xe7\\xbb\\xa7\\xe6\\x89\\xbf.sol\":1745:1791  constructor(uint d) Base(d) Base2(2){... */\n  callvalue\n  dup1\n  iszero\n  tag_1\n  jumpi\n  0x00\n  dup1\n  revert\ntag_1:\n  pop\n  mload(0x40)\n  sub(codesize, bytecodeSize)\n  dup1\n  bytecodeSize\n  dup4\n  codecopy\n  dup2\n  dup2\n  add\n  0x40\n  mstore\n  dup2\n  add\n  swap1\n  tag_2\n  swap2\n  swap1\n  tag_3\n  jump\t// in\ntag_2:\n    /* \"test/\\xe7\\xbb\\xa7\\xe6\\x89\\xbf.sol\":1779:1780  2 */\n  0x02\n    /* \"test/\\xe7\\xbb\\xa7\\xe6\\x89\\xbf.sol\":1770:1771  d */\n  dup2\n    /* \"test/\\xe7\\xbb\\xa7\\xe6\\x89\\xbf.sol\":665:667  _a */\n  dup1\n    /* \"test/\\xe7\\xbb\\xa7\\xe6\\x89\\xbf.sol\":663:664  a */\n  sload(0x00)\n    /* \"test/\\xe7\\xbb\\xa7\\xe6\\x89\\xbf.sol\":663:667  a+_a */\n  tag_8\n  swap2\n  swap1\n  tag_9\n  jump\t// in\ntag_8:\n    /* \"test/\\xe7\\xbb\\xa7\\xe6\\x89\\xbf.sol\":661:662  a */\n  0x00\n    /* \"test/\\xe7\\xbb\\xa7\\xe6\\x89\\xbf.sol\":661:667  a=a+_a */\n  dup2\n  swap1\n  sstore\n  pop\n    /* \"test/\\xe7\\xbb\\xa7\\xe6\\x89\\xbf.sol\":630:675  constructor(uint _a){... */\n  pop\n    /* \"test/\\xe7\\xbb\\xa7\\xe6\\x89\\xbf.sol\":1098:1100  _a */\n  dup1\n    /* \"test/\\xe7\\xbb\\xa7\\xe6\\x89\\xbf.sol\":1096:1097  b */\n  sload(0x01)\n    /* \"test/\\xe7\\xbb\\xa7\\xe6\\x89\\xbf.sol\":1096:1100  b+_a */\n  tag_11\n  swap2\n  swap1\n  tag_9\n  jump\t// in\ntag_11:\n    /* \"test/\\xe7\\xbb\\xa7\\xe6\\x89\\xbf.sol\":1094:1095  b */\n  0x01\n    /* \"test/\\xe7\\xbb\\xa7\\xe6\\x89\\xbf.sol\":1094:1100  b=b+_a */\n  dup2\n  swap1\n  sstore\n  pop\n    /* \"test/\\xe7\\xbb\\xa7\\xe6\\x89\\xbf.sol\":1063:1108  constructor(uint _a){... */\n  pop\n    /* \"test/\\xe7\\xbb\\xa7\\xe6\\x89\\xbf.sol\":1745:1791  constructor(uint d) Base(d) Base2(2){... */\n  pop\n    /* \"test/\\xe7\\xbb\\xa7\\xe6\\x89\\xbf.sol\":1657:1798  contract sub3 is Base, Base2{... */\n  jump(tag_13)\n    /* \"#utility.yul\":88:205   */\ntag_15:\n    /* \"#utility.yul\":197:198   */\n  0x00\n    /* \"#utility.yul\":194:195   */\n  dup1\n    /* \"#utility.yul\":187:199   */\n  revert\n    /* \"#utility.yul\":334:411   */\ntag_17:\n    /* \"#utility.yul\":371:378   */\n  0x00\n    /* \"#utility.yul\":400:405   */\n  dup2\n    /* \"#utility.yul\":389:405   */\n  swap1\n  pop\n    /* \"#utility.yul\":334:411   */\n  swap2\n  swap1\n  pop\n  jump\t// out\n    /* \"#utility.yul\":417:539   */\ntag_18:\n    /* \"#utility.yul\":490:514   */\n  tag_27\n    /* \"#utility.yul\":508:513   */\n  dup2\n    /* \"#utility.yul\":490:514   */\n  tag_17\n  jump\t// in\ntag_27:\n    /* \"#utility.yul\":483:488   */\n  dup2\n    /* \"#utility.yul\":480:515   */\n  eq\n    /* \"#utility.yul\":470:533   */\n  tag_28\n  jumpi\n    /* \"#utility.yul\":529:530   */\n  0x00\n    /* \"#utility.yul\":526:527   */\n  dup1\n    /* \"#utility.yul\":519:531   */\n  revert\n    /* \"#utility.yul\":470:533   */\ntag_28:\n    /* \"#utility.yul\":417:539   */\n  pop\n  jump\t// out\n    /* \"#utility.yul\":545:688   */\ntag_19:\n    /* \"#utility.yul\":602:607   */\n  0x00\n    /* \"#utility.yul\":633:639   */\n  dup2\n    /* \"#utility.yul\":627:640   */\n  mload\n    /* \"#utility.yul\":618:640   */\n  swap1\n  pop\n    /* \"#utility.yul\":649:682   */\n  tag_30\n    /* \"#utility.yul\":676:681   */\n  dup2\n    /* \"#utility.yul\":649:682   */\n  tag_18\n  jump\t// in\ntag_30:\n    /* \"#utility.yul\":545:688   */\n  swap3\n  swap2\n  pop\n  pop\n  jump\t// out\n    /* \"#utility.yul\":694:1045   */\ntag_3:\n    /* \"#utility.yul\":764:770   */\n  0x00\n    /* \"#utility.yul\":813:815   */\n  0x20\n    /* \"#utility.yul\":801:810   */\n  dup3\n    /* \"#utility.yul\":792:799   */\n  dup5\n    /* \"#utility.yul\":788:811   */\n  sub\n    /* \"#utility.yul\":784:816   */\n  slt\n    /* \"#utility.yul\":781:900   */\n  iszero\n  tag_32\n  jumpi\n    /* \"#utility.yul\":819:898   */\n  tag_33\n  tag_15\n  jump\t// in\ntag_33:\n    /* \"#utility.yul\":781:900   */\ntag_32:\n    /* \"#utility.yul\":939:940   */\n  0x00\n    /* \"#utility.yul\":964:1028   */\n  tag_34\n    /* \"#utility.yul\":1020:1027   */\n  dup5\n    /* \"#utility.yul\":1011:1017   */\n  dup3\n    /* \"#utility.yul\":1000:1009   */\n  dup6\n    /* \"#utility.yul\":996:1018   */\n  add\n    /* \"#utility.yul\":964:1028   */\n  tag_19\n  jump\t// in\ntag_34:\n    /* \"#utility.yul\":954:1028   */\n  swap2\n  pop\n    /* \"#utility.yul\":910:1038   */\n  pop\n    /* \"#utility.yul\":694:1045   */\n  swap3\n  swap2\n  pop\n  pop\n  jump\t// out\n    /* \"#utility.yul\":1051:1231   */\ntag_20:\n    /* \"#utility.yul\":1099:1176   */\n  0x4e487b7100000000000000000000000000000000000000000000000000000000\n    /* \"#utility.yul\":1096:1097   */\n  0x00\n    /* \"#utility.yul\":1089:1177   */\n  mstore\n    /* \"#utility.yul\":1196:1200   */\n  0x11\n    /* \"#utility.yul\":1193:1194   */\n  0x04\n    /* \"#utility.yul\":1186:1201   */\n  mstore\n    /* \"#utility.yul\":1220:1224   */\n  0x24\n    /* \"#utility.yul\":1217:1218   */\n  0x00\n    /* \"#utility.yul\":1210:1225   */\n  revert\n    /* \"#utility.yul\":1237:1428   */\ntag_9:\n    /* \"#utility.yul\":1277:1280   */\n  0x00\n    /* \"#utility.yul\":1296:1316   */\n  tag_37\n    /* \"#utility.yul\":1314:1315   */\n  dup3\n    /* \"#utility.yul\":1296:1316   */\n  tag_17\n  jump\t// in\ntag_37:\n    /* \"#utility.yul\":1291:1316   */\n  swap2\n  pop\n    /* \"#utility.yul\":1330:1350   */\n  tag_38\n    /* \"#utility.yul\":1348:1349   */\n  dup4\n    /* \"#utility.yul\":1330:1350   */\n  tag_17\n  jump\t// in\ntag_38:\n    /* \"#utility.yul\":1325:1350   */\n  swap3\n  pop\n    /* \"#utility.yul\":1373:1374   */\n  dup3\n    /* \"#utility.yul\":1370:1371   */\n  dup3\n    /* \"#utility.yul\":1366:1375   */\n  add\n    /* \"#utility.yul\":1359:1375   */\n  swap1\n  pop\n    /* \"#utility.yul\":1394:1397   */\n  dup1\n    /* \"#utility.yul\":1391:1392   */\n  dup3\n    /* \"#utility.yul\":1388:1398   */\n  gt\n    /* \"#utility.yul\":1385:1421   */\n  iszero\n  tag_39\n  jumpi\n    /* \"#utility.yul\":1401:1419   */\n  tag_40\n  tag_20\n  jump\t// in\ntag_40:\n    /* \"#utility.yul\":1385:1421   */\ntag_39:\n    /* \"#utility.yul\":1237:1428   */\n  swap3\n  swap2\n  pop\n  pop\n  jump\t// out\n    /* \"test/\\xe7\\xbb\\xa7\\xe6\\x89\\xbf.sol\":1657:1798  contract sub3 is Base, Base2{... */\ntag_13:\n  dataSize(sub_0)\n  dup1\n  dataOffset(sub_0)\n  0x00\n  codecopy\n  0x00\n  return\nstop\n\nsub_0: assembly {\n        /* \"test/\\xe7\\xbb\\xa7\\xe6\\x89\\xbf.sol\":1657:1798  contract sub3 is Base, Base2{... */\n      mstore(0x40, 0x80)\n      callvalue\n      dup1\n      iszero\n      tag_1\n      jumpi\n      0x00\n      dup1\n      revert\n    tag_1:\n      pop\n      jumpi(tag_2, lt(calldatasize, 0x04))\n      shr(0xe0, calldataload(0x00))\n      dup1\n      0x0dbe671f\n      eq\n      tag_3\n      jumpi\n      dup1\n      0x4df7e3d0\n      eq\n      tag_4\n      jumpi\n      dup1\n      0xf082a3a7\n      eq\n      tag_5\n      jumpi\n    tag_2:\n      0x00\n      dup1\n      revert\n        /* \"test/\\xe7\\xbb\\xa7\\xe6\\x89\\xbf.sol\":610:623  uint public a */\n    tag_3:\n      tag_6\n      tag_7\n      jump\t// in\n    tag_6:\n      mload(0x40)\n      tag_8\n      swap2\n      swap1\n      tag_9\n      jump\t// in\n    tag_8:\n      mload(0x40)\n      dup1\n      swap2\n      sub\n      swap1\n      return\n        /* \"test/\\xe7\\xbb\\xa7\\xe6\\x89\\xbf.sol\":1044:1057  uint public b */\n    tag_4:\n      tag_10\n      tag_11\n      jump\t// in\n    tag_10:\n      mload(0x40)\n      tag_12\n      swap2\n      swap1\n      tag_9\n      jump\t// in\n    tag_12:\n      mload(0x40)\n      dup1\n      swap2\n      sub\n      swap1\n      return\n        /* \"test/\\xe7\\xbb\\xa7\\xe6\\x89\\xbf.sol\":956:1010  function fool() public virtual{... */\n    tag_5:\n      tag_13\n      tag_14\n      jump\t// in\n    tag_13:\n      stop\n        /* \"test/\\xe7\\xbb\\xa7\\xe6\\x89\\xbf.sol\":610:623  uint public a */\n    tag_7:\n      sload(0x00)\n      dup2\n      jump\t// out\n        /* \"test/\\xe7\\xbb\\xa7\\xe6\\x89\\xbf.sol\":1044:1057  uint public b */\n    tag_11:\n      sload(0x01)\n      dup2\n      jump\t// out\n        /* \"test/\\xe7\\xbb\\xa7\\xe6\\x89\\xbf.sol\":956:1010  function fool() public virtual{... */\n    tag_14:\n        /* \"test/\\xe7\\xbb\\xa7\\xe6\\x89\\xbf.sol\":1001:1002  1 */\n      0x01\n        /* \"test/\\xe7\\xbb\\xa7\\xe6\\x89\\xbf.sol\":999:1000  a */\n      sload(0x00)\n        /* \"test/\\xe7\\xbb\\xa7\\xe6\\x89\\xbf.sol\":999:1002  a+1 */\n      tag_16\n      swap2\n      swap1\n      tag_17\n      jump\t// in\n    tag_16:\n        /* \"test/\\xe7\\xbb\\xa7\\xe6\\x89\\xbf.sol\":997:998  a */\n      0x00\n        /* \"test/\\xe7\\xbb\\xa7\\xe6\\x89\\xbf.sol\":997:1002  a=a+1 */\n      dup2\n      swap1\n      sstore\n      pop\n        /* \"test/\\xe7\\xbb\\xa7\\xe6\\x89\\xbf.sol\":956:1010  function fool() public virtual{... */\n      jump\t// out\n        /* \"#utility.yul\":7:84   */\n    tag_18:\n        /* \"#utility.yul\":44:51   */\n      0x00\n        /* \"#utility.yul\":73:78   */\n      dup2\n        /* \"#utility.yul\":62:78   */\n      swap1\n      pop\n        /* \"#utility.yul\":7:84   */\n      swap2\n      swap1\n      pop\n      jump\t// out\n        /* \"#utility.yul\":90:208   */\n    tag_19:\n        /* \"#utility.yul\":177:201   */\n      tag_24\n        /* \"#utility.yul\":195:200   */\n      dup2\n        /* \"#utility.yul\":177:201   */\n      tag_18\n      jump\t// in\n    tag_24:\n        /* \"#utility.yul\":172:175   */\n      dup3\n        /* \"#utility.yul\":165:202   */\n      mstore\n        /* \"#utility.yul\":90:208   */\n      pop\n      pop\n      jump\t// out\n        /* \"#utility.yul\":214:436   */\n    tag_9:\n        /* \"#utility.yul\":307:311   */\n      0x00\n        /* \"#utility.yul\":345:347   */\n      0x20\n        /* \"#utility.yul\":334:343   */\n      dup3\n        /* \"#utility.yul\":330:348   */\n      add\n        /* \"#utility.yul\":322:348   */\n      swap1\n      pop\n        /* \"#utility.yul\":358:429   */\n      tag_26\n        /* \"#utility.yul\":426:427   */\n      0x00\n        /* \"#utility.yul\":415:424   */\n      dup4\n        /* \"#utility.yul\":411:428   */\n      add\n        /* \"#utility.yul\":402:408   */\n      dup5\n        /* \"#utility.yul\":358:429   */\n      tag_19\n      jump\t// in\n    tag_26:\n        /* \"#utility.yul\":214:436   */\n      swap3\n      swap2\n      pop\n      pop\n      jump\t// out\n        /* \"#utility.yul\":442:622   */\n    tag_20:\n        /* \"#utility.yul\":490:567   */\n      0x4e487b7100000000000000000000000000000000000000000000000000000000\n        /* \"#utility.yul\":487:488   */\n      0x00\n        /* \"#utility.yul\":480:568   */\n      mstore\n        /* \"#utility.yul\":587:591   */\n      0x11\n        /* \"#utility.yul\":584:585   */\n      0x04\n        /* \"#utility.yul\":577:592   */\n      mstore\n        /* \"#utility.yul\":611:615   */\n      0x24\n        /* \"#utility.yul\":608:609   */\n      0x00\n        /* \"#utility.yul\":601:616   */\n      revert\n        /* \"#utility.yul\":628:819   */\n    tag_17:\n        /* \"#utility.yul\":668:671   */\n      0x00\n        /* \"#utility.yul\":687:707   */\n      tag_29\n        /* \"#utility.yul\":705:706   */\n      dup3\n        /* \"#utility.yul\":687:707   */\n      tag_18\n      jump\t// in\n    tag_29:\n        /* \"#utility.yul\":682:707   */\n      swap2\n      pop\n        /* \"#utility.yul\":721:741   */\n      tag_30\n        /* \"#utility.yul\":739:740   */\n      dup4\n        /* \"#utility.yul\":721:741   */\n      tag_18\n      jump\t// in\n    tag_30:\n        /* \"#utility.yul\":716:741   */\n      swap3\n      pop\n        /* \"#utility.yul\":764:765   */\n      dup3\n        /* \"#utility.yul\":761:762   */\n      dup3\n        /* \"#utility.yul\":757:766   */\n      add\n        /* \"#utility.yul\":750:766   */\n      swap1\n      pop\n        /* \"#utility.yul\":785:788   */\n      dup1\n        /* \"#utility.yul\":782:783   */\n      dup3\n        /* \"#utility.yul\":779:789   */\n      gt\n        /* \"#utility.yul\":776:812   */\n      iszero\n      tag_31\n      jumpi\n        /* \"#utility.yul\":792:810   */\n      tag_32\n      tag_20\n      jump\t// in\n    tag_32:\n        /* \"#utility.yul\":776:812   */\n    tag_31:\n        /* \"#utility.yul\":628:819   */\n      swap3\n      swap2\n      pop\n      pop\n      jump\t// out\n\n    auxdata: 0xa26469706673582212208032a8c98bad520479f0b05602aebd24b247be3def8a37cbb2e98684c3e6098d64736f6c634300081a0033\n}\n",
				"bytecode": {
					"linkReferences": {},
					"object": "608060405234801561000f575f80fd5b506040516102a13803806102a183398181016040528101906100319190610099565b600281805f5461004191906100f1565b5f81905550508060015461005591906100f1565b6001819055505050610124565b5f80fd5b5f819050919050565b61007881610066565b8114610082575f80fd5b50565b5f815190506100938161006f565b92915050565b5f602082840312156100ae576100ad610062565b5b5f6100bb84828501610085565b91505092915050565b7f4e487b71000000000000000000000000000000000000000000000000000000005f52601160045260245ffd5b5f6100fb82610066565b915061010683610066565b925082820190508082111561011e5761011d6100c4565b5b92915050565b610170806101315f395ff3fe608060405234801561000f575f80fd5b506004361061003f575f3560e01c80630dbe671f146100435780634df7e3d014610061578063f082a3a71461007f575b5f80fd5b61004b610089565b60405161005891906100c1565b60405180910390f35b61006961008e565b60405161007691906100c1565b60405180910390f35b610087610094565b005b5f5481565b60015481565b60015f546100a29190610107565b5f81905550565b5f819050919050565b6100bb816100a9565b82525050565b5f6020820190506100d45f8301846100b2565b92915050565b7f4e487b71000000000000000000000000000000000000000000000000000000005f52601160045260245ffd5b5f610111826100a9565b915061011c836100a9565b9250828201905080821115610134576101336100da565b5b9291505056fea26469706673582212208032a8c98bad520479f0b05602aebd24b247be3def8a37cbb2e98684c3e6098d64736f6c634300081a0033",
					"opcodes": "PUSH1 0x80 PUSH1 0x40 MSTORE CALLVALUE DUP1 ISZERO PUSH2 0xF JUMPI PUSH0 DUP1 REVERT JUMPDEST POP PUSH1 0x40 MLOAD PUSH2 0x2A1 CODESIZE SUB DUP1 PUSH2 0x2A1 DUP4 CODECOPY DUP2 DUP2 ADD PUSH1 0x40 MSTORE DUP2 ADD SWAP1 PUSH2 0x31 SWAP2 SWAP1 PUSH2 0x99 JUMP JUMPDEST PUSH1 0x2 DUP2 DUP1 PUSH0 SLOAD PUSH2 0x41 SWAP2 SWAP1 PUSH2 0xF1 JUMP JUMPDEST PUSH0 DUP2 SWAP1 SSTORE POP POP DUP1 PUSH1 0x1 SLOAD PUSH2 0x55 SWAP2 SWAP1 PUSH2 0xF1 JUMP JUMPDEST PUSH1 0x1 DUP2 SWAP1 SSTORE POP POP POP PUSH2 0x124 JUMP JUMPDEST PUSH0 DUP1 REVERT JUMPDEST PUSH0 DUP2 SWAP1 POP SWAP2 SWAP1 POP JUMP JUMPDEST PUSH2 0x78 DUP2 PUSH2 0x66 JUMP JUMPDEST DUP2 EQ PUSH2 0x82 JUMPI PUSH0 DUP1 REVERT JUMPDEST POP JUMP JUMPDEST PUSH0 DUP2 MLOAD SWAP1 POP PUSH2 0x93 DUP2 PUSH2 0x6F JUMP JUMPDEST SWAP3 SWAP2 POP POP JUMP JUMPDEST PUSH0 PUSH1 0x20 DUP3 DUP5 SUB SLT ISZERO PUSH2 0xAE JUMPI PUSH2 0xAD PUSH2 0x62 JUMP JUMPDEST JUMPDEST PUSH0 PUSH2 0xBB DUP5 DUP3 DUP6 ADD PUSH2 0x85 JUMP JUMPDEST SWAP2 POP POP SWAP3 SWAP2 POP POP JUMP JUMPDEST PUSH32 0x4E487B7100000000000000000000000000000000000000000000000000000000 PUSH0 MSTORE PUSH1 0x11 PUSH1 0x4 MSTORE PUSH1 0x24 PUSH0 REVERT JUMPDEST PUSH0 PUSH2 0xFB DUP3 PUSH2 0x66 JUMP JUMPDEST SWAP2 POP PUSH2 0x106 DUP4 PUSH2 0x66 JUMP JUMPDEST SWAP3 POP DUP3 DUP3 ADD SWAP1 POP DUP1 DUP3 GT ISZERO PUSH2 0x11E JUMPI PUSH2 0x11D PUSH2 0xC4 JUMP JUMPDEST JUMPDEST SWAP3 SWAP2 POP POP JUMP JUMPDEST PUSH2 0x170 DUP1 PUSH2 0x131 PUSH0 CODECOPY PUSH0 RETURN INVALID PUSH1 0x80 PUSH1 0x40 MSTORE CALLVALUE DUP1 ISZERO PUSH2 0xF JUMPI PUSH0 DUP1 REVERT JUMPDEST POP PUSH1 0x4 CALLDATASIZE LT PUSH2 0x3F JUMPI PUSH0 CALLDATALOAD PUSH1 0xE0 SHR DUP1 PUSH4 0xDBE671F EQ PUSH2 0x43 JUMPI DUP1 PUSH4 0x4DF7E3D0 EQ PUSH2 0x61 JUMPI DUP1 PUSH4 0xF082A3A7 EQ PUSH2 0x7F JUMPI JUMPDEST PUSH0 DUP1 REVERT JUMPDEST PUSH2 0x4B PUSH2 0x89 JUMP JUMPDEST PUSH1 0x40 MLOAD PUSH2 0x58 SWAP2 SWAP1 PUSH2 0xC1 JUMP JUMPDEST PUSH1 0x40 MLOAD DUP1 SWAP2 SUB SWAP1 RETURN JUMPDEST PUSH2 0x69 PUSH2 0x8E JUMP JUMPDEST PUSH1 0x40 MLOAD PUSH2 0x76 SWAP2 SWAP1 PUSH2 0xC1 JUMP JUMPDEST PUSH1 0x40 MLOAD DUP1 SWAP2 SUB SWAP1 RETURN JUMPDEST PUSH2 0x87 PUSH2 0x94 JUMP JUMPDEST STOP JUMPDEST PUSH0 SLOAD DUP2 JUMP JUMPDEST PUSH1 0x1 SLOAD DUP2 JUMP JUMPDEST PUSH1 0x1 PUSH0 SLOAD PUSH2 0xA2 SWAP2 SWAP1 PUSH2 0x107 JUMP JUMPDEST PUSH0 DUP2 SWAP1 SSTORE POP JUMP JUMPDEST PUSH0 DUP2 SWAP1 POP SWAP2 SWAP1 POP JUMP JUMPDEST PUSH2 0xBB DUP2 PUSH2 0xA9 JUMP JUMPDEST DUP3 MSTORE POP POP JUMP JUMPDEST PUSH0 PUSH1 0x20 DUP3 ADD SWAP1 POP PUSH2 0xD4 PUSH0 DUP4 ADD DUP5 PUSH2 0xB2 JUMP JUMPDEST SWAP3 SWAP2 POP POP JUMP JUMPDEST PUSH32 0x4E487B7100000000000000000000000000000000000000000000000000000000 PUSH0 MSTORE PUSH1 0x11 PUSH1 0x4 MSTORE PUSH1 0x24 PUSH0 REVERT JUMPDEST PUSH0 PUSH2 0x111 DUP3 PUSH2 0xA9 JUMP JUMPDEST SWAP2 POP PUSH2 0x11C DUP4 PUSH2 0xA9 JUMP JUMPDEST SWAP3 POP DUP3 DUP3 ADD SWAP1 POP DUP1 DUP3 GT ISZERO PUSH2 0x134 JUMPI PUSH2 0x133 PUSH2 0xDA JUMP JUMPDEST JUMPDEST SWAP3 SWAP2 POP POP JUMP INVALID LOG2 PUSH5 0x6970667358 0x22 SLT KECCAK256 DUP1 ORIGIN 0xA8 0xC9 DUP12 0xAD MSTORE DIV PUSH26 0xF0B05602AEBD24B247BE3DEF8A37CBB2E98684C3E6098D64736F PUSH13 0x634300081A0033000000000000 "
				},
				"gasEstimates": {
					"creation": {
						"codeDepositCost": "73600",
						"executionCost": "infinite",
						"totalCost": "infinite"
					},
					"external": {
						"a()": "2402",
						"b()": "2425",
						"fool()": "infinite"
					}
				},
				"methodIdentifiers": {
					"a()": "0dbe671f",
					"b()": "4df7e3d0",
					"fool()": "f082a3a7"
				}
			},
			"storageLayout": {
				"storage": [
					{
						"astId": 8,
						"contract": "test/继承.sol:sub3",
						"label": "a",
						"offset": 0,
						"slot": "0",
						"type": "t_uint256"
					},
					{
						"astId": 33,
						"contract": "test/继承.sol:sub3",
						"label": "b",
						"offset": 0,
						"slot": "1",
						"type": "t_uint256"
					},
					{
						"astId": 116,
						"contract": "test/继承.sol:sub3",
						"label": "aaa",
						"offset": 0,
						"slot": "2",
						"type": "t_uint256"
					}
				],
				"types": {
					"t_uint256": {
						"encoding": "inplace",
						"label": "uint256",
						"numberOfBytes": "32"
					}
				}
			},
			"userdoc": {
				"kind": "user",
				"methods": {},
				"version": 1
			}
		}
	}
}