{
	"test/send与transfer区别.sol": {
		"TestSendAndTransfer": {
			"abi": [
				{
					"inputs": [],
					"name": "testSend",
					"outputs": [],
					"stateMutability": "nonpayable",
					"type": "function"
				},
				{
					"inputs": [],
					"name": "transferTest",
					"outputs": [],
					"stateMutability": "nonpayable",
					"type": "function"
				}
			],
			"devdoc": {
				"kind": "dev",
				"methods": {},
				"version": 1
			},
			"evm": {
				"assembly": "    /* \"test/send\\xe4\\xb8\\x8etransfer\\xe5\\x8c\\xba\\xe5\\x88\\xab.sol\":906:1170  contract TestSendAndTransfer{... */\n  mstore(0x40, 0x80)\n  callvalue\n  dup1\n  iszero\n  tag_1\n  jumpi\n  0x00\n  dup1\n  revert\ntag_1:\n  pop\n  dataSize(sub_0)\n  dup1\n  dataOffset(sub_0)\n  0x00\n  codecopy\n  0x00\n  return\nstop\n\nsub_0: assembly {\n        /* \"test/send\\xe4\\xb8\\x8etransfer\\xe5\\x8c\\xba\\xe5\\x88\\xab.sol\":906:1170  contract TestSendAndTransfer{... */\n      mstore(0x40, 0x80)\n      callvalue\n      dup1\n      iszero\n      tag_1\n      jumpi\n      0x00\n      dup1\n      revert\n    tag_1:\n      pop\n      jumpi(tag_2, lt(calldatasize, 0x04))\n      shr(0xe0, calldataload(0x00))\n      dup1\n      0x727b52b1\n      eq\n      tag_3\n      jumpi\n      dup1\n      0xc07aaf0f\n      eq\n      tag_4\n      jumpi\n    tag_2:\n      0x00\n      dup1\n      revert\n        /* \"test/send\\xe4\\xb8\\x8etransfer\\xe5\\x8c\\xba\\xe5\\x88\\xab.sol\":973:1045  function transferTest()public  {... */\n    tag_3:\n      tag_5\n      tag_6\n      jump\t// in\n    tag_5:\n      stop\n        /* \"test/send\\xe4\\xb8\\x8etransfer\\xe5\\x8c\\xba\\xe5\\x88\\xab.sol\":1053:1163  function testSend() public {... */\n    tag_4:\n      tag_7\n      tag_8\n      jump\t// in\n    tag_7:\n      stop\n        /* \"test/send\\xe4\\xb8\\x8etransfer\\xe5\\x8c\\xba\\xe5\\x88\\xab.sol\":973:1045  function transferTest()public  {... */\n    tag_6:\n        /* \"test/send\\xe4\\xb8\\x8etransfer\\xe5\\x8c\\xba\\xe5\\x88\\xab.sol\":1019:1022  add */\n      0x00\n      dup1\n      sload\n      swap1\n      0x0100\n      exp\n      swap1\n      div\n      0xffffffffffffffffffffffffffffffffffffffff\n      and\n        /* \"test/send\\xe4\\xb8\\x8etransfer\\xe5\\x8c\\xba\\xe5\\x88\\xab.sol\":1019:1031  add.transfer */\n      0xffffffffffffffffffffffffffffffffffffffff\n      and\n        /* \"test/send\\xe4\\xb8\\x8etransfer\\xe5\\x8c\\xba\\xe5\\x88\\xab.sol\":1019:1035  add.transfer(10) */\n      0x08fc\n        /* \"test/send\\xe4\\xb8\\x8etransfer\\xe5\\x8c\\xba\\xe5\\x88\\xab.sol\":1032:1034  10 */\n      0x0a\n        /* \"test/send\\xe4\\xb8\\x8etransfer\\xe5\\x8c\\xba\\xe5\\x88\\xab.sol\":1019:1035  add.transfer(10) */\n      swap1\n      dup2\n      iszero\n      mul\n      swap1\n      mload(0x40)\n      0x00\n      mload(0x40)\n      dup1\n      dup4\n      sub\n      dup2\n      dup6\n      dup9\n      dup9\n      call\n      swap4\n      pop\n      pop\n      pop\n      pop\n      iszero\n      dup1\n      iszero\n      tag_11\n      jumpi\n      returndatasize\n      0x00\n      dup1\n      returndatacopy\n      revert(0x00, returndatasize)\n    tag_11:\n      pop\n        /* \"test/send\\xe4\\xb8\\x8etransfer\\xe5\\x8c\\xba\\xe5\\x88\\xab.sol\":973:1045  function transferTest()public  {... */\n      jump\t// out\n        /* \"test/send\\xe4\\xb8\\x8etransfer\\xe5\\x8c\\xba\\xe5\\x88\\xab.sol\":1053:1163  function testSend() public {... */\n    tag_8:\n        /* \"test/send\\xe4\\xb8\\x8etransfer\\xe5\\x8c\\xba\\xe5\\x88\\xab.sol\":1089:1101  bool success */\n      0x00\n        /* \"test/send\\xe4\\xb8\\x8etransfer\\xe5\\x8c\\xba\\xe5\\x88\\xab.sol\":1104:1107  add */\n      dup1\n      0x00\n      swap1\n      sload\n      swap1\n      0x0100\n      exp\n      swap1\n      div\n      0xffffffffffffffffffffffffffffffffffffffff\n      and\n        /* \"test/send\\xe4\\xb8\\x8etransfer\\xe5\\x8c\\xba\\xe5\\x88\\xab.sol\":1104:1112  add.send */\n      0xffffffffffffffffffffffffffffffffffffffff\n      and\n        /* \"test/send\\xe4\\xb8\\x8etransfer\\xe5\\x8c\\xba\\xe5\\x88\\xab.sol\":1104:1116  add.send(10) */\n      0x08fc\n        /* \"test/send\\xe4\\xb8\\x8etransfer\\xe5\\x8c\\xba\\xe5\\x88\\xab.sol\":1113:1115  10 */\n      0x0a\n        /* \"test/send\\xe4\\xb8\\x8etransfer\\xe5\\x8c\\xba\\xe5\\x88\\xab.sol\":1104:1116  add.send(10) */\n      swap1\n      dup2\n      iszero\n      mul\n      swap1\n      mload(0x40)\n      0x00\n      mload(0x40)\n      dup1\n      dup4\n      sub\n      dup2\n      dup6\n      dup9\n      dup9\n      call\n      swap4\n      pop\n      pop\n      pop\n      pop\n        /* \"test/send\\xe4\\xb8\\x8etransfer\\xe5\\x8c\\xba\\xe5\\x88\\xab.sol\":1089:1116  bool success=  add.send(10) */\n      swap1\n      pop\n        /* \"test/send\\xe4\\xb8\\x8etransfer\\xe5\\x8c\\xba\\xe5\\x88\\xab.sol\":1133:1140  success */\n      dup1\n        /* \"test/send\\xe4\\xb8\\x8etransfer\\xe5\\x8c\\xba\\xe5\\x88\\xab.sol\":1125:1155  require(success,\"send failed\") */\n      tag_14\n      jumpi\n      mload(0x40)\n      0x08c379a000000000000000000000000000000000000000000000000000000000\n      dup2\n      mstore\n      0x04\n      add\n      tag_15\n      swap1\n      tag_16\n      jump\t// in\n    tag_15:\n      mload(0x40)\n      dup1\n      swap2\n      sub\n      swap1\n      revert\n    tag_14:\n        /* \"test/send\\xe4\\xb8\\x8etransfer\\xe5\\x8c\\xba\\xe5\\x88\\xab.sol\":1080:1163  {... */\n      pop\n        /* \"test/send\\xe4\\xb8\\x8etransfer\\xe5\\x8c\\xba\\xe5\\x88\\xab.sol\":1053:1163  function testSend() public {... */\n      jump\t// out\n        /* \"#utility.yul\":7:176   */\n    tag_17:\n        /* \"#utility.yul\":91:102   */\n      0x00\n        /* \"#utility.yul\":125:131   */\n      dup3\n        /* \"#utility.yul\":120:123   */\n      dup3\n        /* \"#utility.yul\":113:132   */\n      mstore\n        /* \"#utility.yul\":165:169   */\n      0x20\n        /* \"#utility.yul\":160:163   */\n      dup3\n        /* \"#utility.yul\":156:170   */\n      add\n        /* \"#utility.yul\":141:170   */\n      swap1\n      pop\n        /* \"#utility.yul\":7:176   */\n      swap3\n      swap2\n      pop\n      pop\n      jump\t// out\n        /* \"#utility.yul\":182:343   */\n    tag_18:\n        /* \"#utility.yul\":322:335   */\n      0x73656e64206661696c6564000000000000000000000000000000000000000000\n        /* \"#utility.yul\":318:319   */\n      0x00\n        /* \"#utility.yul\":310:316   */\n      dup3\n        /* \"#utility.yul\":306:320   */\n      add\n        /* \"#utility.yul\":299:336   */\n      mstore\n        /* \"#utility.yul\":182:343   */\n      pop\n      jump\t// out\n        /* \"#utility.yul\":349:715   */\n    tag_19:\n        /* \"#utility.yul\":491:494   */\n      0x00\n        /* \"#utility.yul\":512:579   */\n      tag_24\n        /* \"#utility.yul\":576:578   */\n      0x0b\n        /* \"#utility.yul\":571:574   */\n      dup4\n        /* \"#utility.yul\":512:579   */\n      tag_17\n      jump\t// in\n    tag_24:\n        /* \"#utility.yul\":505:579   */\n      swap2\n      pop\n        /* \"#utility.yul\":588:681   */\n      tag_25\n        /* \"#utility.yul\":677:680   */\n      dup3\n        /* \"#utility.yul\":588:681   */\n      tag_18\n      jump\t// in\n    tag_25:\n        /* \"#utility.yul\":706:708   */\n      0x20\n        /* \"#utility.yul\":701:704   */\n      dup3\n        /* \"#utility.yul\":697:709   */\n      add\n        /* \"#utility.yul\":690:709   */\n      swap1\n      pop\n        /* \"#utility.yul\":349:715   */\n      swap2\n      swap1\n      pop\n      jump\t// out\n        /* \"#utility.yul\":721:1140   */\n    tag_16:\n        /* \"#utility.yul\":887:891   */\n      0x00\n        /* \"#utility.yul\":925:927   */\n      0x20\n        /* \"#utility.yul\":914:923   */\n      dup3\n        /* \"#utility.yul\":910:928   */\n      add\n        /* \"#utility.yul\":902:928   */\n      swap1\n      pop\n        /* \"#utility.yul\":974:983   */\n      dup2\n        /* \"#utility.yul\":968:972   */\n      dup2\n        /* \"#utility.yul\":964:984   */\n      sub\n        /* \"#utility.yul\":960:961   */\n      0x00\n        /* \"#utility.yul\":949:958   */\n      dup4\n        /* \"#utility.yul\":945:962   */\n      add\n        /* \"#utility.yul\":938:985   */\n      mstore\n        /* \"#utility.yul\":1002:1133   */\n      tag_27\n        /* \"#utility.yul\":1128:1132   */\n      dup2\n        /* \"#utility.yul\":1002:1133   */\n      tag_19\n      jump\t// in\n    tag_27:\n        /* \"#utility.yul\":994:1133   */\n      swap1\n      pop\n        /* \"#utility.yul\":721:1140   */\n      swap2\n      swap1\n      pop\n      jump\t// out\n\n    auxdata: 0xa2646970667358221220317561d6df67e89ce45aad51f0feb05d62f5255befeadd8ea02a13d0da79094464736f6c634300081a0033\n}\n",
				"bytecode": {
					"linkReferences": {},
					"object": "6080604052348015600e575f80fd5b506101fb8061001c5f395ff3fe608060405234801561000f575f80fd5b5060043610610034575f3560e01c8063727b52b114610038578063c07aaf0f14610042575b5f80fd5b61004061004c565b005b61004a6100b2565b005b5f8054906101000a900473ffffffffffffffffffffffffffffffffffffffff1673ffffffffffffffffffffffffffffffffffffffff166108fc600a90811502906040515f60405180830381858888f193505050501580156100af573d5f803e3d5ffd5b50565b5f805f9054906101000a900473ffffffffffffffffffffffffffffffffffffffff1673ffffffffffffffffffffffffffffffffffffffff166108fc600a90811502906040515f60405180830381858888f1935050505090508061014a576040517f08c379a0000000000000000000000000000000000000000000000000000000008152600401610141906101a7565b60405180910390fd5b50565b5f82825260208201905092915050565b7f73656e64206661696c65640000000000000000000000000000000000000000005f82015250565b5f610191600b8361014d565b915061019c8261015d565b602082019050919050565b5f6020820190508181035f8301526101be81610185565b905091905056fea2646970667358221220317561d6df67e89ce45aad51f0feb05d62f5255befeadd8ea02a13d0da79094464736f6c634300081a0033",
					"opcodes": "PUSH1 0x80 PUSH1 0x40 MSTORE CALLVALUE DUP1 ISZERO PUSH1 0xE JUMPI PUSH0 DUP1 REVERT JUMPDEST POP PUSH2 0x1FB DUP1 PUSH2 0x1C PUSH0 CODECOPY PUSH0 RETURN INVALID PUSH1 0x80 PUSH1 0x40 MSTORE CALLVALUE DUP1 ISZERO PUSH2 0xF JUMPI PUSH0 DUP1 REVERT JUMPDEST POP PUSH1 0x4 CALLDATASIZE LT PUSH2 0x34 JUMPI PUSH0 CALLDATALOAD PUSH1 0xE0 SHR DUP1 PUSH4 0x727B52B1 EQ PUSH2 0x38 JUMPI DUP1 PUSH4 0xC07AAF0F EQ PUSH2 0x42 JUMPI JUMPDEST PUSH0 DUP1 REVERT JUMPDEST PUSH2 0x40 PUSH2 0x4C JUMP JUMPDEST STOP JUMPDEST PUSH2 0x4A PUSH2 0xB2 JUMP JUMPDEST STOP JUMPDEST PUSH0 DUP1 SLOAD SWAP1 PUSH2 0x100 EXP SWAP1 DIV PUSH20 0xFFFFFFFFFFFFFFFFFFFFFFFFFFFFFFFFFFFFFFFF AND PUSH20 0xFFFFFFFFFFFFFFFFFFFFFFFFFFFFFFFFFFFFFFFF AND PUSH2 0x8FC PUSH1 0xA SWAP1 DUP2 ISZERO MUL SWAP1 PUSH1 0x40 MLOAD PUSH0 PUSH1 0x40 MLOAD DUP1 DUP4 SUB DUP2 DUP6 DUP9 DUP9 CALL SWAP4 POP POP POP POP ISZERO DUP1 ISZERO PUSH2 0xAF JUMPI RETURNDATASIZE PUSH0 DUP1 RETURNDATACOPY RETURNDATASIZE PUSH0 REVERT JUMPDEST POP JUMP JUMPDEST PUSH0 DUP1 PUSH0 SWAP1 SLOAD SWAP1 PUSH2 0x100 EXP SWAP1 DIV PUSH20 0xFFFFFFFFFFFFFFFFFFFFFFFFFFFFFFFFFFFFFFFF AND PUSH20 0xFFFFFFFFFFFFFFFFFFFFFFFFFFFFFFFFFFFFFFFF AND PUSH2 0x8FC PUSH1 0xA SWAP1 DUP2 ISZERO MUL SWAP1 PUSH1 0x40 MLOAD PUSH0 PUSH1 0x40 MLOAD DUP1 DUP4 SUB DUP2 DUP6 DUP9 DUP9 CALL SWAP4 POP POP POP POP SWAP1 POP DUP1 PUSH2 0x14A JUMPI PUSH1 0x40 MLOAD PUSH32 0x8C379A000000000000000000000000000000000000000000000000000000000 DUP2 MSTORE PUSH1 0x4 ADD PUSH2 0x141 SWAP1 PUSH2 0x1A7 JUMP JUMPDEST PUSH1 0x40 MLOAD DUP1 SWAP2 SUB SWAP1 REVERT JUMPDEST POP JUMP JUMPDEST PUSH0 DUP3 DUP3 MSTORE PUSH1 0x20 DUP3 ADD SWAP1 POP SWAP3 SWAP2 POP POP JUMP JUMPDEST PUSH32 0x73656E64206661696C6564000000000000000000000000000000000000000000 PUSH0 DUP3 ADD MSTORE POP JUMP JUMPDEST PUSH0 PUSH2 0x191 PUSH1 0xB DUP4 PUSH2 0x14D JUMP JUMPDEST SWAP2 POP PUSH2 0x19C DUP3 PUSH2 0x15D JUMP JUMPDEST PUSH1 0x20 DUP3 ADD SWAP1 POP SWAP2 SWAP1 POP JUMP JUMPDEST PUSH0 PUSH1 0x20 DUP3 ADD SWAP1 POP DUP2 DUP2 SUB PUSH0 DUP4 ADD MSTORE PUSH2 0x1BE DUP2 PUSH2 0x185 JUMP JUMPDEST SWAP1 POP SWAP2 SWAP1 POP JUMP INVALID LOG2 PUSH5 0x6970667358 0x22 SLT KECCAK256 BALANCE PUSH22 0x61D6DF67E89CE45AAD51F0FEB05D62F5255BEFEADD8E LOG0 0x2A SGT 0xD0 0xDA PUSH26 0x94464736F6C634300081A003300000000000000000000000000 "
				},
				"gasEstimates": {
					"creation": {
						"codeDepositCost": "101400",
						"executionCost": "145",
						"totalCost": "101545"
					},
					"external": {
						"testSend()": "infinite",
						"transferTest()": "infinite"
					}
				},
				"methodIdentifiers": {
					"testSend()": "c07aaf0f",
					"transferTest()": "727b52b1"
				}
			},
			"storageLayout": {
				"storage": [
					{
						"astId": 4,
						"contract": "test/send与transfer区别.sol:TestSendAndTransfer",
						"label": "add",
						"offset": 0,
						"slot": "0",
						"type": "t_address_payable"
					}
				],
				"types": {
					"t_address_payable": {
						"encoding": "inplace",
						"label": "address payable",
						"numberOfBytes": "20"
					}
				}
			},
			"userdoc": {
				"kind": "user",
				"methods": {},
				"notice": "transfer() 特点： gas 限制：2300（仅适用于 fallback 或 receive ） 失败时会自动 revert（交易回滚） 推荐使用，因为它更安全 2. send() ool success = addr.send(amount); require(success, \"Send failed\"); ✅ 特点： gas 限制：2300 不会自动回滚，只会返回 true/false 需要手动检查返回值（否则可能丢失资金） call.value()（更灵活但风险更高） (bool success, ) = addr.call{value: amount}(\"\"); require(success, \"Call failed\"); 特点： 无 gas 限制（可以消耗比 2300 更多的 gas） 推荐用于 call 复杂合约 比 transfer() 和 send() 更危险，可能导致重入攻击*",
				"version": 1
			}
		}
	}
}