{
	"test/数据类型.sol": {
		"DataTypeTest": {
			"abi": [
				{
					"inputs": [
						{
							"internalType": "uint256[]",
							"name": "memoryArray",
							"type": "uint256[]"
						}
					],
					"name": "f",
					"outputs": [],
					"stateMutability": "nonpayable",
					"type": "function"
				},
				{
					"inputs": [
						{
							"internalType": "uint256",
							"name": "",
							"type": "uint256"
						}
					],
					"name": "xx",
					"outputs": [
						{
							"internalType": "uint256",
							"name": "",
							"type": "uint256"
						}
					],
					"stateMutability": "view",
					"type": "function"
				}
			],
			"devdoc": {
				"kind": "dev",
				"methods": {},
				"version": 1
			},
			"evm": {
				"assembly": "    /* \"test/\\xe6\\x95\\xb0\\xe6\\x8d\\xae\\xe7\\xb1\\xbb\\xe5\\x9e\\x8b.sol\":2103:2488  contract DataTypeTest {... */\n  mstore(0x40, 0x80)\n  callvalue\n  dup1\n  iszero\n  tag_1\n  jumpi\n  0x00\n  dup1\n  revert\ntag_1:\n  pop\n  dataSize(sub_0)\n  dup1\n  dataOffset(sub_0)\n  0x00\n  codecopy\n  0x00\n  return\nstop\n\nsub_0: assembly {\n        /* \"test/\\xe6\\x95\\xb0\\xe6\\x8d\\xae\\xe7\\xb1\\xbb\\xe5\\x9e\\x8b.sol\":2103:2488  contract DataTypeTest {... */\n      mstore(0x40, 0x80)\n      callvalue\n      dup1\n      iszero\n      tag_1\n      jumpi\n      0x00\n      dup1\n      revert\n    tag_1:\n      pop\n      jumpi(tag_2, lt(calldatasize, 0x04))\n      shr(0xe0, calldataload(0x00))\n      dup1\n      0x1a627f48\n      eq\n      tag_3\n      jumpi\n      dup1\n      0x7bc5bbbf\n      eq\n      tag_4\n      jumpi\n    tag_2:\n      0x00\n      dup1\n      revert\n        /* \"test/\\xe6\\x95\\xb0\\xe6\\x8d\\xae\\xe7\\xb1\\xbb\\xe5\\x9e\\x8b.sol\":2139:2156  uint[] public  xx */\n    tag_3:\n      tag_5\n      0x04\n      dup1\n      calldatasize\n      sub\n      dup2\n      add\n      swap1\n      tag_6\n      swap2\n      swap1\n      tag_7\n      jump\t// in\n    tag_6:\n      tag_8\n      jump\t// in\n    tag_5:\n      mload(0x40)\n      tag_9\n      swap2\n      swap1\n      tag_10\n      jump\t// in\n    tag_9:\n      mload(0x40)\n      dup1\n      swap2\n      sub\n      swap1\n      return\n        /* \"test/\\xe6\\x95\\xb0\\xe6\\x8d\\xae\\xe7\\xb1\\xbb\\xe5\\x9e\\x8b.sol\":2211:2459  function f(uint[] memory memoryArray) public {... */\n    tag_4:\n      tag_11\n      0x04\n      dup1\n      calldatasize\n      sub\n      dup2\n      add\n      swap1\n      tag_12\n      swap2\n      swap1\n      tag_13\n      jump\t// in\n    tag_12:\n      tag_14\n      jump\t// in\n    tag_11:\n      stop\n        /* \"test/\\xe6\\x95\\xb0\\xe6\\x8d\\xae\\xe7\\xb1\\xbb\\xe5\\x9e\\x8b.sol\":2139:2156  uint[] public  xx */\n    tag_8:\n      0x00\n      dup2\n      dup2\n      sload\n      dup2\n      lt\n      tag_15\n      jumpi\n      0x00\n      dup1\n      revert\n    tag_15:\n      swap1\n      0x00\n      mstore\n      keccak256(0x00, 0x20)\n      add\n      0x00\n      swap2\n      pop\n      swap1\n      pop\n      sload\n      dup2\n      jump\t// out\n        /* \"test/\\xe6\\x95\\xb0\\xe6\\x8d\\xae\\xe7\\xb1\\xbb\\xe5\\x9e\\x8b.sol\":2211:2459  function f(uint[] memory memoryArray) public {... */\n    tag_14:\n        /* \"test/\\xe6\\x95\\xb0\\xe6\\x8d\\xae\\xe7\\xb1\\xbb\\xe5\\x9e\\x8b.sol\":2280:2291  memoryArray */\n      dup1\n        /* \"test/\\xe6\\x95\\xb0\\xe6\\x8d\\xae\\xe7\\xb1\\xbb\\xe5\\x9e\\x8b.sol\":2277:2279  xx */\n      0x00\n        /* \"test/\\xe6\\x95\\xb0\\xe6\\x8d\\xae\\xe7\\xb1\\xbb\\xe5\\x9e\\x8b.sol\":2277:2291  xx=memoryArray */\n      swap1\n      dup1\n      mload\n      swap1\n      0x20\n      add\n      swap1\n      tag_18\n      swap3\n      swap2\n      swap1\n      tag_19\n      jump\t// in\n    tag_18:\n      pop\n        /* \"test/\\xe6\\x95\\xb0\\xe6\\x8d\\xae\\xe7\\xb1\\xbb\\xe5\\x9e\\x8b.sol\":2211:2459  function f(uint[] memory memoryArray) public {... */\n      pop\n      jump\t// out\n    tag_19:\n      dup3\n      dup1\n      sload\n      dup3\n      dup3\n      sstore\n      swap1\n      0x00\n      mstore\n      keccak256(0x00, 0x20)\n      swap1\n      dup2\n      add\n      swap3\n      dup3\n      iszero\n      tag_20\n      jumpi\n      swap2\n      0x20\n      mul\n      dup3\n      add\n    tag_21:\n      dup3\n      dup2\n      gt\n      iszero\n      tag_22\n      jumpi\n      dup3\n      mload\n      dup3\n      sstore\n      swap2\n      0x20\n      add\n      swap2\n      swap1\n      0x01\n      add\n      swap1\n      jump(tag_21)\n    tag_22:\n    tag_20:\n      pop\n      swap1\n      pop\n      tag_23\n      swap2\n      swap1\n      tag_24\n      jump\t// in\n    tag_23:\n      pop\n      swap1\n      jump\t// out\n    tag_24:\n    tag_25:\n      dup1\n      dup3\n      gt\n      iszero\n      tag_26\n      jumpi\n      0x00\n      dup2\n      0x00\n      swap1\n      sstore\n      pop\n      0x01\n      add\n      jump(tag_25)\n    tag_26:\n      pop\n      swap1\n      jump\t// out\n        /* \"#utility.yul\":7:82   */\n    tag_27:\n        /* \"#utility.yul\":40:46   */\n      0x00\n        /* \"#utility.yul\":73:75   */\n      0x40\n        /* \"#utility.yul\":67:76   */\n      mload\n        /* \"#utility.yul\":57:76   */\n      swap1\n      pop\n        /* \"#utility.yul\":7:82   */\n      swap1\n      jump\t// out\n        /* \"#utility.yul\":88:205   */\n    tag_28:\n        /* \"#utility.yul\":197:198   */\n      0x00\n        /* \"#utility.yul\":194:195   */\n      dup1\n        /* \"#utility.yul\":187:199   */\n      revert\n        /* \"#utility.yul\":211:328   */\n    tag_29:\n        /* \"#utility.yul\":320:321   */\n      0x00\n        /* \"#utility.yul\":317:318   */\n      dup1\n        /* \"#utility.yul\":310:322   */\n      revert\n        /* \"#utility.yul\":334:411   */\n    tag_30:\n        /* \"#utility.yul\":371:378   */\n      0x00\n        /* \"#utility.yul\":400:405   */\n      dup2\n        /* \"#utility.yul\":389:405   */\n      swap1\n      pop\n        /* \"#utility.yul\":334:411   */\n      swap2\n      swap1\n      pop\n      jump\t// out\n        /* \"#utility.yul\":417:539   */\n    tag_31:\n        /* \"#utility.yul\":490:514   */\n      tag_49\n        /* \"#utility.yul\":508:513   */\n      dup2\n        /* \"#utility.yul\":490:514   */\n      tag_30\n      jump\t// in\n    tag_49:\n        /* \"#utility.yul\":483:488   */\n      dup2\n        /* \"#utility.yul\":480:515   */\n      eq\n        /* \"#utility.yul\":470:533   */\n      tag_50\n      jumpi\n        /* \"#utility.yul\":529:530   */\n      0x00\n        /* \"#utility.yul\":526:527   */\n      dup1\n        /* \"#utility.yul\":519:531   */\n      revert\n        /* \"#utility.yul\":470:533   */\n    tag_50:\n        /* \"#utility.yul\":417:539   */\n      pop\n      jump\t// out\n        /* \"#utility.yul\":545:684   */\n    tag_32:\n        /* \"#utility.yul\":591:596   */\n      0x00\n        /* \"#utility.yul\":629:635   */\n      dup2\n        /* \"#utility.yul\":616:636   */\n      calldataload\n        /* \"#utility.yul\":607:636   */\n      swap1\n      pop\n        /* \"#utility.yul\":645:678   */\n      tag_52\n        /* \"#utility.yul\":672:677   */\n      dup2\n        /* \"#utility.yul\":645:678   */\n      tag_31\n      jump\t// in\n    tag_52:\n        /* \"#utility.yul\":545:684   */\n      swap3\n      swap2\n      pop\n      pop\n      jump\t// out\n        /* \"#utility.yul\":690:1019   */\n    tag_7:\n        /* \"#utility.yul\":749:755   */\n      0x00\n        /* \"#utility.yul\":798:800   */\n      0x20\n        /* \"#utility.yul\":786:795   */\n      dup3\n        /* \"#utility.yul\":777:784   */\n      dup5\n        /* \"#utility.yul\":773:796   */\n      sub\n        /* \"#utility.yul\":769:801   */\n      slt\n        /* \"#utility.yul\":766:885   */\n      iszero\n      tag_54\n      jumpi\n        /* \"#utility.yul\":804:883   */\n      tag_55\n      tag_28\n      jump\t// in\n    tag_55:\n        /* \"#utility.yul\":766:885   */\n    tag_54:\n        /* \"#utility.yul\":924:925   */\n      0x00\n        /* \"#utility.yul\":949:1002   */\n      tag_56\n        /* \"#utility.yul\":994:1001   */\n      dup5\n        /* \"#utility.yul\":985:991   */\n      dup3\n        /* \"#utility.yul\":974:983   */\n      dup6\n        /* \"#utility.yul\":970:992   */\n      add\n        /* \"#utility.yul\":949:1002   */\n      tag_32\n      jump\t// in\n    tag_56:\n        /* \"#utility.yul\":939:1002   */\n      swap2\n      pop\n        /* \"#utility.yul\":895:1012   */\n      pop\n        /* \"#utility.yul\":690:1019   */\n      swap3\n      swap2\n      pop\n      pop\n      jump\t// out\n        /* \"#utility.yul\":1025:1143   */\n    tag_33:\n        /* \"#utility.yul\":1112:1136   */\n      tag_58\n        /* \"#utility.yul\":1130:1135   */\n      dup2\n        /* \"#utility.yul\":1112:1136   */\n      tag_30\n      jump\t// in\n    tag_58:\n        /* \"#utility.yul\":1107:1110   */\n      dup3\n        /* \"#utility.yul\":1100:1137   */\n      mstore\n        /* \"#utility.yul\":1025:1143   */\n      pop\n      pop\n      jump\t// out\n        /* \"#utility.yul\":1149:1371   */\n    tag_10:\n        /* \"#utility.yul\":1242:1246   */\n      0x00\n        /* \"#utility.yul\":1280:1282   */\n      0x20\n        /* \"#utility.yul\":1269:1278   */\n      dup3\n        /* \"#utility.yul\":1265:1283   */\n      add\n        /* \"#utility.yul\":1257:1283   */\n      swap1\n      pop\n        /* \"#utility.yul\":1293:1364   */\n      tag_60\n        /* \"#utility.yul\":1361:1362   */\n      0x00\n        /* \"#utility.yul\":1350:1359   */\n      dup4\n        /* \"#utility.yul\":1346:1363   */\n      add\n        /* \"#utility.yul\":1337:1343   */\n      dup5\n        /* \"#utility.yul\":1293:1364   */\n      tag_33\n      jump\t// in\n    tag_60:\n        /* \"#utility.yul\":1149:1371   */\n      swap3\n      swap2\n      pop\n      pop\n      jump\t// out\n        /* \"#utility.yul\":1377:1494   */\n    tag_34:\n        /* \"#utility.yul\":1486:1487   */\n      0x00\n        /* \"#utility.yul\":1483:1484   */\n      dup1\n        /* \"#utility.yul\":1476:1488   */\n      revert\n        /* \"#utility.yul\":1500:1602   */\n    tag_35:\n        /* \"#utility.yul\":1541:1547   */\n      0x00\n        /* \"#utility.yul\":1592:1594   */\n      0x1f\n        /* \"#utility.yul\":1588:1595   */\n      not\n        /* \"#utility.yul\":1583:1585   */\n      0x1f\n        /* \"#utility.yul\":1576:1581   */\n      dup4\n        /* \"#utility.yul\":1572:1586   */\n      add\n        /* \"#utility.yul\":1568:1596   */\n      and\n        /* \"#utility.yul\":1558:1596   */\n      swap1\n      pop\n        /* \"#utility.yul\":1500:1602   */\n      swap2\n      swap1\n      pop\n      jump\t// out\n        /* \"#utility.yul\":1608:1788   */\n    tag_36:\n        /* \"#utility.yul\":1656:1733   */\n      0x4e487b7100000000000000000000000000000000000000000000000000000000\n        /* \"#utility.yul\":1653:1654   */\n      0x00\n        /* \"#utility.yul\":1646:1734   */\n      mstore\n        /* \"#utility.yul\":1753:1757   */\n      0x41\n        /* \"#utility.yul\":1750:1751   */\n      0x04\n        /* \"#utility.yul\":1743:1758   */\n      mstore\n        /* \"#utility.yul\":1777:1781   */\n      0x24\n        /* \"#utility.yul\":1774:1775   */\n      0x00\n        /* \"#utility.yul\":1767:1782   */\n      revert\n        /* \"#utility.yul\":1794:2075   */\n    tag_37:\n        /* \"#utility.yul\":1877:1904   */\n      tag_65\n        /* \"#utility.yul\":1899:1903   */\n      dup3\n        /* \"#utility.yul\":1877:1904   */\n      tag_35\n      jump\t// in\n    tag_65:\n        /* \"#utility.yul\":1869:1875   */\n      dup2\n        /* \"#utility.yul\":1865:1905   */\n      add\n        /* \"#utility.yul\":2007:2013   */\n      dup2\n        /* \"#utility.yul\":1995:2005   */\n      dup2\n        /* \"#utility.yul\":1992:2014   */\n      lt\n        /* \"#utility.yul\":1971:1989   */\n      0xffffffffffffffff\n        /* \"#utility.yul\":1959:1969   */\n      dup3\n        /* \"#utility.yul\":1956:1990   */\n      gt\n        /* \"#utility.yul\":1953:2015   */\n      or\n        /* \"#utility.yul\":1950:2038   */\n      iszero\n      tag_66\n      jumpi\n        /* \"#utility.yul\":2018:2036   */\n      tag_67\n      tag_36\n      jump\t// in\n    tag_67:\n        /* \"#utility.yul\":1950:2038   */\n    tag_66:\n        /* \"#utility.yul\":2058:2068   */\n      dup1\n        /* \"#utility.yul\":2054:2056   */\n      0x40\n        /* \"#utility.yul\":2047:2069   */\n      mstore\n        /* \"#utility.yul\":1837:2075   */\n      pop\n        /* \"#utility.yul\":1794:2075   */\n      pop\n      pop\n      jump\t// out\n        /* \"#utility.yul\":2081:2210   */\n    tag_38:\n        /* \"#utility.yul\":2115:2121   */\n      0x00\n        /* \"#utility.yul\":2142:2162   */\n      tag_69\n      tag_27\n      jump\t// in\n    tag_69:\n        /* \"#utility.yul\":2132:2162   */\n      swap1\n      pop\n        /* \"#utility.yul\":2171:2204   */\n      tag_70\n        /* \"#utility.yul\":2199:2203   */\n      dup3\n        /* \"#utility.yul\":2191:2197   */\n      dup3\n        /* \"#utility.yul\":2171:2204   */\n      tag_37\n      jump\t// in\n    tag_70:\n        /* \"#utility.yul\":2081:2210   */\n      swap2\n      swap1\n      pop\n      jump\t// out\n        /* \"#utility.yul\":2216:2527   */\n    tag_39:\n        /* \"#utility.yul\":2293:2297   */\n      0x00\n        /* \"#utility.yul\":2383:2401   */\n      0xffffffffffffffff\n        /* \"#utility.yul\":2375:2381   */\n      dup3\n        /* \"#utility.yul\":2372:2402   */\n      gt\n        /* \"#utility.yul\":2369:2425   */\n      iszero\n      tag_72\n      jumpi\n        /* \"#utility.yul\":2405:2423   */\n      tag_73\n      tag_36\n      jump\t// in\n    tag_73:\n        /* \"#utility.yul\":2369:2425   */\n    tag_72:\n        /* \"#utility.yul\":2455:2459   */\n      0x20\n        /* \"#utility.yul\":2447:2453   */\n      dup3\n        /* \"#utility.yul\":2443:2460   */\n      mul\n        /* \"#utility.yul\":2435:2460   */\n      swap1\n      pop\n        /* \"#utility.yul\":2515:2519   */\n      0x20\n        /* \"#utility.yul\":2509:2513   */\n      dup2\n        /* \"#utility.yul\":2505:2520   */\n      add\n        /* \"#utility.yul\":2497:2520   */\n      swap1\n      pop\n        /* \"#utility.yul\":2216:2527   */\n      swap2\n      swap1\n      pop\n      jump\t// out\n        /* \"#utility.yul\":2533:2650   */\n    tag_40:\n        /* \"#utility.yul\":2642:2643   */\n      0x00\n        /* \"#utility.yul\":2639:2640   */\n      dup1\n        /* \"#utility.yul\":2632:2644   */\n      revert\n        /* \"#utility.yul\":2673:3383   */\n    tag_41:\n        /* \"#utility.yul\":2769:2774   */\n      0x00\n        /* \"#utility.yul\":2794:2875   */\n      tag_76\n        /* \"#utility.yul\":2810:2874   */\n      tag_77\n        /* \"#utility.yul\":2867:2873   */\n      dup5\n        /* \"#utility.yul\":2810:2874   */\n      tag_39\n      jump\t// in\n    tag_77:\n        /* \"#utility.yul\":2794:2875   */\n      tag_38\n      jump\t// in\n    tag_76:\n        /* \"#utility.yul\":2785:2875   */\n      swap1\n      pop\n        /* \"#utility.yul\":2895:2900   */\n      dup1\n        /* \"#utility.yul\":2924:2930   */\n      dup4\n        /* \"#utility.yul\":2917:2922   */\n      dup3\n        /* \"#utility.yul\":2910:2931   */\n      mstore\n        /* \"#utility.yul\":2958:2962   */\n      0x20\n        /* \"#utility.yul\":2951:2956   */\n      dup3\n        /* \"#utility.yul\":2947:2963   */\n      add\n        /* \"#utility.yul\":2940:2963   */\n      swap1\n      pop\n        /* \"#utility.yul\":3011:3015   */\n      0x20\n        /* \"#utility.yul\":3003:3009   */\n      dup5\n        /* \"#utility.yul\":2999:3016   */\n      mul\n        /* \"#utility.yul\":2991:2997   */\n      dup4\n        /* \"#utility.yul\":2987:3017   */\n      add\n        /* \"#utility.yul\":3040:3043   */\n      dup6\n        /* \"#utility.yul\":3032:3038   */\n      dup2\n        /* \"#utility.yul\":3029:3044   */\n      gt\n        /* \"#utility.yul\":3026:3148   */\n      iszero\n      tag_78\n      jumpi\n        /* \"#utility.yul\":3059:3138   */\n      tag_79\n      tag_40\n      jump\t// in\n    tag_79:\n        /* \"#utility.yul\":3026:3148   */\n    tag_78:\n        /* \"#utility.yul\":3174:3180   */\n      dup4\n        /* \"#utility.yul\":3157:3377   */\n    tag_80:\n        /* \"#utility.yul\":3191:3197   */\n      dup2\n        /* \"#utility.yul\":3186:3189   */\n      dup2\n        /* \"#utility.yul\":3183:3198   */\n      lt\n        /* \"#utility.yul\":3157:3377   */\n      iszero\n      tag_82\n      jumpi\n        /* \"#utility.yul\":3266:3269   */\n      dup1\n        /* \"#utility.yul\":3295:3332   */\n      tag_83\n        /* \"#utility.yul\":3328:3331   */\n      dup9\n        /* \"#utility.yul\":3316:3326   */\n      dup3\n        /* \"#utility.yul\":3295:3332   */\n      tag_32\n      jump\t// in\n    tag_83:\n        /* \"#utility.yul\":3290:3293   */\n      dup5\n        /* \"#utility.yul\":3283:3333   */\n      mstore\n        /* \"#utility.yul\":3362:3366   */\n      0x20\n        /* \"#utility.yul\":3357:3360   */\n      dup5\n        /* \"#utility.yul\":3353:3367   */\n      add\n        /* \"#utility.yul\":3346:3367   */\n      swap4\n      pop\n        /* \"#utility.yul\":3233:3377   */\n      pop\n        /* \"#utility.yul\":3217:3221   */\n      0x20\n        /* \"#utility.yul\":3212:3215   */\n      dup2\n        /* \"#utility.yul\":3208:3222   */\n      add\n        /* \"#utility.yul\":3201:3222   */\n      swap1\n      pop\n        /* \"#utility.yul\":3157:3377   */\n      jump(tag_80)\n    tag_82:\n        /* \"#utility.yul\":3161:3182   */\n      pop\n        /* \"#utility.yul\":2775:3383   */\n      pop\n      pop\n        /* \"#utility.yul\":2673:3383   */\n      swap4\n      swap3\n      pop\n      pop\n      pop\n      jump\t// out\n        /* \"#utility.yul\":3406:3776   */\n    tag_42:\n        /* \"#utility.yul\":3477:3482   */\n      0x00\n        /* \"#utility.yul\":3526:3529   */\n      dup3\n        /* \"#utility.yul\":3519:3523   */\n      0x1f\n        /* \"#utility.yul\":3511:3517   */\n      dup4\n        /* \"#utility.yul\":3507:3524   */\n      add\n        /* \"#utility.yul\":3503:3530   */\n      slt\n        /* \"#utility.yul\":3493:3615   */\n      tag_85\n      jumpi\n        /* \"#utility.yul\":3534:3613   */\n      tag_86\n      tag_34\n      jump\t// in\n    tag_86:\n        /* \"#utility.yul\":3493:3615   */\n    tag_85:\n        /* \"#utility.yul\":3651:3657   */\n      dup2\n        /* \"#utility.yul\":3638:3658   */\n      calldataload\n        /* \"#utility.yul\":3676:3770   */\n      tag_87\n        /* \"#utility.yul\":3766:3769   */\n      dup5\n        /* \"#utility.yul\":3758:3764   */\n      dup3\n        /* \"#utility.yul\":3751:3755   */\n      0x20\n        /* \"#utility.yul\":3743:3749   */\n      dup7\n        /* \"#utility.yul\":3739:3756   */\n      add\n        /* \"#utility.yul\":3676:3770   */\n      tag_41\n      jump\t// in\n    tag_87:\n        /* \"#utility.yul\":3667:3770   */\n      swap2\n      pop\n        /* \"#utility.yul\":3483:3776   */\n      pop\n        /* \"#utility.yul\":3406:3776   */\n      swap3\n      swap2\n      pop\n      pop\n      jump\t// out\n        /* \"#utility.yul\":3782:4321   */\n    tag_13:\n        /* \"#utility.yul\":3866:3872   */\n      0x00\n        /* \"#utility.yul\":3915:3917   */\n      0x20\n        /* \"#utility.yul\":3903:3912   */\n      dup3\n        /* \"#utility.yul\":3894:3901   */\n      dup5\n        /* \"#utility.yul\":3890:3913   */\n      sub\n        /* \"#utility.yul\":3886:3918   */\n      slt\n        /* \"#utility.yul\":3883:4002   */\n      iszero\n      tag_89\n      jumpi\n        /* \"#utility.yul\":3921:4000   */\n      tag_90\n      tag_28\n      jump\t// in\n    tag_90:\n        /* \"#utility.yul\":3883:4002   */\n    tag_89:\n        /* \"#utility.yul\":4069:4070   */\n      0x00\n        /* \"#utility.yul\":4058:4067   */\n      dup3\n        /* \"#utility.yul\":4054:4071   */\n      add\n        /* \"#utility.yul\":4041:4072   */\n      calldataload\n        /* \"#utility.yul\":4099:4117   */\n      0xffffffffffffffff\n        /* \"#utility.yul\":4091:4097   */\n      dup2\n        /* \"#utility.yul\":4088:4118   */\n      gt\n        /* \"#utility.yul\":4085:4202   */\n      iszero\n      tag_91\n      jumpi\n        /* \"#utility.yul\":4121:4200   */\n      tag_92\n      tag_29\n      jump\t// in\n    tag_92:\n        /* \"#utility.yul\":4085:4202   */\n    tag_91:\n        /* \"#utility.yul\":4226:4304   */\n      tag_93\n        /* \"#utility.yul\":4296:4303   */\n      dup5\n        /* \"#utility.yul\":4287:4293   */\n      dup3\n        /* \"#utility.yul\":4276:4285   */\n      dup6\n        /* \"#utility.yul\":4272:4294   */\n      add\n        /* \"#utility.yul\":4226:4304   */\n      tag_42\n      jump\t// in\n    tag_93:\n        /* \"#utility.yul\":4216:4304   */\n      swap2\n      pop\n        /* \"#utility.yul\":4012:4314   */\n      pop\n        /* \"#utility.yul\":3782:4321   */\n      swap3\n      swap2\n      pop\n      pop\n      jump\t// out\n\n    auxdata: 0xa26469706673582212209dd808144e11d6804309cc3637863b56b4557d41e4fe66b7d226ad3888180d0b64736f6c634300081a0033\n}\n",
				"bytecode": {
					"linkReferences": {},
					"object": "6080604052348015600e575f80fd5b506103868061001c5f395ff3fe608060405234801561000f575f80fd5b5060043610610034575f3560e01c80631a627f48146100385780637bc5bbbf14610068575b5f80fd5b610052600480360381019061004d9190610166565b610084565b60405161005f91906101a0565b60405180910390f35b610082600480360381019061007d9190610309565b6100a3565b005b5f8181548110610092575f80fd5b905f5260205f20015f915090505481565b805f90805190602001906100b89291906100bc565b5050565b828054828255905f5260205f209081019282156100f6579160200282015b828111156100f55782518255916020019190600101906100da565b5b5090506101039190610107565b5090565b5b8082111561011e575f815f905550600101610108565b5090565b5f604051905090565b5f80fd5b5f80fd5b5f819050919050565b61014581610133565b811461014f575f80fd5b50565b5f813590506101608161013c565b92915050565b5f6020828403121561017b5761017a61012b565b5b5f61018884828501610152565b91505092915050565b61019a81610133565b82525050565b5f6020820190506101b35f830184610191565b92915050565b5f80fd5b5f601f19601f8301169050919050565b7f4e487b71000000000000000000000000000000000000000000000000000000005f52604160045260245ffd5b610203826101bd565b810181811067ffffffffffffffff82111715610222576102216101cd565b5b80604052505050565b5f610234610122565b905061024082826101fa565b919050565b5f67ffffffffffffffff82111561025f5761025e6101cd565b5b602082029050602081019050919050565b5f80fd5b5f61028661028184610245565b61022b565b905080838252602082019050602084028301858111156102a9576102a8610270565b5b835b818110156102d257806102be8882610152565b8452602084019350506020810190506102ab565b5050509392505050565b5f82601f8301126102f0576102ef6101b9565b5b8135610300848260208601610274565b91505092915050565b5f6020828403121561031e5761031d61012b565b5b5f82013567ffffffffffffffff81111561033b5761033a61012f565b5b610347848285016102dc565b9150509291505056fea26469706673582212209dd808144e11d6804309cc3637863b56b4557d41e4fe66b7d226ad3888180d0b64736f6c634300081a0033",
					"opcodes": "PUSH1 0x80 PUSH1 0x40 MSTORE CALLVALUE DUP1 ISZERO PUSH1 0xE JUMPI PUSH0 DUP1 REVERT JUMPDEST POP PUSH2 0x386 DUP1 PUSH2 0x1C PUSH0 CODECOPY PUSH0 RETURN INVALID PUSH1 0x80 PUSH1 0x40 MSTORE CALLVALUE DUP1 ISZERO PUSH2 0xF JUMPI PUSH0 DUP1 REVERT JUMPDEST POP PUSH1 0x4 CALLDATASIZE LT PUSH2 0x34 JUMPI PUSH0 CALLDATALOAD PUSH1 0xE0 SHR DUP1 PUSH4 0x1A627F48 EQ PUSH2 0x38 JUMPI DUP1 PUSH4 0x7BC5BBBF EQ PUSH2 0x68 JUMPI JUMPDEST PUSH0 DUP1 REVERT JUMPDEST PUSH2 0x52 PUSH1 0x4 DUP1 CALLDATASIZE SUB DUP2 ADD SWAP1 PUSH2 0x4D SWAP2 SWAP1 PUSH2 0x166 JUMP JUMPDEST PUSH2 0x84 JUMP JUMPDEST PUSH1 0x40 MLOAD PUSH2 0x5F SWAP2 SWAP1 PUSH2 0x1A0 JUMP JUMPDEST PUSH1 0x40 MLOAD DUP1 SWAP2 SUB SWAP1 RETURN JUMPDEST PUSH2 0x82 PUSH1 0x4 DUP1 CALLDATASIZE SUB DUP2 ADD SWAP1 PUSH2 0x7D SWAP2 SWAP1 PUSH2 0x309 JUMP JUMPDEST PUSH2 0xA3 JUMP JUMPDEST STOP JUMPDEST PUSH0 DUP2 DUP2 SLOAD DUP2 LT PUSH2 0x92 JUMPI PUSH0 DUP1 REVERT JUMPDEST SWAP1 PUSH0 MSTORE PUSH1 0x20 PUSH0 KECCAK256 ADD PUSH0 SWAP2 POP SWAP1 POP SLOAD DUP2 JUMP JUMPDEST DUP1 PUSH0 SWAP1 DUP1 MLOAD SWAP1 PUSH1 0x20 ADD SWAP1 PUSH2 0xB8 SWAP3 SWAP2 SWAP1 PUSH2 0xBC JUMP JUMPDEST POP POP JUMP JUMPDEST DUP3 DUP1 SLOAD DUP3 DUP3 SSTORE SWAP1 PUSH0 MSTORE PUSH1 0x20 PUSH0 KECCAK256 SWAP1 DUP2 ADD SWAP3 DUP3 ISZERO PUSH2 0xF6 JUMPI SWAP2 PUSH1 0x20 MUL DUP3 ADD JUMPDEST DUP3 DUP2 GT ISZERO PUSH2 0xF5 JUMPI DUP3 MLOAD DUP3 SSTORE SWAP2 PUSH1 0x20 ADD SWAP2 SWAP1 PUSH1 0x1 ADD SWAP1 PUSH2 0xDA JUMP JUMPDEST JUMPDEST POP SWAP1 POP PUSH2 0x103 SWAP2 SWAP1 PUSH2 0x107 JUMP JUMPDEST POP SWAP1 JUMP JUMPDEST JUMPDEST DUP1 DUP3 GT ISZERO PUSH2 0x11E JUMPI PUSH0 DUP2 PUSH0 SWAP1 SSTORE POP PUSH1 0x1 ADD PUSH2 0x108 JUMP JUMPDEST POP SWAP1 JUMP JUMPDEST PUSH0 PUSH1 0x40 MLOAD SWAP1 POP SWAP1 JUMP JUMPDEST PUSH0 DUP1 REVERT JUMPDEST PUSH0 DUP1 REVERT JUMPDEST PUSH0 DUP2 SWAP1 POP SWAP2 SWAP1 POP JUMP JUMPDEST PUSH2 0x145 DUP2 PUSH2 0x133 JUMP JUMPDEST DUP2 EQ PUSH2 0x14F JUMPI PUSH0 DUP1 REVERT JUMPDEST POP JUMP JUMPDEST PUSH0 DUP2 CALLDATALOAD SWAP1 POP PUSH2 0x160 DUP2 PUSH2 0x13C JUMP JUMPDEST SWAP3 SWAP2 POP POP JUMP JUMPDEST PUSH0 PUSH1 0x20 DUP3 DUP5 SUB SLT ISZERO PUSH2 0x17B JUMPI PUSH2 0x17A PUSH2 0x12B JUMP JUMPDEST JUMPDEST PUSH0 PUSH2 0x188 DUP5 DUP3 DUP6 ADD PUSH2 0x152 JUMP JUMPDEST SWAP2 POP POP SWAP3 SWAP2 POP POP JUMP JUMPDEST PUSH2 0x19A DUP2 PUSH2 0x133 JUMP JUMPDEST DUP3 MSTORE POP POP JUMP JUMPDEST PUSH0 PUSH1 0x20 DUP3 ADD SWAP1 POP PUSH2 0x1B3 PUSH0 DUP4 ADD DUP5 PUSH2 0x191 JUMP JUMPDEST SWAP3 SWAP2 POP POP JUMP JUMPDEST PUSH0 DUP1 REVERT JUMPDEST PUSH0 PUSH1 0x1F NOT PUSH1 0x1F DUP4 ADD AND SWAP1 POP SWAP2 SWAP1 POP JUMP JUMPDEST PUSH32 0x4E487B7100000000000000000000000000000000000000000000000000000000 PUSH0 MSTORE PUSH1 0x41 PUSH1 0x4 MSTORE PUSH1 0x24 PUSH0 REVERT JUMPDEST PUSH2 0x203 DUP3 PUSH2 0x1BD JUMP JUMPDEST DUP2 ADD DUP2 DUP2 LT PUSH8 0xFFFFFFFFFFFFFFFF DUP3 GT OR ISZERO PUSH2 0x222 JUMPI PUSH2 0x221 PUSH2 0x1CD JUMP JUMPDEST JUMPDEST DUP1 PUSH1 0x40 MSTORE POP POP POP JUMP JUMPDEST PUSH0 PUSH2 0x234 PUSH2 0x122 JUMP JUMPDEST SWAP1 POP PUSH2 0x240 DUP3 DUP3 PUSH2 0x1FA JUMP JUMPDEST SWAP2 SWAP1 POP JUMP JUMPDEST PUSH0 PUSH8 0xFFFFFFFFFFFFFFFF DUP3 GT ISZERO PUSH2 0x25F JUMPI PUSH2 0x25E PUSH2 0x1CD JUMP JUMPDEST JUMPDEST PUSH1 0x20 DUP3 MUL SWAP1 POP PUSH1 0x20 DUP2 ADD SWAP1 POP SWAP2 SWAP1 POP JUMP JUMPDEST PUSH0 DUP1 REVERT JUMPDEST PUSH0 PUSH2 0x286 PUSH2 0x281 DUP5 PUSH2 0x245 JUMP JUMPDEST PUSH2 0x22B JUMP JUMPDEST SWAP1 POP DUP1 DUP4 DUP3 MSTORE PUSH1 0x20 DUP3 ADD SWAP1 POP PUSH1 0x20 DUP5 MUL DUP4 ADD DUP6 DUP2 GT ISZERO PUSH2 0x2A9 JUMPI PUSH2 0x2A8 PUSH2 0x270 JUMP JUMPDEST JUMPDEST DUP4 JUMPDEST DUP2 DUP2 LT ISZERO PUSH2 0x2D2 JUMPI DUP1 PUSH2 0x2BE DUP9 DUP3 PUSH2 0x152 JUMP JUMPDEST DUP5 MSTORE PUSH1 0x20 DUP5 ADD SWAP4 POP POP PUSH1 0x20 DUP2 ADD SWAP1 POP PUSH2 0x2AB JUMP JUMPDEST POP POP POP SWAP4 SWAP3 POP POP POP JUMP JUMPDEST PUSH0 DUP3 PUSH1 0x1F DUP4 ADD SLT PUSH2 0x2F0 JUMPI PUSH2 0x2EF PUSH2 0x1B9 JUMP JUMPDEST JUMPDEST DUP2 CALLDATALOAD PUSH2 0x300 DUP5 DUP3 PUSH1 0x20 DUP7 ADD PUSH2 0x274 JUMP JUMPDEST SWAP2 POP POP SWAP3 SWAP2 POP POP JUMP JUMPDEST PUSH0 PUSH1 0x20 DUP3 DUP5 SUB SLT ISZERO PUSH2 0x31E JUMPI PUSH2 0x31D PUSH2 0x12B JUMP JUMPDEST JUMPDEST PUSH0 DUP3 ADD CALLDATALOAD PUSH8 0xFFFFFFFFFFFFFFFF DUP2 GT ISZERO PUSH2 0x33B JUMPI PUSH2 0x33A PUSH2 0x12F JUMP JUMPDEST JUMPDEST PUSH2 0x347 DUP5 DUP3 DUP6 ADD PUSH2 0x2DC JUMP JUMPDEST SWAP2 POP POP SWAP3 SWAP2 POP POP JUMP INVALID LOG2 PUSH5 0x6970667358 0x22 SLT KECCAK256 SWAP14 0xD8 ADDMOD EQ 0x4E GT 0xD6 DUP1 NUMBER MULMOD 0xCC CALLDATASIZE CALLDATACOPY DUP7 EXTCODESIZE JUMP 0xB4 SSTORE PUSH30 0x41E4FE66B7D226AD3888180D0B64736F6C634300081A0033000000000000 "
				},
				"gasEstimates": {
					"creation": {
						"codeDepositCost": "180400",
						"executionCost": "224",
						"totalCost": "180624"
					},
					"external": {
						"f(uint256[])": "infinite",
						"xx(uint256)": "infinite"
					}
				},
				"methodIdentifiers": {
					"f(uint256[])": "7bc5bbbf",
					"xx(uint256)": "1a627f48"
				}
			},
			"storageLayout": {
				"storage": [
					{
						"astId": 5,
						"contract": "test/数据类型.sol:DataTypeTest",
						"label": "xx",
						"offset": 0,
						"slot": "0",
						"type": "t_array(t_uint256)dyn_storage"
					}
				],
				"types": {
					"t_array(t_uint256)dyn_storage": {
						"base": "t_uint256",
						"encoding": "dynamic_array",
						"label": "uint256[]",
						"numberOfBytes": "32"
					},
					"t_uint256": {
						"encoding": "inplace",
						"label": "uint256",
						"numberOfBytes": "32"
					}
				}
			},
			"userdoc": {
				"kind": "user",
				"methods": {},
				"notice": "值类型（Value Types） 引用类型（Reference Types） 映射类型（Mapping Types） 值类型 值类型变量用表示可以用32个字节表示的数据，在赋值或传参时，总是进行拷贝。 值类型包含： 布尔类型（Booleans） 整型（Integers） 定长浮点型（Fixed Point Numbers） 定长字节数组（Fixed-size byte arrays） 有理数和整型常量（Rational and Integer Literals) 字符串常量（String literals） 十六进制常量（Hexadecimal literals） 枚举（Enums） 函数类型（Function Types） 地址类型（Address) 地址常量（Address Literals） 用户定义值类型 引用类型用来表示复杂类型，占用的空间超过32字节，拷贝时开销很大，因此可以使用引用的方式，通过多个不同名称的变量指向一个值。引用类型包括数组 和结构体。 在定义引用类型时，有一个额外属性来标识数据的存储位置，这个属性有： memory（内存）： 变量在运行时存在，其生命周期只存在于函数调用期间。 storage（存储）：保存状态变量，只要合约存在就一直保存在区块链中。 calldata（调用数据）：用来存储函数参数的特殊数据位置，用来接收外部数据，是一个不可修改的、非持久的函数参数存储区域，只能用于函数入参，减少gas费用。 记住一个规则：不同引用类型在进行赋值的时候，只有在不同的数据位置赋值时会进行一份拷贝，而在同一数据位置内通常是增加一个引用。 Solidity 规定返回值只能存储在 memory 或 storage，不能用 calldata。",
				"version": 1
			}
		}
	}
}