{
	"test/开始编写第一个合约.sol": {
		"first": {
			"abi": [
				{
					"inputs": [],
					"stateMutability": "nonpayable",
					"type": "constructor"
				},
				{
					"inputs": [],
					"name": "count",
					"outputs": [
						{
							"internalType": "uint256",
							"name": "",
							"type": "uint256"
						}
					],
					"stateMutability": "view",
					"type": "function"
				},
				{
					"inputs": [],
					"name": "getCount",
					"outputs": [
						{
							"internalType": "uint256",
							"name": "",
							"type": "uint256"
						},
						{
							"internalType": "string",
							"name": "",
							"type": "string"
						}
					],
					"stateMutability": "view",
					"type": "function"
				},
				{
					"inputs": [],
					"name": "getCountExternal",
					"outputs": [
						{
							"internalType": "uint256",
							"name": "",
							"type": "uint256"
						},
						{
							"internalType": "string",
							"name": "",
							"type": "string"
						}
					],
					"stateMutability": "view",
					"type": "function"
				},
				{
					"inputs": [
						{
							"internalType": "uint256",
							"name": "a",
							"type": "uint256"
						}
					],
					"name": "incrementCount",
					"outputs": [],
					"stateMutability": "nonpayable",
					"type": "function"
				},
				{
					"inputs": [],
					"name": "owner",
					"outputs": [
						{
							"internalType": "address",
							"name": "",
							"type": "address"
						}
					],
					"stateMutability": "view",
					"type": "function"
				},
				{
					"inputs": [
						{
							"internalType": "uint256",
							"name": "i",
							"type": "uint256"
						}
					],
					"name": "viewFunction",
					"outputs": [
						{
							"internalType": "uint256",
							"name": "",
							"type": "uint256"
						}
					],
					"stateMutability": "pure",
					"type": "function"
				}
			],
			"devdoc": {
				"kind": "dev",
				"methods": {},
				"version": 1
			},
			"evm": {
				"assembly": "    /* \"test/\\xe5\\xbc\\x80\\xe5\\xa7\\x8b\\xe7\\xbc\\x96\\xe5\\x86\\x99\\xe7\\xac\\xac\\xe4\\xb8\\x80\\xe4\\xb8\\xaa\\xe5\\x90\\x88\\xe7\\xba\\xa6.sol\":882:3619  contract first{... */\n  mstore(0x40, 0xa0)\n    /* \"test/\\xe5\\xbc\\x80\\xe5\\xa7\\x8b\\xe7\\xbc\\x96\\xe5\\x86\\x99\\xe7\\xac\\xac\\xe4\\xb8\\x80\\xe4\\xb8\\xaa\\xe5\\x90\\x88\\xe7\\xba\\xa6.sol\":1321:1390  constructor(){... */\n  callvalue\n  dup1\n  iszero\n  tag_1\n  jumpi\n  0x00\n  dup1\n  revert\ntag_1:\n  pop\n    /* \"test/\\xe5\\xbc\\x80\\xe5\\xa7\\x8b\\xe7\\xbc\\x96\\xe5\\x86\\x99\\xe7\\xac\\xac\\xe4\\xb8\\x80\\xe4\\xb8\\xaa\\xe5\\x90\\x88\\xe7\\xba\\xa6.sol\":1343:1345  30 */\n  0x1e\n    /* \"test/\\xe5\\xbc\\x80\\xe5\\xa7\\x8b\\xe7\\xbc\\x96\\xe5\\x86\\x99\\xe7\\xac\\xac\\xe4\\xb8\\x80\\xe4\\xb8\\xaa\\xe5\\x90\\x88\\xe7\\xba\\xa6.sol\":1341:1345  x=30 */\n  0x80\n  dup2\n  dup2\n  mstore\n  pop\n  pop\n    /* \"test/\\xe5\\xbc\\x80\\xe5\\xa7\\x8b\\xe7\\xbc\\x96\\xe5\\x86\\x99\\xe7\\xac\\xac\\xe4\\xb8\\x80\\xe4\\xb8\\xaa\\xe5\\x90\\x88\\xe7\\xba\\xa6.sol\":1358:1360  10 */\n  0x0a\n    /* \"test/\\xe5\\xbc\\x80\\xe5\\xa7\\x8b\\xe7\\xbc\\x96\\xe5\\x86\\x99\\xe7\\xac\\xac\\xe4\\xb8\\x80\\xe4\\xb8\\xaa\\xe5\\x90\\x88\\xe7\\xba\\xa6.sol\":1352:1357  count */\n  0x00\n    /* \"test/\\xe5\\xbc\\x80\\xe5\\xa7\\x8b\\xe7\\xbc\\x96\\xe5\\x86\\x99\\xe7\\xac\\xac\\xe4\\xb8\\x80\\xe4\\xb8\\xaa\\xe5\\x90\\x88\\xe7\\xba\\xa6.sol\":1352:1360  count=10 */\n  dup2\n  swap1\n  sstore\n  pop\n    /* \"test/\\xe5\\xbc\\x80\\xe5\\xa7\\x8b\\xe7\\xbc\\x96\\xe5\\x86\\x99\\xe7\\xac\\xac\\xe4\\xb8\\x80\\xe4\\xb8\\xaa\\xe5\\x90\\x88\\xe7\\xba\\xa6.sol\":1373:1383  msg.sender */\n  caller\n    /* \"test/\\xe5\\xbc\\x80\\xe5\\xa7\\x8b\\xe7\\xbc\\x96\\xe5\\x86\\x99\\xe7\\xac\\xac\\xe4\\xb8\\x80\\xe4\\xb8\\xaa\\xe5\\x90\\x88\\xe7\\xba\\xa6.sol\":1367:1372  owner */\n  0x01\n  0x00\n    /* \"test/\\xe5\\xbc\\x80\\xe5\\xa7\\x8b\\xe7\\xbc\\x96\\xe5\\x86\\x99\\xe7\\xac\\xac\\xe4\\xb8\\x80\\xe4\\xb8\\xaa\\xe5\\x90\\x88\\xe7\\xba\\xa6.sol\":1367:1383  owner=msg.sender */\n  0x0100\n  exp\n  dup2\n  sload\n  dup2\n  0xffffffffffffffffffffffffffffffffffffffff\n  mul\n  not\n  and\n  swap1\n  dup4\n  0xffffffffffffffffffffffffffffffffffffffff\n  and\n  mul\n  or\n  swap1\n  sstore\n  pop\n    /* \"test/\\xe5\\xbc\\x80\\xe5\\xa7\\x8b\\xe7\\xbc\\x96\\xe5\\x86\\x99\\xe7\\xac\\xac\\xe4\\xb8\\x80\\xe4\\xb8\\xaa\\xe5\\x90\\x88\\xe7\\xba\\xa6.sol\":882:3619  contract first{... */\n  mload(0x80)\n  codecopy(0x00, dataOffset(sub_0), dataSize(sub_0))\n  0x00\n  assignImmutable(\"0x13600b294191fc92924bb3ce4b969c1e7e2bab8f4c93c3fc6d0a51733df3c060\")\n  return(0x00, dataSize(sub_0))\nstop\n\nsub_0: assembly {\n        /* \"test/\\xe5\\xbc\\x80\\xe5\\xa7\\x8b\\xe7\\xbc\\x96\\xe5\\x86\\x99\\xe7\\xac\\xac\\xe4\\xb8\\x80\\xe4\\xb8\\xaa\\xe5\\x90\\x88\\xe7\\xba\\xa6.sol\":882:3619  contract first{... */\n      mstore(0x40, 0x80)\n      callvalue\n      dup1\n      iszero\n      tag_1\n      jumpi\n      0x00\n      dup1\n      revert\n    tag_1:\n      pop\n      jumpi(tag_2, lt(calldatasize, 0x04))\n      shr(0xe0, calldataload(0x00))\n      dup1\n      0x06661abd\n      eq\n      tag_3\n      jumpi\n      dup1\n      0x55b05ff2\n      eq\n      tag_4\n      jumpi\n      dup1\n      0x8da5cb5b\n      eq\n      tag_5\n      jumpi\n      dup1\n      0xa87d942c\n      eq\n      tag_6\n      jumpi\n      dup1\n      0xcc95d5aa\n      eq\n      tag_7\n      jumpi\n      dup1\n      0xd4b564ee\n      eq\n      tag_8\n      jumpi\n    tag_2:\n      0x00\n      dup1\n      revert\n        /* \"test/\\xe5\\xbc\\x80\\xe5\\xa7\\x8b\\xe7\\xbc\\x96\\xe5\\x86\\x99\\xe7\\xac\\xac\\xe4\\xb8\\x80\\xe4\\xb8\\xaa\\xe5\\x90\\x88\\xe7\\xba\\xa6.sol\":1046:1066  uint256 public count */\n    tag_3:\n      tag_9\n      tag_10\n      jump\t// in\n    tag_9:\n      mload(0x40)\n      tag_11\n      swap2\n      swap1\n      tag_12\n      jump\t// in\n    tag_11:\n      mload(0x40)\n      dup1\n      swap2\n      sub\n      swap1\n      return\n        /* \"test/\\xe5\\xbc\\x80\\xe5\\xa7\\x8b\\xe7\\xbc\\x96\\xe5\\x86\\x99\\xe7\\xac\\xac\\xe4\\xb8\\x80\\xe4\\xb8\\xaa\\xe5\\x90\\x88\\xe7\\xba\\xa6.sol\":3535:3614  function viewFunction(uint i) public pure returns(uint){... */\n    tag_4:\n      tag_13\n      0x04\n      dup1\n      calldatasize\n      sub\n      dup2\n      add\n      swap1\n      tag_14\n      swap2\n      swap1\n      tag_15\n      jump\t// in\n    tag_14:\n      tag_16\n      jump\t// in\n    tag_13:\n      mload(0x40)\n      tag_17\n      swap2\n      swap1\n      tag_12\n      jump\t// in\n    tag_17:\n      mload(0x40)\n      dup1\n      swap2\n      sub\n      swap1\n      return\n        /* \"test/\\xe5\\xbc\\x80\\xe5\\xa7\\x8b\\xe7\\xbc\\x96\\xe5\\x86\\x99\\xe7\\xac\\xac\\xe4\\xb8\\x80\\xe4\\xb8\\xaa\\xe5\\x90\\x88\\xe7\\xba\\xa6.sol\":1285:1306  address public  owner */\n    tag_5:\n      tag_18\n      tag_19\n      jump\t// in\n    tag_18:\n      mload(0x40)\n      tag_20\n      swap2\n      swap1\n      tag_21\n      jump\t// in\n    tag_20:\n      mload(0x40)\n      dup1\n      swap2\n      sub\n      swap1\n      return\n        /* \"test/\\xe5\\xbc\\x80\\xe5\\xa7\\x8b\\xe7\\xbc\\x96\\xe5\\x86\\x99\\xe7\\xac\\xac\\xe4\\xb8\\x80\\xe4\\xb8\\xaa\\xe5\\x90\\x88\\xe7\\xba\\xa6.sol\":3030:3123  function getCount() public view returns(uint256,string memory){... */\n    tag_6:\n      tag_22\n      tag_23\n      jump\t// in\n    tag_22:\n      mload(0x40)\n      tag_24\n      swap3\n      swap2\n      swap1\n      tag_25\n      jump\t// in\n    tag_24:\n      mload(0x40)\n      dup1\n      swap2\n      sub\n      swap1\n      return\n        /* \"test/\\xe5\\xbc\\x80\\xe5\\xa7\\x8b\\xe7\\xbc\\x96\\xe5\\x86\\x99\\xe7\\xac\\xac\\xe4\\xb8\\x80\\xe4\\xb8\\xaa\\xe5\\x90\\x88\\xe7\\xba\\xa6.sol\":1397:1458  function incrementCount(uint a) public {... */\n    tag_7:\n      tag_26\n      0x04\n      dup1\n      calldatasize\n      sub\n      dup2\n      add\n      swap1\n      tag_27\n      swap2\n      swap1\n      tag_15\n      jump\t// in\n    tag_27:\n      tag_28\n      jump\t// in\n    tag_26:\n      stop\n        /* \"test/\\xe5\\xbc\\x80\\xe5\\xa7\\x8b\\xe7\\xbc\\x96\\xe5\\x86\\x99\\xe7\\xac\\xac\\xe4\\xb8\\x80\\xe4\\xb8\\xaa\\xe5\\x90\\x88\\xe7\\xba\\xa6.sol\":3131:3235  function getCountExternal() external  view returns(uint256,string memory){... */\n    tag_8:\n      tag_29\n      tag_30\n      jump\t// in\n    tag_29:\n      mload(0x40)\n      tag_31\n      swap3\n      swap2\n      swap1\n      tag_25\n      jump\t// in\n    tag_31:\n      mload(0x40)\n      dup1\n      swap2\n      sub\n      swap1\n      return\n        /* \"test/\\xe5\\xbc\\x80\\xe5\\xa7\\x8b\\xe7\\xbc\\x96\\xe5\\x86\\x99\\xe7\\xac\\xac\\xe4\\xb8\\x80\\xe4\\xb8\\xaa\\xe5\\x90\\x88\\xe7\\xba\\xa6.sol\":1046:1066  uint256 public count */\n    tag_10:\n      sload(0x00)\n      dup2\n      jump\t// out\n        /* \"test/\\xe5\\xbc\\x80\\xe5\\xa7\\x8b\\xe7\\xbc\\x96\\xe5\\x86\\x99\\xe7\\xac\\xac\\xe4\\xb8\\x80\\xe4\\xb8\\xaa\\xe5\\x90\\x88\\xe7\\xba\\xa6.sol\":3535:3614  function viewFunction(uint i) public pure returns(uint){... */\n    tag_16:\n        /* \"test/\\xe5\\xbc\\x80\\xe5\\xa7\\x8b\\xe7\\xbc\\x96\\xe5\\x86\\x99\\xe7\\xac\\xac\\xe4\\xb8\\x80\\xe4\\xb8\\xaa\\xe5\\x90\\x88\\xe7\\xba\\xa6.sol\":3585:3589  uint */\n      0x00\n        /* \"test/\\xe5\\xbc\\x80\\xe5\\xa7\\x8b\\xe7\\xbc\\x96\\xe5\\x86\\x99\\xe7\\xac\\xac\\xe4\\xb8\\x80\\xe4\\xb8\\xaa\\xe5\\x90\\x88\\xe7\\xba\\xa6.sol\":3606:3607  1 */\n      0x01\n        /* \"test/\\xe5\\xbc\\x80\\xe5\\xa7\\x8b\\xe7\\xbc\\x96\\xe5\\x86\\x99\\xe7\\xac\\xac\\xe4\\xb8\\x80\\xe4\\xb8\\xaa\\xe5\\x90\\x88\\xe7\\xba\\xa6.sol\":3604:3605  i */\n      dup3\n        /* \"test/\\xe5\\xbc\\x80\\xe5\\xa7\\x8b\\xe7\\xbc\\x96\\xe5\\x86\\x99\\xe7\\xac\\xac\\xe4\\xb8\\x80\\xe4\\xb8\\xaa\\xe5\\x90\\x88\\xe7\\xba\\xa6.sol\":3604:3607  i+1 */\n      tag_33\n      swap2\n      swap1\n      tag_34\n      jump\t// in\n    tag_33:\n        /* \"test/\\xe5\\xbc\\x80\\xe5\\xa7\\x8b\\xe7\\xbc\\x96\\xe5\\x86\\x99\\xe7\\xac\\xac\\xe4\\xb8\\x80\\xe4\\xb8\\xaa\\xe5\\x90\\x88\\xe7\\xba\\xa6.sol\":3597:3607  return i+1 */\n      swap1\n      pop\n        /* \"test/\\xe5\\xbc\\x80\\xe5\\xa7\\x8b\\xe7\\xbc\\x96\\xe5\\x86\\x99\\xe7\\xac\\xac\\xe4\\xb8\\x80\\xe4\\xb8\\xaa\\xe5\\x90\\x88\\xe7\\xba\\xa6.sol\":3535:3614  function viewFunction(uint i) public pure returns(uint){... */\n      swap2\n      swap1\n      pop\n      jump\t// out\n        /* \"test/\\xe5\\xbc\\x80\\xe5\\xa7\\x8b\\xe7\\xbc\\x96\\xe5\\x86\\x99\\xe7\\xac\\xac\\xe4\\xb8\\x80\\xe4\\xb8\\xaa\\xe5\\x90\\x88\\xe7\\xba\\xa6.sol\":1285:1306  address public  owner */\n    tag_19:\n      0x01\n      0x00\n      swap1\n      sload\n      swap1\n      0x0100\n      exp\n      swap1\n      div\n      0xffffffffffffffffffffffffffffffffffffffff\n      and\n      dup2\n      jump\t// out\n        /* \"test/\\xe5\\xbc\\x80\\xe5\\xa7\\x8b\\xe7\\xbc\\x96\\xe5\\x86\\x99\\xe7\\xac\\xac\\xe4\\xb8\\x80\\xe4\\xb8\\xaa\\xe5\\x90\\x88\\xe7\\xba\\xa6.sol\":3030:3123  function getCount() public view returns(uint256,string memory){... */\n    tag_23:\n        /* \"test/\\xe5\\xbc\\x80\\xe5\\xa7\\x8b\\xe7\\xbc\\x96\\xe5\\x86\\x99\\xe7\\xac\\xac\\xe4\\xb8\\x80\\xe4\\xb8\\xaa\\xe5\\x90\\x88\\xe7\\xba\\xa6.sol\":3070:3077  uint256 */\n      0x00\n        /* \"test/\\xe5\\xbc\\x80\\xe5\\xa7\\x8b\\xe7\\xbc\\x96\\xe5\\x86\\x99\\xe7\\xac\\xac\\xe4\\xb8\\x80\\xe4\\xb8\\xaa\\xe5\\x90\\x88\\xe7\\xba\\xa6.sol\":3078:3091  string memory */\n      0x60\n        /* \"test/\\xe5\\xbc\\x80\\xe5\\xa7\\x8b\\xe7\\xbc\\x96\\xe5\\x86\\x99\\xe7\\xac\\xac\\xe4\\xb8\\x80\\xe4\\xb8\\xaa\\xe5\\x90\\x88\\xe7\\xba\\xa6.sol\":3107:3112  count */\n      sload(0x00)\n        /* \"test/\\xe5\\xbc\\x80\\xe5\\xa7\\x8b\\xe7\\xbc\\x96\\xe5\\x86\\x99\\xe7\\xac\\xac\\xe4\\xb8\\x80\\xe4\\xb8\\xaa\\xe5\\x90\\x88\\xe7\\xba\\xa6.sol\":3113:3115  te */\n      mload(0x40)\n      dup1\n      0x40\n      add\n      0x40\n      mstore\n      dup1\n      0x03\n      dup2\n      mstore\n      0x20\n      add\n      0x6162630000000000000000000000000000000000000000000000000000000000\n      dup2\n      mstore\n      pop\n        /* \"test/\\xe5\\xbc\\x80\\xe5\\xa7\\x8b\\xe7\\xbc\\x96\\xe5\\x86\\x99\\xe7\\xac\\xac\\xe4\\xb8\\x80\\xe4\\xb8\\xaa\\xe5\\x90\\x88\\xe7\\xba\\xa6.sol\":3099:3116  return (count,te) */\n      swap2\n      pop\n      swap2\n      pop\n        /* \"test/\\xe5\\xbc\\x80\\xe5\\xa7\\x8b\\xe7\\xbc\\x96\\xe5\\x86\\x99\\xe7\\xac\\xac\\xe4\\xb8\\x80\\xe4\\xb8\\xaa\\xe5\\x90\\x88\\xe7\\xba\\xa6.sol\":3030:3123  function getCount() public view returns(uint256,string memory){... */\n      swap1\n      swap2\n      jump\t// out\n        /* \"test/\\xe5\\xbc\\x80\\xe5\\xa7\\x8b\\xe7\\xbc\\x96\\xe5\\x86\\x99\\xe7\\xac\\xac\\xe4\\xb8\\x80\\xe4\\xb8\\xaa\\xe5\\x90\\x88\\xe7\\xba\\xa6.sol\":1397:1458  function incrementCount(uint a) public {... */\n    tag_28:\n        /* \"test/\\xe5\\xbc\\x80\\xe5\\xa7\\x8b\\xe7\\xbc\\x96\\xe5\\x86\\x99\\xe7\\xac\\xac\\xe4\\xb8\\x80\\xe4\\xb8\\xaa\\xe5\\x90\\x88\\xe7\\xba\\xa6.sol\":1450:1451  a */\n      dup1\n        /* \"test/\\xe5\\xbc\\x80\\xe5\\xa7\\x8b\\xe7\\xbc\\x96\\xe5\\x86\\x99\\xe7\\xac\\xac\\xe4\\xb8\\x80\\xe4\\xb8\\xaa\\xe5\\x90\\x88\\xe7\\xba\\xa6.sol\":1443:1448  count */\n      0x00\n      dup1\n        /* \"test/\\xe5\\xbc\\x80\\xe5\\xa7\\x8b\\xe7\\xbc\\x96\\xe5\\x86\\x99\\xe7\\xac\\xac\\xe4\\xb8\\x80\\xe4\\xb8\\xaa\\xe5\\x90\\x88\\xe7\\xba\\xa6.sol\":1443:1451  count+=a */\n      dup3\n      dup3\n      sload\n      tag_37\n      swap2\n      swap1\n      tag_34\n      jump\t// in\n    tag_37:\n      swap3\n      pop\n      pop\n      dup2\n      swap1\n      sstore\n      pop\n        /* \"test/\\xe5\\xbc\\x80\\xe5\\xa7\\x8b\\xe7\\xbc\\x96\\xe5\\x86\\x99\\xe7\\xac\\xac\\xe4\\xb8\\x80\\xe4\\xb8\\xaa\\xe5\\x90\\x88\\xe7\\xba\\xa6.sol\":1397:1458  function incrementCount(uint a) public {... */\n      pop\n      jump\t// out\n        /* \"test/\\xe5\\xbc\\x80\\xe5\\xa7\\x8b\\xe7\\xbc\\x96\\xe5\\x86\\x99\\xe7\\xac\\xac\\xe4\\xb8\\x80\\xe4\\xb8\\xaa\\xe5\\x90\\x88\\xe7\\xba\\xa6.sol\":3131:3235  function getCountExternal() external  view returns(uint256,string memory){... */\n    tag_30:\n        /* \"test/\\xe5\\xbc\\x80\\xe5\\xa7\\x8b\\xe7\\xbc\\x96\\xe5\\x86\\x99\\xe7\\xac\\xac\\xe4\\xb8\\x80\\xe4\\xb8\\xaa\\xe5\\x90\\x88\\xe7\\xba\\xa6.sol\":3182:3189  uint256 */\n      0x00\n        /* \"test/\\xe5\\xbc\\x80\\xe5\\xa7\\x8b\\xe7\\xbc\\x96\\xe5\\x86\\x99\\xe7\\xac\\xac\\xe4\\xb8\\x80\\xe4\\xb8\\xaa\\xe5\\x90\\x88\\xe7\\xba\\xa6.sol\":3190:3203  string memory */\n      0x60\n        /* \"test/\\xe5\\xbc\\x80\\xe5\\xa7\\x8b\\xe7\\xbc\\x96\\xe5\\x86\\x99\\xe7\\xac\\xac\\xe4\\xb8\\x80\\xe4\\xb8\\xaa\\xe5\\x90\\x88\\xe7\\xba\\xa6.sol\":3219:3224  count */\n      sload(0x00)\n        /* \"test/\\xe5\\xbc\\x80\\xe5\\xa7\\x8b\\xe7\\xbc\\x96\\xe5\\x86\\x99\\xe7\\xac\\xac\\xe4\\xb8\\x80\\xe4\\xb8\\xaa\\xe5\\x90\\x88\\xe7\\xba\\xa6.sol\":3225:3227  te */\n      mload(0x40)\n      dup1\n      0x40\n      add\n      0x40\n      mstore\n      dup1\n      0x03\n      dup2\n      mstore\n      0x20\n      add\n      0x6162630000000000000000000000000000000000000000000000000000000000\n      dup2\n      mstore\n      pop\n        /* \"test/\\xe5\\xbc\\x80\\xe5\\xa7\\x8b\\xe7\\xbc\\x96\\xe5\\x86\\x99\\xe7\\xac\\xac\\xe4\\xb8\\x80\\xe4\\xb8\\xaa\\xe5\\x90\\x88\\xe7\\xba\\xa6.sol\":3211:3228  return (count,te) */\n      swap2\n      pop\n      swap2\n      pop\n        /* \"test/\\xe5\\xbc\\x80\\xe5\\xa7\\x8b\\xe7\\xbc\\x96\\xe5\\x86\\x99\\xe7\\xac\\xac\\xe4\\xb8\\x80\\xe4\\xb8\\xaa\\xe5\\x90\\x88\\xe7\\xba\\xa6.sol\":3131:3235  function getCountExternal() external  view returns(uint256,string memory){... */\n      swap1\n      swap2\n      jump\t// out\n        /* \"#utility.yul\":7:84   */\n    tag_39:\n        /* \"#utility.yul\":44:51   */\n      0x00\n        /* \"#utility.yul\":73:78   */\n      dup2\n        /* \"#utility.yul\":62:78   */\n      swap1\n      pop\n        /* \"#utility.yul\":7:84   */\n      swap2\n      swap1\n      pop\n      jump\t// out\n        /* \"#utility.yul\":90:208   */\n    tag_40:\n        /* \"#utility.yul\":177:201   */\n      tag_58\n        /* \"#utility.yul\":195:200   */\n      dup2\n        /* \"#utility.yul\":177:201   */\n      tag_39\n      jump\t// in\n    tag_58:\n        /* \"#utility.yul\":172:175   */\n      dup3\n        /* \"#utility.yul\":165:202   */\n      mstore\n        /* \"#utility.yul\":90:208   */\n      pop\n      pop\n      jump\t// out\n        /* \"#utility.yul\":214:436   */\n    tag_12:\n        /* \"#utility.yul\":307:311   */\n      0x00\n        /* \"#utility.yul\":345:347   */\n      0x20\n        /* \"#utility.yul\":334:343   */\n      dup3\n        /* \"#utility.yul\":330:348   */\n      add\n        /* \"#utility.yul\":322:348   */\n      swap1\n      pop\n        /* \"#utility.yul\":358:429   */\n      tag_60\n        /* \"#utility.yul\":426:427   */\n      0x00\n        /* \"#utility.yul\":415:424   */\n      dup4\n        /* \"#utility.yul\":411:428   */\n      add\n        /* \"#utility.yul\":402:408   */\n      dup5\n        /* \"#utility.yul\":358:429   */\n      tag_40\n      jump\t// in\n    tag_60:\n        /* \"#utility.yul\":214:436   */\n      swap3\n      swap2\n      pop\n      pop\n      jump\t// out\n        /* \"#utility.yul\":523:640   */\n    tag_42:\n        /* \"#utility.yul\":632:633   */\n      0x00\n        /* \"#utility.yul\":629:630   */\n      dup1\n        /* \"#utility.yul\":622:634   */\n      revert\n        /* \"#utility.yul\":769:891   */\n    tag_44:\n        /* \"#utility.yul\":842:866   */\n      tag_65\n        /* \"#utility.yul\":860:865   */\n      dup2\n        /* \"#utility.yul\":842:866   */\n      tag_39\n      jump\t// in\n    tag_65:\n        /* \"#utility.yul\":835:840   */\n      dup2\n        /* \"#utility.yul\":832:867   */\n      eq\n        /* \"#utility.yul\":822:885   */\n      tag_66\n      jumpi\n        /* \"#utility.yul\":881:882   */\n      0x00\n        /* \"#utility.yul\":878:879   */\n      dup1\n        /* \"#utility.yul\":871:883   */\n      revert\n        /* \"#utility.yul\":822:885   */\n    tag_66:\n        /* \"#utility.yul\":769:891   */\n      pop\n      jump\t// out\n        /* \"#utility.yul\":897:1036   */\n    tag_45:\n        /* \"#utility.yul\":943:948   */\n      0x00\n        /* \"#utility.yul\":981:987   */\n      dup2\n        /* \"#utility.yul\":968:988   */\n      calldataload\n        /* \"#utility.yul\":959:988   */\n      swap1\n      pop\n        /* \"#utility.yul\":997:1030   */\n      tag_68\n        /* \"#utility.yul\":1024:1029   */\n      dup2\n        /* \"#utility.yul\":997:1030   */\n      tag_44\n      jump\t// in\n    tag_68:\n        /* \"#utility.yul\":897:1036   */\n      swap3\n      swap2\n      pop\n      pop\n      jump\t// out\n        /* \"#utility.yul\":1042:1371   */\n    tag_15:\n        /* \"#utility.yul\":1101:1107   */\n      0x00\n        /* \"#utility.yul\":1150:1152   */\n      0x20\n        /* \"#utility.yul\":1138:1147   */\n      dup3\n        /* \"#utility.yul\":1129:1136   */\n      dup5\n        /* \"#utility.yul\":1125:1148   */\n      sub\n        /* \"#utility.yul\":1121:1153   */\n      slt\n        /* \"#utility.yul\":1118:1237   */\n      iszero\n      tag_70\n      jumpi\n        /* \"#utility.yul\":1156:1235   */\n      tag_71\n      tag_42\n      jump\t// in\n    tag_71:\n        /* \"#utility.yul\":1118:1237   */\n    tag_70:\n        /* \"#utility.yul\":1276:1277   */\n      0x00\n        /* \"#utility.yul\":1301:1354   */\n      tag_72\n        /* \"#utility.yul\":1346:1353   */\n      dup5\n        /* \"#utility.yul\":1337:1343   */\n      dup3\n        /* \"#utility.yul\":1326:1335   */\n      dup6\n        /* \"#utility.yul\":1322:1344   */\n      add\n        /* \"#utility.yul\":1301:1354   */\n      tag_45\n      jump\t// in\n    tag_72:\n        /* \"#utility.yul\":1291:1354   */\n      swap2\n      pop\n        /* \"#utility.yul\":1247:1364   */\n      pop\n        /* \"#utility.yul\":1042:1371   */\n      swap3\n      swap2\n      pop\n      pop\n      jump\t// out\n        /* \"#utility.yul\":1377:1503   */\n    tag_46:\n        /* \"#utility.yul\":1414:1421   */\n      0x00\n        /* \"#utility.yul\":1454:1496   */\n      0xffffffffffffffffffffffffffffffffffffffff\n        /* \"#utility.yul\":1447:1452   */\n      dup3\n        /* \"#utility.yul\":1443:1497   */\n      and\n        /* \"#utility.yul\":1432:1497   */\n      swap1\n      pop\n        /* \"#utility.yul\":1377:1503   */\n      swap2\n      swap1\n      pop\n      jump\t// out\n        /* \"#utility.yul\":1509:1605   */\n    tag_47:\n        /* \"#utility.yul\":1546:1553   */\n      0x00\n        /* \"#utility.yul\":1575:1599   */\n      tag_75\n        /* \"#utility.yul\":1593:1598   */\n      dup3\n        /* \"#utility.yul\":1575:1599   */\n      tag_46\n      jump\t// in\n    tag_75:\n        /* \"#utility.yul\":1564:1599   */\n      swap1\n      pop\n        /* \"#utility.yul\":1509:1605   */\n      swap2\n      swap1\n      pop\n      jump\t// out\n        /* \"#utility.yul\":1611:1729   */\n    tag_48:\n        /* \"#utility.yul\":1698:1722   */\n      tag_77\n        /* \"#utility.yul\":1716:1721   */\n      dup2\n        /* \"#utility.yul\":1698:1722   */\n      tag_47\n      jump\t// in\n    tag_77:\n        /* \"#utility.yul\":1693:1696   */\n      dup3\n        /* \"#utility.yul\":1686:1723   */\n      mstore\n        /* \"#utility.yul\":1611:1729   */\n      pop\n      pop\n      jump\t// out\n        /* \"#utility.yul\":1735:1957   */\n    tag_21:\n        /* \"#utility.yul\":1828:1832   */\n      0x00\n        /* \"#utility.yul\":1866:1868   */\n      0x20\n        /* \"#utility.yul\":1855:1864   */\n      dup3\n        /* \"#utility.yul\":1851:1869   */\n      add\n        /* \"#utility.yul\":1843:1869   */\n      swap1\n      pop\n        /* \"#utility.yul\":1879:1950   */\n      tag_79\n        /* \"#utility.yul\":1947:1948   */\n      0x00\n        /* \"#utility.yul\":1936:1945   */\n      dup4\n        /* \"#utility.yul\":1932:1949   */\n      add\n        /* \"#utility.yul\":1923:1929   */\n      dup5\n        /* \"#utility.yul\":1879:1950   */\n      tag_48\n      jump\t// in\n    tag_79:\n        /* \"#utility.yul\":1735:1957   */\n      swap3\n      swap2\n      pop\n      pop\n      jump\t// out\n        /* \"#utility.yul\":1963:2062   */\n    tag_49:\n        /* \"#utility.yul\":2015:2021   */\n      0x00\n        /* \"#utility.yul\":2049:2054   */\n      dup2\n        /* \"#utility.yul\":2043:2055   */\n      mload\n        /* \"#utility.yul\":2033:2055   */\n      swap1\n      pop\n        /* \"#utility.yul\":1963:2062   */\n      swap2\n      swap1\n      pop\n      jump\t// out\n        /* \"#utility.yul\":2068:2237   */\n    tag_50:\n        /* \"#utility.yul\":2152:2163   */\n      0x00\n        /* \"#utility.yul\":2186:2192   */\n      dup3\n        /* \"#utility.yul\":2181:2184   */\n      dup3\n        /* \"#utility.yul\":2174:2193   */\n      mstore\n        /* \"#utility.yul\":2226:2230   */\n      0x20\n        /* \"#utility.yul\":2221:2224   */\n      dup3\n        /* \"#utility.yul\":2217:2231   */\n      add\n        /* \"#utility.yul\":2202:2231   */\n      swap1\n      pop\n        /* \"#utility.yul\":2068:2237   */\n      swap3\n      swap2\n      pop\n      pop\n      jump\t// out\n        /* \"#utility.yul\":2243:2382   */\n    tag_51:\n        /* \"#utility.yul\":2332:2338   */\n      dup3\n        /* \"#utility.yul\":2327:2330   */\n      dup2\n        /* \"#utility.yul\":2322:2325   */\n      dup4\n        /* \"#utility.yul\":2316:2339   */\n      mcopy\n        /* \"#utility.yul\":2373:2374   */\n      0x00\n        /* \"#utility.yul\":2364:2370   */\n      dup4\n        /* \"#utility.yul\":2359:2362   */\n      dup4\n        /* \"#utility.yul\":2355:2371   */\n      add\n        /* \"#utility.yul\":2348:2375   */\n      mstore\n        /* \"#utility.yul\":2243:2382   */\n      pop\n      pop\n      pop\n      jump\t// out\n        /* \"#utility.yul\":2388:2490   */\n    tag_52:\n        /* \"#utility.yul\":2429:2435   */\n      0x00\n        /* \"#utility.yul\":2480:2482   */\n      0x1f\n        /* \"#utility.yul\":2476:2483   */\n      not\n        /* \"#utility.yul\":2471:2473   */\n      0x1f\n        /* \"#utility.yul\":2464:2469   */\n      dup4\n        /* \"#utility.yul\":2460:2474   */\n      add\n        /* \"#utility.yul\":2456:2484   */\n      and\n        /* \"#utility.yul\":2446:2484   */\n      swap1\n      pop\n        /* \"#utility.yul\":2388:2490   */\n      swap2\n      swap1\n      pop\n      jump\t// out\n        /* \"#utility.yul\":2496:2873   */\n    tag_53:\n        /* \"#utility.yul\":2584:2587   */\n      0x00\n        /* \"#utility.yul\":2612:2651   */\n      tag_85\n        /* \"#utility.yul\":2645:2650   */\n      dup3\n        /* \"#utility.yul\":2612:2651   */\n      tag_49\n      jump\t// in\n    tag_85:\n        /* \"#utility.yul\":2667:2738   */\n      tag_86\n        /* \"#utility.yul\":2731:2737   */\n      dup2\n        /* \"#utility.yul\":2726:2729   */\n      dup6\n        /* \"#utility.yul\":2667:2738   */\n      tag_50\n      jump\t// in\n    tag_86:\n        /* \"#utility.yul\":2660:2738   */\n      swap4\n      pop\n        /* \"#utility.yul\":2747:2812   */\n      tag_87\n        /* \"#utility.yul\":2805:2811   */\n      dup2\n        /* \"#utility.yul\":2800:2803   */\n      dup6\n        /* \"#utility.yul\":2793:2797   */\n      0x20\n        /* \"#utility.yul\":2786:2791   */\n      dup7\n        /* \"#utility.yul\":2782:2798   */\n      add\n        /* \"#utility.yul\":2747:2812   */\n      tag_51\n      jump\t// in\n    tag_87:\n        /* \"#utility.yul\":2837:2866   */\n      tag_88\n        /* \"#utility.yul\":2859:2865   */\n      dup2\n        /* \"#utility.yul\":2837:2866   */\n      tag_52\n      jump\t// in\n    tag_88:\n        /* \"#utility.yul\":2832:2835   */\n      dup5\n        /* \"#utility.yul\":2828:2867   */\n      add\n        /* \"#utility.yul\":2821:2867   */\n      swap2\n      pop\n        /* \"#utility.yul\":2588:2873   */\n      pop\n        /* \"#utility.yul\":2496:2873   */\n      swap3\n      swap2\n      pop\n      pop\n      jump\t// out\n        /* \"#utility.yul\":2879:3302   */\n    tag_25:\n        /* \"#utility.yul\":3020:3024   */\n      0x00\n        /* \"#utility.yul\":3058:3060   */\n      0x40\n        /* \"#utility.yul\":3047:3056   */\n      dup3\n        /* \"#utility.yul\":3043:3061   */\n      add\n        /* \"#utility.yul\":3035:3061   */\n      swap1\n      pop\n        /* \"#utility.yul\":3071:3142   */\n      tag_90\n        /* \"#utility.yul\":3139:3140   */\n      0x00\n        /* \"#utility.yul\":3128:3137   */\n      dup4\n        /* \"#utility.yul\":3124:3141   */\n      add\n        /* \"#utility.yul\":3115:3121   */\n      dup6\n        /* \"#utility.yul\":3071:3142   */\n      tag_40\n      jump\t// in\n    tag_90:\n        /* \"#utility.yul\":3189:3198   */\n      dup2\n        /* \"#utility.yul\":3183:3187   */\n      dup2\n        /* \"#utility.yul\":3179:3199   */\n      sub\n        /* \"#utility.yul\":3174:3176   */\n      0x20\n        /* \"#utility.yul\":3163:3172   */\n      dup4\n        /* \"#utility.yul\":3159:3177   */\n      add\n        /* \"#utility.yul\":3152:3200   */\n      mstore\n        /* \"#utility.yul\":3217:3295   */\n      tag_91\n        /* \"#utility.yul\":3290:3294   */\n      dup2\n        /* \"#utility.yul\":3281:3287   */\n      dup5\n        /* \"#utility.yul\":3217:3295   */\n      tag_53\n      jump\t// in\n    tag_91:\n        /* \"#utility.yul\":3209:3295   */\n      swap1\n      pop\n        /* \"#utility.yul\":2879:3302   */\n      swap4\n      swap3\n      pop\n      pop\n      pop\n      jump\t// out\n        /* \"#utility.yul\":3308:3488   */\n    tag_54:\n        /* \"#utility.yul\":3356:3433   */\n      0x4e487b7100000000000000000000000000000000000000000000000000000000\n        /* \"#utility.yul\":3353:3354   */\n      0x00\n        /* \"#utility.yul\":3346:3434   */\n      mstore\n        /* \"#utility.yul\":3453:3457   */\n      0x11\n        /* \"#utility.yul\":3450:3451   */\n      0x04\n        /* \"#utility.yul\":3443:3458   */\n      mstore\n        /* \"#utility.yul\":3477:3481   */\n      0x24\n        /* \"#utility.yul\":3474:3475   */\n      0x00\n        /* \"#utility.yul\":3467:3482   */\n      revert\n        /* \"#utility.yul\":3494:3685   */\n    tag_34:\n        /* \"#utility.yul\":3534:3537   */\n      0x00\n        /* \"#utility.yul\":3553:3573   */\n      tag_94\n        /* \"#utility.yul\":3571:3572   */\n      dup3\n        /* \"#utility.yul\":3553:3573   */\n      tag_39\n      jump\t// in\n    tag_94:\n        /* \"#utility.yul\":3548:3573   */\n      swap2\n      pop\n        /* \"#utility.yul\":3587:3607   */\n      tag_95\n        /* \"#utility.yul\":3605:3606   */\n      dup4\n        /* \"#utility.yul\":3587:3607   */\n      tag_39\n      jump\t// in\n    tag_95:\n        /* \"#utility.yul\":3582:3607   */\n      swap3\n      pop\n        /* \"#utility.yul\":3630:3631   */\n      dup3\n        /* \"#utility.yul\":3627:3628   */\n      dup3\n        /* \"#utility.yul\":3623:3632   */\n      add\n        /* \"#utility.yul\":3616:3632   */\n      swap1\n      pop\n        /* \"#utility.yul\":3651:3654   */\n      dup1\n        /* \"#utility.yul\":3648:3649   */\n      dup3\n        /* \"#utility.yul\":3645:3655   */\n      gt\n        /* \"#utility.yul\":3642:3678   */\n      iszero\n      tag_96\n      jumpi\n        /* \"#utility.yul\":3658:3676   */\n      tag_97\n      tag_54\n      jump\t// in\n    tag_97:\n        /* \"#utility.yul\":3642:3678   */\n    tag_96:\n        /* \"#utility.yul\":3494:3685   */\n      swap3\n      swap2\n      pop\n      pop\n      jump\t// out\n\n    auxdata: 0xa2646970667358221220f28ab755d484d81762651f577f057afaa60ec083914539055fb582e21d6730cf64736f6c634300081a0033\n}\n",
				"bytecode": {
					"linkReferences": {},
					"object": "60a0604052348015600e575f80fd5b50601e60808181525050600a5f819055503360015f6101000a81548173ffffffffffffffffffffffffffffffffffffffff021916908373ffffffffffffffffffffffffffffffffffffffff16021790555060805161041f6100745f395f505061041f5ff3fe608060405234801561000f575f80fd5b5060043610610060575f3560e01c806306661abd1461006457806355b05ff2146100825780638da5cb5b146100b2578063a87d942c146100d0578063cc95d5aa146100ef578063d4b564ee1461010b575b5f80fd5b61006c61012a565b6040516100799190610221565b60405180910390f35b61009c60048036038101906100979190610268565b61012f565b6040516100a99190610221565b60405180910390f35b6100ba610144565b6040516100c791906102d2565b60405180910390f35b6100d8610169565b6040516100e692919061035b565b60405180910390f35b61010960048036038101906101049190610268565b6101ac565b005b6101136101c6565b60405161012192919061035b565b60405180910390f35b5f5481565b5f60018261013d91906103b6565b9050919050565b60015f9054906101000a900473ffffffffffffffffffffffffffffffffffffffff1681565b5f60605f546040518060400160405280600381526020017f6162630000000000000000000000000000000000000000000000000000000000815250915091509091565b805f808282546101bc91906103b6565b9250508190555050565b5f60605f546040518060400160405280600381526020017f6162630000000000000000000000000000000000000000000000000000000000815250915091509091565b5f819050919050565b61021b81610209565b82525050565b5f6020820190506102345f830184610212565b92915050565b5f80fd5b61024781610209565b8114610251575f80fd5b50565b5f813590506102628161023e565b92915050565b5f6020828403121561027d5761027c61023a565b5b5f61028a84828501610254565b91505092915050565b5f73ffffffffffffffffffffffffffffffffffffffff82169050919050565b5f6102bc82610293565b9050919050565b6102cc816102b2565b82525050565b5f6020820190506102e55f8301846102c3565b92915050565b5f81519050919050565b5f82825260208201905092915050565b8281835e5f83830152505050565b5f601f19601f8301169050919050565b5f61032d826102eb565b61033781856102f5565b9350610347818560208601610305565b61035081610313565b840191505092915050565b5f60408201905061036e5f830185610212565b81810360208301526103808184610323565b90509392505050565b7f4e487b71000000000000000000000000000000000000000000000000000000005f52601160045260245ffd5b5f6103c082610209565b91506103cb83610209565b92508282019050808211156103e3576103e2610389565b5b9291505056fea2646970667358221220f28ab755d484d81762651f577f057afaa60ec083914539055fb582e21d6730cf64736f6c634300081a0033",
					"opcodes": "PUSH1 0xA0 PUSH1 0x40 MSTORE CALLVALUE DUP1 ISZERO PUSH1 0xE JUMPI PUSH0 DUP1 REVERT JUMPDEST POP PUSH1 0x1E PUSH1 0x80 DUP2 DUP2 MSTORE POP POP PUSH1 0xA PUSH0 DUP2 SWAP1 SSTORE POP CALLER PUSH1 0x1 PUSH0 PUSH2 0x100 EXP DUP2 SLOAD DUP2 PUSH20 0xFFFFFFFFFFFFFFFFFFFFFFFFFFFFFFFFFFFFFFFF MUL NOT AND SWAP1 DUP4 PUSH20 0xFFFFFFFFFFFFFFFFFFFFFFFFFFFFFFFFFFFFFFFF AND MUL OR SWAP1 SSTORE POP PUSH1 0x80 MLOAD PUSH2 0x41F PUSH2 0x74 PUSH0 CODECOPY PUSH0 POP POP PUSH2 0x41F PUSH0 RETURN INVALID PUSH1 0x80 PUSH1 0x40 MSTORE CALLVALUE DUP1 ISZERO PUSH2 0xF JUMPI PUSH0 DUP1 REVERT JUMPDEST POP PUSH1 0x4 CALLDATASIZE LT PUSH2 0x60 JUMPI PUSH0 CALLDATALOAD PUSH1 0xE0 SHR DUP1 PUSH4 0x6661ABD EQ PUSH2 0x64 JUMPI DUP1 PUSH4 0x55B05FF2 EQ PUSH2 0x82 JUMPI DUP1 PUSH4 0x8DA5CB5B EQ PUSH2 0xB2 JUMPI DUP1 PUSH4 0xA87D942C EQ PUSH2 0xD0 JUMPI DUP1 PUSH4 0xCC95D5AA EQ PUSH2 0xEF JUMPI DUP1 PUSH4 0xD4B564EE EQ PUSH2 0x10B JUMPI JUMPDEST PUSH0 DUP1 REVERT JUMPDEST PUSH2 0x6C PUSH2 0x12A JUMP JUMPDEST PUSH1 0x40 MLOAD PUSH2 0x79 SWAP2 SWAP1 PUSH2 0x221 JUMP JUMPDEST PUSH1 0x40 MLOAD DUP1 SWAP2 SUB SWAP1 RETURN JUMPDEST PUSH2 0x9C PUSH1 0x4 DUP1 CALLDATASIZE SUB DUP2 ADD SWAP1 PUSH2 0x97 SWAP2 SWAP1 PUSH2 0x268 JUMP JUMPDEST PUSH2 0x12F JUMP JUMPDEST PUSH1 0x40 MLOAD PUSH2 0xA9 SWAP2 SWAP1 PUSH2 0x221 JUMP JUMPDEST PUSH1 0x40 MLOAD DUP1 SWAP2 SUB SWAP1 RETURN JUMPDEST PUSH2 0xBA PUSH2 0x144 JUMP JUMPDEST PUSH1 0x40 MLOAD PUSH2 0xC7 SWAP2 SWAP1 PUSH2 0x2D2 JUMP JUMPDEST PUSH1 0x40 MLOAD DUP1 SWAP2 SUB SWAP1 RETURN JUMPDEST PUSH2 0xD8 PUSH2 0x169 JUMP JUMPDEST PUSH1 0x40 MLOAD PUSH2 0xE6 SWAP3 SWAP2 SWAP1 PUSH2 0x35B JUMP JUMPDEST PUSH1 0x40 MLOAD DUP1 SWAP2 SUB SWAP1 RETURN JUMPDEST PUSH2 0x109 PUSH1 0x4 DUP1 CALLDATASIZE SUB DUP2 ADD SWAP1 PUSH2 0x104 SWAP2 SWAP1 PUSH2 0x268 JUMP JUMPDEST PUSH2 0x1AC JUMP JUMPDEST STOP JUMPDEST PUSH2 0x113 PUSH2 0x1C6 JUMP JUMPDEST PUSH1 0x40 MLOAD PUSH2 0x121 SWAP3 SWAP2 SWAP1 PUSH2 0x35B JUMP JUMPDEST PUSH1 0x40 MLOAD DUP1 SWAP2 SUB SWAP1 RETURN JUMPDEST PUSH0 SLOAD DUP2 JUMP JUMPDEST PUSH0 PUSH1 0x1 DUP3 PUSH2 0x13D SWAP2 SWAP1 PUSH2 0x3B6 JUMP JUMPDEST SWAP1 POP SWAP2 SWAP1 POP JUMP JUMPDEST PUSH1 0x1 PUSH0 SWAP1 SLOAD SWAP1 PUSH2 0x100 EXP SWAP1 DIV PUSH20 0xFFFFFFFFFFFFFFFFFFFFFFFFFFFFFFFFFFFFFFFF AND DUP2 JUMP JUMPDEST PUSH0 PUSH1 0x60 PUSH0 SLOAD PUSH1 0x40 MLOAD DUP1 PUSH1 0x40 ADD PUSH1 0x40 MSTORE DUP1 PUSH1 0x3 DUP2 MSTORE PUSH1 0x20 ADD PUSH32 0x6162630000000000000000000000000000000000000000000000000000000000 DUP2 MSTORE POP SWAP2 POP SWAP2 POP SWAP1 SWAP2 JUMP JUMPDEST DUP1 PUSH0 DUP1 DUP3 DUP3 SLOAD PUSH2 0x1BC SWAP2 SWAP1 PUSH2 0x3B6 JUMP JUMPDEST SWAP3 POP POP DUP2 SWAP1 SSTORE POP POP JUMP JUMPDEST PUSH0 PUSH1 0x60 PUSH0 SLOAD PUSH1 0x40 MLOAD DUP1 PUSH1 0x40 ADD PUSH1 0x40 MSTORE DUP1 PUSH1 0x3 DUP2 MSTORE PUSH1 0x20 ADD PUSH32 0x6162630000000000000000000000000000000000000000000000000000000000 DUP2 MSTORE POP SWAP2 POP SWAP2 POP SWAP1 SWAP2 JUMP JUMPDEST PUSH0 DUP2 SWAP1 POP SWAP2 SWAP1 POP JUMP JUMPDEST PUSH2 0x21B DUP2 PUSH2 0x209 JUMP JUMPDEST DUP3 MSTORE POP POP JUMP JUMPDEST PUSH0 PUSH1 0x20 DUP3 ADD SWAP1 POP PUSH2 0x234 PUSH0 DUP4 ADD DUP5 PUSH2 0x212 JUMP JUMPDEST SWAP3 SWAP2 POP POP JUMP JUMPDEST PUSH0 DUP1 REVERT JUMPDEST PUSH2 0x247 DUP2 PUSH2 0x209 JUMP JUMPDEST DUP2 EQ PUSH2 0x251 JUMPI PUSH0 DUP1 REVERT JUMPDEST POP JUMP JUMPDEST PUSH0 DUP2 CALLDATALOAD SWAP1 POP PUSH2 0x262 DUP2 PUSH2 0x23E JUMP JUMPDEST SWAP3 SWAP2 POP POP JUMP JUMPDEST PUSH0 PUSH1 0x20 DUP3 DUP5 SUB SLT ISZERO PUSH2 0x27D JUMPI PUSH2 0x27C PUSH2 0x23A JUMP JUMPDEST JUMPDEST PUSH0 PUSH2 0x28A DUP5 DUP3 DUP6 ADD PUSH2 0x254 JUMP JUMPDEST SWAP2 POP POP SWAP3 SWAP2 POP POP JUMP JUMPDEST PUSH0 PUSH20 0xFFFFFFFFFFFFFFFFFFFFFFFFFFFFFFFFFFFFFFFF DUP3 AND SWAP1 POP SWAP2 SWAP1 POP JUMP JUMPDEST PUSH0 PUSH2 0x2BC DUP3 PUSH2 0x293 JUMP JUMPDEST SWAP1 POP SWAP2 SWAP1 POP JUMP JUMPDEST PUSH2 0x2CC DUP2 PUSH2 0x2B2 JUMP JUMPDEST DUP3 MSTORE POP POP JUMP JUMPDEST PUSH0 PUSH1 0x20 DUP3 ADD SWAP1 POP PUSH2 0x2E5 PUSH0 DUP4 ADD DUP5 PUSH2 0x2C3 JUMP JUMPDEST SWAP3 SWAP2 POP POP JUMP JUMPDEST PUSH0 DUP2 MLOAD SWAP1 POP SWAP2 SWAP1 POP JUMP JUMPDEST PUSH0 DUP3 DUP3 MSTORE PUSH1 0x20 DUP3 ADD SWAP1 POP SWAP3 SWAP2 POP POP JUMP JUMPDEST DUP3 DUP2 DUP4 MCOPY PUSH0 DUP4 DUP4 ADD MSTORE POP POP POP JUMP JUMPDEST PUSH0 PUSH1 0x1F NOT PUSH1 0x1F DUP4 ADD AND SWAP1 POP SWAP2 SWAP1 POP JUMP JUMPDEST PUSH0 PUSH2 0x32D DUP3 PUSH2 0x2EB JUMP JUMPDEST PUSH2 0x337 DUP2 DUP6 PUSH2 0x2F5 JUMP JUMPDEST SWAP4 POP PUSH2 0x347 DUP2 DUP6 PUSH1 0x20 DUP7 ADD PUSH2 0x305 JUMP JUMPDEST PUSH2 0x350 DUP2 PUSH2 0x313 JUMP JUMPDEST DUP5 ADD SWAP2 POP POP SWAP3 SWAP2 POP POP JUMP JUMPDEST PUSH0 PUSH1 0x40 DUP3 ADD SWAP1 POP PUSH2 0x36E PUSH0 DUP4 ADD DUP6 PUSH2 0x212 JUMP JUMPDEST DUP2 DUP2 SUB PUSH1 0x20 DUP4 ADD MSTORE PUSH2 0x380 DUP2 DUP5 PUSH2 0x323 JUMP JUMPDEST SWAP1 POP SWAP4 SWAP3 POP POP POP JUMP JUMPDEST PUSH32 0x4E487B7100000000000000000000000000000000000000000000000000000000 PUSH0 MSTORE PUSH1 0x11 PUSH1 0x4 MSTORE PUSH1 0x24 PUSH0 REVERT JUMPDEST PUSH0 PUSH2 0x3C0 DUP3 PUSH2 0x209 JUMP JUMPDEST SWAP2 POP PUSH2 0x3CB DUP4 PUSH2 0x209 JUMP JUMPDEST SWAP3 POP DUP3 DUP3 ADD SWAP1 POP DUP1 DUP3 GT ISZERO PUSH2 0x3E3 JUMPI PUSH2 0x3E2 PUSH2 0x389 JUMP JUMPDEST JUMPDEST SWAP3 SWAP2 POP POP JUMP INVALID LOG2 PUSH5 0x6970667358 0x22 SLT KECCAK256 CALLCODE DUP11 0xB7 SSTORE 0xD4 DUP5 0xD8 OR PUSH3 0x651F57 PUSH32 0x57AFAA60EC083914539055FB582E21D6730CF64736F6C634300081A00330000 "
				},
				"gasEstimates": {
					"creation": {
						"codeDepositCost": "211000",
						"executionCost": "infinite",
						"totalCost": "infinite"
					},
					"external": {
						"count()": "2402",
						"getCount()": "infinite",
						"getCountExternal()": "infinite",
						"incrementCount(uint256)": "infinite",
						"owner()": "2530",
						"viewFunction(uint256)": "infinite"
					}
				},
				"methodIdentifiers": {
					"count()": "06661abd",
					"getCount()": "a87d942c",
					"getCountExternal()": "d4b564ee",
					"incrementCount(uint256)": "cc95d5aa",
					"owner()": "8da5cb5b",
					"viewFunction(uint256)": "55b05ff2"
				}
			},
			"storageLayout": {
				"storage": [
					{
						"astId": 6,
						"contract": "test/开始编写第一个合约.sol:first",
						"label": "count",
						"offset": 0,
						"slot": "0",
						"type": "t_uint256"
					},
					{
						"astId": 11,
						"contract": "test/开始编写第一个合约.sol:first",
						"label": "owner",
						"offset": 0,
						"slot": "1",
						"type": "t_address"
					}
				],
				"types": {
					"t_address": {
						"encoding": "inplace",
						"label": "address",
						"numberOfBytes": "20"
					},
					"t_uint256": {
						"encoding": "inplace",
						"label": "uint256",
						"numberOfBytes": "32"
					}
				}
			},
			"userdoc": {
				"kind": "user",
				"methods": {
					"getCount()": {
						"notice": "状态可变性（mutability） 有些函数还还会有一个关键字来描述该函数，会怎样修改区块链状态，形容函数的可变性有 3 个关键字： view：用 view 修饰的函数，称为视图函数，它只能读取状态，而不能修改状态。 pure：用 pure 修饰的函数，称为纯函数，它既不能读取也不能修改状态。 payable：用 payable 修饰的函数表示可以接受以太币，如果未指定，该函数将自动拒绝所有发送给它的以太币。 view , pure , payable 通常被称为修饰符"
					},
					"viewFunction(uint256)": {
						"notice": "视图函数 不需要提交交易 不需要花费交易费用  而交易需要全网节点共识之后才会真正确认，状态修改才会生效。 如果在一个会修改状态的函数中调用视图函数，那么视图函数会消耗Gas"
					}
				},
				"notice": "public 声明为 public 的函数或变量，他们既可以在合约内部访问，也以合约接口形式暴露合约外部（其他合约或链下）调用。 另外，public 类型的状态变量，会自动创建一个同名的外部函数（称为访问器），来获取状态变量的值。 external external 不可以修饰状态变量，声明为 external 的函数只能在外部调用，因此称为外部函数。 如何想在合约内部调用外部函数，需要使用this.func() （而不是 func()）。 internal 声明为 internal 函数和状态变量只能在当前合约中调用或者在派生合约（子合约）里访问。 private 声明为 private 函数和状态变量仅可在当前定义它们的合约中使用，并且不能被派生合约使用。*",
				"version": 1
			}
		}
	}
}