{
	"test/ä½¿ç”¨storageä½œä¸ºè¿”å›å€¼çš„æƒ…å†µ.sol": {
		"StorageReturnTest": {
			"abi": [
				{
					"inputs": [],
					"stateMutability": "nonpayable",
					"type": "constructor"
				},
				{
					"inputs": [],
					"name": "changeNamesMemory",
					"outputs": [
						{
							"internalType": "string[]",
							"name": "",
							"type": "string[]"
						}
					],
					"stateMutability": "view",
					"type": "function"
				},
				{
					"inputs": [],
					"name": "changeNamesStorage",
					"outputs": [],
					"stateMutability": "nonpayable",
					"type": "function"
				},
				{
					"inputs": [],
					"name": "getNamesTemp",
					"outputs": [
						{
							"internalType": "string[]",
							"name": "",
							"type": "string[]"
						}
					],
					"stateMutability": "view",
					"type": "function"
				},
				{
					"inputs": [
						{
							"internalType": "uint256",
							"name": "",
							"type": "uint256"
						}
					],
					"name": "names",
					"outputs": [
						{
							"internalType": "string",
							"name": "",
							"type": "string"
						}
					],
					"stateMutability": "view",
					"type": "function"
				}
			],
			"devdoc": {
				"kind": "dev",
				"methods": {},
				"version": 1
			},
			"evm": {
				"assembly": "    /* \"test/\\xe4\\xbd\\xbf\\xe7\\x94\\xa8storage\\xe4\\xbd\\x9c\\xe4\\xb8\\xba\\xe8\\xbf\\x94\\xe5\\x9b\\x9e\\xe5\\x80\\xbc\\xe7\\x9a\\x84\\xe6\\x83\\x85\\xe5\\x86\\xb5.sol\":712:2831  contract StorageReturnTest {... */\n  mstore(0x40, 0x80)\n    /* \"test/\\xe4\\xbd\\xbf\\xe7\\x94\\xa8storage\\xe4\\xbd\\x9c\\xe4\\xb8\\xba\\xe8\\xbf\\x94\\xe5\\x9b\\x9e\\xe5\\x80\\xbc\\xe7\\x9a\\x84\\xe6\\x83\\x85\\xe5\\x86\\xb5.sol\":784:875  constructor(){... */\n  callvalue\n  dup1\n  iszero\n  tag_1\n  jumpi\n  0x00\n  dup1\n  revert\ntag_1:\n  pop\n    /* \"test/\\xe4\\xbd\\xbf\\xe7\\x94\\xa8storage\\xe4\\xbd\\x9c\\xe4\\xb8\\xba\\xe8\\xbf\\x94\\xe5\\x9b\\x9e\\xe5\\x80\\xbc\\xe7\\x9a\\x84\\xe6\\x83\\x85\\xe5\\x86\\xb5.sol\":812:817  names */\n  0x00\n    /* \"test/\\xe4\\xbd\\xbf\\xe7\\x94\\xa8storage\\xe4\\xbd\\x9c\\xe4\\xb8\\xba\\xe8\\xbf\\x94\\xe5\\x9b\\x9e\\xe5\\x80\\xbc\\xe7\\x9a\\x84\\xe6\\x83\\x85\\xe5\\x86\\xb5.sol\":812:830  names.push(\"zks1\") */\n  dup1\n  0x01\n  dup2\n  sload\n  add\n  dup1\n  dup3\n  sstore\n  dup1\n  swap2\n  pop\n  pop\n  0x01\n  swap1\n  sub\n  swap1\n  0x00\n  mstore\n  keccak256(0x00, 0x20)\n  add\n  0x00\n  mload(0x40)\n  dup1\n  0x40\n  add\n  0x40\n  mstore\n  dup1\n  0x04\n  dup2\n  mstore\n  0x20\n  add\n  0x7a6b733100000000000000000000000000000000000000000000000000000000\n  dup2\n  mstore\n  pop\n  swap1\n  swap2\n  swap1\n  swap2\n  pop\n  swap1\n  dup2\n  tag_5\n  swap2\n  swap1\n  tag_6\n  jump\t// in\ntag_5:\n  pop\n    /* \"test/\\xe4\\xbd\\xbf\\xe7\\x94\\xa8storage\\xe4\\xbd\\x9c\\xe4\\xb8\\xba\\xe8\\xbf\\x94\\xe5\\x9b\\x9e\\xe5\\x80\\xbc\\xe7\\x9a\\x84\\xe6\\x83\\x85\\xe5\\x86\\xb5.sol\":845:850  names */\n  0x00\n    /* \"test/\\xe4\\xbd\\xbf\\xe7\\x94\\xa8storage\\xe4\\xbd\\x9c\\xe4\\xb8\\xba\\xe8\\xbf\\x94\\xe5\\x9b\\x9e\\xe5\\x80\\xbc\\xe7\\x9a\\x84\\xe6\\x83\\x85\\xe5\\x86\\xb5.sol\":845:863  names.push(\"zks2\") */\n  dup1\n  0x01\n  dup2\n  sload\n  add\n  dup1\n  dup3\n  sstore\n  dup1\n  swap2\n  pop\n  pop\n  0x01\n  swap1\n  sub\n  swap1\n  0x00\n  mstore\n  keccak256(0x00, 0x20)\n  add\n  0x00\n  mload(0x40)\n  dup1\n  0x40\n  add\n  0x40\n  mstore\n  dup1\n  0x04\n  dup2\n  mstore\n  0x20\n  add\n  0x7a6b733200000000000000000000000000000000000000000000000000000000\n  dup2\n  mstore\n  pop\n  swap1\n  swap2\n  swap1\n  swap2\n  pop\n  swap1\n  dup2\n  tag_8\n  swap2\n  swap1\n  tag_6\n  jump\t// in\ntag_8:\n  pop\n    /* \"test/\\xe4\\xbd\\xbf\\xe7\\x94\\xa8storage\\xe4\\xbd\\x9c\\xe4\\xb8\\xba\\xe8\\xbf\\x94\\xe5\\x9b\\x9e\\xe5\\x80\\xbc\\xe7\\x9a\\x84\\xe6\\x83\\x85\\xe5\\x86\\xb5.sol\":712:2831  contract StorageReturnTest {... */\n  jump(tag_9)\n    /* \"#utility.yul\":7:106   */\ntag_10:\n    /* \"#utility.yul\":59:65   */\n  0x00\n    /* \"#utility.yul\":93:98   */\n  dup2\n    /* \"#utility.yul\":87:99   */\n  mload\n    /* \"#utility.yul\":77:99   */\n  swap1\n  pop\n    /* \"#utility.yul\":7:106   */\n  swap2\n  swap1\n  pop\n  jump\t// out\n    /* \"#utility.yul\":112:292   */\ntag_11:\n    /* \"#utility.yul\":160:237   */\n  0x4e487b7100000000000000000000000000000000000000000000000000000000\n    /* \"#utility.yul\":157:158   */\n  0x00\n    /* \"#utility.yul\":150:238   */\n  mstore\n    /* \"#utility.yul\":257:261   */\n  0x41\n    /* \"#utility.yul\":254:255   */\n  0x04\n    /* \"#utility.yul\":247:262   */\n  mstore\n    /* \"#utility.yul\":281:285   */\n  0x24\n    /* \"#utility.yul\":278:279   */\n  0x00\n    /* \"#utility.yul\":271:286   */\n  revert\n    /* \"#utility.yul\":298:478   */\ntag_12:\n    /* \"#utility.yul\":346:423   */\n  0x4e487b7100000000000000000000000000000000000000000000000000000000\n    /* \"#utility.yul\":343:344   */\n  0x00\n    /* \"#utility.yul\":336:424   */\n  mstore\n    /* \"#utility.yul\":443:447   */\n  0x22\n    /* \"#utility.yul\":440:441   */\n  0x04\n    /* \"#utility.yul\":433:448   */\n  mstore\n    /* \"#utility.yul\":467:471   */\n  0x24\n    /* \"#utility.yul\":464:465   */\n  0x00\n    /* \"#utility.yul\":457:472   */\n  revert\n    /* \"#utility.yul\":484:804   */\ntag_13:\n    /* \"#utility.yul\":528:534   */\n  0x00\n    /* \"#utility.yul\":565:566   */\n  0x02\n    /* \"#utility.yul\":559:563   */\n  dup3\n    /* \"#utility.yul\":555:567   */\n  div\n    /* \"#utility.yul\":545:567   */\n  swap1\n  pop\n    /* \"#utility.yul\":612:613   */\n  0x01\n    /* \"#utility.yul\":606:610   */\n  dup3\n    /* \"#utility.yul\":602:614   */\n  and\n    /* \"#utility.yul\":633:651   */\n  dup1\n    /* \"#utility.yul\":623:704   */\n  tag_35\n  jumpi\n    /* \"#utility.yul\":689:693   */\n  0x7f\n    /* \"#utility.yul\":681:687   */\n  dup3\n    /* \"#utility.yul\":677:694   */\n  and\n    /* \"#utility.yul\":667:694   */\n  swap2\n  pop\n    /* \"#utility.yul\":623:704   */\ntag_35:\n    /* \"#utility.yul\":751:753   */\n  0x20\n    /* \"#utility.yul\":743:749   */\n  dup3\n    /* \"#utility.yul\":740:754   */\n  lt\n    /* \"#utility.yul\":720:738   */\n  dup2\n    /* \"#utility.yul\":717:755   */\n  sub\n    /* \"#utility.yul\":714:798   */\n  tag_36\n  jumpi\n    /* \"#utility.yul\":770:788   */\n  tag_37\n  tag_12\n  jump\t// in\ntag_37:\n    /* \"#utility.yul\":714:798   */\ntag_36:\n    /* \"#utility.yul\":535:804   */\n  pop\n    /* \"#utility.yul\":484:804   */\n  swap2\n  swap1\n  pop\n  jump\t// out\n    /* \"#utility.yul\":810:951   */\ntag_14:\n    /* \"#utility.yul\":859:863   */\n  0x00\n    /* \"#utility.yul\":882:885   */\n  dup2\n    /* \"#utility.yul\":874:885   */\n  swap1\n  pop\n    /* \"#utility.yul\":905:908   */\n  dup2\n    /* \"#utility.yul\":902:903   */\n  0x00\n    /* \"#utility.yul\":895:909   */\n  mstore\n    /* \"#utility.yul\":939:943   */\n  0x20\n    /* \"#utility.yul\":936:937   */\n  0x00\n    /* \"#utility.yul\":926:944   */\n  keccak256\n    /* \"#utility.yul\":918:944   */\n  swap1\n  pop\n    /* \"#utility.yul\":810:951   */\n  swap2\n  swap1\n  pop\n  jump\t// out\n    /* \"#utility.yul\":957:1050   */\ntag_15:\n    /* \"#utility.yul\":994:1000   */\n  0x00\n    /* \"#utility.yul\":1041:1043   */\n  0x20\n    /* \"#utility.yul\":1036:1038   */\n  0x1f\n    /* \"#utility.yul\":1029:1034   */\n  dup4\n    /* \"#utility.yul\":1025:1039   */\n  add\n    /* \"#utility.yul\":1021:1044   */\n  div\n    /* \"#utility.yul\":1011:1044   */\n  swap1\n  pop\n    /* \"#utility.yul\":957:1050   */\n  swap2\n  swap1\n  pop\n  jump\t// out\n    /* \"#utility.yul\":1056:1163   */\ntag_16:\n    /* \"#utility.yul\":1100:1108   */\n  0x00\n    /* \"#utility.yul\":1150:1155   */\n  dup3\n    /* \"#utility.yul\":1144:1148   */\n  dup3\n    /* \"#utility.yul\":1140:1156   */\n  shl\n    /* \"#utility.yul\":1119:1156   */\n  swap1\n  pop\n    /* \"#utility.yul\":1056:1163   */\n  swap3\n  swap2\n  pop\n  pop\n  jump\t// out\n    /* \"#utility.yul\":1169:1562   */\ntag_17:\n    /* \"#utility.yul\":1238:1244   */\n  0x00\n    /* \"#utility.yul\":1288:1289   */\n  0x08\n    /* \"#utility.yul\":1276:1286   */\n  dup4\n    /* \"#utility.yul\":1272:1290   */\n  mul\n    /* \"#utility.yul\":1311:1408   */\n  tag_42\n    /* \"#utility.yul\":1341:1407   */\n  0xffffffffffffffffffffffffffffffffffffffffffffffffffffffffffffffff\n    /* \"#utility.yul\":1330:1339   */\n  dup3\n    /* \"#utility.yul\":1311:1408   */\n  tag_16\n  jump\t// in\ntag_42:\n    /* \"#utility.yul\":1429:1468   */\n  tag_43\n    /* \"#utility.yul\":1459:1467   */\n  dup7\n    /* \"#utility.yul\":1448:1457   */\n  dup4\n    /* \"#utility.yul\":1429:1468   */\n  tag_16\n  jump\t// in\ntag_43:\n    /* \"#utility.yul\":1417:1468   */\n  swap6\n  pop\n    /* \"#utility.yul\":1501:1505   */\n  dup1\n    /* \"#utility.yul\":1497:1506   */\n  not\n    /* \"#utility.yul\":1490:1495   */\n  dup5\n    /* \"#utility.yul\":1486:1507   */\n  and\n    /* \"#utility.yul\":1477:1507   */\n  swap4\n  pop\n    /* \"#utility.yul\":1550:1554   */\n  dup1\n    /* \"#utility.yul\":1540:1548   */\n  dup7\n    /* \"#utility.yul\":1536:1555   */\n  and\n    /* \"#utility.yul\":1529:1534   */\n  dup5\n    /* \"#utility.yul\":1526:1556   */\n  or\n    /* \"#utility.yul\":1516:1556   */\n  swap3\n  pop\n    /* \"#utility.yul\":1245:1562   */\n  pop\n  pop\n    /* \"#utility.yul\":1169:1562   */\n  swap4\n  swap3\n  pop\n  pop\n  pop\n  jump\t// out\n    /* \"#utility.yul\":1568:1645   */\ntag_18:\n    /* \"#utility.yul\":1605:1612   */\n  0x00\n    /* \"#utility.yul\":1634:1639   */\n  dup2\n    /* \"#utility.yul\":1623:1639   */\n  swap1\n  pop\n    /* \"#utility.yul\":1568:1645   */\n  swap2\n  swap1\n  pop\n  jump\t// out\n    /* \"#utility.yul\":1651:1711   */\ntag_19:\n    /* \"#utility.yul\":1679:1682   */\n  0x00\n    /* \"#utility.yul\":1700:1705   */\n  dup2\n    /* \"#utility.yul\":1693:1705   */\n  swap1\n  pop\n    /* \"#utility.yul\":1651:1711   */\n  swap2\n  swap1\n  pop\n  jump\t// out\n    /* \"#utility.yul\":1717:1859   */\ntag_20:\n    /* \"#utility.yul\":1767:1776   */\n  0x00\n    /* \"#utility.yul\":1800:1853   */\n  tag_47\n    /* \"#utility.yul\":1818:1852   */\n  tag_48\n    /* \"#utility.yul\":1827:1851   */\n  tag_49\n    /* \"#utility.yul\":1845:1850   */\n  dup5\n    /* \"#utility.yul\":1827:1851   */\n  tag_18\n  jump\t// in\ntag_49:\n    /* \"#utility.yul\":1818:1852   */\n  tag_19\n  jump\t// in\ntag_48:\n    /* \"#utility.yul\":1800:1853   */\n  tag_18\n  jump\t// in\ntag_47:\n    /* \"#utility.yul\":1787:1853   */\n  swap1\n  pop\n    /* \"#utility.yul\":1717:1859   */\n  swap2\n  swap1\n  pop\n  jump\t// out\n    /* \"#utility.yul\":1865:1940   */\ntag_21:\n    /* \"#utility.yul\":1908:1911   */\n  0x00\n    /* \"#utility.yul\":1929:1934   */\n  dup2\n    /* \"#utility.yul\":1922:1934   */\n  swap1\n  pop\n    /* \"#utility.yul\":1865:1940   */\n  swap2\n  swap1\n  pop\n  jump\t// out\n    /* \"#utility.yul\":1946:2215   */\ntag_22:\n    /* \"#utility.yul\":2056:2095   */\n  tag_52\n    /* \"#utility.yul\":2087:2094   */\n  dup4\n    /* \"#utility.yul\":2056:2095   */\n  tag_20\n  jump\t// in\ntag_52:\n    /* \"#utility.yul\":2117:2208   */\n  tag_53\n    /* \"#utility.yul\":2166:2207   */\n  tag_54\n    /* \"#utility.yul\":2190:2206   */\n  dup3\n    /* \"#utility.yul\":2166:2207   */\n  tag_21\n  jump\t// in\ntag_54:\n    /* \"#utility.yul\":2158:2164   */\n  dup5\n    /* \"#utility.yul\":2151:2155   */\n  dup5\n    /* \"#utility.yul\":2145:2156   */\n  sload\n    /* \"#utility.yul\":2117:2208   */\n  tag_17\n  jump\t// in\ntag_53:\n    /* \"#utility.yul\":2111:2115   */\n  dup3\n    /* \"#utility.yul\":2104:2209   */\n  sstore\n    /* \"#utility.yul\":2022:2215   */\n  pop\n    /* \"#utility.yul\":1946:2215   */\n  pop\n  pop\n  pop\n  jump\t// out\n    /* \"#utility.yul\":2221:2294   */\ntag_23:\n    /* \"#utility.yul\":2266:2269   */\n  0x00\n    /* \"#utility.yul\":2221:2294   */\n  swap1\n  jump\t// out\n    /* \"#utility.yul\":2300:2489   */\ntag_24:\n    /* \"#utility.yul\":2377:2409   */\n  tag_57\n  tag_23\n  jump\t// in\ntag_57:\n    /* \"#utility.yul\":2418:2483   */\n  tag_58\n    /* \"#utility.yul\":2476:2482   */\n  dup2\n    /* \"#utility.yul\":2468:2474   */\n  dup5\n    /* \"#utility.yul\":2462:2466   */\n  dup5\n    /* \"#utility.yul\":2418:2483   */\n  tag_22\n  jump\t// in\ntag_58:\n    /* \"#utility.yul\":2353:2489   */\n  pop\n    /* \"#utility.yul\":2300:2489   */\n  pop\n  pop\n  jump\t// out\n    /* \"#utility.yul\":2495:2681   */\ntag_25:\n    /* \"#utility.yul\":2555:2675   */\ntag_60:\n    /* \"#utility.yul\":2572:2575   */\n  dup2\n    /* \"#utility.yul\":2565:2570   */\n  dup2\n    /* \"#utility.yul\":2562:2576   */\n  lt\n    /* \"#utility.yul\":2555:2675   */\n  iszero\n  tag_62\n  jumpi\n    /* \"#utility.yul\":2626:2665   */\n  tag_63\n    /* \"#utility.yul\":2663:2664   */\n  0x00\n    /* \"#utility.yul\":2656:2661   */\n  dup3\n    /* \"#utility.yul\":2626:2665   */\n  tag_24\n  jump\t// in\ntag_63:\n    /* \"#utility.yul\":2599:2600   */\n  0x01\n    /* \"#utility.yul\":2592:2597   */\n  dup2\n    /* \"#utility.yul\":2588:2601   */\n  add\n    /* \"#utility.yul\":2579:2601   */\n  swap1\n  pop\n    /* \"#utility.yul\":2555:2675   */\n  jump(tag_60)\ntag_62:\n    /* \"#utility.yul\":2495:2681   */\n  pop\n  pop\n  jump\t// out\n    /* \"#utility.yul\":2687:3230   */\ntag_26:\n    /* \"#utility.yul\":2788:2790   */\n  0x1f\n    /* \"#utility.yul\":2783:2786   */\n  dup3\n    /* \"#utility.yul\":2780:2791   */\n  gt\n    /* \"#utility.yul\":2777:3223   */\n  iszero\n  tag_65\n  jumpi\n    /* \"#utility.yul\":2822:2860   */\n  tag_66\n    /* \"#utility.yul\":2854:2859   */\n  dup2\n    /* \"#utility.yul\":2822:2860   */\n  tag_14\n  jump\t// in\ntag_66:\n    /* \"#utility.yul\":2906:2935   */\n  tag_67\n    /* \"#utility.yul\":2924:2934   */\n  dup5\n    /* \"#utility.yul\":2906:2935   */\n  tag_15\n  jump\t// in\ntag_67:\n    /* \"#utility.yul\":2896:2904   */\n  dup2\n    /* \"#utility.yul\":2892:2936   */\n  add\n    /* \"#utility.yul\":3089:3091   */\n  0x20\n    /* \"#utility.yul\":3077:3087   */\n  dup6\n    /* \"#utility.yul\":3074:3092   */\n  lt\n    /* \"#utility.yul\":3071:3120   */\n  iszero\n  tag_68\n  jumpi\n    /* \"#utility.yul\":3110:3118   */\n  dup2\n    /* \"#utility.yul\":3095:3118   */\n  swap1\n  pop\n    /* \"#utility.yul\":3071:3120   */\ntag_68:\n    /* \"#utility.yul\":3133:3213   */\n  tag_69\n    /* \"#utility.yul\":3189:3211   */\n  tag_70\n    /* \"#utility.yul\":3207:3210   */\n  dup6\n    /* \"#utility.yul\":3189:3211   */\n  tag_15\n  jump\t// in\ntag_70:\n    /* \"#utility.yul\":3179:3187   */\n  dup4\n    /* \"#utility.yul\":3175:3212   */\n  add\n    /* \"#utility.yul\":3162:3173   */\n  dup3\n    /* \"#utility.yul\":3133:3213   */\n  tag_25\n  jump\t// in\ntag_69:\n    /* \"#utility.yul\":2792:3223   */\n  pop\n  pop\n    /* \"#utility.yul\":2777:3223   */\ntag_65:\n    /* \"#utility.yul\":2687:3230   */\n  pop\n  pop\n  pop\n  jump\t// out\n    /* \"#utility.yul\":3236:3353   */\ntag_27:\n    /* \"#utility.yul\":3290:3298   */\n  0x00\n    /* \"#utility.yul\":3340:3345   */\n  dup3\n    /* \"#utility.yul\":3334:3338   */\n  dup3\n    /* \"#utility.yul\":3330:3346   */\n  shr\n    /* \"#utility.yul\":3309:3346   */\n  swap1\n  pop\n    /* \"#utility.yul\":3236:3353   */\n  swap3\n  swap2\n  pop\n  pop\n  jump\t// out\n    /* \"#utility.yul\":3359:3528   */\ntag_28:\n    /* \"#utility.yul\":3403:3409   */\n  0x00\n    /* \"#utility.yul\":3436:3487   */\n  tag_73\n    /* \"#utility.yul\":3484:3485   */\n  0x00\n    /* \"#utility.yul\":3480:3486   */\n  not\n    /* \"#utility.yul\":3472:3477   */\n  dup5\n    /* \"#utility.yul\":3469:3470   */\n  0x08\n    /* \"#utility.yul\":3465:3478   */\n  mul\n    /* \"#utility.yul\":3436:3487   */\n  tag_27\n  jump\t// in\ntag_73:\n    /* \"#utility.yul\":3432:3488   */\n  not\n    /* \"#utility.yul\":3517:3521   */\n  dup1\n    /* \"#utility.yul\":3511:3515   */\n  dup4\n    /* \"#utility.yul\":3507:3522   */\n  and\n    /* \"#utility.yul\":3497:3522   */\n  swap2\n  pop\n    /* \"#utility.yul\":3410:3528   */\n  pop\n    /* \"#utility.yul\":3359:3528   */\n  swap3\n  swap2\n  pop\n  pop\n  jump\t// out\n    /* \"#utility.yul\":3533:3828   */\ntag_29:\n    /* \"#utility.yul\":3609:3613   */\n  0x00\n    /* \"#utility.yul\":3755:3784   */\n  tag_75\n    /* \"#utility.yul\":3780:3783   */\n  dup4\n    /* \"#utility.yul\":3774:3778   */\n  dup4\n    /* \"#utility.yul\":3755:3784   */\n  tag_28\n  jump\t// in\ntag_75:\n    /* \"#utility.yul\":3747:3784   */\n  swap2\n  pop\n    /* \"#utility.yul\":3817:3820   */\n  dup3\n    /* \"#utility.yul\":3814:3815   */\n  0x02\n    /* \"#utility.yul\":3810:3821   */\n  mul\n    /* \"#utility.yul\":3804:3808   */\n  dup3\n    /* \"#utility.yul\":3801:3822   */\n  or\n    /* \"#utility.yul\":3793:3822   */\n  swap1\n  pop\n    /* \"#utility.yul\":3533:3828   */\n  swap3\n  swap2\n  pop\n  pop\n  jump\t// out\n    /* \"#utility.yul\":3833:5228   */\ntag_6:\n    /* \"#utility.yul\":3950:3987   */\n  tag_77\n    /* \"#utility.yul\":3983:3986   */\n  dup3\n    /* \"#utility.yul\":3950:3987   */\n  tag_10\n  jump\t// in\ntag_77:\n    /* \"#utility.yul\":4052:4070   */\n  0xffffffffffffffff\n    /* \"#utility.yul\":4044:4050   */\n  dup2\n    /* \"#utility.yul\":4041:4071   */\n  gt\n    /* \"#utility.yul\":4038:4094   */\n  iszero\n  tag_78\n  jumpi\n    /* \"#utility.yul\":4074:4092   */\n  tag_79\n  tag_11\n  jump\t// in\ntag_79:\n    /* \"#utility.yul\":4038:4094   */\ntag_78:\n    /* \"#utility.yul\":4118:4156   */\n  tag_80\n    /* \"#utility.yul\":4150:4154   */\n  dup3\n    /* \"#utility.yul\":4144:4155   */\n  sload\n    /* \"#utility.yul\":4118:4156   */\n  tag_13\n  jump\t// in\ntag_80:\n    /* \"#utility.yul\":4203:4270   */\n  tag_81\n    /* \"#utility.yul\":4263:4269   */\n  dup3\n    /* \"#utility.yul\":4255:4261   */\n  dup3\n    /* \"#utility.yul\":4249:4253   */\n  dup6\n    /* \"#utility.yul\":4203:4270   */\n  tag_26\n  jump\t// in\ntag_81:\n    /* \"#utility.yul\":4297:4298   */\n  0x00\n    /* \"#utility.yul\":4321:4325   */\n  0x20\n    /* \"#utility.yul\":4308:4325   */\n  swap1\n  pop\n    /* \"#utility.yul\":4353:4355   */\n  0x1f\n    /* \"#utility.yul\":4345:4351   */\n  dup4\n    /* \"#utility.yul\":4342:4356   */\n  gt\n    /* \"#utility.yul\":4370:4371   */\n  0x01\n    /* \"#utility.yul\":4365:4983   */\n  dup2\n  eq\n  tag_83\n  jumpi\n    /* \"#utility.yul\":5027:5028   */\n  0x00\n    /* \"#utility.yul\":5044:5050   */\n  dup5\n    /* \"#utility.yul\":5041:5118   */\n  iszero\n  tag_84\n  jumpi\n    /* \"#utility.yul\":5093:5102   */\n  dup3\n    /* \"#utility.yul\":5088:5091   */\n  dup8\n    /* \"#utility.yul\":5084:5103   */\n  add\n    /* \"#utility.yul\":5078:5104   */\n  mload\n    /* \"#utility.yul\":5069:5104   */\n  swap1\n  pop\n    /* \"#utility.yul\":5041:5118   */\ntag_84:\n    /* \"#utility.yul\":5144:5211   */\n  tag_85\n    /* \"#utility.yul\":5204:5210   */\n  dup6\n    /* \"#utility.yul\":5197:5202   */\n  dup3\n    /* \"#utility.yul\":5144:5211   */\n  tag_29\n  jump\t// in\ntag_85:\n    /* \"#utility.yul\":5138:5142   */\n  dup7\n    /* \"#utility.yul\":5131:5212   */\n  sstore\n    /* \"#utility.yul\":5000:5222   */\n  pop\n    /* \"#utility.yul\":4335:5222   */\n  jump(tag_82)\n    /* \"#utility.yul\":4365:4983   */\ntag_83:\n    /* \"#utility.yul\":4417:4421   */\n  0x1f\n    /* \"#utility.yul\":4413:4422   */\n  not\n    /* \"#utility.yul\":4405:4411   */\n  dup5\n    /* \"#utility.yul\":4401:4423   */\n  and\n    /* \"#utility.yul\":4451:4488   */\n  tag_86\n    /* \"#utility.yul\":4483:4487   */\n  dup7\n    /* \"#utility.yul\":4451:4488   */\n  tag_14\n  jump\t// in\ntag_86:\n    /* \"#utility.yul\":4510:4511   */\n  0x00\n    /* \"#utility.yul\":4524:4732   */\ntag_87:\n    /* \"#utility.yul\":4538:4545   */\n  dup3\n    /* \"#utility.yul\":4535:4536   */\n  dup2\n    /* \"#utility.yul\":4532:4546   */\n  lt\n    /* \"#utility.yul\":4524:4732   */\n  iszero\n  tag_89\n  jumpi\n    /* \"#utility.yul\":4617:4626   */\n  dup5\n    /* \"#utility.yul\":4612:4615   */\n  dup10\n    /* \"#utility.yul\":4608:4627   */\n  add\n    /* \"#utility.yul\":4602:4628   */\n  mload\n    /* \"#utility.yul\":4594:4600   */\n  dup3\n    /* \"#utility.yul\":4587:4629   */\n  sstore\n    /* \"#utility.yul\":4668:4669   */\n  0x01\n    /* \"#utility.yul\":4660:4666   */\n  dup3\n    /* \"#utility.yul\":4656:4670   */\n  add\n    /* \"#utility.yul\":4646:4670   */\n  swap2\n  pop\n    /* \"#utility.yul\":4715:4717   */\n  0x20\n    /* \"#utility.yul\":4704:4713   */\n  dup6\n    /* \"#utility.yul\":4700:4718   */\n  add\n    /* \"#utility.yul\":4687:4718   */\n  swap5\n  pop\n    /* \"#utility.yul\":4561:4565   */\n  0x20\n    /* \"#utility.yul\":4558:4559   */\n  dup2\n    /* \"#utility.yul\":4554:4566   */\n  add\n    /* \"#utility.yul\":4549:4566   */\n  swap1\n  pop\n    /* \"#utility.yul\":4524:4732   */\n  jump(tag_87)\ntag_89:\n    /* \"#utility.yul\":4760:4766   */\n  dup7\n    /* \"#utility.yul\":4751:4758   */\n  dup4\n    /* \"#utility.yul\":4748:4767   */\n  lt\n    /* \"#utility.yul\":4745:4924   */\n  iszero\n  tag_90\n  jumpi\n    /* \"#utility.yul\":4818:4827   */\n  dup5\n    /* \"#utility.yul\":4813:4816   */\n  dup10\n    /* \"#utility.yul\":4809:4828   */\n  add\n    /* \"#utility.yul\":4803:4829   */\n  mload\n    /* \"#utility.yul\":4861:4909   */\n  tag_91\n    /* \"#utility.yul\":4903:4907   */\n  0x1f\n    /* \"#utility.yul\":4895:4901   */\n  dup10\n    /* \"#utility.yul\":4891:4908   */\n  and\n    /* \"#utility.yul\":4880:4889   */\n  dup3\n    /* \"#utility.yul\":4861:4909   */\n  tag_28\n  jump\t// in\ntag_91:\n    /* \"#utility.yul\":4853:4859   */\n  dup4\n    /* \"#utility.yul\":4846:4910   */\n  sstore\n    /* \"#utility.yul\":4768:4924   */\n  pop\n    /* \"#utility.yul\":4745:4924   */\ntag_90:\n    /* \"#utility.yul\":4970:4971   */\n  0x01\n    /* \"#utility.yul\":4966:4967   */\n  0x02\n    /* \"#utility.yul\":4958:4964   */\n  dup9\n    /* \"#utility.yul\":4954:4968   */\n  mul\n    /* \"#utility.yul\":4950:4972   */\n  add\n    /* \"#utility.yul\":4944:4948   */\n  dup9\n    /* \"#utility.yul\":4937:4973   */\n  sstore\n    /* \"#utility.yul\":4372:4983   */\n  pop\n  pop\n  pop\n    /* \"#utility.yul\":4335:5222   */\ntag_82:\n  pop\n    /* \"#utility.yul\":3925:5228   */\n  pop\n  pop\n  pop\n    /* \"#utility.yul\":3833:5228   */\n  pop\n  pop\n  jump\t// out\n    /* \"test/\\xe4\\xbd\\xbf\\xe7\\x94\\xa8storage\\xe4\\xbd\\x9c\\xe4\\xb8\\xba\\xe8\\xbf\\x94\\xe5\\x9b\\x9e\\xe5\\x80\\xbc\\xe7\\x9a\\x84\\xe6\\x83\\x85\\xe5\\x86\\xb5.sol\":712:2831  contract StorageReturnTest {... */\ntag_9:\n  dataSize(sub_0)\n  dup1\n  dataOffset(sub_0)\n  0x00\n  codecopy\n  0x00\n  return\nstop\n\nsub_0: assembly {\n        /* \"test/\\xe4\\xbd\\xbf\\xe7\\x94\\xa8storage\\xe4\\xbd\\x9c\\xe4\\xb8\\xba\\xe8\\xbf\\x94\\xe5\\x9b\\x9e\\xe5\\x80\\xbc\\xe7\\x9a\\x84\\xe6\\x83\\x85\\xe5\\x86\\xb5.sol\":712:2831  contract StorageReturnTest {... */\n      mstore(0x40, 0x80)\n      callvalue\n      dup1\n      iszero\n      tag_1\n      jumpi\n      0x00\n      dup1\n      revert\n    tag_1:\n      pop\n      jumpi(tag_2, lt(calldatasize, 0x04))\n      shr(0xe0, calldataload(0x00))\n      dup1\n      0x4622ab03\n      eq\n      tag_3\n      jumpi\n      dup1\n      0x4829fd86\n      eq\n      tag_4\n      jumpi\n      dup1\n      0x6458d8a2\n      eq\n      tag_5\n      jumpi\n      dup1\n      0xa8827021\n      eq\n      tag_6\n      jumpi\n    tag_2:\n      0x00\n      dup1\n      revert\n        /* \"test/\\xe4\\xbd\\xbf\\xe7\\x94\\xa8storage\\xe4\\xbd\\x9c\\xe4\\xb8\\xba\\xe8\\xbf\\x94\\xe5\\x9b\\x9e\\xe5\\x80\\xbc\\xe7\\x9a\\x84\\xe6\\x83\\x85\\xe5\\x86\\xb5.sol\":752:773  string[] public names */\n    tag_3:\n      tag_7\n      0x04\n      dup1\n      calldatasize\n      sub\n      dup2\n      add\n      swap1\n      tag_8\n      swap2\n      swap1\n      tag_9\n      jump\t// in\n    tag_8:\n      tag_10\n      jump\t// in\n    tag_7:\n      mload(0x40)\n      tag_11\n      swap2\n      swap1\n      tag_12\n      jump\t// in\n    tag_11:\n      mload(0x40)\n      dup1\n      swap2\n      sub\n      swap1\n      return\n        /* \"test/\\xe4\\xbd\\xbf\\xe7\\x94\\xa8storage\\xe4\\xbd\\x9c\\xe4\\xb8\\xba\\xe8\\xbf\\x94\\xe5\\x9b\\x9e\\xe5\\x80\\xbc\\xe7\\x9a\\x84\\xe6\\x83\\x85\\xe5\\x86\\xb5.sol\":1000:1253  function changeNamesStorage() public {... */\n    tag_4:\n      tag_13\n      tag_14\n      jump\t// in\n    tag_13:\n      stop\n        /* \"test/\\xe4\\xbd\\xbf\\xe7\\x94\\xa8storage\\xe4\\xbd\\x9c\\xe4\\xb8\\xba\\xe8\\xbf\\x94\\xe5\\x9b\\x9e\\xe5\\x80\\xbc\\xe7\\x9a\\x84\\xe6\\x83\\x85\\xe5\\x86\\xb5.sol\":2717:2822  function getNamesTemp() public view returns (string[] memory) {... */\n    tag_5:\n      tag_15\n      tag_16\n      jump\t// in\n    tag_15:\n      mload(0x40)\n      tag_17\n      swap2\n      swap1\n      tag_18\n      jump\t// in\n    tag_17:\n      mload(0x40)\n      dup1\n      swap2\n      sub\n      swap1\n      return\n        /* \"test/\\xe4\\xbd\\xbf\\xe7\\x94\\xa8storage\\xe4\\xbd\\x9c\\xe4\\xb8\\xba\\xe8\\xbf\\x94\\xe5\\x9b\\x9e\\xe5\\x80\\xbc\\xe7\\x9a\\x84\\xe6\\x83\\x85\\xe5\\x86\\xb5.sol\":1268:1541  function changeNamesMemory() public view returns(string[] memory) {... */\n    tag_6:\n      tag_19\n      tag_20\n      jump\t// in\n    tag_19:\n      mload(0x40)\n      tag_21\n      swap2\n      swap1\n      tag_18\n      jump\t// in\n    tag_21:\n      mload(0x40)\n      dup1\n      swap2\n      sub\n      swap1\n      return\n        /* \"test/\\xe4\\xbd\\xbf\\xe7\\x94\\xa8storage\\xe4\\xbd\\x9c\\xe4\\xb8\\xba\\xe8\\xbf\\x94\\xe5\\x9b\\x9e\\xe5\\x80\\xbc\\xe7\\x9a\\x84\\xe6\\x83\\x85\\xe5\\x86\\xb5.sol\":752:773  string[] public names */\n    tag_10:\n      0x00\n      dup2\n      dup2\n      sload\n      dup2\n      lt\n      tag_22\n      jumpi\n      0x00\n      dup1\n      revert\n    tag_22:\n      swap1\n      0x00\n      mstore\n      keccak256(0x00, 0x20)\n      add\n      0x00\n      swap2\n      pop\n      swap1\n      pop\n      dup1\n      sload\n      tag_24\n      swap1\n      tag_25\n      jump\t// in\n    tag_24:\n      dup1\n      0x1f\n      add\n      0x20\n      dup1\n      swap2\n      div\n      mul\n      0x20\n      add\n      mload(0x40)\n      swap1\n      dup2\n      add\n      0x40\n      mstore\n      dup1\n      swap3\n      swap2\n      swap1\n      dup2\n      dup2\n      mstore\n      0x20\n      add\n      dup3\n      dup1\n      sload\n      tag_26\n      swap1\n      tag_25\n      jump\t// in\n    tag_26:\n      dup1\n      iszero\n      tag_27\n      jumpi\n      dup1\n      0x1f\n      lt\n      tag_28\n      jumpi\n      0x0100\n      dup1\n      dup4\n      sload\n      div\n      mul\n      dup4\n      mstore\n      swap2\n      0x20\n      add\n      swap2\n      jump(tag_27)\n    tag_28:\n      dup3\n      add\n      swap2\n      swap1\n      0x00\n      mstore\n      keccak256(0x00, 0x20)\n      swap1\n    tag_29:\n      dup2\n      sload\n      dup2\n      mstore\n      swap1\n      0x01\n      add\n      swap1\n      0x20\n      add\n      dup1\n      dup4\n      gt\n      tag_29\n      jumpi\n      dup3\n      swap1\n      sub\n      0x1f\n      and\n      dup3\n      add\n      swap2\n    tag_27:\n      pop\n      pop\n      pop\n      pop\n      pop\n      dup2\n      jump\t// out\n        /* \"test/\\xe4\\xbd\\xbf\\xe7\\x94\\xa8storage\\xe4\\xbd\\x9c\\xe4\\xb8\\xba\\xe8\\xbf\\x94\\xe5\\x9b\\x9e\\xe5\\x80\\xbc\\xe7\\x9a\\x84\\xe6\\x83\\x85\\xe5\\x86\\xb5.sol\":1000:1253  function changeNamesStorage() public {... */\n    tag_14:\n        /* \"test/\\xe4\\xbd\\xbf\\xe7\\x94\\xa8storage\\xe4\\xbd\\x9c\\xe4\\xb8\\xba\\xe8\\xbf\\x94\\xe5\\x9b\\x9e\\xe5\\x80\\xbc\\xe7\\x9a\\x84\\xe6\\x83\\x85\\xe5\\x86\\xb5.sol\":1178:1196  string[] storage t */\n      0x00\n        /* \"test/\\xe4\\xbd\\xbf\\xe7\\x94\\xa8storage\\xe4\\xbd\\x9c\\xe4\\xb8\\xba\\xe8\\xbf\\x94\\xe5\\x9b\\x9e\\xe5\\x80\\xbc\\xe7\\x9a\\x84\\xe6\\x83\\x85\\xe5\\x86\\xb5.sol\":1198:1208  getNames() */\n      tag_31\n        /* \"test/\\xe4\\xbd\\xbf\\xe7\\x94\\xa8storage\\xe4\\xbd\\x9c\\xe4\\xb8\\xba\\xe8\\xbf\\x94\\xe5\\x9b\\x9e\\xe5\\x80\\xbc\\xe7\\x9a\\x84\\xe6\\x83\\x85\\xe5\\x86\\xb5.sol\":1198:1206  getNames */\n      tag_32\n        /* \"test/\\xe4\\xbd\\xbf\\xe7\\x94\\xa8storage\\xe4\\xbd\\x9c\\xe4\\xb8\\xba\\xe8\\xbf\\x94\\xe5\\x9b\\x9e\\xe5\\x80\\xbc\\xe7\\x9a\\x84\\xe6\\x83\\x85\\xe5\\x86\\xb5.sol\":1198:1208  getNames() */\n      jump\t// in\n    tag_31:\n        /* \"test/\\xe4\\xbd\\xbf\\xe7\\x94\\xa8storage\\xe4\\xbd\\x9c\\xe4\\xb8\\xba\\xe8\\xbf\\x94\\xe5\\x9b\\x9e\\xe5\\x80\\xbc\\xe7\\x9a\\x84\\xe6\\x83\\x85\\xe5\\x86\\xb5.sol\":1178:1208  string[] storage t= getNames() */\n      swap1\n      pop\n        /* \"test/\\xe4\\xbd\\xbf\\xe7\\x94\\xa8storage\\xe4\\xbd\\x9c\\xe4\\xb8\\xba\\xe8\\xbf\\x94\\xe5\\x9b\\x9e\\xe5\\x80\\xbc\\xe7\\x9a\\x84\\xe6\\x83\\x85\\xe5\\x86\\xb5.sol\":1226:1227  t */\n      dup1\n        /* \"test/\\xe4\\xbd\\xbf\\xe7\\x94\\xa8storage\\xe4\\xbd\\x9c\\xe4\\xb8\\xba\\xe8\\xbf\\x94\\xe5\\x9b\\x9e\\xe5\\x80\\xbc\\xe7\\x9a\\x84\\xe6\\x83\\x85\\xe5\\x86\\xb5.sol\":1226:1240  t.push(\"zks3\") */\n      dup1\n      0x01\n      dup2\n      sload\n      add\n      dup1\n      dup3\n      sstore\n      dup1\n      swap2\n      pop\n      pop\n      0x01\n      swap1\n      sub\n      swap1\n      0x00\n      mstore\n      keccak256(0x00, 0x20)\n      add\n      0x00\n      mload(0x40)\n      dup1\n      0x40\n      add\n      0x40\n      mstore\n      dup1\n      0x04\n      dup2\n      mstore\n      0x20\n      add\n      0x7a6b733300000000000000000000000000000000000000000000000000000000\n      dup2\n      mstore\n      pop\n      swap1\n      swap2\n      swap1\n      swap2\n      pop\n      swap1\n      dup2\n      tag_34\n      swap2\n      swap1\n      tag_35\n      jump\t// in\n    tag_34:\n      pop\n        /* \"test/\\xe4\\xbd\\xbf\\xe7\\x94\\xa8storage\\xe4\\xbd\\x9c\\xe4\\xb8\\xba\\xe8\\xbf\\x94\\xe5\\x9b\\x9e\\xe5\\x80\\xbc\\xe7\\x9a\\x84\\xe6\\x83\\x85\\xe5\\x86\\xb5.sol\":1037:1253  {... */\n      pop\n        /* \"test/\\xe4\\xbd\\xbf\\xe7\\x94\\xa8storage\\xe4\\xbd\\x9c\\xe4\\xb8\\xba\\xe8\\xbf\\x94\\xe5\\x9b\\x9e\\xe5\\x80\\xbc\\xe7\\x9a\\x84\\xe6\\x83\\x85\\xe5\\x86\\xb5.sol\":1000:1253  function changeNamesStorage() public {... */\n      jump\t// out\n        /* \"test/\\xe4\\xbd\\xbf\\xe7\\x94\\xa8storage\\xe4\\xbd\\x9c\\xe4\\xb8\\xba\\xe8\\xbf\\x94\\xe5\\x9b\\x9e\\xe5\\x80\\xbc\\xe7\\x9a\\x84\\xe6\\x83\\x85\\xe5\\x86\\xb5.sol\":2717:2822  function getNamesTemp() public view returns (string[] memory) {... */\n    tag_16:\n        /* \"test/\\xe4\\xbd\\xbf\\xe7\\x94\\xa8storage\\xe4\\xbd\\x9c\\xe4\\xb8\\xba\\xe8\\xbf\\x94\\xe5\\x9b\\x9e\\xe5\\x80\\xbc\\xe7\\x9a\\x84\\xe6\\x83\\x85\\xe5\\x86\\xb5.sol\":2762:2777  string[] memory */\n      0x60\n        /* \"test/\\xe4\\xbd\\xbf\\xe7\\x94\\xa8storage\\xe4\\xbd\\x9c\\xe4\\xb8\\xba\\xe8\\xbf\\x94\\xe5\\x9b\\x9e\\xe5\\x80\\xbc\\xe7\\x9a\\x84\\xe6\\x83\\x85\\xe5\\x86\\xb5.sol\":2805:2810  names */\n      0x00\n        /* \"test/\\xe4\\xbd\\xbf\\xe7\\x94\\xa8storage\\xe4\\xbd\\x9c\\xe4\\xb8\\xba\\xe8\\xbf\\x94\\xe5\\x9b\\x9e\\xe5\\x80\\xbc\\xe7\\x9a\\x84\\xe6\\x83\\x85\\xe5\\x86\\xb5.sol\":2798:2810  return names */\n      dup1\n      sload\n      dup1\n      0x20\n      mul\n      0x20\n      add\n      mload(0x40)\n      swap1\n      dup2\n      add\n      0x40\n      mstore\n      dup1\n      swap3\n      swap2\n      swap1\n      dup2\n      dup2\n      mstore\n      0x20\n      add\n      0x00\n      swap1\n    tag_37:\n      dup3\n      dup3\n      lt\n      iszero\n      tag_38\n      jumpi\n      dup4\n      dup3\n      swap1\n      0x00\n      mstore\n      keccak256(0x00, 0x20)\n      add\n      dup1\n      sload\n      tag_40\n      swap1\n      tag_25\n      jump\t// in\n    tag_40:\n      dup1\n      0x1f\n      add\n      0x20\n      dup1\n      swap2\n      div\n      mul\n      0x20\n      add\n      mload(0x40)\n      swap1\n      dup2\n      add\n      0x40\n      mstore\n      dup1\n      swap3\n      swap2\n      swap1\n      dup2\n      dup2\n      mstore\n      0x20\n      add\n      dup3\n      dup1\n      sload\n      tag_41\n      swap1\n      tag_25\n      jump\t// in\n    tag_41:\n      dup1\n      iszero\n      tag_42\n      jumpi\n      dup1\n      0x1f\n      lt\n      tag_43\n      jumpi\n      0x0100\n      dup1\n      dup4\n      sload\n      div\n      mul\n      dup4\n      mstore\n      swap2\n      0x20\n      add\n      swap2\n      jump(tag_42)\n    tag_43:\n      dup3\n      add\n      swap2\n      swap1\n      0x00\n      mstore\n      keccak256(0x00, 0x20)\n      swap1\n    tag_44:\n      dup2\n      sload\n      dup2\n      mstore\n      swap1\n      0x01\n      add\n      swap1\n      0x20\n      add\n      dup1\n      dup4\n      gt\n      tag_44\n      jumpi\n      dup3\n      swap1\n      sub\n      0x1f\n      and\n      dup3\n      add\n      swap2\n    tag_42:\n      pop\n      pop\n      pop\n      pop\n      pop\n      dup2\n      mstore\n      0x20\n      add\n      swap1\n      0x01\n      add\n      swap1\n      jump(tag_37)\n    tag_38:\n      pop\n      pop\n      pop\n      pop\n      swap1\n      pop\n        /* \"test/\\xe4\\xbd\\xbf\\xe7\\x94\\xa8storage\\xe4\\xbd\\x9c\\xe4\\xb8\\xba\\xe8\\xbf\\x94\\xe5\\x9b\\x9e\\xe5\\x80\\xbc\\xe7\\x9a\\x84\\xe6\\x83\\x85\\xe5\\x86\\xb5.sol\":2717:2822  function getNamesTemp() public view returns (string[] memory) {... */\n      swap1\n      jump\t// out\n        /* \"test/\\xe4\\xbd\\xbf\\xe7\\x94\\xa8storage\\xe4\\xbd\\x9c\\xe4\\xb8\\xba\\xe8\\xbf\\x94\\xe5\\x9b\\x9e\\xe5\\x80\\xbc\\xe7\\x9a\\x84\\xe6\\x83\\x85\\xe5\\x86\\xb5.sol\":1268:1541  function changeNamesMemory() public view returns(string[] memory) {... */\n    tag_20:\n        /* \"test/\\xe4\\xbd\\xbf\\xe7\\x94\\xa8storage\\xe4\\xbd\\x9c\\xe4\\xb8\\xba\\xe8\\xbf\\x94\\xe5\\x9b\\x9e\\xe5\\x80\\xbc\\xe7\\x9a\\x84\\xe6\\x83\\x85\\xe5\\x86\\xb5.sol\":1317:1332  string[] memory */\n      0x60\n        /* \"test/\\xe4\\xbd\\xbf\\xe7\\x94\\xa8storage\\xe4\\xbd\\x9c\\xe4\\xb8\\xba\\xe8\\xbf\\x94\\xe5\\x9b\\x9e\\xe5\\x80\\xbc\\xe7\\x9a\\x84\\xe6\\x83\\x85\\xe5\\x86\\xb5.sol\":1438:1455  string[] memory t */\n      0x00\n        /* \"test/\\xe4\\xbd\\xbf\\xe7\\x94\\xa8storage\\xe4\\xbd\\x9c\\xe4\\xb8\\xba\\xe8\\xbf\\x94\\xe5\\x9b\\x9e\\xe5\\x80\\xbc\\xe7\\x9a\\x84\\xe6\\x83\\x85\\xe5\\x86\\xb5.sol\":1457:1471  getNamesTemp() */\n      tag_46\n        /* \"test/\\xe4\\xbd\\xbf\\xe7\\x94\\xa8storage\\xe4\\xbd\\x9c\\xe4\\xb8\\xba\\xe8\\xbf\\x94\\xe5\\x9b\\x9e\\xe5\\x80\\xbc\\xe7\\x9a\\x84\\xe6\\x83\\x85\\xe5\\x86\\xb5.sol\":1457:1469  getNamesTemp */\n      tag_16\n        /* \"test/\\xe4\\xbd\\xbf\\xe7\\x94\\xa8storage\\xe4\\xbd\\x9c\\xe4\\xb8\\xba\\xe8\\xbf\\x94\\xe5\\x9b\\x9e\\xe5\\x80\\xbc\\xe7\\x9a\\x84\\xe6\\x83\\x85\\xe5\\x86\\xb5.sol\":1457:1471  getNamesTemp() */\n      jump\t// in\n    tag_46:\n        /* \"test/\\xe4\\xbd\\xbf\\xe7\\x94\\xa8storage\\xe4\\xbd\\x9c\\xe4\\xb8\\xba\\xe8\\xbf\\x94\\xe5\\x9b\\x9e\\xe5\\x80\\xbc\\xe7\\x9a\\x84\\xe6\\x83\\x85\\xe5\\x86\\xb5.sol\":1438:1471  string[] memory t= getNamesTemp() */\n      swap1\n      pop\n        /* \"test/\\xe4\\xbd\\xbf\\xe7\\x94\\xa8storage\\xe4\\xbd\\x9c\\xe4\\xb8\\xba\\xe8\\xbf\\x94\\xe5\\x9b\\x9e\\xe5\\x80\\xbc\\xe7\\x9a\\x84\\xe6\\x83\\x85\\xe5\\x86\\xb5.sol\":1489:1500  t[0]=\"zks4\" */\n      mload(0x40)\n      dup1\n      0x40\n      add\n      0x40\n      mstore\n      dup1\n      0x04\n      dup2\n      mstore\n      0x20\n      add\n      0x7a6b733400000000000000000000000000000000000000000000000000000000\n      dup2\n      mstore\n      pop\n        /* \"test/\\xe4\\xbd\\xbf\\xe7\\x94\\xa8storage\\xe4\\xbd\\x9c\\xe4\\xb8\\xba\\xe8\\xbf\\x94\\xe5\\x9b\\x9e\\xe5\\x80\\xbc\\xe7\\x9a\\x84\\xe6\\x83\\x85\\xe5\\x86\\xb5.sol\":1489:1490  t */\n      dup2\n        /* \"test/\\xe4\\xbd\\xbf\\xe7\\x94\\xa8storage\\xe4\\xbd\\x9c\\xe4\\xb8\\xba\\xe8\\xbf\\x94\\xe5\\x9b\\x9e\\xe5\\x80\\xbc\\xe7\\x9a\\x84\\xe6\\x83\\x85\\xe5\\x86\\xb5.sol\":1491:1492  0 */\n      0x00\n        /* \"test/\\xe4\\xbd\\xbf\\xe7\\x94\\xa8storage\\xe4\\xbd\\x9c\\xe4\\xb8\\xba\\xe8\\xbf\\x94\\xe5\\x9b\\x9e\\xe5\\x80\\xbc\\xe7\\x9a\\x84\\xe6\\x83\\x85\\xe5\\x86\\xb5.sol\":1489:1493  t[0] */\n      dup2\n      mload\n      dup2\n      lt\n      tag_47\n      jumpi\n      tag_48\n      tag_49\n      jump\t// in\n    tag_48:\n    tag_47:\n      0x20\n      mul\n      0x20\n      add\n      add\n        /* \"test/\\xe4\\xbd\\xbf\\xe7\\x94\\xa8storage\\xe4\\xbd\\x9c\\xe4\\xb8\\xba\\xe8\\xbf\\x94\\xe5\\x9b\\x9e\\xe5\\x80\\xbc\\xe7\\x9a\\x84\\xe6\\x83\\x85\\xe5\\x86\\xb5.sol\":1489:1500  t[0]=\"zks4\" */\n      dup2\n      swap1\n      mstore\n      pop\n        /* \"test/\\xe4\\xbd\\xbf\\xe7\\x94\\xa8storage\\xe4\\xbd\\x9c\\xe4\\xb8\\xba\\xe8\\xbf\\x94\\xe5\\x9b\\x9e\\xe5\\x80\\xbc\\xe7\\x9a\\x84\\xe6\\x83\\x85\\xe5\\x86\\xb5.sol\":1525:1526  t */\n      dup1\n        /* \"test/\\xe4\\xbd\\xbf\\xe7\\x94\\xa8storage\\xe4\\xbd\\x9c\\xe4\\xb8\\xba\\xe8\\xbf\\x94\\xe5\\x9b\\x9e\\xe5\\x80\\xbc\\xe7\\x9a\\x84\\xe6\\x83\\x85\\xe5\\x86\\xb5.sol\":1518:1526  return t */\n      swap2\n      pop\n      pop\n        /* \"test/\\xe4\\xbd\\xbf\\xe7\\x94\\xa8storage\\xe4\\xbd\\x9c\\xe4\\xb8\\xba\\xe8\\xbf\\x94\\xe5\\x9b\\x9e\\xe5\\x80\\xbc\\xe7\\x9a\\x84\\xe6\\x83\\x85\\xe5\\x86\\xb5.sol\":1268:1541  function changeNamesMemory() public view returns(string[] memory) {... */\n      swap1\n      jump\t// out\n        /* \"test/\\xe4\\xbd\\xbf\\xe7\\x94\\xa8storage\\xe4\\xbd\\x9c\\xe4\\xb8\\xba\\xe8\\xbf\\x94\\xe5\\x9b\\x9e\\xe5\\x80\\xbc\\xe7\\x9a\\x84\\xe6\\x83\\x85\\xe5\\x86\\xb5.sol\":887:988  function getNames() internal returns(string[] storage ){ ... */\n    tag_32:\n        /* \"test/\\xe4\\xbd\\xbf\\xe7\\x94\\xa8storage\\xe4\\xbd\\x9c\\xe4\\xb8\\xba\\xe8\\xbf\\x94\\xe5\\x9b\\x9e\\xe5\\x80\\xbc\\xe7\\x9a\\x84\\xe6\\x83\\x85\\xe5\\x86\\xb5.sol\":924:940  string[] storage */\n      0x00\n        /* \"test/\\xe4\\xbd\\xbf\\xe7\\x94\\xa8storage\\xe4\\xbd\\x9c\\xe4\\xb8\\xba\\xe8\\xbf\\x94\\xe5\\x9b\\x9e\\xe5\\x80\\xbc\\xe7\\x9a\\x84\\xe6\\x83\\x85\\xe5\\x86\\xb5.sol\":887:988  function getNames() internal returns(string[] storage ){ ... */\n      swap1\n      jump\t// out\n        /* \"#utility.yul\":88:205   */\n    tag_52:\n        /* \"#utility.yul\":197:198   */\n      0x00\n        /* \"#utility.yul\":194:195   */\n      dup1\n        /* \"#utility.yul\":187:199   */\n      revert\n        /* \"#utility.yul\":334:411   */\n    tag_54:\n        /* \"#utility.yul\":371:378   */\n      0x00\n        /* \"#utility.yul\":400:405   */\n      dup2\n        /* \"#utility.yul\":389:405   */\n      swap1\n      pop\n        /* \"#utility.yul\":334:411   */\n      swap2\n      swap1\n      pop\n      jump\t// out\n        /* \"#utility.yul\":417:539   */\n    tag_55:\n        /* \"#utility.yul\":490:514   */\n      tag_93\n        /* \"#utility.yul\":508:513   */\n      dup2\n        /* \"#utility.yul\":490:514   */\n      tag_54\n      jump\t// in\n    tag_93:\n        /* \"#utility.yul\":483:488   */\n      dup2\n        /* \"#utility.yul\":480:515   */\n      eq\n        /* \"#utility.yul\":470:533   */\n      tag_94\n      jumpi\n        /* \"#utility.yul\":529:530   */\n      0x00\n        /* \"#utility.yul\":526:527   */\n      dup1\n        /* \"#utility.yul\":519:531   */\n      revert\n        /* \"#utility.yul\":470:533   */\n    tag_94:\n        /* \"#utility.yul\":417:539   */\n      pop\n      jump\t// out\n        /* \"#utility.yul\":545:684   */\n    tag_56:\n        /* \"#utility.yul\":591:596   */\n      0x00\n        /* \"#utility.yul\":629:635   */\n      dup2\n        /* \"#utility.yul\":616:636   */\n      calldataload\n        /* \"#utility.yul\":607:636   */\n      swap1\n      pop\n        /* \"#utility.yul\":645:678   */\n      tag_96\n        /* \"#utility.yul\":672:677   */\n      dup2\n        /* \"#utility.yul\":645:678   */\n      tag_55\n      jump\t// in\n    tag_96:\n        /* \"#utility.yul\":545:684   */\n      swap3\n      swap2\n      pop\n      pop\n      jump\t// out\n        /* \"#utility.yul\":690:1019   */\n    tag_9:\n        /* \"#utility.yul\":749:755   */\n      0x00\n        /* \"#utility.yul\":798:800   */\n      0x20\n        /* \"#utility.yul\":786:795   */\n      dup3\n        /* \"#utility.yul\":777:784   */\n      dup5\n        /* \"#utility.yul\":773:796   */\n      sub\n        /* \"#utility.yul\":769:801   */\n      slt\n        /* \"#utility.yul\":766:885   */\n      iszero\n      tag_98\n      jumpi\n        /* \"#utility.yul\":804:883   */\n      tag_99\n      tag_52\n      jump\t// in\n    tag_99:\n        /* \"#utility.yul\":766:885   */\n    tag_98:\n        /* \"#utility.yul\":924:925   */\n      0x00\n        /* \"#utility.yul\":949:1002   */\n      tag_100\n        /* \"#utility.yul\":994:1001   */\n      dup5\n        /* \"#utility.yul\":985:991   */\n      dup3\n        /* \"#utility.yul\":974:983   */\n      dup6\n        /* \"#utility.yul\":970:992   */\n      add\n        /* \"#utility.yul\":949:1002   */\n      tag_56\n      jump\t// in\n    tag_100:\n        /* \"#utility.yul\":939:1002   */\n      swap2\n      pop\n        /* \"#utility.yul\":895:1012   */\n      pop\n        /* \"#utility.yul\":690:1019   */\n      swap3\n      swap2\n      pop\n      pop\n      jump\t// out\n        /* \"#utility.yul\":1025:1124   */\n    tag_57:\n        /* \"#utility.yul\":1077:1083   */\n      0x00\n        /* \"#utility.yul\":1111:1116   */\n      dup2\n        /* \"#utility.yul\":1105:1117   */\n      mload\n        /* \"#utility.yul\":1095:1117   */\n      swap1\n      pop\n        /* \"#utility.yul\":1025:1124   */\n      swap2\n      swap1\n      pop\n      jump\t// out\n        /* \"#utility.yul\":1130:1299   */\n    tag_58:\n        /* \"#utility.yul\":1214:1225   */\n      0x00\n        /* \"#utility.yul\":1248:1254   */\n      dup3\n        /* \"#utility.yul\":1243:1246   */\n      dup3\n        /* \"#utility.yul\":1236:1255   */\n      mstore\n        /* \"#utility.yul\":1288:1292   */\n      0x20\n        /* \"#utility.yul\":1283:1286   */\n      dup3\n        /* \"#utility.yul\":1279:1293   */\n      add\n        /* \"#utility.yul\":1264:1293   */\n      swap1\n      pop\n        /* \"#utility.yul\":1130:1299   */\n      swap3\n      swap2\n      pop\n      pop\n      jump\t// out\n        /* \"#utility.yul\":1305:1444   */\n    tag_59:\n        /* \"#utility.yul\":1394:1400   */\n      dup3\n        /* \"#utility.yul\":1389:1392   */\n      dup2\n        /* \"#utility.yul\":1384:1387   */\n      dup4\n        /* \"#utility.yul\":1378:1401   */\n      mcopy\n        /* \"#utility.yul\":1435:1436   */\n      0x00\n        /* \"#utility.yul\":1426:1432   */\n      dup4\n        /* \"#utility.yul\":1421:1424   */\n      dup4\n        /* \"#utility.yul\":1417:1433   */\n      add\n        /* \"#utility.yul\":1410:1437   */\n      mstore\n        /* \"#utility.yul\":1305:1444   */\n      pop\n      pop\n      pop\n      jump\t// out\n        /* \"#utility.yul\":1450:1552   */\n    tag_60:\n        /* \"#utility.yul\":1491:1497   */\n      0x00\n        /* \"#utility.yul\":1542:1544   */\n      0x1f\n        /* \"#utility.yul\":1538:1545   */\n      not\n        /* \"#utility.yul\":1533:1535   */\n      0x1f\n        /* \"#utility.yul\":1526:1531   */\n      dup4\n        /* \"#utility.yul\":1522:1536   */\n      add\n        /* \"#utility.yul\":1518:1546   */\n      and\n        /* \"#utility.yul\":1508:1546   */\n      swap1\n      pop\n        /* \"#utility.yul\":1450:1552   */\n      swap2\n      swap1\n      pop\n      jump\t// out\n        /* \"#utility.yul\":1558:1935   */\n    tag_61:\n        /* \"#utility.yul\":1646:1649   */\n      0x00\n        /* \"#utility.yul\":1674:1713   */\n      tag_106\n        /* \"#utility.yul\":1707:1712   */\n      dup3\n        /* \"#utility.yul\":1674:1713   */\n      tag_57\n      jump\t// in\n    tag_106:\n        /* \"#utility.yul\":1729:1800   */\n      tag_107\n        /* \"#utility.yul\":1793:1799   */\n      dup2\n        /* \"#utility.yul\":1788:1791   */\n      dup6\n        /* \"#utility.yul\":1729:1800   */\n      tag_58\n      jump\t// in\n    tag_107:\n        /* \"#utility.yul\":1722:1800   */\n      swap4\n      pop\n        /* \"#utility.yul\":1809:1874   */\n      tag_108\n        /* \"#utility.yul\":1867:1873   */\n      dup2\n        /* \"#utility.yul\":1862:1865   */\n      dup6\n        /* \"#utility.yul\":1855:1859   */\n      0x20\n        /* \"#utility.yul\":1848:1853   */\n      dup7\n        /* \"#utility.yul\":1844:1860   */\n      add\n        /* \"#utility.yul\":1809:1874   */\n      tag_59\n      jump\t// in\n    tag_108:\n        /* \"#utility.yul\":1899:1928   */\n      tag_109\n        /* \"#utility.yul\":1921:1927   */\n      dup2\n        /* \"#utility.yul\":1899:1928   */\n      tag_60\n      jump\t// in\n    tag_109:\n        /* \"#utility.yul\":1894:1897   */\n      dup5\n        /* \"#utility.yul\":1890:1929   */\n      add\n        /* \"#utility.yul\":1883:1929   */\n      swap2\n      pop\n        /* \"#utility.yul\":1650:1935   */\n      pop\n        /* \"#utility.yul\":1558:1935   */\n      swap3\n      swap2\n      pop\n      pop\n      jump\t// out\n        /* \"#utility.yul\":1941:2254   */\n    tag_12:\n        /* \"#utility.yul\":2054:2058   */\n      0x00\n        /* \"#utility.yul\":2092:2094   */\n      0x20\n        /* \"#utility.yul\":2081:2090   */\n      dup3\n        /* \"#utility.yul\":2077:2095   */\n      add\n        /* \"#utility.yul\":2069:2095   */\n      swap1\n      pop\n        /* \"#utility.yul\":2141:2150   */\n      dup2\n        /* \"#utility.yul\":2135:2139   */\n      dup2\n        /* \"#utility.yul\":2131:2151   */\n      sub\n        /* \"#utility.yul\":2127:2128   */\n      0x00\n        /* \"#utility.yul\":2116:2125   */\n      dup4\n        /* \"#utility.yul\":2112:2129   */\n      add\n        /* \"#utility.yul\":2105:2152   */\n      mstore\n        /* \"#utility.yul\":2169:2247   */\n      tag_111\n        /* \"#utility.yul\":2242:2246   */\n      dup2\n        /* \"#utility.yul\":2233:2239   */\n      dup5\n        /* \"#utility.yul\":2169:2247   */\n      tag_61\n      jump\t// in\n    tag_111:\n        /* \"#utility.yul\":2161:2247   */\n      swap1\n      pop\n        /* \"#utility.yul\":1941:2254   */\n      swap3\n      swap2\n      pop\n      pop\n      jump\t// out\n        /* \"#utility.yul\":2260:2384   */\n    tag_62:\n        /* \"#utility.yul\":2337:2343   */\n      0x00\n        /* \"#utility.yul\":2371:2376   */\n      dup2\n        /* \"#utility.yul\":2365:2377   */\n      mload\n        /* \"#utility.yul\":2355:2377   */\n      swap1\n      pop\n        /* \"#utility.yul\":2260:2384   */\n      swap2\n      swap1\n      pop\n      jump\t// out\n        /* \"#utility.yul\":2390:2584   */\n    tag_63:\n        /* \"#utility.yul\":2499:2510   */\n      0x00\n        /* \"#utility.yul\":2533:2539   */\n      dup3\n        /* \"#utility.yul\":2528:2531   */\n      dup3\n        /* \"#utility.yul\":2521:2540   */\n      mstore\n        /* \"#utility.yul\":2573:2577   */\n      0x20\n        /* \"#utility.yul\":2568:2571   */\n      dup3\n        /* \"#utility.yul\":2564:2578   */\n      add\n        /* \"#utility.yul\":2549:2578   */\n      swap1\n      pop\n        /* \"#utility.yul\":2390:2584   */\n      swap3\n      swap2\n      pop\n      pop\n      jump\t// out\n        /* \"#utility.yul\":2590:2732   */\n    tag_64:\n        /* \"#utility.yul\":2667:2671   */\n      0x00\n        /* \"#utility.yul\":2690:2693   */\n      dup2\n        /* \"#utility.yul\":2682:2693   */\n      swap1\n      pop\n        /* \"#utility.yul\":2720:2724   */\n      0x20\n        /* \"#utility.yul\":2715:2718   */\n      dup3\n        /* \"#utility.yul\":2711:2725   */\n      add\n        /* \"#utility.yul\":2703:2725   */\n      swap1\n      pop\n        /* \"#utility.yul\":2590:2732   */\n      swap2\n      swap1\n      pop\n      jump\t// out\n        /* \"#utility.yul\":2738:2897   */\n    tag_65:\n        /* \"#utility.yul\":2812:2823   */\n      0x00\n        /* \"#utility.yul\":2846:2852   */\n      dup3\n        /* \"#utility.yul\":2841:2844   */\n      dup3\n        /* \"#utility.yul\":2834:2853   */\n      mstore\n        /* \"#utility.yul\":2886:2890   */\n      0x20\n        /* \"#utility.yul\":2881:2884   */\n      dup3\n        /* \"#utility.yul\":2877:2891   */\n      add\n        /* \"#utility.yul\":2862:2891   */\n      swap1\n      pop\n        /* \"#utility.yul\":2738:2897   */\n      swap3\n      swap2\n      pop\n      pop\n      jump\t// out\n        /* \"#utility.yul\":2903:3260   */\n    tag_66:\n        /* \"#utility.yul\":2981:2984   */\n      0x00\n        /* \"#utility.yul\":3009:3048   */\n      tag_117\n        /* \"#utility.yul\":3042:3047   */\n      dup3\n        /* \"#utility.yul\":3009:3048   */\n      tag_57\n      jump\t// in\n    tag_117:\n        /* \"#utility.yul\":3064:3125   */\n      tag_118\n        /* \"#utility.yul\":3118:3124   */\n      dup2\n        /* \"#utility.yul\":3113:3116   */\n      dup6\n        /* \"#utility.yul\":3064:3125   */\n      tag_65\n      jump\t// in\n    tag_118:\n        /* \"#utility.yul\":3057:3125   */\n      swap4\n      pop\n        /* \"#utility.yul\":3134:3199   */\n      tag_119\n        /* \"#utility.yul\":3192:3198   */\n      dup2\n        /* \"#utility.yul\":3187:3190   */\n      dup6\n        /* \"#utility.yul\":3180:3184   */\n      0x20\n        /* \"#utility.yul\":3173:3178   */\n      dup7\n        /* \"#utility.yul\":3169:3185   */\n      add\n        /* \"#utility.yul\":3134:3199   */\n      tag_59\n      jump\t// in\n    tag_119:\n        /* \"#utility.yul\":3224:3253   */\n      tag_120\n        /* \"#utility.yul\":3246:3252   */\n      dup2\n        /* \"#utility.yul\":3224:3253   */\n      tag_60\n      jump\t// in\n    tag_120:\n        /* \"#utility.yul\":3219:3222   */\n      dup5\n        /* \"#utility.yul\":3215:3254   */\n      add\n        /* \"#utility.yul\":3208:3254   */\n      swap2\n      pop\n        /* \"#utility.yul\":2985:3260   */\n      pop\n        /* \"#utility.yul\":2903:3260   */\n      swap3\n      swap2\n      pop\n      pop\n      jump\t// out\n        /* \"#utility.yul\":3266:3462   */\n    tag_67:\n        /* \"#utility.yul\":3355:3365   */\n      0x00\n        /* \"#utility.yul\":3390:3456   */\n      tag_122\n        /* \"#utility.yul\":3452:3455   */\n      dup4\n        /* \"#utility.yul\":3444:3450   */\n      dup4\n        /* \"#utility.yul\":3390:3456   */\n      tag_66\n      jump\t// in\n    tag_122:\n        /* \"#utility.yul\":3376:3456   */\n      swap1\n      pop\n        /* \"#utility.yul\":3266:3462   */\n      swap3\n      swap2\n      pop\n      pop\n      jump\t// out\n        /* \"#utility.yul\":3468:3591   */\n    tag_68:\n        /* \"#utility.yul\":3548:3552   */\n      0x00\n        /* \"#utility.yul\":3580:3584   */\n      0x20\n        /* \"#utility.yul\":3575:3578   */\n      dup3\n        /* \"#utility.yul\":3571:3585   */\n      add\n        /* \"#utility.yul\":3563:3585   */\n      swap1\n      pop\n        /* \"#utility.yul\":3468:3591   */\n      swap2\n      swap1\n      pop\n      jump\t// out\n        /* \"#utility.yul\":3625:4616   */\n    tag_69:\n        /* \"#utility.yul\":3764:3767   */\n      0x00\n        /* \"#utility.yul\":3793:3857   */\n      tag_125\n        /* \"#utility.yul\":3851:3856   */\n      dup3\n        /* \"#utility.yul\":3793:3857   */\n      tag_62\n      jump\t// in\n    tag_125:\n        /* \"#utility.yul\":3873:3969   */\n      tag_126\n        /* \"#utility.yul\":3962:3968   */\n      dup2\n        /* \"#utility.yul\":3957:3960   */\n      dup6\n        /* \"#utility.yul\":3873:3969   */\n      tag_63\n      jump\t// in\n    tag_126:\n        /* \"#utility.yul\":3866:3969   */\n      swap4\n      pop\n        /* \"#utility.yul\":3995:3998   */\n      dup4\n        /* \"#utility.yul\":4040:4044   */\n      0x20\n        /* \"#utility.yul\":4032:4038   */\n      dup3\n        /* \"#utility.yul\":4028:4045   */\n      mul\n        /* \"#utility.yul\":4023:4026   */\n      dup6\n        /* \"#utility.yul\":4019:4046   */\n      add\n        /* \"#utility.yul\":4070:4136   */\n      tag_127\n        /* \"#utility.yul\":4130:4135   */\n      dup6\n        /* \"#utility.yul\":4070:4136   */\n      tag_64\n      jump\t// in\n    tag_127:\n        /* \"#utility.yul\":4159:4166   */\n      dup1\n        /* \"#utility.yul\":4190:4191   */\n      0x00\n        /* \"#utility.yul\":4175:4571   */\n    tag_128:\n        /* \"#utility.yul\":4200:4206   */\n      dup6\n        /* \"#utility.yul\":4197:4198   */\n      dup2\n        /* \"#utility.yul\":4194:4207   */\n      lt\n        /* \"#utility.yul\":4175:4571   */\n      iszero\n      tag_130\n      jumpi\n        /* \"#utility.yul\":4271:4280   */\n      dup5\n        /* \"#utility.yul\":4265:4269   */\n      dup5\n        /* \"#utility.yul\":4261:4281   */\n      sub\n        /* \"#utility.yul\":4256:4259   */\n      dup10\n        /* \"#utility.yul\":4249:4282   */\n      mstore\n        /* \"#utility.yul\":4322:4328   */\n      dup2\n        /* \"#utility.yul\":4316:4329   */\n      mload\n        /* \"#utility.yul\":4350:4434   */\n      tag_131\n        /* \"#utility.yul\":4429:4433   */\n      dup6\n        /* \"#utility.yul\":4414:4427   */\n      dup3\n        /* \"#utility.yul\":4350:4434   */\n      tag_67\n      jump\t// in\n    tag_131:\n        /* \"#utility.yul\":4342:4434   */\n      swap5\n      pop\n        /* \"#utility.yul\":4457:4527   */\n      tag_132\n        /* \"#utility.yul\":4520:4526   */\n      dup4\n        /* \"#utility.yul\":4457:4527   */\n      tag_68\n      jump\t// in\n    tag_132:\n        /* \"#utility.yul\":4447:4527   */\n      swap3\n      pop\n        /* \"#utility.yul\":4556:4560   */\n      0x20\n        /* \"#utility.yul\":4551:4554   */\n      dup11\n        /* \"#utility.yul\":4547:4561   */\n      add\n        /* \"#utility.yul\":4540:4561   */\n      swap10\n      pop\n        /* \"#utility.yul\":4235:4571   */\n      pop\n        /* \"#utility.yul\":4222:4223   */\n      0x01\n        /* \"#utility.yul\":4219:4220   */\n      dup2\n        /* \"#utility.yul\":4215:4224   */\n      add\n        /* \"#utility.yul\":4210:4224   */\n      swap1\n      pop\n        /* \"#utility.yul\":4175:4571   */\n      jump(tag_128)\n    tag_130:\n        /* \"#utility.yul\":4179:4193   */\n      pop\n        /* \"#utility.yul\":4587:4591   */\n      dup3\n        /* \"#utility.yul\":4580:4591   */\n      swap8\n      pop\n        /* \"#utility.yul\":4607:4610   */\n      dup8\n        /* \"#utility.yul\":4600:4610   */\n      swap6\n      pop\n        /* \"#utility.yul\":3769:4616   */\n      pop\n      pop\n      pop\n      pop\n      pop\n        /* \"#utility.yul\":3625:4616   */\n      swap3\n      swap2\n      pop\n      pop\n      jump\t// out\n        /* \"#utility.yul\":4622:5035   */\n    tag_18:\n        /* \"#utility.yul\":4785:4789   */\n      0x00\n        /* \"#utility.yul\":4823:4825   */\n      0x20\n        /* \"#utility.yul\":4812:4821   */\n      dup3\n        /* \"#utility.yul\":4808:4826   */\n      add\n        /* \"#utility.yul\":4800:4826   */\n      swap1\n      pop\n        /* \"#utility.yul\":4872:4881   */\n      dup2\n        /* \"#utility.yul\":4866:4870   */\n      dup2\n        /* \"#utility.yul\":4862:4882   */\n      sub\n        /* \"#utility.yul\":4858:4859   */\n      0x00\n        /* \"#utility.yul\":4847:4856   */\n      dup4\n        /* \"#utility.yul\":4843:4860   */\n      add\n        /* \"#utility.yul\":4836:4883   */\n      mstore\n        /* \"#utility.yul\":4900:5028   */\n      tag_134\n        /* \"#utility.yul\":5023:5027   */\n      dup2\n        /* \"#utility.yul\":5014:5020   */\n      dup5\n        /* \"#utility.yul\":4900:5028   */\n      tag_69\n      jump\t// in\n    tag_134:\n        /* \"#utility.yul\":4892:5028   */\n      swap1\n      pop\n        /* \"#utility.yul\":4622:5035   */\n      swap3\n      swap2\n      pop\n      pop\n      jump\t// out\n        /* \"#utility.yul\":5041:5221   */\n    tag_70:\n        /* \"#utility.yul\":5089:5166   */\n      0x4e487b7100000000000000000000000000000000000000000000000000000000\n        /* \"#utility.yul\":5086:5087   */\n      0x00\n        /* \"#utility.yul\":5079:5167   */\n      mstore\n        /* \"#utility.yul\":5186:5190   */\n      0x22\n        /* \"#utility.yul\":5183:5184   */\n      0x04\n        /* \"#utility.yul\":5176:5191   */\n      mstore\n        /* \"#utility.yul\":5210:5214   */\n      0x24\n        /* \"#utility.yul\":5207:5208   */\n      0x00\n        /* \"#utility.yul\":5200:5215   */\n      revert\n        /* \"#utility.yul\":5227:5547   */\n    tag_25:\n        /* \"#utility.yul\":5271:5277   */\n      0x00\n        /* \"#utility.yul\":5308:5309   */\n      0x02\n        /* \"#utility.yul\":5302:5306   */\n      dup3\n        /* \"#utility.yul\":5298:5310   */\n      div\n        /* \"#utility.yul\":5288:5310   */\n      swap1\n      pop\n        /* \"#utility.yul\":5355:5356   */\n      0x01\n        /* \"#utility.yul\":5349:5353   */\n      dup3\n        /* \"#utility.yul\":5345:5357   */\n      and\n        /* \"#utility.yul\":5376:5394   */\n      dup1\n        /* \"#utility.yul\":5366:5447   */\n      tag_137\n      jumpi\n        /* \"#utility.yul\":5432:5436   */\n      0x7f\n        /* \"#utility.yul\":5424:5430   */\n      dup3\n        /* \"#utility.yul\":5420:5437   */\n      and\n        /* \"#utility.yul\":5410:5437   */\n      swap2\n      pop\n        /* \"#utility.yul\":5366:5447   */\n    tag_137:\n        /* \"#utility.yul\":5494:5496   */\n      0x20\n        /* \"#utility.yul\":5486:5492   */\n      dup3\n        /* \"#utility.yul\":5483:5497   */\n      lt\n        /* \"#utility.yul\":5463:5481   */\n      dup2\n        /* \"#utility.yul\":5460:5498   */\n      sub\n        /* \"#utility.yul\":5457:5541   */\n      tag_138\n      jumpi\n        /* \"#utility.yul\":5513:5531   */\n      tag_139\n      tag_70\n      jump\t// in\n    tag_139:\n        /* \"#utility.yul\":5457:5541   */\n    tag_138:\n        /* \"#utility.yul\":5278:5547   */\n      pop\n        /* \"#utility.yul\":5227:5547   */\n      swap2\n      swap1\n      pop\n      jump\t// out\n        /* \"#utility.yul\":5553:5733   */\n    tag_71:\n        /* \"#utility.yul\":5601:5678   */\n      0x4e487b7100000000000000000000000000000000000000000000000000000000\n        /* \"#utility.yul\":5598:5599   */\n      0x00\n        /* \"#utility.yul\":5591:5679   */\n      mstore\n        /* \"#utility.yul\":5698:5702   */\n      0x41\n        /* \"#utility.yul\":5695:5696   */\n      0x04\n        /* \"#utility.yul\":5688:5703   */\n      mstore\n        /* \"#utility.yul\":5722:5726   */\n      0x24\n        /* \"#utility.yul\":5719:5720   */\n      0x00\n        /* \"#utility.yul\":5712:5727   */\n      revert\n        /* \"#utility.yul\":5739:5880   */\n    tag_72:\n        /* \"#utility.yul\":5788:5792   */\n      0x00\n        /* \"#utility.yul\":5811:5814   */\n      dup2\n        /* \"#utility.yul\":5803:5814   */\n      swap1\n      pop\n        /* \"#utility.yul\":5834:5837   */\n      dup2\n        /* \"#utility.yul\":5831:5832   */\n      0x00\n        /* \"#utility.yul\":5824:5838   */\n      mstore\n        /* \"#utility.yul\":5868:5872   */\n      0x20\n        /* \"#utility.yul\":5865:5866   */\n      0x00\n        /* \"#utility.yul\":5855:5873   */\n      keccak256\n        /* \"#utility.yul\":5847:5873   */\n      swap1\n      pop\n        /* \"#utility.yul\":5739:5880   */\n      swap2\n      swap1\n      pop\n      jump\t// out\n        /* \"#utility.yul\":5886:5979   */\n    tag_73:\n        /* \"#utility.yul\":5923:5929   */\n      0x00\n        /* \"#utility.yul\":5970:5972   */\n      0x20\n        /* \"#utility.yul\":5965:5967   */\n      0x1f\n        /* \"#utility.yul\":5958:5963   */\n      dup4\n        /* \"#utility.yul\":5954:5968   */\n      add\n        /* \"#utility.yul\":5950:5973   */\n      div\n        /* \"#utility.yul\":5940:5973   */\n      swap1\n      pop\n        /* \"#utility.yul\":5886:5979   */\n      swap2\n      swap1\n      pop\n      jump\t// out\n        /* \"#utility.yul\":5985:6092   */\n    tag_74:\n        /* \"#utility.yul\":6029:6037   */\n      0x00\n        /* \"#utility.yul\":6079:6084   */\n      dup3\n        /* \"#utility.yul\":6073:6077   */\n      dup3\n        /* \"#utility.yul\":6069:6085   */\n      shl\n        /* \"#utility.yul\":6048:6085   */\n      swap1\n      pop\n        /* \"#utility.yul\":5985:6092   */\n      swap3\n      swap2\n      pop\n      pop\n      jump\t// out\n        /* \"#utility.yul\":6098:6491   */\n    tag_75:\n        /* \"#utility.yul\":6167:6173   */\n      0x00\n        /* \"#utility.yul\":6217:6218   */\n      0x08\n        /* \"#utility.yul\":6205:6215   */\n      dup4\n        /* \"#utility.yul\":6201:6219   */\n      mul\n        /* \"#utility.yul\":6240:6337   */\n      tag_145\n        /* \"#utility.yul\":6270:6336   */\n      0xffffffffffffffffffffffffffffffffffffffffffffffffffffffffffffffff\n        /* \"#utility.yul\":6259:6268   */\n      dup3\n        /* \"#utility.yul\":6240:6337   */\n      tag_74\n      jump\t// in\n    tag_145:\n        /* \"#utility.yul\":6358:6397   */\n      tag_146\n        /* \"#utility.yul\":6388:6396   */\n      dup7\n        /* \"#utility.yul\":6377:6386   */\n      dup4\n        /* \"#utility.yul\":6358:6397   */\n      tag_74\n      jump\t// in\n    tag_146:\n        /* \"#utility.yul\":6346:6397   */\n      swap6\n      pop\n        /* \"#utility.yul\":6430:6434   */\n      dup1\n        /* \"#utility.yul\":6426:6435   */\n      not\n        /* \"#utility.yul\":6419:6424   */\n      dup5\n        /* \"#utility.yul\":6415:6436   */\n      and\n        /* \"#utility.yul\":6406:6436   */\n      swap4\n      pop\n        /* \"#utility.yul\":6479:6483   */\n      dup1\n        /* \"#utility.yul\":6469:6477   */\n      dup7\n        /* \"#utility.yul\":6465:6484   */\n      and\n        /* \"#utility.yul\":6458:6463   */\n      dup5\n        /* \"#utility.yul\":6455:6485   */\n      or\n        /* \"#utility.yul\":6445:6485   */\n      swap3\n      pop\n        /* \"#utility.yul\":6174:6491   */\n      pop\n      pop\n        /* \"#utility.yul\":6098:6491   */\n      swap4\n      swap3\n      pop\n      pop\n      pop\n      jump\t// out\n        /* \"#utility.yul\":6497:6557   */\n    tag_76:\n        /* \"#utility.yul\":6525:6528   */\n      0x00\n        /* \"#utility.yul\":6546:6551   */\n      dup2\n        /* \"#utility.yul\":6539:6551   */\n      swap1\n      pop\n        /* \"#utility.yul\":6497:6557   */\n      swap2\n      swap1\n      pop\n      jump\t// out\n        /* \"#utility.yul\":6563:6705   */\n    tag_77:\n        /* \"#utility.yul\":6613:6622   */\n      0x00\n        /* \"#utility.yul\":6646:6699   */\n      tag_149\n        /* \"#utility.yul\":6664:6698   */\n      tag_150\n        /* \"#utility.yul\":6673:6697   */\n      tag_151\n        /* \"#utility.yul\":6691:6696   */\n      dup5\n        /* \"#utility.yul\":6673:6697   */\n      tag_54\n      jump\t// in\n    tag_151:\n        /* \"#utility.yul\":6664:6698   */\n      tag_76\n      jump\t// in\n    tag_150:\n        /* \"#utility.yul\":6646:6699   */\n      tag_54\n      jump\t// in\n    tag_149:\n        /* \"#utility.yul\":6633:6699   */\n      swap1\n      pop\n        /* \"#utility.yul\":6563:6705   */\n      swap2\n      swap1\n      pop\n      jump\t// out\n        /* \"#utility.yul\":6711:6786   */\n    tag_78:\n        /* \"#utility.yul\":6754:6757   */\n      0x00\n        /* \"#utility.yul\":6775:6780   */\n      dup2\n        /* \"#utility.yul\":6768:6780   */\n      swap1\n      pop\n        /* \"#utility.yul\":6711:6786   */\n      swap2\n      swap1\n      pop\n      jump\t// out\n        /* \"#utility.yul\":6792:7061   */\n    tag_79:\n        /* \"#utility.yul\":6902:6941   */\n      tag_154\n        /* \"#utility.yul\":6933:6940   */\n      dup4\n        /* \"#utility.yul\":6902:6941   */\n      tag_77\n      jump\t// in\n    tag_154:\n        /* \"#utility.yul\":6963:7054   */\n      tag_155\n        /* \"#utility.yul\":7012:7053   */\n      tag_156\n        /* \"#utility.yul\":7036:7052   */\n      dup3\n        /* \"#utility.yul\":7012:7053   */\n      tag_78\n      jump\t// in\n    tag_156:\n        /* \"#utility.yul\":7004:7010   */\n      dup5\n        /* \"#utility.yul\":6997:7001   */\n      dup5\n        /* \"#utility.yul\":6991:7002   */\n      sload\n        /* \"#utility.yul\":6963:7054   */\n      tag_75\n      jump\t// in\n    tag_155:\n        /* \"#utility.yul\":6957:6961   */\n      dup3\n        /* \"#utility.yul\":6950:7055   */\n      sstore\n        /* \"#utility.yul\":6868:7061   */\n      pop\n        /* \"#utility.yul\":6792:7061   */\n      pop\n      pop\n      pop\n      jump\t// out\n        /* \"#utility.yul\":7067:7140   */\n    tag_80:\n        /* \"#utility.yul\":7112:7115   */\n      0x00\n        /* \"#utility.yul\":7067:7140   */\n      swap1\n      jump\t// out\n        /* \"#utility.yul\":7146:7335   */\n    tag_81:\n        /* \"#utility.yul\":7223:7255   */\n      tag_159\n      tag_80\n      jump\t// in\n    tag_159:\n        /* \"#utility.yul\":7264:7329   */\n      tag_160\n        /* \"#utility.yul\":7322:7328   */\n      dup2\n        /* \"#utility.yul\":7314:7320   */\n      dup5\n        /* \"#utility.yul\":7308:7312   */\n      dup5\n        /* \"#utility.yul\":7264:7329   */\n      tag_79\n      jump\t// in\n    tag_160:\n        /* \"#utility.yul\":7199:7335   */\n      pop\n        /* \"#utility.yul\":7146:7335   */\n      pop\n      pop\n      jump\t// out\n        /* \"#utility.yul\":7341:7527   */\n    tag_82:\n        /* \"#utility.yul\":7401:7521   */\n    tag_162:\n        /* \"#utility.yul\":7418:7421   */\n      dup2\n        /* \"#utility.yul\":7411:7416   */\n      dup2\n        /* \"#utility.yul\":7408:7422   */\n      lt\n        /* \"#utility.yul\":7401:7521   */\n      iszero\n      tag_164\n      jumpi\n        /* \"#utility.yul\":7472:7511   */\n      tag_165\n        /* \"#utility.yul\":7509:7510   */\n      0x00\n        /* \"#utility.yul\":7502:7507   */\n      dup3\n        /* \"#utility.yul\":7472:7511   */\n      tag_81\n      jump\t// in\n    tag_165:\n        /* \"#utility.yul\":7445:7446   */\n      0x01\n        /* \"#utility.yul\":7438:7443   */\n      dup2\n        /* \"#utility.yul\":7434:7447   */\n      add\n        /* \"#utility.yul\":7425:7447   */\n      swap1\n      pop\n        /* \"#utility.yul\":7401:7521   */\n      jump(tag_162)\n    tag_164:\n        /* \"#utility.yul\":7341:7527   */\n      pop\n      pop\n      jump\t// out\n        /* \"#utility.yul\":7533:8076   */\n    tag_83:\n        /* \"#utility.yul\":7634:7636   */\n      0x1f\n        /* \"#utility.yul\":7629:7632   */\n      dup3\n        /* \"#utility.yul\":7626:7637   */\n      gt\n        /* \"#utility.yul\":7623:8069   */\n      iszero\n      tag_167\n      jumpi\n        /* \"#utility.yul\":7668:7706   */\n      tag_168\n        /* \"#utility.yul\":7700:7705   */\n      dup2\n        /* \"#utility.yul\":7668:7706   */\n      tag_72\n      jump\t// in\n    tag_168:\n        /* \"#utility.yul\":7752:7781   */\n      tag_169\n        /* \"#utility.yul\":7770:7780   */\n      dup5\n        /* \"#utility.yul\":7752:7781   */\n      tag_73\n      jump\t// in\n    tag_169:\n        /* \"#utility.yul\":7742:7750   */\n      dup2\n        /* \"#utility.yul\":7738:7782   */\n      add\n        /* \"#utility.yul\":7935:7937   */\n      0x20\n        /* \"#utility.yul\":7923:7933   */\n      dup6\n        /* \"#utility.yul\":7920:7938   */\n      lt\n        /* \"#utility.yul\":7917:7966   */\n      iszero\n      tag_170\n      jumpi\n        /* \"#utility.yul\":7956:7964   */\n      dup2\n        /* \"#utility.yul\":7941:7964   */\n      swap1\n      pop\n        /* \"#utility.yul\":7917:7966   */\n    tag_170:\n        /* \"#utility.yul\":7979:8059   */\n      tag_171\n        /* \"#utility.yul\":8035:8057   */\n      tag_172\n        /* \"#utility.yul\":8053:8056   */\n      dup6\n        /* \"#utility.yul\":8035:8057   */\n      tag_73\n      jump\t// in\n    tag_172:\n        /* \"#utility.yul\":8025:8033   */\n      dup4\n        /* \"#utility.yul\":8021:8058   */\n      add\n        /* \"#utility.yul\":8008:8019   */\n      dup3\n        /* \"#utility.yul\":7979:8059   */\n      tag_82\n      jump\t// in\n    tag_171:\n        /* \"#utility.yul\":7638:8069   */\n      pop\n      pop\n        /* \"#utility.yul\":7623:8069   */\n    tag_167:\n        /* \"#utility.yul\":7533:8076   */\n      pop\n      pop\n      pop\n      jump\t// out\n        /* \"#utility.yul\":8082:8199   */\n    tag_84:\n        /* \"#utility.yul\":8136:8144   */\n      0x00\n        /* \"#utility.yul\":8186:8191   */\n      dup3\n        /* \"#utility.yul\":8180:8184   */\n      dup3\n        /* \"#utility.yul\":8176:8192   */\n      shr\n        /* \"#utility.yul\":8155:8192   */\n      swap1\n      pop\n        /* \"#utility.yul\":8082:8199   */\n      swap3\n      swap2\n      pop\n      pop\n      jump\t// out\n        /* \"#utility.yul\":8205:8374   */\n    tag_85:\n        /* \"#utility.yul\":8249:8255   */\n      0x00\n        /* \"#utility.yul\":8282:8333   */\n      tag_175\n        /* \"#utility.yul\":8330:8331   */\n      0x00\n        /* \"#utility.yul\":8326:8332   */\n      not\n        /* \"#utility.yul\":8318:8323   */\n      dup5\n        /* \"#utility.yul\":8315:8316   */\n      0x08\n        /* \"#utility.yul\":8311:8324   */\n      mul\n        /* \"#utility.yul\":8282:8333   */\n      tag_84\n      jump\t// in\n    tag_175:\n        /* \"#utility.yul\":8278:8334   */\n      not\n        /* \"#utility.yul\":8363:8367   */\n      dup1\n        /* \"#utility.yul\":8357:8361   */\n      dup4\n        /* \"#utility.yul\":8353:8368   */\n      and\n        /* \"#utility.yul\":8343:8368   */\n      swap2\n      pop\n        /* \"#utility.yul\":8256:8374   */\n      pop\n        /* \"#utility.yul\":8205:8374   */\n      swap3\n      swap2\n      pop\n      pop\n      jump\t// out\n        /* \"#utility.yul\":8379:8674   */\n    tag_86:\n        /* \"#utility.yul\":8455:8459   */\n      0x00\n        /* \"#utility.yul\":8601:8630   */\n      tag_177\n        /* \"#utility.yul\":8626:8629   */\n      dup4\n        /* \"#utility.yul\":8620:8624   */\n      dup4\n        /* \"#utility.yul\":8601:8630   */\n      tag_85\n      jump\t// in\n    tag_177:\n        /* \"#utility.yul\":8593:8630   */\n      swap2\n      pop\n        /* \"#utility.yul\":8663:8666   */\n      dup3\n        /* \"#utility.yul\":8660:8661   */\n      0x02\n        /* \"#utility.yul\":8656:8667   */\n      mul\n        /* \"#utility.yul\":8650:8654   */\n      dup3\n        /* \"#utility.yul\":8647:8668   */\n      or\n        /* \"#utility.yul\":8639:8668   */\n      swap1\n      pop\n        /* \"#utility.yul\":8379:8674   */\n      swap3\n      swap2\n      pop\n      pop\n      jump\t// out\n        /* \"#utility.yul\":8679:10074   */\n    tag_35:\n        /* \"#utility.yul\":8796:8833   */\n      tag_179\n        /* \"#utility.yul\":8829:8832   */\n      dup3\n        /* \"#utility.yul\":8796:8833   */\n      tag_57\n      jump\t// in\n    tag_179:\n        /* \"#utility.yul\":8898:8916   */\n      0xffffffffffffffff\n        /* \"#utility.yul\":8890:8896   */\n      dup2\n        /* \"#utility.yul\":8887:8917   */\n      gt\n        /* \"#utility.yul\":8884:8940   */\n      iszero\n      tag_180\n      jumpi\n        /* \"#utility.yul\":8920:8938   */\n      tag_181\n      tag_71\n      jump\t// in\n    tag_181:\n        /* \"#utility.yul\":8884:8940   */\n    tag_180:\n        /* \"#utility.yul\":8964:9002   */\n      tag_182\n        /* \"#utility.yul\":8996:9000   */\n      dup3\n        /* \"#utility.yul\":8990:9001   */\n      sload\n        /* \"#utility.yul\":8964:9002   */\n      tag_25\n      jump\t// in\n    tag_182:\n        /* \"#utility.yul\":9049:9116   */\n      tag_183\n        /* \"#utility.yul\":9109:9115   */\n      dup3\n        /* \"#utility.yul\":9101:9107   */\n      dup3\n        /* \"#utility.yul\":9095:9099   */\n      dup6\n        /* \"#utility.yul\":9049:9116   */\n      tag_83\n      jump\t// in\n    tag_183:\n        /* \"#utility.yul\":9143:9144   */\n      0x00\n        /* \"#utility.yul\":9167:9171   */\n      0x20\n        /* \"#utility.yul\":9154:9171   */\n      swap1\n      pop\n        /* \"#utility.yul\":9199:9201   */\n      0x1f\n        /* \"#utility.yul\":9191:9197   */\n      dup4\n        /* \"#utility.yul\":9188:9202   */\n      gt\n        /* \"#utility.yul\":9216:9217   */\n      0x01\n        /* \"#utility.yul\":9211:9829   */\n      dup2\n      eq\n      tag_185\n      jumpi\n        /* \"#utility.yul\":9873:9874   */\n      0x00\n        /* \"#utility.yul\":9890:9896   */\n      dup5\n        /* \"#utility.yul\":9887:9964   */\n      iszero\n      tag_186\n      jumpi\n        /* \"#utility.yul\":9939:9948   */\n      dup3\n        /* \"#utility.yul\":9934:9937   */\n      dup8\n        /* \"#utility.yul\":9930:9949   */\n      add\n        /* \"#utility.yul\":9924:9950   */\n      mload\n        /* \"#utility.yul\":9915:9950   */\n      swap1\n      pop\n        /* \"#utility.yul\":9887:9964   */\n    tag_186:\n        /* \"#utility.yul\":9990:10057   */\n      tag_187\n        /* \"#utility.yul\":10050:10056   */\n      dup6\n        /* \"#utility.yul\":10043:10048   */\n      dup3\n        /* \"#utility.yul\":9990:10057   */\n      tag_86\n      jump\t// in\n    tag_187:\n        /* \"#utility.yul\":9984:9988   */\n      dup7\n        /* \"#utility.yul\":9977:10058   */\n      sstore\n        /* \"#utility.yul\":9846:10068   */\n      pop\n        /* \"#utility.yul\":9181:10068   */\n      jump(tag_184)\n        /* \"#utility.yul\":9211:9829   */\n    tag_185:\n        /* \"#utility.yul\":9263:9267   */\n      0x1f\n        /* \"#utility.yul\":9259:9268   */\n      not\n        /* \"#utility.yul\":9251:9257   */\n      dup5\n        /* \"#utility.yul\":9247:9269   */\n      and\n        /* \"#utility.yul\":9297:9334   */\n      tag_188\n        /* \"#utility.yul\":9329:9333   */\n      dup7\n        /* \"#utility.yul\":9297:9334   */\n      tag_72\n      jump\t// in\n    tag_188:\n        /* \"#utility.yul\":9356:9357   */\n      0x00\n        /* \"#utility.yul\":9370:9578   */\n    tag_189:\n        /* \"#utility.yul\":9384:9391   */\n      dup3\n        /* \"#utility.yul\":9381:9382   */\n      dup2\n        /* \"#utility.yul\":9378:9392   */\n      lt\n        /* \"#utility.yul\":9370:9578   */\n      iszero\n      tag_191\n      jumpi\n        /* \"#utility.yul\":9463:9472   */\n      dup5\n        /* \"#utility.yul\":9458:9461   */\n      dup10\n        /* \"#utility.yul\":9454:9473   */\n      add\n        /* \"#utility.yul\":9448:9474   */\n      mload\n        /* \"#utility.yul\":9440:9446   */\n      dup3\n        /* \"#utility.yul\":9433:9475   */\n      sstore\n        /* \"#utility.yul\":9514:9515   */\n      0x01\n        /* \"#utility.yul\":9506:9512   */\n      dup3\n        /* \"#utility.yul\":9502:9516   */\n      add\n        /* \"#utility.yul\":9492:9516   */\n      swap2\n      pop\n        /* \"#utility.yul\":9561:9563   */\n      0x20\n        /* \"#utility.yul\":9550:9559   */\n      dup6\n        /* \"#utility.yul\":9546:9564   */\n      add\n        /* \"#utility.yul\":9533:9564   */\n      swap5\n      pop\n        /* \"#utility.yul\":9407:9411   */\n      0x20\n        /* \"#utility.yul\":9404:9405   */\n      dup2\n        /* \"#utility.yul\":9400:9412   */\n      add\n        /* \"#utility.yul\":9395:9412   */\n      swap1\n      pop\n        /* \"#utility.yul\":9370:9578   */\n      jump(tag_189)\n    tag_191:\n        /* \"#utility.yul\":9606:9612   */\n      dup7\n        /* \"#utility.yul\":9597:9604   */\n      dup4\n        /* \"#utility.yul\":9594:9613   */\n      lt\n        /* \"#utility.yul\":9591:9770   */\n      iszero\n      tag_192\n      jumpi\n        /* \"#utility.yul\":9664:9673   */\n      dup5\n        /* \"#utility.yul\":9659:9662   */\n      dup10\n        /* \"#utility.yul\":9655:9674   */\n      add\n        /* \"#utility.yul\":9649:9675   */\n      mload\n        /* \"#utility.yul\":9707:9755   */\n      tag_193\n        /* \"#utility.yul\":9749:9753   */\n      0x1f\n        /* \"#utility.yul\":9741:9747   */\n      dup10\n        /* \"#utility.yul\":9737:9754   */\n      and\n        /* \"#utility.yul\":9726:9735   */\n      dup3\n        /* \"#utility.yul\":9707:9755   */\n      tag_85\n      jump\t// in\n    tag_193:\n        /* \"#utility.yul\":9699:9705   */\n      dup4\n        /* \"#utility.yul\":9692:9756   */\n      sstore\n        /* \"#utility.yul\":9614:9770   */\n      pop\n        /* \"#utility.yul\":9591:9770   */\n    tag_192:\n        /* \"#utility.yul\":9816:9817   */\n      0x01\n        /* \"#utility.yul\":9812:9813   */\n      0x02\n        /* \"#utility.yul\":9804:9810   */\n      dup9\n        /* \"#utility.yul\":9800:9814   */\n      mul\n        /* \"#utility.yul\":9796:9818   */\n      add\n        /* \"#utility.yul\":9790:9794   */\n      dup9\n        /* \"#utility.yul\":9783:9819   */\n      sstore\n        /* \"#utility.yul\":9218:9829   */\n      pop\n      pop\n      pop\n        /* \"#utility.yul\":9181:10068   */\n    tag_184:\n      pop\n        /* \"#utility.yul\":8771:10074   */\n      pop\n      pop\n      pop\n        /* \"#utility.yul\":8679:10074   */\n      pop\n      pop\n      jump\t// out\n        /* \"#utility.yul\":10080:10260   */\n    tag_49:\n        /* \"#utility.yul\":10128:10205   */\n      0x4e487b7100000000000000000000000000000000000000000000000000000000\n        /* \"#utility.yul\":10125:10126   */\n      0x00\n        /* \"#utility.yul\":10118:10206   */\n      mstore\n        /* \"#utility.yul\":10225:10229   */\n      0x32\n        /* \"#utility.yul\":10222:10223   */\n      0x04\n        /* \"#utility.yul\":10215:10230   */\n      mstore\n        /* \"#utility.yul\":10249:10253   */\n      0x24\n        /* \"#utility.yul\":10246:10247   */\n      0x00\n        /* \"#utility.yul\":10239:10254   */\n      revert\n\n    auxdata: 0xa2646970667358221220aced54fbe0e9b84e47156170a589b1958ca7d0e44de11036a83afa3f0ea260b964736f6c634300081a0033\n}\n",
				"bytecode": {
					"linkReferences": {},
					"object": "608060405234801561000f575f80fd5b505f8060018154018082558091505060019003905f5260205f20015f6040518060400160405280600481526020017f7a6b733100000000000000000000000000000000000000000000000000000000815250909190915090816100729190610315565b505f8060018154018082558091505060019003905f5260205f20015f6040518060400160405280600481526020017f7a6b733200000000000000000000000000000000000000000000000000000000815250909190915090816100d59190610315565b506103e4565b5f81519050919050565b7f4e487b71000000000000000000000000000000000000000000000000000000005f52604160045260245ffd5b7f4e487b71000000000000000000000000000000000000000000000000000000005f52602260045260245ffd5b5f600282049050600182168061015657607f821691505b60208210810361016957610168610112565b5b50919050565b5f819050815f5260205f209050919050565b5f6020601f8301049050919050565b5f82821b905092915050565b5f600883026101cb7fffffffffffffffffffffffffffffffffffffffffffffffffffffffffffffffff82610190565b6101d58683610190565b95508019841693508086168417925050509392505050565b5f819050919050565b5f819050919050565b5f61021961021461020f846101ed565b6101f6565b6101ed565b9050919050565b5f819050919050565b610232836101ff565b61024661023e82610220565b84845461019c565b825550505050565b5f90565b61025a61024e565b610265818484610229565b505050565b5b818110156102885761027d5f82610252565b60018101905061026b565b5050565b601f8211156102cd5761029e8161016f565b6102a784610181565b810160208510156102b6578190505b6102ca6102c285610181565b83018261026a565b50505b505050565b5f82821c905092915050565b5f6102ed5f19846008026102d2565b1980831691505092915050565b5f61030583836102de565b9150826002028217905092915050565b61031e826100db565b67ffffffffffffffff811115610337576103366100e5565b5b610341825461013f565b61034c82828561028c565b5f60209050601f83116001811461037d575f841561036b578287015190505b61037585826102fa565b8655506103dc565b601f19841661038b8661016f565b5f5b828110156103b25784890151825560018201915060208501945060208101905061038d565b868310156103cf57848901516103cb601f8916826102de565b8355505b6001600288020188555050505b505050505050565b610887806103f15f395ff3fe608060405234801561000f575f80fd5b506004361061004a575f3560e01c80634622ab031461004e5780634829fd861461007e5780636458d8a214610088578063a8827021146100a6575b5f80fd5b61006860048036038101906100639190610350565b6100c4565b60405161007591906103eb565b60405180910390f35b610086610169565b005b6100906101da565b60405161009d919061050e565b60405180910390f35b6100ae6102ad565b6040516100bb919061050e565b60405180910390f35b5f81815481106100d2575f80fd5b905f5260205f20015f9150905080546100ea9061055b565b80601f01602080910402602001604051908101604052809291908181526020018280546101169061055b565b80156101615780601f1061013857610100808354040283529160200191610161565b820191905f5260205f20905b81548152906001019060200180831161014457829003601f168201915b505050505081565b5f610172610315565b9050808060018154018082558091505060019003905f5260205f20015f6040518060400160405280600481526020017f7a6b733300000000000000000000000000000000000000000000000000000000815250909190915090816101d69190610755565b5050565b60605f805480602002602001604051908101604052809291908181526020015f905b828210156102a4578382905f5260205f200180546102199061055b565b80601f01602080910402602001604051908101604052809291908181526020018280546102459061055b565b80156102905780601f1061026757610100808354040283529160200191610290565b820191905f5260205f20905b81548152906001019060200180831161027357829003601f168201915b5050505050815260200190600101906101fc565b50505050905090565b60605f6102b86101da565b90506040518060400160405280600481526020017f7a6b733400000000000000000000000000000000000000000000000000000000815250815f8151811061030357610302610824565b5b60200260200101819052508091505090565b5f90565b5f80fd5b5f819050919050565b61032f8161031d565b8114610339575f80fd5b50565b5f8135905061034a81610326565b92915050565b5f6020828403121561036557610364610319565b5b5f6103728482850161033c565b91505092915050565b5f81519050919050565b5f82825260208201905092915050565b8281835e5f83830152505050565b5f601f19601f8301169050919050565b5f6103bd8261037b565b6103c78185610385565b93506103d7818560208601610395565b6103e0816103a3565b840191505092915050565b5f6020820190508181035f83015261040381846103b3565b905092915050565b5f81519050919050565b5f82825260208201905092915050565b5f819050602082019050919050565b5f82825260208201905092915050565b5f61044e8261037b565b6104588185610434565b9350610468818560208601610395565b610471816103a3565b840191505092915050565b5f6104878383610444565b905092915050565b5f602082019050919050565b5f6104a58261040b565b6104af8185610415565b9350836020820285016104c185610425565b805f5b858110156104fc57848403895281516104dd858261047c565b94506104e88361048f565b925060208a019950506001810190506104c4565b50829750879550505050505092915050565b5f6020820190508181035f830152610526818461049b565b905092915050565b7f4e487b71000000000000000000000000000000000000000000000000000000005f52602260045260245ffd5b5f600282049050600182168061057257607f821691505b6020821081036105855761058461052e565b5b50919050565b7f4e487b71000000000000000000000000000000000000000000000000000000005f52604160045260245ffd5b5f819050815f5260205f209050919050565b5f6020601f8301049050919050565b5f82821b905092915050565b5f600883026106147fffffffffffffffffffffffffffffffffffffffffffffffffffffffffffffffff826105d9565b61061e86836105d9565b95508019841693508086168417925050509392505050565b5f819050919050565b5f61065961065461064f8461031d565b610636565b61031d565b9050919050565b5f819050919050565b6106728361063f565b61068661067e82610660565b8484546105e5565b825550505050565b5f90565b61069a61068e565b6106a5818484610669565b505050565b5b818110156106c8576106bd5f82610692565b6001810190506106ab565b5050565b601f82111561070d576106de816105b8565b6106e7846105ca565b810160208510156106f6578190505b61070a610702856105ca565b8301826106aa565b50505b505050565b5f82821c905092915050565b5f61072d5f1984600802610712565b1980831691505092915050565b5f610745838361071e565b9150826002028217905092915050565b61075e8261037b565b67ffffffffffffffff8111156107775761077661058b565b5b610781825461055b565b61078c8282856106cc565b5f60209050601f8311600181146107bd575f84156107ab578287015190505b6107b5858261073a565b86555061081c565b601f1984166107cb866105b8565b5f5b828110156107f2578489015182556001820191506020850194506020810190506107cd565b8683101561080f578489015161080b601f89168261071e565b8355505b6001600288020188555050505b505050505050565b7f4e487b71000000000000000000000000000000000000000000000000000000005f52603260045260245ffdfea2646970667358221220aced54fbe0e9b84e47156170a589b1958ca7d0e44de11036a83afa3f0ea260b964736f6c634300081a0033",
					"opcodes": "PUSH1 0x80 PUSH1 0x40 MSTORE CALLVALUE DUP1 ISZERO PUSH2 0xF JUMPI PUSH0 DUP1 REVERT JUMPDEST POP PUSH0 DUP1 PUSH1 0x1 DUP2 SLOAD ADD DUP1 DUP3 SSTORE DUP1 SWAP2 POP POP PUSH1 0x1 SWAP1 SUB SWAP1 PUSH0 MSTORE PUSH1 0x20 PUSH0 KECCAK256 ADD PUSH0 PUSH1 0x40 MLOAD DUP1 PUSH1 0x40 ADD PUSH1 0x40 MSTORE DUP1 PUSH1 0x4 DUP2 MSTORE PUSH1 0x20 ADD PUSH32 0x7A6B733100000000000000000000000000000000000000000000000000000000 DUP2 MSTORE POP SWAP1 SWAP2 SWAP1 SWAP2 POP SWAP1 DUP2 PUSH2 0x72 SWAP2 SWAP1 PUSH2 0x315 JUMP JUMPDEST POP PUSH0 DUP1 PUSH1 0x1 DUP2 SLOAD ADD DUP1 DUP3 SSTORE DUP1 SWAP2 POP POP PUSH1 0x1 SWAP1 SUB SWAP1 PUSH0 MSTORE PUSH1 0x20 PUSH0 KECCAK256 ADD PUSH0 PUSH1 0x40 MLOAD DUP1 PUSH1 0x40 ADD PUSH1 0x40 MSTORE DUP1 PUSH1 0x4 DUP2 MSTORE PUSH1 0x20 ADD PUSH32 0x7A6B733200000000000000000000000000000000000000000000000000000000 DUP2 MSTORE POP SWAP1 SWAP2 SWAP1 SWAP2 POP SWAP1 DUP2 PUSH2 0xD5 SWAP2 SWAP1 PUSH2 0x315 JUMP JUMPDEST POP PUSH2 0x3E4 JUMP JUMPDEST PUSH0 DUP2 MLOAD SWAP1 POP SWAP2 SWAP1 POP JUMP JUMPDEST PUSH32 0x4E487B7100000000000000000000000000000000000000000000000000000000 PUSH0 MSTORE PUSH1 0x41 PUSH1 0x4 MSTORE PUSH1 0x24 PUSH0 REVERT JUMPDEST PUSH32 0x4E487B7100000000000000000000000000000000000000000000000000000000 PUSH0 MSTORE PUSH1 0x22 PUSH1 0x4 MSTORE PUSH1 0x24 PUSH0 REVERT JUMPDEST PUSH0 PUSH1 0x2 DUP3 DIV SWAP1 POP PUSH1 0x1 DUP3 AND DUP1 PUSH2 0x156 JUMPI PUSH1 0x7F DUP3 AND SWAP2 POP JUMPDEST PUSH1 0x20 DUP3 LT DUP2 SUB PUSH2 0x169 JUMPI PUSH2 0x168 PUSH2 0x112 JUMP JUMPDEST JUMPDEST POP SWAP2 SWAP1 POP JUMP JUMPDEST PUSH0 DUP2 SWAP1 POP DUP2 PUSH0 MSTORE PUSH1 0x20 PUSH0 KECCAK256 SWAP1 POP SWAP2 SWAP1 POP JUMP JUMPDEST PUSH0 PUSH1 0x20 PUSH1 0x1F DUP4 ADD DIV SWAP1 POP SWAP2 SWAP1 POP JUMP JUMPDEST PUSH0 DUP3 DUP3 SHL SWAP1 POP SWAP3 SWAP2 POP POP JUMP JUMPDEST PUSH0 PUSH1 0x8 DUP4 MUL PUSH2 0x1CB PUSH32 0xFFFFFFFFFFFFFFFFFFFFFFFFFFFFFFFFFFFFFFFFFFFFFFFFFFFFFFFFFFFFFFFF DUP3 PUSH2 0x190 JUMP JUMPDEST PUSH2 0x1D5 DUP7 DUP4 PUSH2 0x190 JUMP JUMPDEST SWAP6 POP DUP1 NOT DUP5 AND SWAP4 POP DUP1 DUP7 AND DUP5 OR SWAP3 POP POP POP SWAP4 SWAP3 POP POP POP JUMP JUMPDEST PUSH0 DUP2 SWAP1 POP SWAP2 SWAP1 POP JUMP JUMPDEST PUSH0 DUP2 SWAP1 POP SWAP2 SWAP1 POP JUMP JUMPDEST PUSH0 PUSH2 0x219 PUSH2 0x214 PUSH2 0x20F DUP5 PUSH2 0x1ED JUMP JUMPDEST PUSH2 0x1F6 JUMP JUMPDEST PUSH2 0x1ED JUMP JUMPDEST SWAP1 POP SWAP2 SWAP1 POP JUMP JUMPDEST PUSH0 DUP2 SWAP1 POP SWAP2 SWAP1 POP JUMP JUMPDEST PUSH2 0x232 DUP4 PUSH2 0x1FF JUMP JUMPDEST PUSH2 0x246 PUSH2 0x23E DUP3 PUSH2 0x220 JUMP JUMPDEST DUP5 DUP5 SLOAD PUSH2 0x19C JUMP JUMPDEST DUP3 SSTORE POP POP POP POP JUMP JUMPDEST PUSH0 SWAP1 JUMP JUMPDEST PUSH2 0x25A PUSH2 0x24E JUMP JUMPDEST PUSH2 0x265 DUP2 DUP5 DUP5 PUSH2 0x229 JUMP JUMPDEST POP POP POP JUMP JUMPDEST JUMPDEST DUP2 DUP2 LT ISZERO PUSH2 0x288 JUMPI PUSH2 0x27D PUSH0 DUP3 PUSH2 0x252 JUMP JUMPDEST PUSH1 0x1 DUP2 ADD SWAP1 POP PUSH2 0x26B JUMP JUMPDEST POP POP JUMP JUMPDEST PUSH1 0x1F DUP3 GT ISZERO PUSH2 0x2CD JUMPI PUSH2 0x29E DUP2 PUSH2 0x16F JUMP JUMPDEST PUSH2 0x2A7 DUP5 PUSH2 0x181 JUMP JUMPDEST DUP2 ADD PUSH1 0x20 DUP6 LT ISZERO PUSH2 0x2B6 JUMPI DUP2 SWAP1 POP JUMPDEST PUSH2 0x2CA PUSH2 0x2C2 DUP6 PUSH2 0x181 JUMP JUMPDEST DUP4 ADD DUP3 PUSH2 0x26A JUMP JUMPDEST POP POP JUMPDEST POP POP POP JUMP JUMPDEST PUSH0 DUP3 DUP3 SHR SWAP1 POP SWAP3 SWAP2 POP POP JUMP JUMPDEST PUSH0 PUSH2 0x2ED PUSH0 NOT DUP5 PUSH1 0x8 MUL PUSH2 0x2D2 JUMP JUMPDEST NOT DUP1 DUP4 AND SWAP2 POP POP SWAP3 SWAP2 POP POP JUMP JUMPDEST PUSH0 PUSH2 0x305 DUP4 DUP4 PUSH2 0x2DE JUMP JUMPDEST SWAP2 POP DUP3 PUSH1 0x2 MUL DUP3 OR SWAP1 POP SWAP3 SWAP2 POP POP JUMP JUMPDEST PUSH2 0x31E DUP3 PUSH2 0xDB JUMP JUMPDEST PUSH8 0xFFFFFFFFFFFFFFFF DUP2 GT ISZERO PUSH2 0x337 JUMPI PUSH2 0x336 PUSH2 0xE5 JUMP JUMPDEST JUMPDEST PUSH2 0x341 DUP3 SLOAD PUSH2 0x13F JUMP JUMPDEST PUSH2 0x34C DUP3 DUP3 DUP6 PUSH2 0x28C JUMP JUMPDEST PUSH0 PUSH1 0x20 SWAP1 POP PUSH1 0x1F DUP4 GT PUSH1 0x1 DUP2 EQ PUSH2 0x37D JUMPI PUSH0 DUP5 ISZERO PUSH2 0x36B JUMPI DUP3 DUP8 ADD MLOAD SWAP1 POP JUMPDEST PUSH2 0x375 DUP6 DUP3 PUSH2 0x2FA JUMP JUMPDEST DUP7 SSTORE POP PUSH2 0x3DC JUMP JUMPDEST PUSH1 0x1F NOT DUP5 AND PUSH2 0x38B DUP7 PUSH2 0x16F JUMP JUMPDEST PUSH0 JUMPDEST DUP3 DUP2 LT ISZERO PUSH2 0x3B2 JUMPI DUP5 DUP10 ADD MLOAD DUP3 SSTORE PUSH1 0x1 DUP3 ADD SWAP2 POP PUSH1 0x20 DUP6 ADD SWAP5 POP PUSH1 0x20 DUP2 ADD SWAP1 POP PUSH2 0x38D JUMP JUMPDEST DUP7 DUP4 LT ISZERO PUSH2 0x3CF JUMPI DUP5 DUP10 ADD MLOAD PUSH2 0x3CB PUSH1 0x1F DUP10 AND DUP3 PUSH2 0x2DE JUMP JUMPDEST DUP4 SSTORE POP JUMPDEST PUSH1 0x1 PUSH1 0x2 DUP9 MUL ADD DUP9 SSTORE POP POP POP JUMPDEST POP POP POP POP POP POP JUMP JUMPDEST PUSH2 0x887 DUP1 PUSH2 0x3F1 PUSH0 CODECOPY PUSH0 RETURN INVALID PUSH1 0x80 PUSH1 0x40 MSTORE CALLVALUE DUP1 ISZERO PUSH2 0xF JUMPI PUSH0 DUP1 REVERT JUMPDEST POP PUSH1 0x4 CALLDATASIZE LT PUSH2 0x4A JUMPI PUSH0 CALLDATALOAD PUSH1 0xE0 SHR DUP1 PUSH4 0x4622AB03 EQ PUSH2 0x4E JUMPI DUP1 PUSH4 0x4829FD86 EQ PUSH2 0x7E JUMPI DUP1 PUSH4 0x6458D8A2 EQ PUSH2 0x88 JUMPI DUP1 PUSH4 0xA8827021 EQ PUSH2 0xA6 JUMPI JUMPDEST PUSH0 DUP1 REVERT JUMPDEST PUSH2 0x68 PUSH1 0x4 DUP1 CALLDATASIZE SUB DUP2 ADD SWAP1 PUSH2 0x63 SWAP2 SWAP1 PUSH2 0x350 JUMP JUMPDEST PUSH2 0xC4 JUMP JUMPDEST PUSH1 0x40 MLOAD PUSH2 0x75 SWAP2 SWAP1 PUSH2 0x3EB JUMP JUMPDEST PUSH1 0x40 MLOAD DUP1 SWAP2 SUB SWAP1 RETURN JUMPDEST PUSH2 0x86 PUSH2 0x169 JUMP JUMPDEST STOP JUMPDEST PUSH2 0x90 PUSH2 0x1DA JUMP JUMPDEST PUSH1 0x40 MLOAD PUSH2 0x9D SWAP2 SWAP1 PUSH2 0x50E JUMP JUMPDEST PUSH1 0x40 MLOAD DUP1 SWAP2 SUB SWAP1 RETURN JUMPDEST PUSH2 0xAE PUSH2 0x2AD JUMP JUMPDEST PUSH1 0x40 MLOAD PUSH2 0xBB SWAP2 SWAP1 PUSH2 0x50E JUMP JUMPDEST PUSH1 0x40 MLOAD DUP1 SWAP2 SUB SWAP1 RETURN JUMPDEST PUSH0 DUP2 DUP2 SLOAD DUP2 LT PUSH2 0xD2 JUMPI PUSH0 DUP1 REVERT JUMPDEST SWAP1 PUSH0 MSTORE PUSH1 0x20 PUSH0 KECCAK256 ADD PUSH0 SWAP2 POP SWAP1 POP DUP1 SLOAD PUSH2 0xEA SWAP1 PUSH2 0x55B JUMP JUMPDEST DUP1 PUSH1 0x1F ADD PUSH1 0x20 DUP1 SWAP2 DIV MUL PUSH1 0x20 ADD PUSH1 0x40 MLOAD SWAP1 DUP2 ADD PUSH1 0x40 MSTORE DUP1 SWAP3 SWAP2 SWAP1 DUP2 DUP2 MSTORE PUSH1 0x20 ADD DUP3 DUP1 SLOAD PUSH2 0x116 SWAP1 PUSH2 0x55B JUMP JUMPDEST DUP1 ISZERO PUSH2 0x161 JUMPI DUP1 PUSH1 0x1F LT PUSH2 0x138 JUMPI PUSH2 0x100 DUP1 DUP4 SLOAD DIV MUL DUP4 MSTORE SWAP2 PUSH1 0x20 ADD SWAP2 PUSH2 0x161 JUMP JUMPDEST DUP3 ADD SWAP2 SWAP1 PUSH0 MSTORE PUSH1 0x20 PUSH0 KECCAK256 SWAP1 JUMPDEST DUP2 SLOAD DUP2 MSTORE SWAP1 PUSH1 0x1 ADD SWAP1 PUSH1 0x20 ADD DUP1 DUP4 GT PUSH2 0x144 JUMPI DUP3 SWAP1 SUB PUSH1 0x1F AND DUP3 ADD SWAP2 JUMPDEST POP POP POP POP POP DUP2 JUMP JUMPDEST PUSH0 PUSH2 0x172 PUSH2 0x315 JUMP JUMPDEST SWAP1 POP DUP1 DUP1 PUSH1 0x1 DUP2 SLOAD ADD DUP1 DUP3 SSTORE DUP1 SWAP2 POP POP PUSH1 0x1 SWAP1 SUB SWAP1 PUSH0 MSTORE PUSH1 0x20 PUSH0 KECCAK256 ADD PUSH0 PUSH1 0x40 MLOAD DUP1 PUSH1 0x40 ADD PUSH1 0x40 MSTORE DUP1 PUSH1 0x4 DUP2 MSTORE PUSH1 0x20 ADD PUSH32 0x7A6B733300000000000000000000000000000000000000000000000000000000 DUP2 MSTORE POP SWAP1 SWAP2 SWAP1 SWAP2 POP SWAP1 DUP2 PUSH2 0x1D6 SWAP2 SWAP1 PUSH2 0x755 JUMP JUMPDEST POP POP JUMP JUMPDEST PUSH1 0x60 PUSH0 DUP1 SLOAD DUP1 PUSH1 0x20 MUL PUSH1 0x20 ADD PUSH1 0x40 MLOAD SWAP1 DUP2 ADD PUSH1 0x40 MSTORE DUP1 SWAP3 SWAP2 SWAP1 DUP2 DUP2 MSTORE PUSH1 0x20 ADD PUSH0 SWAP1 JUMPDEST DUP3 DUP3 LT ISZERO PUSH2 0x2A4 JUMPI DUP4 DUP3 SWAP1 PUSH0 MSTORE PUSH1 0x20 PUSH0 KECCAK256 ADD DUP1 SLOAD PUSH2 0x219 SWAP1 PUSH2 0x55B JUMP JUMPDEST DUP1 PUSH1 0x1F ADD PUSH1 0x20 DUP1 SWAP2 DIV MUL PUSH1 0x20 ADD PUSH1 0x40 MLOAD SWAP1 DUP2 ADD PUSH1 0x40 MSTORE DUP1 SWAP3 SWAP2 SWAP1 DUP2 DUP2 MSTORE PUSH1 0x20 ADD DUP3 DUP1 SLOAD PUSH2 0x245 SWAP1 PUSH2 0x55B JUMP JUMPDEST DUP1 ISZERO PUSH2 0x290 JUMPI DUP1 PUSH1 0x1F LT PUSH2 0x267 JUMPI PUSH2 0x100 DUP1 DUP4 SLOAD DIV MUL DUP4 MSTORE SWAP2 PUSH1 0x20 ADD SWAP2 PUSH2 0x290 JUMP JUMPDEST DUP3 ADD SWAP2 SWAP1 PUSH0 MSTORE PUSH1 0x20 PUSH0 KECCAK256 SWAP1 JUMPDEST DUP2 SLOAD DUP2 MSTORE SWAP1 PUSH1 0x1 ADD SWAP1 PUSH1 0x20 ADD DUP1 DUP4 GT PUSH2 0x273 JUMPI DUP3 SWAP1 SUB PUSH1 0x1F AND DUP3 ADD SWAP2 JUMPDEST POP POP POP POP POP DUP2 MSTORE PUSH1 0x20 ADD SWAP1 PUSH1 0x1 ADD SWAP1 PUSH2 0x1FC JUMP JUMPDEST POP POP POP POP SWAP1 POP SWAP1 JUMP JUMPDEST PUSH1 0x60 PUSH0 PUSH2 0x2B8 PUSH2 0x1DA JUMP JUMPDEST SWAP1 POP PUSH1 0x40 MLOAD DUP1 PUSH1 0x40 ADD PUSH1 0x40 MSTORE DUP1 PUSH1 0x4 DUP2 MSTORE PUSH1 0x20 ADD PUSH32 0x7A6B733400000000000000000000000000000000000000000000000000000000 DUP2 MSTORE POP DUP2 PUSH0 DUP2 MLOAD DUP2 LT PUSH2 0x303 JUMPI PUSH2 0x302 PUSH2 0x824 JUMP JUMPDEST JUMPDEST PUSH1 0x20 MUL PUSH1 0x20 ADD ADD DUP2 SWAP1 MSTORE POP DUP1 SWAP2 POP POP SWAP1 JUMP JUMPDEST PUSH0 SWAP1 JUMP JUMPDEST PUSH0 DUP1 REVERT JUMPDEST PUSH0 DUP2 SWAP1 POP SWAP2 SWAP1 POP JUMP JUMPDEST PUSH2 0x32F DUP2 PUSH2 0x31D JUMP JUMPDEST DUP2 EQ PUSH2 0x339 JUMPI PUSH0 DUP1 REVERT JUMPDEST POP JUMP JUMPDEST PUSH0 DUP2 CALLDATALOAD SWAP1 POP PUSH2 0x34A DUP2 PUSH2 0x326 JUMP JUMPDEST SWAP3 SWAP2 POP POP JUMP JUMPDEST PUSH0 PUSH1 0x20 DUP3 DUP5 SUB SLT ISZERO PUSH2 0x365 JUMPI PUSH2 0x364 PUSH2 0x319 JUMP JUMPDEST JUMPDEST PUSH0 PUSH2 0x372 DUP5 DUP3 DUP6 ADD PUSH2 0x33C JUMP JUMPDEST SWAP2 POP POP SWAP3 SWAP2 POP POP JUMP JUMPDEST PUSH0 DUP2 MLOAD SWAP1 POP SWAP2 SWAP1 POP JUMP JUMPDEST PUSH0 DUP3 DUP3 MSTORE PUSH1 0x20 DUP3 ADD SWAP1 POP SWAP3 SWAP2 POP POP JUMP JUMPDEST DUP3 DUP2 DUP4 MCOPY PUSH0 DUP4 DUP4 ADD MSTORE POP POP POP JUMP JUMPDEST PUSH0 PUSH1 0x1F NOT PUSH1 0x1F DUP4 ADD AND SWAP1 POP SWAP2 SWAP1 POP JUMP JUMPDEST PUSH0 PUSH2 0x3BD DUP3 PUSH2 0x37B JUMP JUMPDEST PUSH2 0x3C7 DUP2 DUP6 PUSH2 0x385 JUMP JUMPDEST SWAP4 POP PUSH2 0x3D7 DUP2 DUP6 PUSH1 0x20 DUP7 ADD PUSH2 0x395 JUMP JUMPDEST PUSH2 0x3E0 DUP2 PUSH2 0x3A3 JUMP JUMPDEST DUP5 ADD SWAP2 POP POP SWAP3 SWAP2 POP POP JUMP JUMPDEST PUSH0 PUSH1 0x20 DUP3 ADD SWAP1 POP DUP2 DUP2 SUB PUSH0 DUP4 ADD MSTORE PUSH2 0x403 DUP2 DUP5 PUSH2 0x3B3 JUMP JUMPDEST SWAP1 POP SWAP3 SWAP2 POP POP JUMP JUMPDEST PUSH0 DUP2 MLOAD SWAP1 POP SWAP2 SWAP1 POP JUMP JUMPDEST PUSH0 DUP3 DUP3 MSTORE PUSH1 0x20 DUP3 ADD SWAP1 POP SWAP3 SWAP2 POP POP JUMP JUMPDEST PUSH0 DUP2 SWAP1 POP PUSH1 0x20 DUP3 ADD SWAP1 POP SWAP2 SWAP1 POP JUMP JUMPDEST PUSH0 DUP3 DUP3 MSTORE PUSH1 0x20 DUP3 ADD SWAP1 POP SWAP3 SWAP2 POP POP JUMP JUMPDEST PUSH0 PUSH2 0x44E DUP3 PUSH2 0x37B JUMP JUMPDEST PUSH2 0x458 DUP2 DUP6 PUSH2 0x434 JUMP JUMPDEST SWAP4 POP PUSH2 0x468 DUP2 DUP6 PUSH1 0x20 DUP7 ADD PUSH2 0x395 JUMP JUMPDEST PUSH2 0x471 DUP2 PUSH2 0x3A3 JUMP JUMPDEST DUP5 ADD SWAP2 POP POP SWAP3 SWAP2 POP POP JUMP JUMPDEST PUSH0 PUSH2 0x487 DUP4 DUP4 PUSH2 0x444 JUMP JUMPDEST SWAP1 POP SWAP3 SWAP2 POP POP JUMP JUMPDEST PUSH0 PUSH1 0x20 DUP3 ADD SWAP1 POP SWAP2 SWAP1 POP JUMP JUMPDEST PUSH0 PUSH2 0x4A5 DUP3 PUSH2 0x40B JUMP JUMPDEST PUSH2 0x4AF DUP2 DUP6 PUSH2 0x415 JUMP JUMPDEST SWAP4 POP DUP4 PUSH1 0x20 DUP3 MUL DUP6 ADD PUSH2 0x4C1 DUP6 PUSH2 0x425 JUMP JUMPDEST DUP1 PUSH0 JUMPDEST DUP6 DUP2 LT ISZERO PUSH2 0x4FC JUMPI DUP5 DUP5 SUB DUP10 MSTORE DUP2 MLOAD PUSH2 0x4DD DUP6 DUP3 PUSH2 0x47C JUMP JUMPDEST SWAP5 POP PUSH2 0x4E8 DUP4 PUSH2 0x48F JUMP JUMPDEST SWAP3 POP PUSH1 0x20 DUP11 ADD SWAP10 POP POP PUSH1 0x1 DUP2 ADD SWAP1 POP PUSH2 0x4C4 JUMP JUMPDEST POP DUP3 SWAP8 POP DUP8 SWAP6 POP POP POP POP POP POP SWAP3 SWAP2 POP POP JUMP JUMPDEST PUSH0 PUSH1 0x20 DUP3 ADD SWAP1 POP DUP2 DUP2 SUB PUSH0 DUP4 ADD MSTORE PUSH2 0x526 DUP2 DUP5 PUSH2 0x49B JUMP JUMPDEST SWAP1 POP SWAP3 SWAP2 POP POP JUMP JUMPDEST PUSH32 0x4E487B7100000000000000000000000000000000000000000000000000000000 PUSH0 MSTORE PUSH1 0x22 PUSH1 0x4 MSTORE PUSH1 0x24 PUSH0 REVERT JUMPDEST PUSH0 PUSH1 0x2 DUP3 DIV SWAP1 POP PUSH1 0x1 DUP3 AND DUP1 PUSH2 0x572 JUMPI PUSH1 0x7F DUP3 AND SWAP2 POP JUMPDEST PUSH1 0x20 DUP3 LT DUP2 SUB PUSH2 0x585 JUMPI PUSH2 0x584 PUSH2 0x52E JUMP JUMPDEST JUMPDEST POP SWAP2 SWAP1 POP JUMP JUMPDEST PUSH32 0x4E487B7100000000000000000000000000000000000000000000000000000000 PUSH0 MSTORE PUSH1 0x41 PUSH1 0x4 MSTORE PUSH1 0x24 PUSH0 REVERT JUMPDEST PUSH0 DUP2 SWAP1 POP DUP2 PUSH0 MSTORE PUSH1 0x20 PUSH0 KECCAK256 SWAP1 POP SWAP2 SWAP1 POP JUMP JUMPDEST PUSH0 PUSH1 0x20 PUSH1 0x1F DUP4 ADD DIV SWAP1 POP SWAP2 SWAP1 POP JUMP JUMPDEST PUSH0 DUP3 DUP3 SHL SWAP1 POP SWAP3 SWAP2 POP POP JUMP JUMPDEST PUSH0 PUSH1 0x8 DUP4 MUL PUSH2 0x614 PUSH32 0xFFFFFFFFFFFFFFFFFFFFFFFFFFFFFFFFFFFFFFFFFFFFFFFFFFFFFFFFFFFFFFFF DUP3 PUSH2 0x5D9 JUMP JUMPDEST PUSH2 0x61E DUP7 DUP4 PUSH2 0x5D9 JUMP JUMPDEST SWAP6 POP DUP1 NOT DUP5 AND SWAP4 POP DUP1 DUP7 AND DUP5 OR SWAP3 POP POP POP SWAP4 SWAP3 POP POP POP JUMP JUMPDEST PUSH0 DUP2 SWAP1 POP SWAP2 SWAP1 POP JUMP JUMPDEST PUSH0 PUSH2 0x659 PUSH2 0x654 PUSH2 0x64F DUP5 PUSH2 0x31D JUMP JUMPDEST PUSH2 0x636 JUMP JUMPDEST PUSH2 0x31D JUMP JUMPDEST SWAP1 POP SWAP2 SWAP1 POP JUMP JUMPDEST PUSH0 DUP2 SWAP1 POP SWAP2 SWAP1 POP JUMP JUMPDEST PUSH2 0x672 DUP4 PUSH2 0x63F JUMP JUMPDEST PUSH2 0x686 PUSH2 0x67E DUP3 PUSH2 0x660 JUMP JUMPDEST DUP5 DUP5 SLOAD PUSH2 0x5E5 JUMP JUMPDEST DUP3 SSTORE POP POP POP POP JUMP JUMPDEST PUSH0 SWAP1 JUMP JUMPDEST PUSH2 0x69A PUSH2 0x68E JUMP JUMPDEST PUSH2 0x6A5 DUP2 DUP5 DUP5 PUSH2 0x669 JUMP JUMPDEST POP POP POP JUMP JUMPDEST JUMPDEST DUP2 DUP2 LT ISZERO PUSH2 0x6C8 JUMPI PUSH2 0x6BD PUSH0 DUP3 PUSH2 0x692 JUMP JUMPDEST PUSH1 0x1 DUP2 ADD SWAP1 POP PUSH2 0x6AB JUMP JUMPDEST POP POP JUMP JUMPDEST PUSH1 0x1F DUP3 GT ISZERO PUSH2 0x70D JUMPI PUSH2 0x6DE DUP2 PUSH2 0x5B8 JUMP JUMPDEST PUSH2 0x6E7 DUP5 PUSH2 0x5CA JUMP JUMPDEST DUP2 ADD PUSH1 0x20 DUP6 LT ISZERO PUSH2 0x6F6 JUMPI DUP2 SWAP1 POP JUMPDEST PUSH2 0x70A PUSH2 0x702 DUP6 PUSH2 0x5CA JUMP JUMPDEST DUP4 ADD DUP3 PUSH2 0x6AA JUMP JUMPDEST POP POP JUMPDEST POP POP POP JUMP JUMPDEST PUSH0 DUP3 DUP3 SHR SWAP1 POP SWAP3 SWAP2 POP POP JUMP JUMPDEST PUSH0 PUSH2 0x72D PUSH0 NOT DUP5 PUSH1 0x8 MUL PUSH2 0x712 JUMP JUMPDEST NOT DUP1 DUP4 AND SWAP2 POP POP SWAP3 SWAP2 POP POP JUMP JUMPDEST PUSH0 PUSH2 0x745 DUP4 DUP4 PUSH2 0x71E JUMP JUMPDEST SWAP2 POP DUP3 PUSH1 0x2 MUL DUP3 OR SWAP1 POP SWAP3 SWAP2 POP POP JUMP JUMPDEST PUSH2 0x75E DUP3 PUSH2 0x37B JUMP JUMPDEST PUSH8 0xFFFFFFFFFFFFFFFF DUP2 GT ISZERO PUSH2 0x777 JUMPI PUSH2 0x776 PUSH2 0x58B JUMP JUMPDEST JUMPDEST PUSH2 0x781 DUP3 SLOAD PUSH2 0x55B JUMP JUMPDEST PUSH2 0x78C DUP3 DUP3 DUP6 PUSH2 0x6CC JUMP JUMPDEST PUSH0 PUSH1 0x20 SWAP1 POP PUSH1 0x1F DUP4 GT PUSH1 0x1 DUP2 EQ PUSH2 0x7BD JUMPI PUSH0 DUP5 ISZERO PUSH2 0x7AB JUMPI DUP3 DUP8 ADD MLOAD SWAP1 POP JUMPDEST PUSH2 0x7B5 DUP6 DUP3 PUSH2 0x73A JUMP JUMPDEST DUP7 SSTORE POP PUSH2 0x81C JUMP JUMPDEST PUSH1 0x1F NOT DUP5 AND PUSH2 0x7CB DUP7 PUSH2 0x5B8 JUMP JUMPDEST PUSH0 JUMPDEST DUP3 DUP2 LT ISZERO PUSH2 0x7F2 JUMPI DUP5 DUP10 ADD MLOAD DUP3 SSTORE PUSH1 0x1 DUP3 ADD SWAP2 POP PUSH1 0x20 DUP6 ADD SWAP5 POP PUSH1 0x20 DUP2 ADD SWAP1 POP PUSH2 0x7CD JUMP JUMPDEST DUP7 DUP4 LT ISZERO PUSH2 0x80F JUMPI DUP5 DUP10 ADD MLOAD PUSH2 0x80B PUSH1 0x1F DUP10 AND DUP3 PUSH2 0x71E JUMP JUMPDEST DUP4 SSTORE POP JUMPDEST PUSH1 0x1 PUSH1 0x2 DUP9 MUL ADD DUP9 SSTORE POP POP POP JUMPDEST POP POP POP POP POP POP JUMP JUMPDEST PUSH32 0x4E487B7100000000000000000000000000000000000000000000000000000000 PUSH0 MSTORE PUSH1 0x32 PUSH1 0x4 MSTORE PUSH1 0x24 PUSH0 REVERT INVALID LOG2 PUSH5 0x6970667358 0x22 SLT KECCAK256 0xAC 0xED SLOAD 0xFB 0xE0 0xE9 0xB8 0x4E SELFBALANCE ISZERO PUSH2 0x70A5 DUP10 0xB1 SWAP6 DUP13 0xA7 0xD0 0xE4 0x4D 0xE1 LT CALLDATASIZE 0xA8 GASPRICE STATICCALL EXTCODEHASH 0xE LOG2 PUSH1 0xB9 PUSH5 0x736F6C6343 STOP ADDMOD BYTE STOP CALLER "
				},
				"gasEstimates": {
					"creation": {
						"codeDepositCost": "436600",
						"executionCost": "infinite",
						"totalCost": "infinite"
					},
					"external": {
						"changeNamesMemory()": "infinite",
						"changeNamesStorage()": "infinite",
						"getNamesTemp()": "infinite",
						"names(uint256)": "infinite"
					},
					"internal": {
						"getNames()": "14"
					}
				},
				"methodIdentifiers": {
					"changeNamesMemory()": "a8827021",
					"changeNamesStorage()": "4829fd86",
					"getNamesTemp()": "6458d8a2",
					"names(uint256)": "4622ab03"
				}
			},
			"storageLayout": {
				"storage": [
					{
						"astId": 5,
						"contract": "test/ä½¿ç”¨storageä½œä¸ºè¿”å›å€¼çš„æƒ…å†µ.sol:StorageReturnTest",
						"label": "names",
						"offset": 0,
						"slot": "0",
						"type": "t_array(t_string_storage)dyn_storage"
					}
				],
				"types": {
					"t_array(t_string_storage)dyn_storage": {
						"base": "t_string_storage",
						"encoding": "dynamic_array",
						"label": "string[]",
						"numberOfBytes": "32"
					},
					"t_string_storage": {
						"encoding": "bytes",
						"label": "string",
						"numberOfBytes": "32"
					}
				}
			},
			"userdoc": {
				"kind": "user",
				"methods": {
					"getNamesTemp()": {
						"notice": "function changeNamesMemory() public { string[] memory t= getNamesTemp(); t.push(\"zks4\"); } è¿™ä¸ªåˆ—å­ä¼šæŠ¥é”™ï¼Œè¿”å›memory ,ä¸èƒ½æ‰§è¡Œpush ,é™¤éæ–°å»ºä¸€ä¸ª æ•°ç»„æ“ä½œå¯¹æ¯”ï¼šstorage å’Œ memory çš„ä¸åŒ æ“ä½œ/æ–¹æ³•\tstorage æ•°ç»„\tmemory æ•°ç»„ å£°æ˜æ•°ç»„\tå¯ä»¥å£°æ˜å’Œåˆå§‹åŒ–å¤§å°ï¼ˆåŠ¨æ€/é™æ€ï¼‰\tå¿…é¡»åœ¨å£°æ˜æ—¶æŒ‡å®šå¤§å°æˆ–é€šè¿‡ new åˆ›å»º ä¿®æ”¹å¤§å°\tå¯ä»¥ä½¿ç”¨ .push(), .pop() ç­‰åŠ¨æ€æ”¹å˜æ•°ç»„å¤§å°\tä¸å¯ä»¥ä½¿ç”¨ .push() æˆ– .pop() ä¿®æ”¹å…ƒç´ \tå¯ä»¥ç›´æ¥ä¿®æ”¹å…ƒç´ ï¼Œå¦‚ arr[i] = value;\tå¯ä»¥ä¿®æ”¹å…ƒç´ ï¼Œä½†æ•°ç»„å¤§å°ä¸å¯å˜ å¾ªç¯ä¿®æ”¹\tå¯ä»¥éå†å¹¶ä¿®æ”¹æ•°ç»„å…ƒç´ \tå¯ä»¥éå†å¹¶ä¿®æ”¹æ•°ç»„å…ƒç´  æ•°æ®å¤åˆ¶\tå¯ä»¥é€šè¿‡å¼•ç”¨å¤åˆ¶æ•°æ®ï¼Œä¿®æ”¹ä¼šå½±å“åŸå§‹æ•°æ®\tå¿…é¡»æ‰‹åŠ¨å¤åˆ¶æ•°æ®ï¼Œä¿®æ”¹ä¸ä¼šå½±å“åŸå§‹æ•°æ® å­˜å‚¨ç”Ÿå‘½å‘¨æœŸ\tæ°¸ä¹…å­˜å‚¨åœ¨åŒºå—é“¾ä¸Šï¼Œä¿®æ”¹ä¼šäº§ç”Ÿ gas æ¶ˆè€—\tä»…åœ¨å½“å‰å‡½æ•°è°ƒç”¨æœŸé—´æœ‰æ•ˆï¼Œæ‰§è¡Œå®Œåé”€æ¯*"
					}
				},
				"notice": "å½“è¿”å› storage æ—¶ï¼Œå‡½æ•°è¿”å›çš„æ˜¯çŠ¶æ€å˜é‡çš„å¼•ç”¨ï¼ˆæŒ‡é’ˆï¼‰ï¼Œè€Œä¸æ˜¯æ•°æ®å‰¯æœ¬ï¼Œå› æ­¤å¯ä»¥ç›´æ¥ä¿®æ”¹åˆçº¦çš„çŠ¶æ€å˜é‡ã€‚ ğŸ“Œ 1. ä»€ä¹ˆæ—¶å€™å¯ä»¥ç”¨ storage ä½œä¸ºè¿”å›å€¼ï¼Ÿ âœ… é€‚ç”¨åœºæ™¯ï¼š è¿”å›åˆçº¦å†…éƒ¨çš„ storage çŠ¶æ€å˜é‡çš„å¼•ç”¨ åªèƒ½ç”¨äº internal æˆ– private å‡½æ•° é€‚ç”¨äºæ•°ç»„ã€æ˜ å°„ï¼ˆmappingï¼‰ã€ç»“æ„ä½“ï¼ˆstructï¼‰ string èŠ‚çœ gasï¼ˆé¿å… memory æ‹·è´ï¼‰ âŒ ä¸èƒ½ç”¨äº public æˆ– external è¿™æ ·åšä¼šæš´éœ² storage å˜é‡çš„å¼•ç”¨ï¼Œå¯èƒ½å¯¼è‡´å¤–éƒ¨åˆçº¦ç›´æ¥ä¿®æ”¹åˆçº¦å­˜å‚¨æ•°æ®ï¼Œé€ æˆå®‰å…¨é—®é¢˜ã€‚",
				"version": 1
			}
		}
	}
}