{
	"test/test.sol": {
		"HelloWorld": {
			"abi": [
				{
					"inputs": [],
					"name": "sayHello",
					"outputs": [
						{
							"internalType": "string",
							"name": "",
							"type": "string"
						}
					],
					"stateMutability": "view",
					"type": "function"
				}
			],
			"devdoc": {
				"kind": "dev",
				"methods": {},
				"version": 1
			},
			"evm": {
				"assembly": "    /* \"test/test.sol\":94:292  contract HelloWorld {... */\n  mstore(0x40, 0x80)\n    /* \"test/test.sol\":129:131  10 */\n  0x0a\n    /* \"test/test.sol\":121:131  int a = 10 */\n  0x00\n  sstore\n    /* \"test/test.sol\":152:153  a */\n  sload(0x00)\n    /* \"test/test.sol\":144:151  0.5+0.5 */\n  0x01\n    /* \"test/test.sol\":144:153  0.5+0.5+a */\n  tag_1\n  swap2\n  swap1\n  tag_2\n  jump\t// in\ntag_1:\n    /* \"test/test.sol\":138:153  int c=0.5+0.5+a */\n  0x01\n  sstore\n    /* \"test/test.sol\":162:189  string strVar=\"hello world\" */\n  mload(0x40)\n  dup1\n  0x40\n  add\n  0x40\n  mstore\n  dup1\n  0x0b\n  dup2\n  mstore\n  0x20\n  add\n  0x68656c6c6f20776f726c64000000000000000000000000000000000000000000\n  dup2\n  mstore\n  pop\n  0x02\n  swap1\n  dup2\n  tag_3\n  swap2\n  swap1\n  tag_4\n  jump\t// in\ntag_3:\n  pop\n    /* \"test/test.sol\":94:292  contract HelloWorld {... */\n  callvalue\n  dup1\n  iszero\n  tag_5\n  jumpi\n  0x00\n  dup1\n  revert\ntag_5:\n  pop\n  jump(tag_6)\n    /* \"#utility.yul\":7:83   */\ntag_7:\n    /* \"#utility.yul\":43:50   */\n  0x00\n    /* \"#utility.yul\":72:77   */\n  dup2\n    /* \"#utility.yul\":61:77   */\n  swap1\n  pop\n    /* \"#utility.yul\":7:83   */\n  swap2\n  swap1\n  pop\n  jump\t// out\n    /* \"#utility.yul\":89:269   */\ntag_8:\n    /* \"#utility.yul\":137:214   */\n  0x4e487b7100000000000000000000000000000000000000000000000000000000\n    /* \"#utility.yul\":134:135   */\n  0x00\n    /* \"#utility.yul\":127:215   */\n  mstore\n    /* \"#utility.yul\":234:238   */\n  0x11\n    /* \"#utility.yul\":231:232   */\n  0x04\n    /* \"#utility.yul\":224:239   */\n  mstore\n    /* \"#utility.yul\":258:262   */\n  0x24\n    /* \"#utility.yul\":255:256   */\n  0x00\n    /* \"#utility.yul\":248:263   */\n  revert\n    /* \"#utility.yul\":275:650   */\ntag_2:\n    /* \"#utility.yul\":314:317   */\n  0x00\n    /* \"#utility.yul\":333:352   */\n  tag_33\n    /* \"#utility.yul\":350:351   */\n  dup3\n    /* \"#utility.yul\":333:352   */\n  tag_7\n  jump\t// in\ntag_33:\n    /* \"#utility.yul\":328:352   */\n  swap2\n  pop\n    /* \"#utility.yul\":366:385   */\n  tag_34\n    /* \"#utility.yul\":383:384   */\n  dup4\n    /* \"#utility.yul\":366:385   */\n  tag_7\n  jump\t// in\ntag_34:\n    /* \"#utility.yul\":361:385   */\n  swap3\n  pop\n    /* \"#utility.yul\":408:409   */\n  dup3\n    /* \"#utility.yul\":405:406   */\n  dup3\n    /* \"#utility.yul\":401:410   */\n  add\n    /* \"#utility.yul\":394:410   */\n  swap1\n  pop\n    /* \"#utility.yul\":606:607   */\n  dup3\n    /* \"#utility.yul\":601:604   */\n  dup2\n    /* \"#utility.yul\":597:608   */\n  slt\n    /* \"#utility.yul\":590:609   */\n  iszero\n    /* \"#utility.yul\":586:587   */\n  0x00\n    /* \"#utility.yul\":583:584   */\n  dup4\n    /* \"#utility.yul\":579:588   */\n  slt\n    /* \"#utility.yul\":575:610   */\n  and\n    /* \"#utility.yul\":558:559   */\n  dup4\n    /* \"#utility.yul\":553:556   */\n  dup3\n    /* \"#utility.yul\":549:560   */\n  slt\n    /* \"#utility.yul\":544:545   */\n  0x00\n    /* \"#utility.yul\":541:542   */\n  dup5\n    /* \"#utility.yul\":537:546   */\n  slt\n    /* \"#utility.yul\":530:547   */\n  iszero\n    /* \"#utility.yul\":526:561   */\n  and\n    /* \"#utility.yul\":510:620   */\n  or\n    /* \"#utility.yul\":507:643   */\n  iszero\n  tag_35\n  jumpi\n    /* \"#utility.yul\":623:641   */\n  tag_36\n  tag_8\n  jump\t// in\ntag_36:\n    /* \"#utility.yul\":507:643   */\ntag_35:\n    /* \"#utility.yul\":275:650   */\n  swap3\n  swap2\n  pop\n  pop\n  jump\t// out\n    /* \"#utility.yul\":656:755   */\ntag_9:\n    /* \"#utility.yul\":708:714   */\n  0x00\n    /* \"#utility.yul\":742:747   */\n  dup2\n    /* \"#utility.yul\":736:748   */\n  mload\n    /* \"#utility.yul\":726:748   */\n  swap1\n  pop\n    /* \"#utility.yul\":656:755   */\n  swap2\n  swap1\n  pop\n  jump\t// out\n    /* \"#utility.yul\":761:941   */\ntag_10:\n    /* \"#utility.yul\":809:886   */\n  0x4e487b7100000000000000000000000000000000000000000000000000000000\n    /* \"#utility.yul\":806:807   */\n  0x00\n    /* \"#utility.yul\":799:887   */\n  mstore\n    /* \"#utility.yul\":906:910   */\n  0x41\n    /* \"#utility.yul\":903:904   */\n  0x04\n    /* \"#utility.yul\":896:911   */\n  mstore\n    /* \"#utility.yul\":930:934   */\n  0x24\n    /* \"#utility.yul\":927:928   */\n  0x00\n    /* \"#utility.yul\":920:935   */\n  revert\n    /* \"#utility.yul\":947:1127   */\ntag_11:\n    /* \"#utility.yul\":995:1072   */\n  0x4e487b7100000000000000000000000000000000000000000000000000000000\n    /* \"#utility.yul\":992:993   */\n  0x00\n    /* \"#utility.yul\":985:1073   */\n  mstore\n    /* \"#utility.yul\":1092:1096   */\n  0x22\n    /* \"#utility.yul\":1089:1090   */\n  0x04\n    /* \"#utility.yul\":1082:1097   */\n  mstore\n    /* \"#utility.yul\":1116:1120   */\n  0x24\n    /* \"#utility.yul\":1113:1114   */\n  0x00\n    /* \"#utility.yul\":1106:1121   */\n  revert\n    /* \"#utility.yul\":1133:1453   */\ntag_12:\n    /* \"#utility.yul\":1177:1183   */\n  0x00\n    /* \"#utility.yul\":1214:1215   */\n  0x02\n    /* \"#utility.yul\":1208:1212   */\n  dup3\n    /* \"#utility.yul\":1204:1216   */\n  div\n    /* \"#utility.yul\":1194:1216   */\n  swap1\n  pop\n    /* \"#utility.yul\":1261:1262   */\n  0x01\n    /* \"#utility.yul\":1255:1259   */\n  dup3\n    /* \"#utility.yul\":1251:1263   */\n  and\n    /* \"#utility.yul\":1282:1300   */\n  dup1\n    /* \"#utility.yul\":1272:1353   */\n  tag_41\n  jumpi\n    /* \"#utility.yul\":1338:1342   */\n  0x7f\n    /* \"#utility.yul\":1330:1336   */\n  dup3\n    /* \"#utility.yul\":1326:1343   */\n  and\n    /* \"#utility.yul\":1316:1343   */\n  swap2\n  pop\n    /* \"#utility.yul\":1272:1353   */\ntag_41:\n    /* \"#utility.yul\":1400:1402   */\n  0x20\n    /* \"#utility.yul\":1392:1398   */\n  dup3\n    /* \"#utility.yul\":1389:1403   */\n  lt\n    /* \"#utility.yul\":1369:1387   */\n  dup2\n    /* \"#utility.yul\":1366:1404   */\n  sub\n    /* \"#utility.yul\":1363:1447   */\n  tag_42\n  jumpi\n    /* \"#utility.yul\":1419:1437   */\n  tag_43\n  tag_11\n  jump\t// in\ntag_43:\n    /* \"#utility.yul\":1363:1447   */\ntag_42:\n    /* \"#utility.yul\":1184:1453   */\n  pop\n    /* \"#utility.yul\":1133:1453   */\n  swap2\n  swap1\n  pop\n  jump\t// out\n    /* \"#utility.yul\":1459:1600   */\ntag_13:\n    /* \"#utility.yul\":1508:1512   */\n  0x00\n    /* \"#utility.yul\":1531:1534   */\n  dup2\n    /* \"#utility.yul\":1523:1534   */\n  swap1\n  pop\n    /* \"#utility.yul\":1554:1557   */\n  dup2\n    /* \"#utility.yul\":1551:1552   */\n  0x00\n    /* \"#utility.yul\":1544:1558   */\n  mstore\n    /* \"#utility.yul\":1588:1592   */\n  0x20\n    /* \"#utility.yul\":1585:1586   */\n  0x00\n    /* \"#utility.yul\":1575:1593   */\n  keccak256\n    /* \"#utility.yul\":1567:1593   */\n  swap1\n  pop\n    /* \"#utility.yul\":1459:1600   */\n  swap2\n  swap1\n  pop\n  jump\t// out\n    /* \"#utility.yul\":1606:1699   */\ntag_14:\n    /* \"#utility.yul\":1643:1649   */\n  0x00\n    /* \"#utility.yul\":1690:1692   */\n  0x20\n    /* \"#utility.yul\":1685:1687   */\n  0x1f\n    /* \"#utility.yul\":1678:1683   */\n  dup4\n    /* \"#utility.yul\":1674:1688   */\n  add\n    /* \"#utility.yul\":1670:1693   */\n  div\n    /* \"#utility.yul\":1660:1693   */\n  swap1\n  pop\n    /* \"#utility.yul\":1606:1699   */\n  swap2\n  swap1\n  pop\n  jump\t// out\n    /* \"#utility.yul\":1705:1812   */\ntag_15:\n    /* \"#utility.yul\":1749:1757   */\n  0x00\n    /* \"#utility.yul\":1799:1804   */\n  dup3\n    /* \"#utility.yul\":1793:1797   */\n  dup3\n    /* \"#utility.yul\":1789:1805   */\n  shl\n    /* \"#utility.yul\":1768:1805   */\n  swap1\n  pop\n    /* \"#utility.yul\":1705:1812   */\n  swap3\n  swap2\n  pop\n  pop\n  jump\t// out\n    /* \"#utility.yul\":1818:2211   */\ntag_16:\n    /* \"#utility.yul\":1887:1893   */\n  0x00\n    /* \"#utility.yul\":1937:1938   */\n  0x08\n    /* \"#utility.yul\":1925:1935   */\n  dup4\n    /* \"#utility.yul\":1921:1939   */\n  mul\n    /* \"#utility.yul\":1960:2057   */\n  tag_48\n    /* \"#utility.yul\":1990:2056   */\n  0xffffffffffffffffffffffffffffffffffffffffffffffffffffffffffffffff\n    /* \"#utility.yul\":1979:1988   */\n  dup3\n    /* \"#utility.yul\":1960:2057   */\n  tag_15\n  jump\t// in\ntag_48:\n    /* \"#utility.yul\":2078:2117   */\n  tag_49\n    /* \"#utility.yul\":2108:2116   */\n  dup7\n    /* \"#utility.yul\":2097:2106   */\n  dup4\n    /* \"#utility.yul\":2078:2117   */\n  tag_15\n  jump\t// in\ntag_49:\n    /* \"#utility.yul\":2066:2117   */\n  swap6\n  pop\n    /* \"#utility.yul\":2150:2154   */\n  dup1\n    /* \"#utility.yul\":2146:2155   */\n  not\n    /* \"#utility.yul\":2139:2144   */\n  dup5\n    /* \"#utility.yul\":2135:2156   */\n  and\n    /* \"#utility.yul\":2126:2156   */\n  swap4\n  pop\n    /* \"#utility.yul\":2199:2203   */\n  dup1\n    /* \"#utility.yul\":2189:2197   */\n  dup7\n    /* \"#utility.yul\":2185:2204   */\n  and\n    /* \"#utility.yul\":2178:2183   */\n  dup5\n    /* \"#utility.yul\":2175:2205   */\n  or\n    /* \"#utility.yul\":2165:2205   */\n  swap3\n  pop\n    /* \"#utility.yul\":1894:2211   */\n  pop\n  pop\n    /* \"#utility.yul\":1818:2211   */\n  swap4\n  swap3\n  pop\n  pop\n  pop\n  jump\t// out\n    /* \"#utility.yul\":2217:2294   */\ntag_17:\n    /* \"#utility.yul\":2254:2261   */\n  0x00\n    /* \"#utility.yul\":2283:2288   */\n  dup2\n    /* \"#utility.yul\":2272:2288   */\n  swap1\n  pop\n    /* \"#utility.yul\":2217:2294   */\n  swap2\n  swap1\n  pop\n  jump\t// out\n    /* \"#utility.yul\":2300:2360   */\ntag_18:\n    /* \"#utility.yul\":2328:2331   */\n  0x00\n    /* \"#utility.yul\":2349:2354   */\n  dup2\n    /* \"#utility.yul\":2342:2354   */\n  swap1\n  pop\n    /* \"#utility.yul\":2300:2360   */\n  swap2\n  swap1\n  pop\n  jump\t// out\n    /* \"#utility.yul\":2366:2508   */\ntag_19:\n    /* \"#utility.yul\":2416:2425   */\n  0x00\n    /* \"#utility.yul\":2449:2502   */\n  tag_53\n    /* \"#utility.yul\":2467:2501   */\n  tag_54\n    /* \"#utility.yul\":2476:2500   */\n  tag_55\n    /* \"#utility.yul\":2494:2499   */\n  dup5\n    /* \"#utility.yul\":2476:2500   */\n  tag_17\n  jump\t// in\ntag_55:\n    /* \"#utility.yul\":2467:2501   */\n  tag_18\n  jump\t// in\ntag_54:\n    /* \"#utility.yul\":2449:2502   */\n  tag_17\n  jump\t// in\ntag_53:\n    /* \"#utility.yul\":2436:2502   */\n  swap1\n  pop\n    /* \"#utility.yul\":2366:2508   */\n  swap2\n  swap1\n  pop\n  jump\t// out\n    /* \"#utility.yul\":2514:2589   */\ntag_20:\n    /* \"#utility.yul\":2557:2560   */\n  0x00\n    /* \"#utility.yul\":2578:2583   */\n  dup2\n    /* \"#utility.yul\":2571:2583   */\n  swap1\n  pop\n    /* \"#utility.yul\":2514:2589   */\n  swap2\n  swap1\n  pop\n  jump\t// out\n    /* \"#utility.yul\":2595:2864   */\ntag_21:\n    /* \"#utility.yul\":2705:2744   */\n  tag_58\n    /* \"#utility.yul\":2736:2743   */\n  dup4\n    /* \"#utility.yul\":2705:2744   */\n  tag_19\n  jump\t// in\ntag_58:\n    /* \"#utility.yul\":2766:2857   */\n  tag_59\n    /* \"#utility.yul\":2815:2856   */\n  tag_60\n    /* \"#utility.yul\":2839:2855   */\n  dup3\n    /* \"#utility.yul\":2815:2856   */\n  tag_20\n  jump\t// in\ntag_60:\n    /* \"#utility.yul\":2807:2813   */\n  dup5\n    /* \"#utility.yul\":2800:2804   */\n  dup5\n    /* \"#utility.yul\":2794:2805   */\n  sload\n    /* \"#utility.yul\":2766:2857   */\n  tag_16\n  jump\t// in\ntag_59:\n    /* \"#utility.yul\":2760:2764   */\n  dup3\n    /* \"#utility.yul\":2753:2858   */\n  sstore\n    /* \"#utility.yul\":2671:2864   */\n  pop\n    /* \"#utility.yul\":2595:2864   */\n  pop\n  pop\n  pop\n  jump\t// out\n    /* \"#utility.yul\":2870:2943   */\ntag_22:\n    /* \"#utility.yul\":2915:2918   */\n  0x00\n    /* \"#utility.yul\":2870:2943   */\n  swap1\n  jump\t// out\n    /* \"#utility.yul\":2949:3138   */\ntag_23:\n    /* \"#utility.yul\":3026:3058   */\n  tag_63\n  tag_22\n  jump\t// in\ntag_63:\n    /* \"#utility.yul\":3067:3132   */\n  tag_64\n    /* \"#utility.yul\":3125:3131   */\n  dup2\n    /* \"#utility.yul\":3117:3123   */\n  dup5\n    /* \"#utility.yul\":3111:3115   */\n  dup5\n    /* \"#utility.yul\":3067:3132   */\n  tag_21\n  jump\t// in\ntag_64:\n    /* \"#utility.yul\":3002:3138   */\n  pop\n    /* \"#utility.yul\":2949:3138   */\n  pop\n  pop\n  jump\t// out\n    /* \"#utility.yul\":3144:3330   */\ntag_24:\n    /* \"#utility.yul\":3204:3324   */\ntag_66:\n    /* \"#utility.yul\":3221:3224   */\n  dup2\n    /* \"#utility.yul\":3214:3219   */\n  dup2\n    /* \"#utility.yul\":3211:3225   */\n  lt\n    /* \"#utility.yul\":3204:3324   */\n  iszero\n  tag_68\n  jumpi\n    /* \"#utility.yul\":3275:3314   */\n  tag_69\n    /* \"#utility.yul\":3312:3313   */\n  0x00\n    /* \"#utility.yul\":3305:3310   */\n  dup3\n    /* \"#utility.yul\":3275:3314   */\n  tag_23\n  jump\t// in\ntag_69:\n    /* \"#utility.yul\":3248:3249   */\n  0x01\n    /* \"#utility.yul\":3241:3246   */\n  dup2\n    /* \"#utility.yul\":3237:3250   */\n  add\n    /* \"#utility.yul\":3228:3250   */\n  swap1\n  pop\n    /* \"#utility.yul\":3204:3324   */\n  jump(tag_66)\ntag_68:\n    /* \"#utility.yul\":3144:3330   */\n  pop\n  pop\n  jump\t// out\n    /* \"#utility.yul\":3336:3879   */\ntag_25:\n    /* \"#utility.yul\":3437:3439   */\n  0x1f\n    /* \"#utility.yul\":3432:3435   */\n  dup3\n    /* \"#utility.yul\":3429:3440   */\n  gt\n    /* \"#utility.yul\":3426:3872   */\n  iszero\n  tag_71\n  jumpi\n    /* \"#utility.yul\":3471:3509   */\n  tag_72\n    /* \"#utility.yul\":3503:3508   */\n  dup2\n    /* \"#utility.yul\":3471:3509   */\n  tag_13\n  jump\t// in\ntag_72:\n    /* \"#utility.yul\":3555:3584   */\n  tag_73\n    /* \"#utility.yul\":3573:3583   */\n  dup5\n    /* \"#utility.yul\":3555:3584   */\n  tag_14\n  jump\t// in\ntag_73:\n    /* \"#utility.yul\":3545:3553   */\n  dup2\n    /* \"#utility.yul\":3541:3585   */\n  add\n    /* \"#utility.yul\":3738:3740   */\n  0x20\n    /* \"#utility.yul\":3726:3736   */\n  dup6\n    /* \"#utility.yul\":3723:3741   */\n  lt\n    /* \"#utility.yul\":3720:3769   */\n  iszero\n  tag_74\n  jumpi\n    /* \"#utility.yul\":3759:3767   */\n  dup2\n    /* \"#utility.yul\":3744:3767   */\n  swap1\n  pop\n    /* \"#utility.yul\":3720:3769   */\ntag_74:\n    /* \"#utility.yul\":3782:3862   */\n  tag_75\n    /* \"#utility.yul\":3838:3860   */\n  tag_76\n    /* \"#utility.yul\":3856:3859   */\n  dup6\n    /* \"#utility.yul\":3838:3860   */\n  tag_14\n  jump\t// in\ntag_76:\n    /* \"#utility.yul\":3828:3836   */\n  dup4\n    /* \"#utility.yul\":3824:3861   */\n  add\n    /* \"#utility.yul\":3811:3822   */\n  dup3\n    /* \"#utility.yul\":3782:3862   */\n  tag_24\n  jump\t// in\ntag_75:\n    /* \"#utility.yul\":3441:3872   */\n  pop\n  pop\n    /* \"#utility.yul\":3426:3872   */\ntag_71:\n    /* \"#utility.yul\":3336:3879   */\n  pop\n  pop\n  pop\n  jump\t// out\n    /* \"#utility.yul\":3885:4002   */\ntag_26:\n    /* \"#utility.yul\":3939:3947   */\n  0x00\n    /* \"#utility.yul\":3989:3994   */\n  dup3\n    /* \"#utility.yul\":3983:3987   */\n  dup3\n    /* \"#utility.yul\":3979:3995   */\n  shr\n    /* \"#utility.yul\":3958:3995   */\n  swap1\n  pop\n    /* \"#utility.yul\":3885:4002   */\n  swap3\n  swap2\n  pop\n  pop\n  jump\t// out\n    /* \"#utility.yul\":4008:4177   */\ntag_27:\n    /* \"#utility.yul\":4052:4058   */\n  0x00\n    /* \"#utility.yul\":4085:4136   */\n  tag_79\n    /* \"#utility.yul\":4133:4134   */\n  0x00\n    /* \"#utility.yul\":4129:4135   */\n  not\n    /* \"#utility.yul\":4121:4126   */\n  dup5\n    /* \"#utility.yul\":4118:4119   */\n  0x08\n    /* \"#utility.yul\":4114:4127   */\n  mul\n    /* \"#utility.yul\":4085:4136   */\n  tag_26\n  jump\t// in\ntag_79:\n    /* \"#utility.yul\":4081:4137   */\n  not\n    /* \"#utility.yul\":4166:4170   */\n  dup1\n    /* \"#utility.yul\":4160:4164   */\n  dup4\n    /* \"#utility.yul\":4156:4171   */\n  and\n    /* \"#utility.yul\":4146:4171   */\n  swap2\n  pop\n    /* \"#utility.yul\":4059:4177   */\n  pop\n    /* \"#utility.yul\":4008:4177   */\n  swap3\n  swap2\n  pop\n  pop\n  jump\t// out\n    /* \"#utility.yul\":4182:4477   */\ntag_28:\n    /* \"#utility.yul\":4258:4262   */\n  0x00\n    /* \"#utility.yul\":4404:4433   */\n  tag_81\n    /* \"#utility.yul\":4429:4432   */\n  dup4\n    /* \"#utility.yul\":4423:4427   */\n  dup4\n    /* \"#utility.yul\":4404:4433   */\n  tag_27\n  jump\t// in\ntag_81:\n    /* \"#utility.yul\":4396:4433   */\n  swap2\n  pop\n    /* \"#utility.yul\":4466:4469   */\n  dup3\n    /* \"#utility.yul\":4463:4464   */\n  0x02\n    /* \"#utility.yul\":4459:4470   */\n  mul\n    /* \"#utility.yul\":4453:4457   */\n  dup3\n    /* \"#utility.yul\":4450:4471   */\n  or\n    /* \"#utility.yul\":4442:4471   */\n  swap1\n  pop\n    /* \"#utility.yul\":4182:4477   */\n  swap3\n  swap2\n  pop\n  pop\n  jump\t// out\n    /* \"#utility.yul\":4482:5877   */\ntag_4:\n    /* \"#utility.yul\":4599:4636   */\n  tag_83\n    /* \"#utility.yul\":4632:4635   */\n  dup3\n    /* \"#utility.yul\":4599:4636   */\n  tag_9\n  jump\t// in\ntag_83:\n    /* \"#utility.yul\":4701:4719   */\n  0xffffffffffffffff\n    /* \"#utility.yul\":4693:4699   */\n  dup2\n    /* \"#utility.yul\":4690:4720   */\n  gt\n    /* \"#utility.yul\":4687:4743   */\n  iszero\n  tag_84\n  jumpi\n    /* \"#utility.yul\":4723:4741   */\n  tag_85\n  tag_10\n  jump\t// in\ntag_85:\n    /* \"#utility.yul\":4687:4743   */\ntag_84:\n    /* \"#utility.yul\":4767:4805   */\n  tag_86\n    /* \"#utility.yul\":4799:4803   */\n  dup3\n    /* \"#utility.yul\":4793:4804   */\n  sload\n    /* \"#utility.yul\":4767:4805   */\n  tag_12\n  jump\t// in\ntag_86:\n    /* \"#utility.yul\":4852:4919   */\n  tag_87\n    /* \"#utility.yul\":4912:4918   */\n  dup3\n    /* \"#utility.yul\":4904:4910   */\n  dup3\n    /* \"#utility.yul\":4898:4902   */\n  dup6\n    /* \"#utility.yul\":4852:4919   */\n  tag_25\n  jump\t// in\ntag_87:\n    /* \"#utility.yul\":4946:4947   */\n  0x00\n    /* \"#utility.yul\":4970:4974   */\n  0x20\n    /* \"#utility.yul\":4957:4974   */\n  swap1\n  pop\n    /* \"#utility.yul\":5002:5004   */\n  0x1f\n    /* \"#utility.yul\":4994:5000   */\n  dup4\n    /* \"#utility.yul\":4991:5005   */\n  gt\n    /* \"#utility.yul\":5019:5020   */\n  0x01\n    /* \"#utility.yul\":5014:5632   */\n  dup2\n  eq\n  tag_89\n  jumpi\n    /* \"#utility.yul\":5676:5677   */\n  0x00\n    /* \"#utility.yul\":5693:5699   */\n  dup5\n    /* \"#utility.yul\":5690:5767   */\n  iszero\n  tag_90\n  jumpi\n    /* \"#utility.yul\":5742:5751   */\n  dup3\n    /* \"#utility.yul\":5737:5740   */\n  dup8\n    /* \"#utility.yul\":5733:5752   */\n  add\n    /* \"#utility.yul\":5727:5753   */\n  mload\n    /* \"#utility.yul\":5718:5753   */\n  swap1\n  pop\n    /* \"#utility.yul\":5690:5767   */\ntag_90:\n    /* \"#utility.yul\":5793:5860   */\n  tag_91\n    /* \"#utility.yul\":5853:5859   */\n  dup6\n    /* \"#utility.yul\":5846:5851   */\n  dup3\n    /* \"#utility.yul\":5793:5860   */\n  tag_28\n  jump\t// in\ntag_91:\n    /* \"#utility.yul\":5787:5791   */\n  dup7\n    /* \"#utility.yul\":5780:5861   */\n  sstore\n    /* \"#utility.yul\":5649:5871   */\n  pop\n    /* \"#utility.yul\":4984:5871   */\n  jump(tag_88)\n    /* \"#utility.yul\":5014:5632   */\ntag_89:\n    /* \"#utility.yul\":5066:5070   */\n  0x1f\n    /* \"#utility.yul\":5062:5071   */\n  not\n    /* \"#utility.yul\":5054:5060   */\n  dup5\n    /* \"#utility.yul\":5050:5072   */\n  and\n    /* \"#utility.yul\":5100:5137   */\n  tag_92\n    /* \"#utility.yul\":5132:5136   */\n  dup7\n    /* \"#utility.yul\":5100:5137   */\n  tag_13\n  jump\t// in\ntag_92:\n    /* \"#utility.yul\":5159:5160   */\n  0x00\n    /* \"#utility.yul\":5173:5381   */\ntag_93:\n    /* \"#utility.yul\":5187:5194   */\n  dup3\n    /* \"#utility.yul\":5184:5185   */\n  dup2\n    /* \"#utility.yul\":5181:5195   */\n  lt\n    /* \"#utility.yul\":5173:5381   */\n  iszero\n  tag_95\n  jumpi\n    /* \"#utility.yul\":5266:5275   */\n  dup5\n    /* \"#utility.yul\":5261:5264   */\n  dup10\n    /* \"#utility.yul\":5257:5276   */\n  add\n    /* \"#utility.yul\":5251:5277   */\n  mload\n    /* \"#utility.yul\":5243:5249   */\n  dup3\n    /* \"#utility.yul\":5236:5278   */\n  sstore\n    /* \"#utility.yul\":5317:5318   */\n  0x01\n    /* \"#utility.yul\":5309:5315   */\n  dup3\n    /* \"#utility.yul\":5305:5319   */\n  add\n    /* \"#utility.yul\":5295:5319   */\n  swap2\n  pop\n    /* \"#utility.yul\":5364:5366   */\n  0x20\n    /* \"#utility.yul\":5353:5362   */\n  dup6\n    /* \"#utility.yul\":5349:5367   */\n  add\n    /* \"#utility.yul\":5336:5367   */\n  swap5\n  pop\n    /* \"#utility.yul\":5210:5214   */\n  0x20\n    /* \"#utility.yul\":5207:5208   */\n  dup2\n    /* \"#utility.yul\":5203:5215   */\n  add\n    /* \"#utility.yul\":5198:5215   */\n  swap1\n  pop\n    /* \"#utility.yul\":5173:5381   */\n  jump(tag_93)\ntag_95:\n    /* \"#utility.yul\":5409:5415   */\n  dup7\n    /* \"#utility.yul\":5400:5407   */\n  dup4\n    /* \"#utility.yul\":5397:5416   */\n  lt\n    /* \"#utility.yul\":5394:5573   */\n  iszero\n  tag_96\n  jumpi\n    /* \"#utility.yul\":5467:5476   */\n  dup5\n    /* \"#utility.yul\":5462:5465   */\n  dup10\n    /* \"#utility.yul\":5458:5477   */\n  add\n    /* \"#utility.yul\":5452:5478   */\n  mload\n    /* \"#utility.yul\":5510:5558   */\n  tag_97\n    /* \"#utility.yul\":5552:5556   */\n  0x1f\n    /* \"#utility.yul\":5544:5550   */\n  dup10\n    /* \"#utility.yul\":5540:5557   */\n  and\n    /* \"#utility.yul\":5529:5538   */\n  dup3\n    /* \"#utility.yul\":5510:5558   */\n  tag_27\n  jump\t// in\ntag_97:\n    /* \"#utility.yul\":5502:5508   */\n  dup4\n    /* \"#utility.yul\":5495:5559   */\n  sstore\n    /* \"#utility.yul\":5417:5573   */\n  pop\n    /* \"#utility.yul\":5394:5573   */\ntag_96:\n    /* \"#utility.yul\":5619:5620   */\n  0x01\n    /* \"#utility.yul\":5615:5616   */\n  0x02\n    /* \"#utility.yul\":5607:5613   */\n  dup9\n    /* \"#utility.yul\":5603:5617   */\n  mul\n    /* \"#utility.yul\":5599:5621   */\n  add\n    /* \"#utility.yul\":5593:5597   */\n  dup9\n    /* \"#utility.yul\":5586:5622   */\n  sstore\n    /* \"#utility.yul\":5021:5632   */\n  pop\n  pop\n  pop\n    /* \"#utility.yul\":4984:5871   */\ntag_88:\n  pop\n    /* \"#utility.yul\":4574:5877   */\n  pop\n  pop\n  pop\n    /* \"#utility.yul\":4482:5877   */\n  pop\n  pop\n  jump\t// out\n    /* \"test/test.sol\":94:292  contract HelloWorld {... */\ntag_6:\n  dataSize(sub_0)\n  dup1\n  dataOffset(sub_0)\n  0x00\n  codecopy\n  0x00\n  return\nstop\n\nsub_0: assembly {\n        /* \"test/test.sol\":94:292  contract HelloWorld {... */\n      mstore(0x40, 0x80)\n      callvalue\n      dup1\n      iszero\n      tag_1\n      jumpi\n      0x00\n      dup1\n      revert\n    tag_1:\n      pop\n      jumpi(tag_2, lt(calldatasize, 0x04))\n      shr(0xe0, calldataload(0x00))\n      dup1\n      0xef5fb05b\n      eq\n      tag_3\n      jumpi\n    tag_2:\n      0x00\n      dup1\n      revert\n        /* \"test/test.sol\":196:287  function sayHello()external view returns(string memory){... */\n    tag_3:\n      tag_4\n      tag_5\n      jump\t// in\n    tag_4:\n      mload(0x40)\n      tag_6\n      swap2\n      swap1\n      tag_7\n      jump\t// in\n    tag_6:\n      mload(0x40)\n      dup1\n      swap2\n      sub\n      swap1\n      return\n    tag_5:\n        /* \"test/test.sol\":237:250  string memory */\n      0x60\n        /* \"test/test.sol\":273:279  strVar */\n      0x02\n        /* \"test/test.sol\":266:279  return strVar */\n      dup1\n      sload\n      tag_9\n      swap1\n      tag_10\n      jump\t// in\n    tag_9:\n      dup1\n      0x1f\n      add\n      0x20\n      dup1\n      swap2\n      div\n      mul\n      0x20\n      add\n      mload(0x40)\n      swap1\n      dup2\n      add\n      0x40\n      mstore\n      dup1\n      swap3\n      swap2\n      swap1\n      dup2\n      dup2\n      mstore\n      0x20\n      add\n      dup3\n      dup1\n      sload\n      tag_11\n      swap1\n      tag_10\n      jump\t// in\n    tag_11:\n      dup1\n      iszero\n      tag_12\n      jumpi\n      dup1\n      0x1f\n      lt\n      tag_13\n      jumpi\n      0x0100\n      dup1\n      dup4\n      sload\n      div\n      mul\n      dup4\n      mstore\n      swap2\n      0x20\n      add\n      swap2\n      jump(tag_12)\n    tag_13:\n      dup3\n      add\n      swap2\n      swap1\n      0x00\n      mstore\n      keccak256(0x00, 0x20)\n      swap1\n    tag_14:\n      dup2\n      sload\n      dup2\n      mstore\n      swap1\n      0x01\n      add\n      swap1\n      0x20\n      add\n      dup1\n      dup4\n      gt\n      tag_14\n      jumpi\n      dup3\n      swap1\n      sub\n      0x1f\n      and\n      dup3\n      add\n      swap2\n    tag_12:\n      pop\n      pop\n      pop\n      pop\n      pop\n      swap1\n      pop\n        /* \"test/test.sol\":196:287  function sayHello()external view returns(string memory){... */\n      swap1\n      jump\t// out\n        /* \"#utility.yul\":7:106   */\n    tag_15:\n        /* \"#utility.yul\":59:65   */\n      0x00\n        /* \"#utility.yul\":93:98   */\n      dup2\n        /* \"#utility.yul\":87:99   */\n      mload\n        /* \"#utility.yul\":77:99   */\n      swap1\n      pop\n        /* \"#utility.yul\":7:106   */\n      swap2\n      swap1\n      pop\n      jump\t// out\n        /* \"#utility.yul\":112:281   */\n    tag_16:\n        /* \"#utility.yul\":196:207   */\n      0x00\n        /* \"#utility.yul\":230:236   */\n      dup3\n        /* \"#utility.yul\":225:228   */\n      dup3\n        /* \"#utility.yul\":218:237   */\n      mstore\n        /* \"#utility.yul\":270:274   */\n      0x20\n        /* \"#utility.yul\":265:268   */\n      dup3\n        /* \"#utility.yul\":261:275   */\n      add\n        /* \"#utility.yul\":246:275   */\n      swap1\n      pop\n        /* \"#utility.yul\":112:281   */\n      swap3\n      swap2\n      pop\n      pop\n      jump\t// out\n        /* \"#utility.yul\":287:426   */\n    tag_17:\n        /* \"#utility.yul\":376:382   */\n      dup3\n        /* \"#utility.yul\":371:374   */\n      dup2\n        /* \"#utility.yul\":366:369   */\n      dup4\n        /* \"#utility.yul\":360:383   */\n      mcopy\n        /* \"#utility.yul\":417:418   */\n      0x00\n        /* \"#utility.yul\":408:414   */\n      dup4\n        /* \"#utility.yul\":403:406   */\n      dup4\n        /* \"#utility.yul\":399:415   */\n      add\n        /* \"#utility.yul\":392:419   */\n      mstore\n        /* \"#utility.yul\":287:426   */\n      pop\n      pop\n      pop\n      jump\t// out\n        /* \"#utility.yul\":432:534   */\n    tag_18:\n        /* \"#utility.yul\":473:479   */\n      0x00\n        /* \"#utility.yul\":524:526   */\n      0x1f\n        /* \"#utility.yul\":520:527   */\n      not\n        /* \"#utility.yul\":515:517   */\n      0x1f\n        /* \"#utility.yul\":508:513   */\n      dup4\n        /* \"#utility.yul\":504:518   */\n      add\n        /* \"#utility.yul\":500:528   */\n      and\n        /* \"#utility.yul\":490:528   */\n      swap1\n      pop\n        /* \"#utility.yul\":432:534   */\n      swap2\n      swap1\n      pop\n      jump\t// out\n        /* \"#utility.yul\":540:917   */\n    tag_19:\n        /* \"#utility.yul\":628:631   */\n      0x00\n        /* \"#utility.yul\":656:695   */\n      tag_27\n        /* \"#utility.yul\":689:694   */\n      dup3\n        /* \"#utility.yul\":656:695   */\n      tag_15\n      jump\t// in\n    tag_27:\n        /* \"#utility.yul\":711:782   */\n      tag_28\n        /* \"#utility.yul\":775:781   */\n      dup2\n        /* \"#utility.yul\":770:773   */\n      dup6\n        /* \"#utility.yul\":711:782   */\n      tag_16\n      jump\t// in\n    tag_28:\n        /* \"#utility.yul\":704:782   */\n      swap4\n      pop\n        /* \"#utility.yul\":791:856   */\n      tag_29\n        /* \"#utility.yul\":849:855   */\n      dup2\n        /* \"#utility.yul\":844:847   */\n      dup6\n        /* \"#utility.yul\":837:841   */\n      0x20\n        /* \"#utility.yul\":830:835   */\n      dup7\n        /* \"#utility.yul\":826:842   */\n      add\n        /* \"#utility.yul\":791:856   */\n      tag_17\n      jump\t// in\n    tag_29:\n        /* \"#utility.yul\":881:910   */\n      tag_30\n        /* \"#utility.yul\":903:909   */\n      dup2\n        /* \"#utility.yul\":881:910   */\n      tag_18\n      jump\t// in\n    tag_30:\n        /* \"#utility.yul\":876:879   */\n      dup5\n        /* \"#utility.yul\":872:911   */\n      add\n        /* \"#utility.yul\":865:911   */\n      swap2\n      pop\n        /* \"#utility.yul\":632:917   */\n      pop\n        /* \"#utility.yul\":540:917   */\n      swap3\n      swap2\n      pop\n      pop\n      jump\t// out\n        /* \"#utility.yul\":923:1236   */\n    tag_7:\n        /* \"#utility.yul\":1036:1040   */\n      0x00\n        /* \"#utility.yul\":1074:1076   */\n      0x20\n        /* \"#utility.yul\":1063:1072   */\n      dup3\n        /* \"#utility.yul\":1059:1077   */\n      add\n        /* \"#utility.yul\":1051:1077   */\n      swap1\n      pop\n        /* \"#utility.yul\":1123:1132   */\n      dup2\n        /* \"#utility.yul\":1117:1121   */\n      dup2\n        /* \"#utility.yul\":1113:1133   */\n      sub\n        /* \"#utility.yul\":1109:1110   */\n      0x00\n        /* \"#utility.yul\":1098:1107   */\n      dup4\n        /* \"#utility.yul\":1094:1111   */\n      add\n        /* \"#utility.yul\":1087:1134   */\n      mstore\n        /* \"#utility.yul\":1151:1229   */\n      tag_32\n        /* \"#utility.yul\":1224:1228   */\n      dup2\n        /* \"#utility.yul\":1215:1221   */\n      dup5\n        /* \"#utility.yul\":1151:1229   */\n      tag_19\n      jump\t// in\n    tag_32:\n        /* \"#utility.yul\":1143:1229   */\n      swap1\n      pop\n        /* \"#utility.yul\":923:1236   */\n      swap3\n      swap2\n      pop\n      pop\n      jump\t// out\n        /* \"#utility.yul\":1242:1422   */\n    tag_20:\n        /* \"#utility.yul\":1290:1367   */\n      0x4e487b7100000000000000000000000000000000000000000000000000000000\n        /* \"#utility.yul\":1287:1288   */\n      0x00\n        /* \"#utility.yul\":1280:1368   */\n      mstore\n        /* \"#utility.yul\":1387:1391   */\n      0x22\n        /* \"#utility.yul\":1384:1385   */\n      0x04\n        /* \"#utility.yul\":1377:1392   */\n      mstore\n        /* \"#utility.yul\":1411:1415   */\n      0x24\n        /* \"#utility.yul\":1408:1409   */\n      0x00\n        /* \"#utility.yul\":1401:1416   */\n      revert\n        /* \"#utility.yul\":1428:1748   */\n    tag_10:\n        /* \"#utility.yul\":1472:1478   */\n      0x00\n        /* \"#utility.yul\":1509:1510   */\n      0x02\n        /* \"#utility.yul\":1503:1507   */\n      dup3\n        /* \"#utility.yul\":1499:1511   */\n      div\n        /* \"#utility.yul\":1489:1511   */\n      swap1\n      pop\n        /* \"#utility.yul\":1556:1557   */\n      0x01\n        /* \"#utility.yul\":1550:1554   */\n      dup3\n        /* \"#utility.yul\":1546:1558   */\n      and\n        /* \"#utility.yul\":1577:1595   */\n      dup1\n        /* \"#utility.yul\":1567:1648   */\n      tag_35\n      jumpi\n        /* \"#utility.yul\":1633:1637   */\n      0x7f\n        /* \"#utility.yul\":1625:1631   */\n      dup3\n        /* \"#utility.yul\":1621:1638   */\n      and\n        /* \"#utility.yul\":1611:1638   */\n      swap2\n      pop\n        /* \"#utility.yul\":1567:1648   */\n    tag_35:\n        /* \"#utility.yul\":1695:1697   */\n      0x20\n        /* \"#utility.yul\":1687:1693   */\n      dup3\n        /* \"#utility.yul\":1684:1698   */\n      lt\n        /* \"#utility.yul\":1664:1682   */\n      dup2\n        /* \"#utility.yul\":1661:1699   */\n      sub\n        /* \"#utility.yul\":1658:1742   */\n      tag_36\n      jumpi\n        /* \"#utility.yul\":1714:1732   */\n      tag_37\n      tag_20\n      jump\t// in\n    tag_37:\n        /* \"#utility.yul\":1658:1742   */\n    tag_36:\n        /* \"#utility.yul\":1479:1748   */\n      pop\n        /* \"#utility.yul\":1428:1748   */\n      swap2\n      swap1\n      pop\n      jump\t// out\n\n    auxdata: 0xa2646970667358221220229768d868272a10871b18e58004671586ef7fa745742e4d13138202970da38d64736f6c634300081a0033\n}\n",
				"bytecode": {
					"linkReferences": {},
					"object": "6080604052600a5f555f54600161001691906100a5565b6001556040518060400160405280600b81526020017f68656c6c6f20776f726c640000000000000000000000000000000000000000008152506002908161005d9190610320565b50348015610069575f80fd5b506103ef565b5f819050919050565b7f4e487b71000000000000000000000000000000000000000000000000000000005f52601160045260245ffd5b5f6100af8261006f565b91506100ba8361006f565b92508282019050828112155f8312168382125f8412151617156100e0576100df610078565b5b92915050565b5f81519050919050565b7f4e487b71000000000000000000000000000000000000000000000000000000005f52604160045260245ffd5b7f4e487b71000000000000000000000000000000000000000000000000000000005f52602260045260245ffd5b5f600282049050600182168061016157607f821691505b6020821081036101745761017361011d565b5b50919050565b5f819050815f5260205f209050919050565b5f6020601f8301049050919050565b5f82821b905092915050565b5f600883026101d67fffffffffffffffffffffffffffffffffffffffffffffffffffffffffffffffff8261019b565b6101e0868361019b565b95508019841693508086168417925050509392505050565b5f819050919050565b5f819050919050565b5f61022461021f61021a846101f8565b610201565b6101f8565b9050919050565b5f819050919050565b61023d8361020a565b6102516102498261022b565b8484546101a7565b825550505050565b5f90565b610265610259565b610270818484610234565b505050565b5b81811015610293576102885f8261025d565b600181019050610276565b5050565b601f8211156102d8576102a98161017a565b6102b28461018c565b810160208510156102c1578190505b6102d56102cd8561018c565b830182610275565b50505b505050565b5f82821c905092915050565b5f6102f85f19846008026102dd565b1980831691505092915050565b5f61031083836102e9565b9150826002028217905092915050565b610329826100e6565b67ffffffffffffffff811115610342576103416100f0565b5b61034c825461014a565b610357828285610297565b5f60209050601f831160018114610388575f8415610376578287015190505b6103808582610305565b8655506103e7565b601f1984166103968661017a565b5f5b828110156103bd57848901518255600182019150602085019450602081019050610398565b868310156103da57848901516103d6601f8916826102e9565b8355505b6001600288020188555050505b505050505050565b6101fe806103fc5f395ff3fe608060405234801561000f575f80fd5b5060043610610029575f3560e01c8063ef5fb05b1461002d575b5f80fd5b61003561004b565b604051610042919061014b565b60405180910390f35b60606002805461005a90610198565b80601f016020809104026020016040519081016040528092919081815260200182805461008690610198565b80156100d15780601f106100a8576101008083540402835291602001916100d1565b820191905f5260205f20905b8154815290600101906020018083116100b457829003601f168201915b5050505050905090565b5f81519050919050565b5f82825260208201905092915050565b8281835e5f83830152505050565b5f601f19601f8301169050919050565b5f61011d826100db565b61012781856100e5565b93506101378185602086016100f5565b61014081610103565b840191505092915050565b5f6020820190508181035f8301526101638184610113565b905092915050565b7f4e487b71000000000000000000000000000000000000000000000000000000005f52602260045260245ffd5b5f60028204905060018216806101af57607f821691505b6020821081036101c2576101c161016b565b5b5091905056fea2646970667358221220229768d868272a10871b18e58004671586ef7fa745742e4d13138202970da38d64736f6c634300081a0033",
					"opcodes": "PUSH1 0x80 PUSH1 0x40 MSTORE PUSH1 0xA PUSH0 SSTORE PUSH0 SLOAD PUSH1 0x1 PUSH2 0x16 SWAP2 SWAP1 PUSH2 0xA5 JUMP JUMPDEST PUSH1 0x1 SSTORE PUSH1 0x40 MLOAD DUP1 PUSH1 0x40 ADD PUSH1 0x40 MSTORE DUP1 PUSH1 0xB DUP2 MSTORE PUSH1 0x20 ADD PUSH32 0x68656C6C6F20776F726C64000000000000000000000000000000000000000000 DUP2 MSTORE POP PUSH1 0x2 SWAP1 DUP2 PUSH2 0x5D SWAP2 SWAP1 PUSH2 0x320 JUMP JUMPDEST POP CALLVALUE DUP1 ISZERO PUSH2 0x69 JUMPI PUSH0 DUP1 REVERT JUMPDEST POP PUSH2 0x3EF JUMP JUMPDEST PUSH0 DUP2 SWAP1 POP SWAP2 SWAP1 POP JUMP JUMPDEST PUSH32 0x4E487B7100000000000000000000000000000000000000000000000000000000 PUSH0 MSTORE PUSH1 0x11 PUSH1 0x4 MSTORE PUSH1 0x24 PUSH0 REVERT JUMPDEST PUSH0 PUSH2 0xAF DUP3 PUSH2 0x6F JUMP JUMPDEST SWAP2 POP PUSH2 0xBA DUP4 PUSH2 0x6F JUMP JUMPDEST SWAP3 POP DUP3 DUP3 ADD SWAP1 POP DUP3 DUP2 SLT ISZERO PUSH0 DUP4 SLT AND DUP4 DUP3 SLT PUSH0 DUP5 SLT ISZERO AND OR ISZERO PUSH2 0xE0 JUMPI PUSH2 0xDF PUSH2 0x78 JUMP JUMPDEST JUMPDEST SWAP3 SWAP2 POP POP JUMP JUMPDEST PUSH0 DUP2 MLOAD SWAP1 POP SWAP2 SWAP1 POP JUMP JUMPDEST PUSH32 0x4E487B7100000000000000000000000000000000000000000000000000000000 PUSH0 MSTORE PUSH1 0x41 PUSH1 0x4 MSTORE PUSH1 0x24 PUSH0 REVERT JUMPDEST PUSH32 0x4E487B7100000000000000000000000000000000000000000000000000000000 PUSH0 MSTORE PUSH1 0x22 PUSH1 0x4 MSTORE PUSH1 0x24 PUSH0 REVERT JUMPDEST PUSH0 PUSH1 0x2 DUP3 DIV SWAP1 POP PUSH1 0x1 DUP3 AND DUP1 PUSH2 0x161 JUMPI PUSH1 0x7F DUP3 AND SWAP2 POP JUMPDEST PUSH1 0x20 DUP3 LT DUP2 SUB PUSH2 0x174 JUMPI PUSH2 0x173 PUSH2 0x11D JUMP JUMPDEST JUMPDEST POP SWAP2 SWAP1 POP JUMP JUMPDEST PUSH0 DUP2 SWAP1 POP DUP2 PUSH0 MSTORE PUSH1 0x20 PUSH0 KECCAK256 SWAP1 POP SWAP2 SWAP1 POP JUMP JUMPDEST PUSH0 PUSH1 0x20 PUSH1 0x1F DUP4 ADD DIV SWAP1 POP SWAP2 SWAP1 POP JUMP JUMPDEST PUSH0 DUP3 DUP3 SHL SWAP1 POP SWAP3 SWAP2 POP POP JUMP JUMPDEST PUSH0 PUSH1 0x8 DUP4 MUL PUSH2 0x1D6 PUSH32 0xFFFFFFFFFFFFFFFFFFFFFFFFFFFFFFFFFFFFFFFFFFFFFFFFFFFFFFFFFFFFFFFF DUP3 PUSH2 0x19B JUMP JUMPDEST PUSH2 0x1E0 DUP7 DUP4 PUSH2 0x19B JUMP JUMPDEST SWAP6 POP DUP1 NOT DUP5 AND SWAP4 POP DUP1 DUP7 AND DUP5 OR SWAP3 POP POP POP SWAP4 SWAP3 POP POP POP JUMP JUMPDEST PUSH0 DUP2 SWAP1 POP SWAP2 SWAP1 POP JUMP JUMPDEST PUSH0 DUP2 SWAP1 POP SWAP2 SWAP1 POP JUMP JUMPDEST PUSH0 PUSH2 0x224 PUSH2 0x21F PUSH2 0x21A DUP5 PUSH2 0x1F8 JUMP JUMPDEST PUSH2 0x201 JUMP JUMPDEST PUSH2 0x1F8 JUMP JUMPDEST SWAP1 POP SWAP2 SWAP1 POP JUMP JUMPDEST PUSH0 DUP2 SWAP1 POP SWAP2 SWAP1 POP JUMP JUMPDEST PUSH2 0x23D DUP4 PUSH2 0x20A JUMP JUMPDEST PUSH2 0x251 PUSH2 0x249 DUP3 PUSH2 0x22B JUMP JUMPDEST DUP5 DUP5 SLOAD PUSH2 0x1A7 JUMP JUMPDEST DUP3 SSTORE POP POP POP POP JUMP JUMPDEST PUSH0 SWAP1 JUMP JUMPDEST PUSH2 0x265 PUSH2 0x259 JUMP JUMPDEST PUSH2 0x270 DUP2 DUP5 DUP5 PUSH2 0x234 JUMP JUMPDEST POP POP POP JUMP JUMPDEST JUMPDEST DUP2 DUP2 LT ISZERO PUSH2 0x293 JUMPI PUSH2 0x288 PUSH0 DUP3 PUSH2 0x25D JUMP JUMPDEST PUSH1 0x1 DUP2 ADD SWAP1 POP PUSH2 0x276 JUMP JUMPDEST POP POP JUMP JUMPDEST PUSH1 0x1F DUP3 GT ISZERO PUSH2 0x2D8 JUMPI PUSH2 0x2A9 DUP2 PUSH2 0x17A JUMP JUMPDEST PUSH2 0x2B2 DUP5 PUSH2 0x18C JUMP JUMPDEST DUP2 ADD PUSH1 0x20 DUP6 LT ISZERO PUSH2 0x2C1 JUMPI DUP2 SWAP1 POP JUMPDEST PUSH2 0x2D5 PUSH2 0x2CD DUP6 PUSH2 0x18C JUMP JUMPDEST DUP4 ADD DUP3 PUSH2 0x275 JUMP JUMPDEST POP POP JUMPDEST POP POP POP JUMP JUMPDEST PUSH0 DUP3 DUP3 SHR SWAP1 POP SWAP3 SWAP2 POP POP JUMP JUMPDEST PUSH0 PUSH2 0x2F8 PUSH0 NOT DUP5 PUSH1 0x8 MUL PUSH2 0x2DD JUMP JUMPDEST NOT DUP1 DUP4 AND SWAP2 POP POP SWAP3 SWAP2 POP POP JUMP JUMPDEST PUSH0 PUSH2 0x310 DUP4 DUP4 PUSH2 0x2E9 JUMP JUMPDEST SWAP2 POP DUP3 PUSH1 0x2 MUL DUP3 OR SWAP1 POP SWAP3 SWAP2 POP POP JUMP JUMPDEST PUSH2 0x329 DUP3 PUSH2 0xE6 JUMP JUMPDEST PUSH8 0xFFFFFFFFFFFFFFFF DUP2 GT ISZERO PUSH2 0x342 JUMPI PUSH2 0x341 PUSH2 0xF0 JUMP JUMPDEST JUMPDEST PUSH2 0x34C DUP3 SLOAD PUSH2 0x14A JUMP JUMPDEST PUSH2 0x357 DUP3 DUP3 DUP6 PUSH2 0x297 JUMP JUMPDEST PUSH0 PUSH1 0x20 SWAP1 POP PUSH1 0x1F DUP4 GT PUSH1 0x1 DUP2 EQ PUSH2 0x388 JUMPI PUSH0 DUP5 ISZERO PUSH2 0x376 JUMPI DUP3 DUP8 ADD MLOAD SWAP1 POP JUMPDEST PUSH2 0x380 DUP6 DUP3 PUSH2 0x305 JUMP JUMPDEST DUP7 SSTORE POP PUSH2 0x3E7 JUMP JUMPDEST PUSH1 0x1F NOT DUP5 AND PUSH2 0x396 DUP7 PUSH2 0x17A JUMP JUMPDEST PUSH0 JUMPDEST DUP3 DUP2 LT ISZERO PUSH2 0x3BD JUMPI DUP5 DUP10 ADD MLOAD DUP3 SSTORE PUSH1 0x1 DUP3 ADD SWAP2 POP PUSH1 0x20 DUP6 ADD SWAP5 POP PUSH1 0x20 DUP2 ADD SWAP1 POP PUSH2 0x398 JUMP JUMPDEST DUP7 DUP4 LT ISZERO PUSH2 0x3DA JUMPI DUP5 DUP10 ADD MLOAD PUSH2 0x3D6 PUSH1 0x1F DUP10 AND DUP3 PUSH2 0x2E9 JUMP JUMPDEST DUP4 SSTORE POP JUMPDEST PUSH1 0x1 PUSH1 0x2 DUP9 MUL ADD DUP9 SSTORE POP POP POP JUMPDEST POP POP POP POP POP POP JUMP JUMPDEST PUSH2 0x1FE DUP1 PUSH2 0x3FC PUSH0 CODECOPY PUSH0 RETURN INVALID PUSH1 0x80 PUSH1 0x40 MSTORE CALLVALUE DUP1 ISZERO PUSH2 0xF JUMPI PUSH0 DUP1 REVERT JUMPDEST POP PUSH1 0x4 CALLDATASIZE LT PUSH2 0x29 JUMPI PUSH0 CALLDATALOAD PUSH1 0xE0 SHR DUP1 PUSH4 0xEF5FB05B EQ PUSH2 0x2D JUMPI JUMPDEST PUSH0 DUP1 REVERT JUMPDEST PUSH2 0x35 PUSH2 0x4B JUMP JUMPDEST PUSH1 0x40 MLOAD PUSH2 0x42 SWAP2 SWAP1 PUSH2 0x14B JUMP JUMPDEST PUSH1 0x40 MLOAD DUP1 SWAP2 SUB SWAP1 RETURN JUMPDEST PUSH1 0x60 PUSH1 0x2 DUP1 SLOAD PUSH2 0x5A SWAP1 PUSH2 0x198 JUMP JUMPDEST DUP1 PUSH1 0x1F ADD PUSH1 0x20 DUP1 SWAP2 DIV MUL PUSH1 0x20 ADD PUSH1 0x40 MLOAD SWAP1 DUP2 ADD PUSH1 0x40 MSTORE DUP1 SWAP3 SWAP2 SWAP1 DUP2 DUP2 MSTORE PUSH1 0x20 ADD DUP3 DUP1 SLOAD PUSH2 0x86 SWAP1 PUSH2 0x198 JUMP JUMPDEST DUP1 ISZERO PUSH2 0xD1 JUMPI DUP1 PUSH1 0x1F LT PUSH2 0xA8 JUMPI PUSH2 0x100 DUP1 DUP4 SLOAD DIV MUL DUP4 MSTORE SWAP2 PUSH1 0x20 ADD SWAP2 PUSH2 0xD1 JUMP JUMPDEST DUP3 ADD SWAP2 SWAP1 PUSH0 MSTORE PUSH1 0x20 PUSH0 KECCAK256 SWAP1 JUMPDEST DUP2 SLOAD DUP2 MSTORE SWAP1 PUSH1 0x1 ADD SWAP1 PUSH1 0x20 ADD DUP1 DUP4 GT PUSH2 0xB4 JUMPI DUP3 SWAP1 SUB PUSH1 0x1F AND DUP3 ADD SWAP2 JUMPDEST POP POP POP POP POP SWAP1 POP SWAP1 JUMP JUMPDEST PUSH0 DUP2 MLOAD SWAP1 POP SWAP2 SWAP1 POP JUMP JUMPDEST PUSH0 DUP3 DUP3 MSTORE PUSH1 0x20 DUP3 ADD SWAP1 POP SWAP3 SWAP2 POP POP JUMP JUMPDEST DUP3 DUP2 DUP4 MCOPY PUSH0 DUP4 DUP4 ADD MSTORE POP POP POP JUMP JUMPDEST PUSH0 PUSH1 0x1F NOT PUSH1 0x1F DUP4 ADD AND SWAP1 POP SWAP2 SWAP1 POP JUMP JUMPDEST PUSH0 PUSH2 0x11D DUP3 PUSH2 0xDB JUMP JUMPDEST PUSH2 0x127 DUP2 DUP6 PUSH2 0xE5 JUMP JUMPDEST SWAP4 POP PUSH2 0x137 DUP2 DUP6 PUSH1 0x20 DUP7 ADD PUSH2 0xF5 JUMP JUMPDEST PUSH2 0x140 DUP2 PUSH2 0x103 JUMP JUMPDEST DUP5 ADD SWAP2 POP POP SWAP3 SWAP2 POP POP JUMP JUMPDEST PUSH0 PUSH1 0x20 DUP3 ADD SWAP1 POP DUP2 DUP2 SUB PUSH0 DUP4 ADD MSTORE PUSH2 0x163 DUP2 DUP5 PUSH2 0x113 JUMP JUMPDEST SWAP1 POP SWAP3 SWAP2 POP POP JUMP JUMPDEST PUSH32 0x4E487B7100000000000000000000000000000000000000000000000000000000 PUSH0 MSTORE PUSH1 0x22 PUSH1 0x4 MSTORE PUSH1 0x24 PUSH0 REVERT JUMPDEST PUSH0 PUSH1 0x2 DUP3 DIV SWAP1 POP PUSH1 0x1 DUP3 AND DUP1 PUSH2 0x1AF JUMPI PUSH1 0x7F DUP3 AND SWAP2 POP JUMPDEST PUSH1 0x20 DUP3 LT DUP2 SUB PUSH2 0x1C2 JUMPI PUSH2 0x1C1 PUSH2 0x16B JUMP JUMPDEST JUMPDEST POP SWAP2 SWAP1 POP JUMP INVALID LOG2 PUSH5 0x6970667358 0x22 SLT KECCAK256 0x22 SWAP8 PUSH9 0xD868272A10871B18E5 DUP1 DIV PUSH8 0x1586EF7FA745742E 0x4D SGT SGT DUP3 MUL SWAP8 0xD LOG3 DUP14 PUSH5 0x736F6C6343 STOP ADDMOD BYTE STOP CALLER "
				},
				"gasEstimates": {
					"creation": {
						"codeDepositCost": "102000",
						"executionCost": "infinite",
						"totalCost": "infinite"
					},
					"external": {
						"sayHello()": "infinite"
					}
				},
				"methodIdentifiers": {
					"sayHello()": "ef5fb05b"
				}
			},
			"storageLayout": {
				"storage": [
					{
						"astId": 4,
						"contract": "test/test.sol:HelloWorld",
						"label": "a",
						"offset": 0,
						"slot": "0",
						"type": "t_int256"
					},
					{
						"astId": 11,
						"contract": "test/test.sol:HelloWorld",
						"label": "c",
						"offset": 0,
						"slot": "1",
						"type": "t_int256"
					},
					{
						"astId": 14,
						"contract": "test/test.sol:HelloWorld",
						"label": "strVar",
						"offset": 0,
						"slot": "2",
						"type": "t_string_storage"
					}
				],
				"types": {
					"t_int256": {
						"encoding": "inplace",
						"label": "int256",
						"numberOfBytes": "32"
					},
					"t_string_storage": {
						"encoding": "bytes",
						"label": "string",
						"numberOfBytes": "32"
					}
				}
			},
			"userdoc": {
				"kind": "user",
				"methods": {},
				"version": 1
			}
		}
	}
}