{
	"data": {
		"bytecode": {
			"linkReferences": {},
			"object": "6080604052348015600e575f80fd5b5060f88061001b5f395ff3fe6080604052348015600e575f80fd5b50600436106026575f3560e01c8063e5910ae714602a575b5f80fd5b60406004803603810190603c9190609c565b6042565b005b50565b5f80fd5b5f73ffffffffffffffffffffffffffffffffffffffff82169050919050565b5f6070826049565b9050919050565b607e816068565b81146087575f80fd5b50565b5f813590506096816077565b92915050565b5f6020828403121560ae5760ad6045565b5b5f60b984828501608a565b9150509291505056fea26469706673582212205ee1c44dd0e88b690a2f887af52b422cc78d9055621b3e1933e462c5e3008e3c64736f6c634300081a0033",
			"opcodes": "PUSH1 0x80 PUSH1 0x40 MSTORE CALLVALUE DUP1 ISZERO PUSH1 0xE JUMPI PUSH0 DUP1 REVERT JUMPDEST POP PUSH1 0xF8 DUP1 PUSH2 0x1B PUSH0 CODECOPY PUSH0 RETURN INVALID PUSH1 0x80 PUSH1 0x40 MSTORE CALLVALUE DUP1 ISZERO PUSH1 0xE JUMPI PUSH0 DUP1 REVERT JUMPDEST POP PUSH1 0x4 CALLDATASIZE LT PUSH1 0x26 JUMPI PUSH0 CALLDATALOAD PUSH1 0xE0 SHR DUP1 PUSH4 0xE5910AE7 EQ PUSH1 0x2A JUMPI JUMPDEST PUSH0 DUP1 REVERT JUMPDEST PUSH1 0x40 PUSH1 0x4 DUP1 CALLDATASIZE SUB DUP2 ADD SWAP1 PUSH1 0x3C SWAP2 SWAP1 PUSH1 0x9C JUMP JUMPDEST PUSH1 0x42 JUMP JUMPDEST STOP JUMPDEST POP JUMP JUMPDEST PUSH0 DUP1 REVERT JUMPDEST PUSH0 PUSH20 0xFFFFFFFFFFFFFFFFFFFFFFFFFFFFFFFFFFFFFFFF DUP3 AND SWAP1 POP SWAP2 SWAP1 POP JUMP JUMPDEST PUSH0 PUSH1 0x70 DUP3 PUSH1 0x49 JUMP JUMPDEST SWAP1 POP SWAP2 SWAP1 POP JUMP JUMPDEST PUSH1 0x7E DUP2 PUSH1 0x68 JUMP JUMPDEST DUP2 EQ PUSH1 0x87 JUMPI PUSH0 DUP1 REVERT JUMPDEST POP JUMP JUMPDEST PUSH0 DUP2 CALLDATALOAD SWAP1 POP PUSH1 0x96 DUP2 PUSH1 0x77 JUMP JUMPDEST SWAP3 SWAP2 POP POP JUMP JUMPDEST PUSH0 PUSH1 0x20 DUP3 DUP5 SUB SLT ISZERO PUSH1 0xAE JUMPI PUSH1 0xAD PUSH1 0x45 JUMP JUMPDEST JUMPDEST PUSH0 PUSH1 0xB9 DUP5 DUP3 DUP6 ADD PUSH1 0x8A JUMP JUMPDEST SWAP2 POP POP SWAP3 SWAP2 POP POP JUMP INVALID LOG2 PUSH5 0x6970667358 0x22 SLT KECCAK256 MCOPY 0xE1 0xC4 0x4D 0xD0 0xE8 DUP12 PUSH10 0xA2F887AF52B422CC78D SWAP1 SSTORE PUSH3 0x1B3E19 CALLER 0xE4 PUSH3 0xC5E300 DUP15 EXTCODECOPY PUSH5 0x736F6C6343 STOP ADDMOD BYTE STOP CALLER "
		},
		"gasEstimates": {
			"creation": {
				"codeDepositCost": "49600",
				"executionCost": "97",
				"totalCost": "49697"
			},
			"external": {
				"incrementCounter(address)": "427"
			}
		},
		"methodIdentifiers": {
			"incrementCounter(address)": "e5910ae7"
		}
	},
	"abi": [
		{
			"inputs": [
				{
					"internalType": "address",
					"name": "_addr",
					"type": "address"
				}
			],
			"name": "incrementCounter",
			"outputs": [],
			"stateMutability": "nonpayable",
			"type": "function"
		}
	]
}